S0140000486153616D706C654C696768742E733337DD
S31508002000E82200200119020875F7010879F7010886
S31508002010A70A090100210008040303AC3057280069
S3150800202000000000000000000000000000000000A2
S315080020300000000000000000000000000000000092
S315080020400000000000000000FFFFFFFFFFFFFFFF8A
S31508002050FFFFFFFF00E0020800000000000000008C
S31508002060FFFFFFFFFFFFFFFFFFFFFFFFFFFFFFFF72
S31508002070FFFFFFFFFFFFFFFFFFFFFFFFFFFFFFFF62
S315080020800000000000000000EE2F0020EE2F0020C8
S31508002090E822002094730208EC1A02088819002026
S311080020A0200F00200000030800000000CC
S31508002100E82200200119020875F7010879F7010885
S3150800211081F701087DF7010885F7010878F90108B4
S3150800212078F9010878F9010878F9010878F90108B9
S3150800213089F7010878F9010878F90108E52C0008FB
S3150800214089B2010878F90108FF75000878F90108CD
S31508002150677C0008AB73000878F9010878F901086C
S31508002160CB660008053C000807360008A5210008CC
S3150800217078F901080F75000857750008AD4500087D
S3150800218078F9010878F9010878F9010878F9010859
S31508002190012100F01F029140304A400942F8201000
S315080021A07047000070B52E4C2E4D60782968490797
S315080021B026D5032824DAA18804EB4002918101215F
S315080021C0A27801FA00F01043A070274A207890B14F
S315080021D0002320FA03F6F60708D5994063704840AD
S315080021E0207014EB4300808A106009E05B1CDBB2A8
S315080021F0032BEEDB04E0106000F0BAF803206070F1
S315080022004FF6FF702860BFF35F8F70BD80B5144826
S31508002210002101700022032141700021C1700521AF
S31508002220018100218170001D0F490A604A604FF440
S3150800223000428A601022CA60486101208861032032
S31508002240C8600421074801644FF6FF7101600B203E
S31508002250FFF79EFFBDE8014000F0C8B800E100E0C6
S31508002260A025002010A8004004D00040334800688C
S31508002270C00701D4324870473248704780B5FFF727
S31508002280F5FF3149096801B9400802BD80B5FFF775
S31508002290EDFF400802BD00F018BC2C480121816002
S315080022A04EF6BE2141600121016070472849012090
S315080022B008607047A52805D124484DF6AD614160F0
S315080022C002210160704721480068C00701D5012036
S315080022D070470020704700F00701C00880021D4AB9
S315080022E0FFE7105801228A401040C840704780B561
S315080022F019491A4A1020086019491A48007858B12D
S3150800230003280CBF00200120106040F65100086029
S31508002310002000F0FAFD06E0022010604FF400608D
S31508002320086000F08BFB07210F480160002101645B
S3150800233010200E490860002002BD00001C40004025
S31508002340001BB70000366E012040004000600040C8
S315080023500860004008B0004080E100E00800004046
S315080023600C600040B42F002014A0004000E100E0FB
S3150800237070477047DFF8E83433F810001040C8405B
S31508002380704730B50FF29854DFF8D83434F8104057
S315080023909C601140DFF8C84434F81050954329432F
S315080023A0D96002221A6000221A6024F810105868B0
S315080023B00028FCD130BDDFF8B024DFF8B00412786D
S315080023C0DFF8AC140AB149780EE0895611F1090F05
S315080023D0B8BF302108DBC16D39B1C26D40F24A3150
S315080023E0B1FBF2F189B2C91E01607047E0B5DFF8AA
S315080023F0840401880A2300F064F8BDF806104FF635
S31508002400FF720D20FFF7BDFF07BDF8B50546B5F508
S31508002410004FDFF85C4419D1DFF85C040188022319
S3150800242000F04FF8BDF80000000AFF2814BF002886
S3150800243018206070BDF800000006C00E10281CBFEA
S31508002440001D00F09CF9BDF80000C543DFF81864CC
S31508002450707808B1002005E0A089ADB26840C007D1
S3150800246001D501207070DFF81404A58105F0010478
S31508002470016841F400410160C5F340070FF2C4400A
S3150800248000EB44004FF440524078010389B2022021
S31508002490FFF777FF204600F087FD4022B90100F0DC
S315080024A009FA2D06A80E00F0010038433070FFF730
S315080024B082FF707818B1FFF799FF0020707000202E
S315080024C0F2BD7F2200A800F0E5BD2DE9F04FDFF848
S315080024D0B443207887B0042304900C210B38C0B28B
S315080024E0039000A8039A00F093FE9DF800008DF86B
S315080024F00A009DF801008DF809009DF802008DF884
S3150800250008009DF803008DF80500DFF87C030078C5
S31508002510012806BF607880F00105012501F090F9D1
S3150800252082469DF902000399D54F0AF10A06AAF1D7
S315080025300A09B042B6BF81454FF001084FF00008BE
S3150800254001208840ADF806009DF80100000604D475
S315080025507888BDF80610084201D04FF0010801F04E
S3150800256005FA9DF8030000060AD4B888BDF80610D7
S31508002570084205D19DF90000B042B8BF814502DB8B
S315080025804FF0010901E04FF0000948EA050059EA51
S31508002590000000F0A480DFF8F4B2BD49DBF80000C3
S315080025A0400800F001008DF80400BA48006800F4FD
S315080025B0E06005904FF4E0600860002001F0C4FD7B
S315080025C000F0A8FBB44EADB1607858B1DBF8000056
S315080025D0AD4940084000CBF800000120087000F023
S315080025E079FC07E0306840F400503060306820F429
S315080025F080503060A4480078012810D161780D42D7
S3150800260008BF01F001FFDBF800009F4940F0010018
S31508002610CBF8000000200870642000F05BFC6078AE
S3150800262080F00100054203D00498C0B202F03FF8DA
S31508002630607838B1306820F480503060306840F4F3
S3150800264000503060BDF80600C543B8F1000F08D049
S3150800265002F018F98DF801008DF802A07888284054
S315080026607880B9F1000F08D002F0BDF98DF80300A3
S315080026708DF800A0B8882840B8809DF900009DF91B
S315080026800A10884202BF9DF801009DF80910884289
S315080026900BD19DF902009DF90810884202BF9DF8EA
S315080026A003009DF80510884206D00399042300AA62
S315080026B0C9B20C2000F0BDFD05987649086000F007
S315080026C0EFFD9DF8040001F03FFD02F0ACFA6078DA
S315080026D028B148F260703060642000F0FBFB9DF87A
S315080026E0010002F03BF89DF8030002F077F907B005
S315080026F0BDE8F08F80B501F096F8BDE80140E4E644
S3150800270001F091B870B50646A6F10B0401F08AFCF3
S315080027100546A6F10B00102801D38A2070BD5F4834
S315080027208168090702D40068C00701D58C2070BDEE
S31508002730544806705A4801680C290FD00FF27811D0
S31508002740584A92F90020A4B231F824105118C161F0
S31508002750FFF7BBFE012D08BF01F0F5FB002070BD99
S3150800276010B5044601F05FF82046BDE81040C9E7F9
S315080027704448007870473E4890F9000070472DE9B4
S31508002780F041044614F12B0F86B045DB4648018814
S315080027901423FFF796FEBDF810004FF6FF71884226
S315080027A003D0400448BF012606D43F22002110204A
S315080027B0FFF7E0FD0546002604F12B022F2A2C48D8
S315080027C03A491AD213220FF2301300E0521ED2B23F
S315080027D013F91270BC42F9DB03EB42040327647851
S315080027E00C60002413F81210017000208046AEB168
S315080027F0BDF810104FF6BF7229E0092C0CDA225CDE
S315080028000A60047014232A480188FFF75AFE012437
S315080028100320A0462827EAE78B201DE0C1024FF4D3
S31508002820605200F047F84FF4E062210200F042F8E7
S3150800283080224FEAC81100F03DF885F020003D18C7
S31508002840ADB2402DA8BF3F253F2285F0200100F0FC
S3150800285031F8FFF7B0FD002006B0BDE8F0810000B2
S315080028609C2B0020E8100040C12F00206410004077
S31508002870F8240020CA700208D67002081C1000400E
S31508002880AA2D0020F4240020562500208020004090
S3150800289080E100E000E100E0D01000406020004048
S315080028A0AC100040C02F0020C6700208C0100040BF
S315080028B0C87002080B2064E5AA21290055232900BF
S315080028C000252800AA26270055282700002A2600C2
S315080028D0AA2B2600552D2500002F2400AA302400F7
S315080028E05532230000342200AA352200553721002C
S315080028F000392000AA3A2000D500E601EC02EF03D1
S31508002900F204F405F506F707F808F909FA0AFB0BC5
S31508002910FC0DFD0FFE11FF1300160119021C031F03
S3150800292010001100200030004000410050006000F7
S31508002930700080009000A000B000C000D000E00049
S31508002940F000000000000103DFF838145120086089
S3150800295070472DE9F0410546FFF790FCDFF828148B
S31508002960B0FBF1F64FF4F070B0FBF6F71E2D3FB250
S3150800297001DBE81B04D5A8B2BDE8F04100F0AABA0D
S3150800298002F08CF9804602F08FF9DFF80014DFF8C0
S315080029900024012048700721DFF8F80300F041F809
S315080029A0E91B09B27143C91C8908491EDFF8E853B7
S315080029B0416000F0BDF8DFF8CC733C68386820F059
S315080029C04000386002F072F93C602E6002F072F93D
S315080029D002F078F94046BDE8F04102F075B938B51D
S315080029E00546FFF74BFCDFF8A013B0FBF1F44FF4F4
S315080029F0F070B0FBF4F02D1A1E2D04DA92210FF2B6
S31508002A00D83002F067F9DFF88C03DFF88423072152
S31508002A1000F007F805FB04F1C91C8908491E416046
S31508002A2031BD01600021416081604FF00071116085
S31508002A307047DFF8582301215170D0E7DFF85C03AF
S31508002A40006800B970472DE9F041DFF85453DFF804
S31508002A50546300242C6034604FF4A040706041F247
S31508002A609A084046FFF775FF6F68FFF70FFC0001ED
S31508002A7042F21071B0FBF1F000F5C870C01B00B24D
S31508002A804FF4487190FBF1F000B20828A8BF072060
S31508002A9004DA10F1080FB8BF6FF00700306040463F
S31508002AA0FFF757FF08274046FFF753FF68680419E2
S31508002AB07F1EF8D1FFF7EAFB211D4001C908B0FBCC
S31508002AC0F1F080B27060BDE8F081DFF8D0020068EE
S31508002AD000B9704738B5DFF8D05201206FF00F04FF
S31508002AE0A8602C608020FFF734FFE868FF2802D82A
S31508002AF0641C102CF5DB31BD70B5DFF8B002016837
S31508002B0041F0010101600121416002F0C7F8044665
S31508002B10DFF8845200F00CF85120DFF868120860DC
S31508002B202E6002F0C7F82046BDE8704002F0CCB827
S31508002B302E68286840084000286002F0BBB80020CC
S31508002B4070472DE9F041954C904D226840F2DC51D2
S31508002B50012A8846964E974F17DA0221B9803160C6
S31508002B60B16901F0030103295BD02168002903D567
S31508002B70B16941F00201B161FFF7E1FF5FEA0008C0
S31508002B801BD1206800284CD549E0B8884FF6FF7459
S31508002B90A0421DD18848018802237F22381D00F0F3
S31508002BA079FAB888A04204BF0220B880B0698007C5
S31508002BB003D4B06940F00200B0610120A870B8885B
S31508002BC030600FFA88F0FFF734FF4046BDE8F08121
S31508002BD0B3699B07EDD5AB780BB10846F6E7B16844
S31508002BE0B36811F0010103D10F2809D2401C06E091
S31508002BF09B0705D53B781BB1032801DB2018B88055
S31508002C00B88839700228BCBF0220B8803068B988F5
S31508002C108842D2D1B06900F00300032801D0FFF73B
S31508002C206BFF0020D2E72DE9F04780460024554D7A
S31508002C30594E02F033F8814602F036F84046FFF75F
S31508002C4080FF08B901240AE000F05DF8D5F800A075
S31508002C5000F0BCF8C5F800A0376002F02BF802F0C7
S31508002C6031F8484602F030F8002CE2D0BDE8F0878B
S31508002C700220D8E710B54748444C002141608160DE
S31508002C80016821F002010160002060704FF00070B9
S31508002C903F490860A07838B10020A0700620FFF7E9
S31508002CA04EFF00F02BF81CDBE078012814D14348CE
S31508002CB00121016042490968C90748BF03200FD4AA
S31508002CC00221E170016C41F00101016404203D49D3
S31508002CD008603D49086010BDE078042801D1052048
S31508002CE0E07010BD80B52948407800281CBFBDE8B3
S31508002CF00140FFF7BFBF00F05CFF01BD2748006831
S31508002D0001287047244E3768306840084000306014
S31508002D1001F0D0BF2DE9F8431C4C2179207881F0C9
S31508002D20010108422AD0FFF7E9FF1FDA40F2EB312A
S31508002D300FF2A40001F0CEFF18E001F0AFFF8046C5
S31508002D4001F0B2FFE07805280BD0FFF7DBFF0D4D49
S31508002D50D5F8009000F03AF8C5F80090376001F011
S31508002D60A9FF01F0AFFF404601F0AEFFE078052865
S31508002D70E3D10020A0700520FFF755FF0020207042
S31508002D80BDE8F1830080004090D00300CE2F0020DC
S31508002D9004ED00E010E000E094ED00E0306B02087E
S31508002DA0104000400C000040084000401C40004015
S31508002DB00440004042250020D870020818A00040B0
S31508002DC00C40004080E200E000E100E0286820F0C6
S31508002DD04000286001F06ABF636C6F636B732E63F3
S31508002DE00000000010B5664C002001F022FF40F6F6
S31508002DF08C2188422068B4BF40F0080020F0080003
S31508002E00206010BD10B504465E48018882B000F007
S31508002E105CF89DF800109DF80100FF2902BFFF2805
S31508002E200420002104B1801C574A1368C0B2082840
S31508002E30A8BF072023F4607343EAC010106008296E
S31508002E401068A8BF0721C00841EAC00010604F48B3
S31508002E50047013BD00B54E48018883B000F035F8FC
S31508002E60BDF800004FF6FF7188420EBF4FF4E160CF
S31508002E700A2190FBF1F0ADF800004448007808B349
S31508002E804048018802237F2201A800F003F99DF833
S31508002E900500BDF80030FF2808BF0420811CC9B210
S31508002EA00829A8BF0721C1F12F0202EBD272C0F18F
S31508002EB02F00521000FB0320C1F12F01B0FBF1F0E7
S31508002EC0ADF80000BDF800000EBD02237F2200A861
S31508002ED000F0E0B870B52F4C25680646FFF7D6F91E
S31508002EE02D49B0FBF1F070432F303021B0FBF1F0E3
S31508002EF0032809D3616D41F0010161652168491B09
S31508002F000903090B8142F9D370BD10B5040004D139
S31508002F1010BD4FF47A70FFF7DDFF2046441E80B2DD
S31508002F200028F6D110BD704738B50C4620B10128E7
S31508002F300FD0032820D021E0184D44B1FFF7A6F999
S31508002F401749B0FBF1F0401EB0F5005F0CD22860BF
S31508002F5012E04CB1FFF79AF9610801EB4000B0FBAB
S31508002F60F4F0B0F5003F01D3202032BD0D4900F042
S31508002F7001024A6040080860002032BD212032BDA7
S31508002F8000BC0040CC70020818000040C32F002087
S31508002F90CE7002083820004090D00300100004E0EC
S31508002FA020A1070068C80040F0B5044689B0002093
S31508002FB0FFF728FF264801880A237F2200A800F089
S31508002FC069F8BDF802004FF6FF75A84204D1DC2166
S31508002FD00FF2940001F07EFE0FF2A407002601E02E
S31508002FE02A4616B94FF47C4203E0022E08BF4EF279
S31508002FF03F0200A800F032F8761C052EF0D3012C0B
S3150800300003D114237F22134802E014237F22124897
S31508003010018803A800F03EF800260FF26C072A463E
S3150800302008E02A46012E08BF4FF6C07202D0082EC5
S3150800303008BF002203A800F011F8761C0A2EF0D368
S31508003040012C04BF0120FFF7DDFE09B0F0BD00002A
S31508003050CA700208C8700208C670020830F816104E
S31508003060F05DFFF78EB90000616E616C6F6775657C
S315080030702D63656C6C2D626961732E630000000018
S3150800308000100C0D0E000000010203040708090ACF
S315080030900B0F000030B5044610467F2808BF0020F5
S315080030A04BF23462914283B01AD108237F2240F64C
S315080030B0120100A8FFF7EEFF08220FF2C40100A8CC
S315080030C001F050FF30B908237F2240F2A27100A810
S315080030D0FFF7E0FF082200A9204601F0F9FE37BDF8
S315080030E01F4D294300FB03111A46204601F0F0FE46
S315080030F037BD2DE9F0440C4619490FF2780A41EA22
S315080031000006C007154602D5622100F02FF8E80729
S3150800311002D5632100F02AF81248864204D3A8197A
S31508003120401E1149884202D3642100F01FF8002787
S3150800313006E0B85DFF2802D06B2100F017F87F1C67
S31508003140AF42F6D36A082146304601F075FF28B12A
S315080031505046BDE8F044712101F0BCBDBDE8F084DD
S31508003160000004080008040800100408504601F08E
S31508003170B1BD00006D66672D746F6B656E2E6300BA
S31508003180FFFFFFFFFFFFFFFF30B50FF21011DFF85B
S31508003190FC500A6883B001A8002402600120287048
S315080031A0002001F08FFF30B1002001F08BFF10B135
S315080031B02C7049203EBDDFF8D800018802237F2203
S315080031C00DF1020000F024F802237F22002100A856
S315080031D000F01EF8204601A9BDF8022031F81010AB
S315080031E0914208BF0124401C0228F4D3BDF8000010
S315080031F024B1B0F57F7F07D100203EBDB0F57F7FB3
S315080032000CBF0620042000E00720002129703EBDDF
S3150800321010B5FF2908DCDFF87440247844B1BDE80E
S315080032201040C9B202F05CBABDE81040FFF732BFE1
S3150800323010BD2DE9F0410546FF2D0E461746984666
S315080032400FF2500013DCDFF844402178A1B1617811
S3150800325011B1C02101F03EFD01206070434632469F
S315080032603946E8B202F0A4FB0020607004E0BDE82D
S31508003270F041CB2101F02EBDBDE8F0810349097864
S31508003280002918BF02F09ABC70470000BC2F002026
S31508003290D2700208746F6B656E2E6300FE01FD0224
S315080032A010B5DFF868461020206301F0F7FCDFF858
S315080032B060160A6842F001020A6001F005FDDFF8AF
S315080032C0540600F108016160216092306168893115
S315080032D0616001212163E060A060DFF83C16E068C8
S315080032E08930E060022020634FF6FF70086010BD49
S315080032F0DFF8280645F26401C1601E2141625021AB
S315080033000162C821C1618165F021C16545F6900158
S315080033104166882181660621C16644F2066101601C
S315080033204FF6FF714160DFF8F805007838B1DFF82D
S31508003330F40548F2607101604FF4C1514160DFF84D
S31508003340E805016841F0040101600020DFF8DC159A
S31508003350487070472DE9F047044601F09FFCDFF8F6
S31508003360D0150A6C22F002020A6402220A6001F0F1
S31508003370ABFC8A21DFF89C0501FB040101F1080872
S3150800338008F1010127184A78097801EB0226DFF8C7
S31508003390A415097841700020B870B6B2B00603D5F6
S315080033A0DFF89455686E000640F18A80002106F021
S315080033B00700032862D106F4406006F44042B0F5DF
S315080033C0806F1CBFB2F5804F002A57D00423B0F592
S315080033D0006F08BF082303D0B0F5406F08BF0E235F
S315080033E070065CBF9B1CDBB2B2F5004F0CBF981C85
S315080033F003F108005FFA80F909F1010000EBD070CB
S31508003400C0054FEA106A002C14BF68682868504542
S3150800341034D3B2F5404F03EB080003D102F0CFFCDA
S31508003420014614E0407813F8081001EB002080B23A
S3150800343002F052FF0021FF2808D0DFF800251268A5
S3150800344032F810004FF4FE62104200D00121A9B1F3
S31508003450300713D4002C14BF686828680AF10102E3
S31508003460904206D2E868002C14BF022201221042BC
S31508003470F0D119F80800042818BF0021E86D0009E2
S3150800348000F001008142B8701AD00029A96C4FF4E7
S3150800349000604FF4806209D004B9104601420FD08B
S315080034A0686C40F001006864012008E004B9104621
S315080034B0014205D0686C4008400068640020B87076
S315080034C0BDE8F087DFF850040068C00703D4002180
S315080034D0002001F03BB870472DE9F84F0446DFF8A5
S315080034E034A4DFF854548A2000FB04A000F108062F
S315080034F0002C0CBF28686868C1B2052907DAFFF7EF
S31508003500E1FFDAF80400401CCAF8040079E040003C
S315080035105FFA80F808EB0600A0F108073878797892
S3150800352001EB00201FFA80FB9AF80100387002F0C0
S31508003530A2FF7870DFF8E073386C20F480503864A6
S31508003540686E14B97868400504D4012C22D17868CD
S3150800355000051FD5FFF7B6FFDFF8E403017889B148
S31508003560002101701BF4E45FDFF8D803016802D07C
S315080035700022402004E07078000900F001028F2044
S3150800358002F0FBFF002C0CBF4FF480604FF4006084
S31508003590786031E01BF4E45F2CD100F0D2FD10B165
S315080035A05FEA4B4026D53078802823DA386C717864
S315080035B0890604EB0A090ED5696E090610D4A96CAA
S315080035C0C9060DD43968002C0CBF80224FF48072CE
S315080035D00840104204D1FFF775FF002089F8020061
S315080035E0414699F80220304603F0AAF8002089F8E7
S315080035F0020001E0FFF766FF002C0CBF0120022045
S315080036002861BDE8F18F2DE9F84FC34CCA4E2068F2
S31508003610216CDFF82CA3DFF8FC82DFF82C9301EA93
S31508003620000534E040B14878C00605D4C5480168AD
S3150800363000228F2002F0A1FF280608D50FB9FFF750
S3150800364041FF03F002F8802025F080052060E80598
S3150800365009D50FB9FFF736FF02F0F7FF4FF4807070
S3150800366025F480752060680407D50FB9FFF72AFF8F
S315080036704FF4804025F480452060280407D50FB90B
S31508003680FFF720FF4FF4004025F400452060002D89
S3150800369000F094800027280706D50020FFF75AFE79
S315080036A0082025F008052060E80606D50120FFF762
S315080036B051FE102025F01005206005F060006028F6
S315080036C003D1B06CC0050AD401E0A80605D52020B0
S315080036D0206025F02005002006E0680606D5402073
S315080036E0206025F040050120FFF7F6FEE80413D513
S315080036F04FF48050206025F48055D9F800B0082092
S31508003700C9F80000D9F80400000548BF00F066F9BA
S315080037101FFA8BF0C9F80000E8078DD56D0801205F
S315080037206D00206000F03AFF08B3FEF7AFFD0746CC
S3150800373001F0B4FA3223854AB169B7FBF2F25A436B
S3150800374012012F323023B2FBF3F251188AB2726299
S31508003750090C31620221A160A16C41F00201A16449
S3150800376001F0B2FA0021032000F0F0FE012798F8D4
S315080037700000002806D000F05FFC012807D19AF85F
S31508003780000000283FF458AF7148007804287FF4F9
S3150800379053AFF068400800F001008A2101FB008160
S315080037A00831002814BF7268326812B92268D20438
S315080037B0F7D5002814BF7068306833E7002020600A
S315080037C0BDE8F18F634800687047F0B504460D46BA
S315080037D089B00021032001F0CFF904AE1BE00027D1
S315080037E001F0E5F926F8170001F0E1F900A921F83A
S315080037F017007F1C082FF3DB04A803F033F9002019
S315080038002080218836F810205140401C0828218045
S31508003810F7DB6D1EA41CEDB2002DE0D101F003FA12
S31508003820012009B0F0BD0321022001F0A5B94FF629
S31508003830FF71081A292190FBF1F03A3040B270471F
S3150800384038B501F0B4F9FFF7F2FF434D044628787E
S31508003850B0B90321032001F08FF9404801880223FB
S315080038607F2200A8FFF716FC01F0A1F9BDF80010A9
S31508003870401880B2FFF7DBFF153868700120287002
S3150800388001F0D1F96878201A40B232BD80B503211B
S31508003890022001F071F9BDE80140D1E770B5304862
S315080038A00078002490B9FFF7F1FF204E054670789E
S315080038B048B13078401B40B203F0DDF80B2805DB31
S315080038C03570012402E0012035707070204670BD05
S315080038D024480078704723490A78904200D17047F7
S315080038E080B5087040B12049002008600848016882
S315080038F021F08001016001BD00F05AFC00F030FCA7
S3150800390000F0E8FBBDE8024000F0CCBB0020004018
S3150800391084200040442C002000A000404C100040A9
S31508003920F5240020D010004080200040D52F00202C
S3150800393008A00040F4240020202000406023002036
S31508003940902D0020982D0020B820004090D003002C
S315080039505525002038200040D32F0020D0700208BB
S3150800396056250020D72F00205410004010B50D48CA
S31508003970018884B00A237F2200A8FFF78BFBBDF8D5
S3150800398000004FF6FF74A04204D14E210FF2180032
S3150800399001F0A0F9BDF8001022460020FEF7F1FC60
S315080039A01FBD0000CA700208616E616C6F6775659D
S315080039B02D66696C7465722E63000000DFF8F807DF
S315080039C0007848B1DFF8F4070179012904BF407986
S315080039D0042801D10120704700207047DFF8E0076E
S315080039E0016821F480510160DFF8D807017881B1B8
S315080039F000210170DFF8D0170A68520852000A60E1
S31508003A000A6842F001020A6000228168402002F03A
S31508003A10B4BD70470FF648014008405C7047010680
S31508003A2003D54FF67F710840C0007047491C8001D6
S31508003A3089B2B0FBF1F080B2FF288CBF0020C0F13C
S31508003A40FF00C0B2704738B5DFF87807C17809B10A
S31508003A50002032BDDFF87847617871B1E1780079E6
S31508003A6045182079ADB2854228BF054603F01CF8F3
S31508003A700121A940491E084000E000206179081884
S31508003A80C0B232BD2DE9F0470446C00705D54FF44C
S31508003A90BE710FF2BC7001F01DF9DFF83857286DBA
S31508003AA0C00748BF8C2000F18280DFF81807DFF8CE
S31508003AB0207700210170417829B9397819B1A96FA1
S31508003AC041F0010102E0A96F49084900A967DFF83A
S31508003AD0EC867A7898F80610DFF8FC96DFF8FC662C
S31508003AE092B1002202710129286D40F00400286570
S31508003AF006D14FF6FF7030604FF40070C9F8000029
S31508003B00FFF7A1FF82460CE0286D20F0040001298A
S31508003B1028654FF0000A04D100F052FA6420FFF736
S31508003B20D9F9A86F20F00800A8671420E864C5F83A
S31508003B3048A0787838B198F80600002801BFA86C24
S31508003B4000280120A864B8790028286D14BF40F021
S31508003B50080020F008002865FFF730FF18B1306C20
S31508003B6040F008003064202028626C602C604FF416
S31508003B70E06468687F30686004202862DFF86006C1
S31508003B80046006E002F0A0FF18B102F0A5FF01F0FC
S31508003B9085F8DFF85006006800F003000328F1D026
S31508003BA0C9F80040286D40F0010028650020BDE8EE
S31508003BB0F087DFF83406002141608160016821F052
S31508003BC0020101604FF00070DFF82016086001203E
S31508003BD0DFF81C1608707047A0F13301DFF81426C9
S31508003BE0914200D3704710B5DFF8044600212170D2
S31508003BF0FEF7F5FE02E0012002F07CFF207800289F
S31508003C00F9D010BD2DE9F84FDFF8EC65DFF8B455AB
S31508003C107068716CDFF8BC7508401FFA80F8C6F842
S31508003C2004806878002840F0DD805FEAC870DFF815
S31508003C30CC45DFF89C9553D5D7F800A0386C796C3D
S31508003C4041EA004199F80000A960002844D09AF892
S31508003C500100800640D5012028704FF4805030605E
S31508003C60306C40F480503064FFF7A8FEC0B31920CA
S31508003C70FFF730F94FF44040DFF884B5CBF8280059
S31508003C80DBF800000090E06E40F40050E066E06E5D
S31508003C9040F48050E0669AF80010A8684901B831E7
S31508003CA001EB000AFFF78EFDAAEB00000003000BEC
S31508003CB0FFF792FFE06E80098001E06600A9E06EDA
S31508003CC009880843E0660020CBF8280048F26070AF
S31508003CD0E066E888206003E00022002002F04DFC40
S31508003CE05FEA08600CD5287830B1002028700022D9
S31508003CF0A968402002F041FC306C20F48050306402
S31508003D005FEA486008D5687830B9FFF75BFD014679
S31508003D100022892002F031FC5FEAC86054D5DFF83A
S31508003D209CA4DFF8B4B49AF80400012804BF9AF8F2
S31508003D30061001291FD100F067FB386F40F001001B
S31508003D40386700208AF80600FFF7AAFA0A20FFF764
S31508003D50C1F84FF6FF7070604FF000084FF4E0604E
S31508003D60CBF800000920B8660120B864B86F40F0A7
S31508003D700800B86718E0297999F80220491C2971C2
S31508003D80C9B2914215D2012808BF00F0DCF8B86F15
S31508003D9020F00800B8671420B866FFF754FEB86428
S31508003DA04FF40070CBF80000386D40F0010038651C
S31508003DB00AE0012808BF00F0C6F8FFF703FD014630
S31508003DC000228D2002F0D9FB5FEA08700AD5FFF7BA
S31508003DD0F5FD38B12068E88001202060706C20F07D
S31508003DE0080070645FEA88600AD52020386268781F
S31508003DF030B9FFF7E7FC01460022882002F0BDFB38
S31508003E00687820B118F4407F04BF0120A870BDE887
S31508003E10F18FDFF8AC130028086814BF40F440405F
S31508003E2020F440400860704770B582B00546FEF73A
S31508003E3067FCDFF8D803DFF89043002101601521FD
S31508003E40E160092101651F21416001210166DFF852
S31508003E50B8030088FEF7D9FAFFF74AFA03F086F99D
S31508003E6000F03BF9DFF85463308900F060F9708997
S31508003E7000F062F900F012FF616841F040016160EC
S31508003E8000F022FF707800F0F9F8B07800F00AF92F
S31508003E90DFF87C03007800F037F9DFF8780390F94B
S31508003EA00000FEF76CFC307800F04EF996F9030036
S31508003EB000F056F9DFF8600300F074F9BDF8000069
S31508003EC0DFF85813C0054CBF0020BDF80000087085
S31508003ED0DFF84C030078FEF715FC28B10FF27030B6
S31508003EE04FF4707100F0F6FE012D05D12068C00769
S31508003EF011D500F028F80EE06DB92068C0070AD47D
S31508003F0000F082FA206840F001002060C820FEF721
S31508003F10E1FF0020B071F120DFF8C052286440F2BA
S31508003F20F910E86300F03AFBFFF773FFFFF7B8F9FB
S31508003F302068C00704D54FF6FF70286000F06DF8BA
S31508003F40FEF7E8FE73BD70B5DFF8D852DFF86C42AD
S31508003F502E68A079012832D000F0A0FE48F2D001E0
S31508003F6029606A68520509D548F222022A606A68F9
S31508003F70D205F5D529606A685207F1D4B6B2DFF8DA
S31508003F8060222E604FF4E0611160DFF878120A6A49
S31508003F90520852000A620A68520852000A600A6801
S31508003FA042F002020A604A6A42F001024A620121AC
S31508003FB0A17100F089FEBDE8704000F0DDB970BD62
S31508003FC070B57E4CA07938B300F01EFA00F066FE94
S31508003FD00546DFF854127D4E01200860306D40F02A
S31508003FE0010030650020A071FFF75AF920203060E3
S31508003FF0306B40F002003063F06D40F00800F06569
S31508004000284600F061FE0A20FEF764FF73494FF662
S31508004010FF70086000F001F870BD4FF4E0606E496B
S3150800402008607047654880797047644800790128B8
S3150800403008BFFFF788BF704760480079704780B5AA
S31508004040022801DB012002BD5C4908718979884292
S3150800405005D010B9FFF7B4FF01E0FFF774FF0020A1
S3150800406002BD72480068800200149A3801B211F144
S31508004070800FB8BF6FF07F0040B2704710B5044696
S3150800408000F00CFE6A490A68002C04D042F01202BD
S315080040900A60012103E022F012020A600021474A61
S315080040A0517040E038B5044600F0F8FD0546FFF7C4
S315080040B00FFC40B95E480168002C14BF41F080012E
S315080040C021F0800101603D4884702846BDE83240F1
S315080040D000F0FABD39488078704756494A780B7817
S315080040E0554803EB022202608B78CA7803EB02225A
S315080040F042600B794A7903EB02228260CA79897990
S3150800410001EB0221C160704710B5044600F0C6FDF8
S3150800411047490A68002C14BF42F0200222F0200208
S315080041200A603B490C70BDE8104000F0CDBD23493C
S31508004130088142490860704720494881404908601B
S3150800414070474048007870471F490A68002814BF1E
S3150800415042F0020222F002020A601849087070470B
S3150800416038B504467F2C0AD1374800F01BF8BDF84D
S315080041700000C00554BFBDF800406FF04A0400F0C7
S315080041808DFD0546FFF7A4FB30B964B204F19A0029
S3150800419080052E49000C08600848C470284600F0BF
S315080041A093FD31BD018802237F2200A8FEF772BF66
S315080041B0024890F903007047DC2F002050250020A4
S315080041C040A00040902D0020802000403020004074
S315080041D0302500201020004000E100E004A0004047
S315080041E080E100E0A820004010E000E004ED00E0D7
S315080041F0DD2F0020CDFF070000A00040641000401E
S31508004200E410004060200040042500205C100040B7
S31508004210DB2F0020F8240020DA700208C02F0020C7
S31508004220F42400201C100040281000400C10004008
S3150800423084200040042C0020982000409420004050
S31508004240902000404E250020DE70020854100040E1
S315080042507068792D636F6D6D6F6E2E6300000000B8
S31508004260FEF7C80138B50120FEF76BFC0020FEF703
S31508004270C9FDDFF88443206840F008002060FEF797
S315080042800CF8FEF7AFFD00F020F88D78DFF86C33F8
S31508004290DD608D890560CD89456000F021F82068CC
S315080042A020F010002060FDF7B1FF03F07DF803F061
S315080042B0DDF8FEF7DDFCFDF7EEFFBDE83140FEF761
S315080042C016B840F2016003F079B9DFF83413DFF865
S315080042D034030A78C2604B78DFF82C23D360704722
S315080042E0088A1060488A5060888A1860C88A5860A8
S315080042F042E0F0B50B68DFF814430F2564689600B2
S3150800430005FA06F6344215D0002606EB820724FA8B
S3150800431007F7FF070BD5B70005FA07FC23EA0C03D6
S3150800432030F812C005FA07F707EA0C073B43761C74
S31508004330042EEADB0B60F0BDF0B50B68DFF8CC4263
S31508004340FF256468D600B5402C4213D00025012607
S3150800435005EBC20724FA07F7FF0708D506FA05F79B
S31508004360BB43175C06FA05FC0CEA07073B436D1CC2
S31508004370082DEDDB0B60F0BD10B50021002000F024
S31508004380E5F8DFF88802C17801F0FD01C170C907B8
S3150800439004D5DFF87C224FF40041116040680028FC
S315080043A02ED000F073F8201DFFF7C6FF0122DFF8B4
S315080043B06412201DFFF7C0FF0222DFF85C12201DE1
S315080043C0FFF7BAFF0022DFF83C1200F01AF80122C4
S315080043D0DFF8481200F015F80222DFF82C1200F078
S315080043E010F80322DFF8381200F00BF80422DFF881
S315080043F00C1200F006F804F11800BDE8104049E078
S3150800440010BD04F1180074E738B5DFF80042E0780B
S3150800441040F00200E070C00709D5DFF8F4014FF458
S315080044200045056000F0C2F8DFF8F801056060682D
S31508004430002827D000F02AF82046FFF77DFF012242
S3150800444074492046FFF778FF022273492046FFF792
S3150800445073FF00226B4900F016F801226F4900F03D
S3150800446012F80222684900F00EF803226C4900F09F
S315080044700AF80422614900F006F804F10C00BDE8C8
S31508004480384007E031BD04F10C0032E75C4C664960
S3150800449000227047052265492BE70320FEF7EEBE8A
S315080044A080B503F094F90FF28C1109E080B503F09A
S315080044B092F90FF2AC110204120E51F82210C0B292
S315080044C001EB800002BD10B5504C6078A17800F071
S315080044D0010001F00101084317D0E06848B1A0784F
S315080044E0000706D5E16808208847A07800F0F7009D
S315080044F0A070A06848B16078000706D5A1680820B2
S315080045008847607800F0F7006070BDE810405BE00F
S315080045102DE9F04100F03DF83C4F80463878A0B1CF
S315080045205CB9787800281CBFB868002805D0787868
S31508004530400602D5B96840208847BD607878A04211
S315080045401CBF7C70FFF7BFFF00261CE02DE9F04179
S3150800455000F01FF82D4F80463878A0B15CB9B878BE
S3150800456000281CBFF868002805D0B878400602D590
S31508004570F96840208847FD60B878A0421CBFBC7027
S31508004580FFF7A1FF0026404600F09EFB3046BDE837
S31508004590F08104460D46012600F080BB1B480078D2
S315080045A070471A48C07800F001007047174920483C
S315080045B0C978C90705D54FF40041C16008210160D3
S315080045C002E008210160704780B510480178C0787C
S315080045D0C0070BD50620FDF77EFE00B1012008496D
S315080045E0097AC0B2884208BF012000D00020BDE881
S315080045F00240FFF770B9000000BC004000B8004058
S315080046003024002000B0004000B400409427002069
S3150800461080E100E00CB400400CB8004004B0004053
S3150800462004B4004000E100E00CB0004004B80040CB
S3150800463014A80040554E4B004649420042544C00CF
S3150800464045585400505752005744470020535700C6
S31508004650435253004653480042414400464C5400D6
S31508004660346B0208386B0208906B0208B06B0208BC
S31508004670B86B0208C46B0208D06B0208DC6B020830
S31508004680E46B0208F06B0208006C02082A490A6803
S31508004690920992010A600A68104308604FF40041C3
S315080046A026480160002101606420FEF713BC2DE94D
S315080046B0F047234D204FD5F80090224C80462868B5
S315080046C040F400402860386820F48050386020782C
S315080046D068B162781C48A17800EB820200EB88007A
S315080046E012F82A2C10F82A0C891A461802E001201A
S315080046F020262070B0B2FFF7C9FF0FF2500A02E079
S31508004700B0B2FFF7C3FF386B042805D0386B4007F3
S3150800471054BF761E761CF3E7F86A38B184F8018030
S31508004720A6701FFA89F02860BDE8F08740F22111CB
S31508004730504600F0CFFAE6E7D010004018100040C7
S315080047401C100040D82F0020B8280008616E616C44
S315080047506F6775652D76636F2E63000081014FF4D0
S31508004760FE5289B20C20FDF70CBE2DE9F84F8F4C8E
S31508004770A56820680127ADB200264FF00A08B94699
S315080047801FFA80FA00F04FFAB0202063DFF820B253
S3150800479008E016F1190FB8BF4FF00A08464436B2BA
S315080047A07019A060DBF80000000702D559EA070077
S315080047B028D00120FEF78EFBB9F1000F11D0AAF11F
S315080047C00300874202DAF81C87B213E00AF50040B4
S315080047D0206057460621092000F0CEF94FF000095F
S315080047E00BE0DBF80000000707D5042FA6BFF81E6C
S315080047F087B2002707F5004020601A2EC9DB6FF044
S315080048000908CBE7A560C4F800A00820CBF800008B
S315080048106848006880B2BDE8F28F80B5624B664989
S315080048201B784FF0FF326BB1002819BF4A60634806
S31508004830486041F211100860614841880088BDE867
S31508004840044092E7002819BF4A600A604860086079
S3150800485000F0E9F9BDE804400621092000F0DDB9B9
S3150800486038B50120FFF7D9FF04460020FFF7D5FF2A
S3150800487005460120FFF7D1FF4042001B00EB45002B
S3150800488000B232BD2DE9FE4F4E4CDFF83C81A06ADE
S31508004890454EADF802002568D8F800B0307860B10A
S315080048A04FF6FF7200210820FDF764FDADF8000001
S315080048B0C022C0210820FDF764FD4448DFF81091A6
S315080048C0007818B148F26070C9F80000708840F4A2
S315080048D0404040F04C00C9F83C000220A06201208C
S315080048E0206040F24C40FEF7F5FA0120C8F80C00AB
S315080048F0C8F800000020324F388040207880307891
S3150800490000B12020FFF72AFFFFF7AAFF82464020C2
S3150800491038807F207880FFF721FFFFF7A1FF0290FC
S31508004920504602F0A8F8FE2101FB00F70298AAEB10
S3150800493000000190307860B1029802F09CF8824637
S31508004940019802F098F880B207EB8A11B1FBF0F0F3
S3150800495005E0019802F08FF880B2B7FBF0F080B25C
S31508004960401CC7031FFA8BF0C8F80000ADB2002040
S31508004970C8F80C00022020602560BDF80200A0627D
S315080049800020C9F83C00307830B1BDF800104FF669
S31508004990FF720820FDF7F5FC40F24C40FEF79AFA44
S315080049A0380CBDE8FE8F00004A250020C0100040E4
S315080049B018A000400070004038100040EEEEFFFFDF
S315080049C0182F00206020004028100040F524002001
S315080049D0D010004041003F2289B201E001463F2243
S315080049E00220FDF7CEBC2DE9F04F564C564D95B03A
S315080049F0E06CADF810004FF6FF782068ADF80E00B1
S31508004A004246E86AADF80C0000210120FDF7B2FC29
S31508004A10ADF80A00424600210B20FDF7ABFCADF8C5
S31508004A2008004FF40040206000202861686148F2C1
S31508004A30020000F08BF84CF68C30E0644FF480529C
S31508004A4048F2F000E86211460120FDF79AFC42465A
S31508004A5000210B20FDF795FC0621062000F0DDF865
S31508004A60019000F085F800904CF69C30E064002038
S31508004A70FFF7B0FF0621084600F07EF800260DF184
S31508004A80140BB0B2FFF7A6FF0621062000F074F853
S31508004A9000F08DF82BF81600761C202EF1DB00F0BE
S31508004AA086F81020FFF796FF00F062F80099019A41
S31508004AB0401ABBF82010891A404301FB01094FF040
S31508004AC0100A112700F04EF800F052F800F043F8EB
S31508004AD006DB81461FFA87FA781C07B2202FF1DB1E
S31508004AE0BAF1100F0ED10F2700F03CF800F040F88D
S31508004AF000F031F806DB81461FFA87FA781E07B2FE
S31508004B00002FF1D5BDF81000E0644246BDF80E004E
S31508004B102060BDF80C00E8620120BDF80A10FDF718
S31508004B2030FCBDF8081042460B20FDF72AFC012090
S31508004B302861002000F00AF84FEA4A00C0B215B012
S31508004B40BDE8F08FC010004018100040286040F201
S31508004B504C40FEF7BFB90099401A404306FB0600D1
S31508004B60484570473BF817000199461AB8B231E72D
S31508004B700621072000F051B870B505460E4600F02C
S31508004B8093F83F4C206C20F00800206400F09AF857
S31508004B9000F084F8310341EAC5113A4A41F00101AF
S31508004BA0116008212160BDE8704000F08DB82DE93C
S31508004BB0F041354C354D324E25E000F075F8344954
S31508004BC004200860306C40F0080030642F682868BC
S31508004BD040084000286000F06DF8D4F8008020688E
S31508004BE020F04000206000F061F8C4F800802F60D3
S31508004BF000F060F8306C274920F008003064042083
S31508004C00086000F05FF830680007D6D508203060E5
S31508004C102148006880B2BDE8F08180B5FFF7ACFF97
S31508004C20BDE80140C3E71748016849084900016023
S31508004C307047F8B50746FEF70DF9044639460320CE
S31508004C40FFF7EBFF054639460120FFF7E6FF064664
S31508004C50FDF78FFB39460020FFF7DFFF0746FDF714
S31508004C6087FB08480168490849000160781B000469
S31508004C70711BB0FBF1F060434000000CF2BD000070
S31508004C8018A00040047000400080004094ED00E049
S31508004C9000E100E080E200E000700040EFF31180E0
S31508004CA0602181F31188704772B6704700BF30BF24
S31508004CB000BF7047BFF35F8FBFF34F8FBFF36F8F90
S31508004CC07047704762B6704780F3118870470000D6
S31508004CD042DE704738B504460D46FDF7E7FAFFF79A
S31508004CE0DDFF2946204602F08AFD2B4622460FF2B2
S31508004CF0CC11012002F09BFE29462046BDE834402F
S31508004D00E6E72DE9F84F6548654D01682E1D4FF415
S31508004D10206A7165016AB16562490968F165416A87
S31508004D203166816A7166C16AB166016BF166806B2C
S31508004D30306796F8340040074CBFF76BB76BBB4635
S31508004D4002F0DBFC0022584CDFF86081DFF8609146
S31508004D50F2648742014624BFA4F12003BB423165B1
S31508004D601DD357F8180F306457F8040F7064706D28
S31508004D70C005C00D062815D1306C484512D34045EC
S31508004D8010D200884DF6426290420BD105F18C0094
S31508004D906A68426040F2017A7268826002E03264B0
S31508004DA0726483464348814202D2014600E0091DE7
S31508004DB0A14203D20B68B3F1CD3FF8D0601AB064B4
S31508004DC0182105F1780002F073FE002003E0C0B256
S31508004DD005EB80029167A34523D254F8041D494583
S31508004DE0F9D34145F7D2CA07F5D5002205EB820368
S31508004DF09B6F8B4203D0521CD2B2062AF6DB062AD8
S31508004E00E9D1002814BF401E0520E0E7716F002293
S31508004E1005EB8203521CDF6F9F67052AF8DBC5F88E
S31508004E208C100146481EC9B20029EFD1706DC00525
S31508004E30C00D02280AD0032815D0042816D0052844
S31508004E4017D0062818D00C281CD01EE01A4801686E
S31508004E50890748BF40F6021A1CD40068C00719D54E
S31508004E6040F2025A16E040F6012A13E040F6022AFA
S31508004E7010E040F6032A0DE0BAF5206F0AD140F695
S31508004E80042A07E040F6052A04E018B1242838BFAA
S31508004E9040F6072A5046BDE8F28F000004ED00E010
S31508004EA00000002000E300E0E8220020EC1A0208D7
S31508004EB090210008980000201CA000400D0A5B41C4
S31508004EC053534552543A25703A25645D0D0A00003D
S31508004ED0814233D210185118401E491E10E011F8AD
S31508004EE0013900F80139121F11F8013900F80139A2
S31508004EF011F8013900F8013911F8013900F80139BA
S31508004F0092B2042AEBDA92B2002A1EBF11F80139CE
S31508004F1000F80139521EF6D1704711F8013B00F826
S31508004F20013B121F11F8013B00F8013B11F8013B48
S31508004F3000F8013B11F8013B00F8013B92B2042A44
S31508004F40EBDA92B2002A1EBF11F8013B00F8013BCA
S31508004F50521EF6D17047130003D00A46194602F0CE
S31508004F60ABBD704710B500E0521E92B222B100F0F8
S31508004F7012F8F9D0181B10BD002010BD10B500E0BE
S31508004F80521E92B22AB100F006F8F9D0181B40B2A8
S31508004F9010BD002010BD10F8013B11F8014BA342CB
S31508004FA0704700004148018A40F6A772914202BF45
S31508004FB0408A4FF47F41084203D1022801DB0120D1
S31508004FC07047002070472DE9F84F82468846FFF75C
S31508004FD065FE374D2F68044628684008400028605B
S31508004FE0FFF768FE0120DFF8C0B08BF80000FFF776
S31508004FF0D9FF20B9FE210FF2BC00FFF76BFE2B4844
S31508005000D0F8289041464AF48070C84706462F6073
S31508005010FFF750FE2046FFF757FE00208BF80000EA
S315080050200FF298040EB1305D04E041464AF4007070
S31508005030C847005DBDE8F28F2DE9F84F80468946DE
S315080050404FEA420AFFF72AFE194E376805463068C6
S31508005050400840003060FFF72DFEFFF7A3FF28B990
S3150800506040F241110FF24C00FFF734FE0F48D0F81A
S3150800507024B00023524649464046D847044637607E
S31508005080FFF718FE2846FFF71FFE0FF230050CB192
S31508005090605D05E05346002249464046D847405DD4
S315080050A0BDE8F28F00000000CD2F002000000408A4
S315080050B094ED00E0666C6173682E630000020202DC
S315080050C04B4B46472DE9F04F89B0804624252422CC
S315080050D0FF2100A8FFF73FFFDFF8ACA09E22FF21C3
S315080050E05046FFF738FF0027284CDFF8A490294ED2
S315080050F0B85D17F809B0395D401C00EBD070401058
S3150800510001B11930401C00FB0BF2234830F8171088
S315080051100FF2880092B202F002FDBBF1010F1CBF2C
S315080051202AF817505D447F1C242FE1DB0FF2880014
S31508005130242340F21C4240F2712102F0F0FC0FF2E7
S31508005140A8054FF4E04000F00DF918B1CA21284629
S31508005150FFF7C0FD4FF4804000F004F918B1CC21E8
S315080051602846FFF7B7FD4FF4805000F0FBF818B15A
S31508005170CE212846FFF7AEFD00A9404600F01FF9EC
S3150800518009B0BDE8F08F0000442A0020F06C020840
S31508005190386D0208146D0208A86C0208437265612E
S315080051A0746F723A2030782532582C20576F726403
S315080051B0733A2025640A000053696D4545206461E9
S315080051C074613A20256420776F726473206F6620B5
S315080051D02564206D61782C20746F6B656E436F753E
S315080051E06E743A2025640A0073696D2D65657072C0
S315080051F06F6D2E630000000010B5DFF8B44ADFF8C3
S31508005200B43A2488001B06E010B5DFF8AC4ADFF88C
S31508005210A43A24681B1B03EB4000002304E030F883
S31508005220134021F813405B1C9342F8DB002010BDA5
S315080052302DE9F04182B004460D4616460027DFF8F0
S31508005240748A01E0B81CC7B2B74217DA7819795DD3
S315080052504078DFF85C3A1B8801EB0020ADF80000C7
S31508005260012207EBD77004EB6000C01A00F09BFB25
S315080052700028E7D002F072FC002000E00120BDE81B
S31508005280F681F8B504460E46154600270DE000F0EF
S3150800529019F8BDF8000004EB4701000A4870761CAF
S315080052A0BDF8000004F817007F1CB7EB550FEEDBBE
S315080052B0E80706D500F006F8BDF80000291901F838
S315080052C0010CF1BD012200A9B0B295E7DFF8E0298B
S315080052D0DFF8E0191288801A01EB40010220FFF777
S315080052E072BEDFF8D819DFF8D829415C825CDFF88E
S315080052F0D439C05C10B102F5997292B241EAC21073
S3150800530080B2704710B5DFF8C039DFF8B04903EB53
S315080053104002005D012801D1104610BD108808180A
S3150800532003EB400010BD38B50C46DFF8A0190D7820
S315080053302A462146FFF760FF208800281CBF4FF643
S31508005340FF7188420AD0012000E0401CC0B2A84282
S3150800535006D234F8101022889142F6D0002032BDC9
S31508005360012032BDF0B5DFF8501987B008600C226D
S3150800537000A90020FFF748FF00A90025C88A8A89E6
S315080053800346040A01204FF6FF7631F81570BDF87A
S3150800539000C0BC4503D1B74218BF002F00D100207A
S315080053A06D1C062DF1DBB21A944518BF0020DBB23E
S315080053B0C4F1FF018B4218BF002007B0F0BD2DE9EC
S315080053C0F24F0446DFF808690020307070809CB000
S315080053D0DFF800090088ADF8020007A9FFF7A3FF68
S315080053E083460120707009A9DFF8EC080588DFF804
S315080053F0EC08B0F80080DFF8B808BDF802A0078806
S315080054003846FFF790FFB8B1BBF1000F3CD0BDF8A6
S315080054101C10BDF824004FF6FE72914202D10128F5
S3150800542004D10CE0012908BF90422DD00846BDF8EA
S315080054302410884228D202E0BBF1000F23D00020B6
S315080054407070029750460695CDF810800122DFF855
S315080054507C1891F800804044ADF8060000A9BDF814
S315080054600600FFF7C9FEDFF87808008805904FF6B2
S31508005470FF79BDF80000000B404518BF0F2800D182
S315080054800CB3002516E0012470780028D9D03846D8
S31508005490CDF808A0CDF818800495D7E7059805FB40
S315080054A000F4E01900F02AFCBDF80200201800F00C
S315080054B025FC6D1C4545F1DB012030704D2002F0BE
S315080054C04DFB0025FEE0BDF80650012201A928463D
S315080054D0FFF792FEBDF80400C043C0B2ADF8040061
S315080054E06F1CDFF800080588BDF80400A84218BF3D
S315080054F001244FF0000A20E0401CC1B2A94218D28C
S31508005500C0B2DFF8E417BDF80E20834631F81B1049
S315080055109142F1D1FFF7E5FE4FF680710840BDF8DC
S315080055200C104FF680721140884204BF1C980BF885
S3150800553000A00AF101001FFA80FABDF804008245AE
S3150800554007DA022203A9B8B2FFF756FEBF1C0020ED
S31508005550D3E7002001E0401C80B2A84217DA1C9964
S31508005560415C8142F7D0012411E02AF81070BDF899
S31508005570060000EB4300401C00F0D5FABDF8020017
S31508005580C0F3C710401C00EBD07007EB6007049807
S31508005590DFF834A7BFB2874211DA012200A93846DC
S315080055A0FFF72AFEBDF80000484508D0030A00F0B8
S315080055B07F01BDF804007F1C834202DB012400251D
S315080055C02FE0002001E0401C80B2A842CFDA1C9AE6
S315080055D0825C9A42F7D1C0B2FF28C8D0DFF8DC2631
S315080055E0825C7F290CBF4FF0000C8C4694450BDA81
S315080055F0BDF800C0DFF8CCE610F80EE04FEA0C6CF8
S315080056004FEADC7CF44501D00124B0E7012AACD08E
S315080056107F293AF8100008BF00210818A5E76D1C75
S31508005620ADB2DFF8C8060088854204DA3AF81500F4
S315080056304845F4D1012477800498BDB285420ADA38
S31508005640012200A92846FFF7D7FDBDF800006F1C08
S315080056504845F1D032E7002CFCD1029801220BA96B
S3150800566080B2FFF7C9FDBDF82C0048450DD105E00D
S31508005670401C80B2202813DB2034A4B20699029A73
S31508005680891A8C4205DB0120307000201DB0BDE868
S31508005690F08FA51820220BA9A8B2FFF7ADFD0020B0
S315080056A00BA931F810104945E2D0A8B2FFF70EFE53
S315080056B0203CA4B2E0E70298059905FB010000F03A
S315080056C01DFB6D1C4545F6DB01203070494600F090
S315080056D042F818B100F02CF90028D6D10120D5E7F8
S315080056E02DE9F0420F46DFF8FC15DFF8D455098896
S315080056F08F420446164699460CD2DFF8C015795CE7
S3150800570030467F2808BF0020884203DA785D814545
S3150800571000D11CB940F2D64100F001FA31463846AC
S31508005720FFF7F0FD0188DFF89C05385C60B1384664
S3150800573000F02AFA795D012908BF207009D00229EC
S3150800574014BF2060208004E04A462046BDE8F042A7
S3150800575097E5BDE8F0822DE9F34FDFF85405DFF849
S315080057606C150488DFF868050978407883B0002846
S315080057701ABFDFF86005008820460D18DFF86405B3
S315080057800088ADF80800ADB2C043C0B200EB0130E6
S3150800579000F55060ADF802002B1BDFF8180500F085
S315080057A0C8F96E1C0028B6B238D10025DFF838755E
S315080057B014E0E8B2FFF795FDADF80400331B37F89F
S315080057C01500ADF806000222DFF8E80400F0ABF891
S315080057D0002823D1B61C6D1CB6B2ADB2BDF80800C0
S315080057E08542E6DB002501E06D1CADB2BDF8080078
S315080057F0854280F293804FF0000A1CE001220DF1E9
S3150800580002011FFA89F0FFF7F7FCBB19DFF8A404B9
S315080058101B1B09F1010900F08CF9002878D17F1CBF
S31508005820FFB2B7EB1B6FE9DBDFF8C404285C861907
S31508005830B6B20AF1010ADFF8840415F800B05FFA77
S315080058408AFADA45D0D25146E8B2FFF75BFD8046C0
S31508005850DFF87004B8F800902F5CF80140EA0520DC
S31508005860ADF80000BBF1010FBDF800000CBF40F019
S315080058707F004AEA0000ADF80000311BDFF8340467
S3150800588000EB4100711C89B201914FF6FF71894501
S315080058901EBFBDF80010BDF81020914218D19DF822
S315080058A00C100029C5D0012200A9FFF7C5FB019EEF
S315080058B070BBDFF80C04A8F800602A5CDFF8340433
S315080058C050F82510B0B2FFF7B3FC0028ACD122E09F
S315080058D0DFF8EC13695C491C01EBD1714FEAC15B37
S315080058E0012200A9FFF7A8FB019E88B9002FA8F896
S315080058F0006095D04946E8B200F046F90190331B9E
S31508005900DFF8B0034FEA1B6200F00DF800288BD0D1
S3150800591002F024F9002005B0BDE8F08FDFF8B003E7
S3150800592046800120F7E701A900EB4300FFF784BB97
S315080059302DE9F041DFF89C03DFF894530688DFF879
S31508005940700304886878002882B012BF2046304663
S315080059502646012200A9FFF74FFCBDF80000DFF834
S31508005960548301280CBF4FF6FE70401EADF80000A8
S31508005970DFF8580307783846471E58B1BFB2B8193A
S31508005980001B012200F00FF80028F4D002F0E6F818
S31508005990002006E0687880F0010068700020287012
S315080059A00120BDE8F68100A908EB4000FFF744BBDB
S315080059B02DE9FE4F0D46CB4909888842044617460D
S315080059C01E464FF000094FF001080CD2BB49615C36
S315080059D038467F2808BF0020884204DAB848205C89
S315080059E0864200D11DB940F2FA5100F098F83946BE
S315080059F02046FFF787FC0190B54F787820B1B64866
S31508005A00B0F800A0AA4803E0B448B0F800A0B1482E
S31508005A103978008849B97988081AB74909888842BF
S31508005A20B4BF4320442002F099F801980188A5489C
S31508005A30205CF8B1204600F0A7F8012E08BF2978A7
S31508005A4003D0022E0CBF29882968814265D00198A7
S31508005A500088401E00F067F8A548265C7888AAF1F9
S31508005A600101891B814201DB002835D1387858BBF2
S31508005A70452044E00291CB4620E002980BEBDB730D
S31508005A8000EB630000F03DF90BEB05001BF8051071
S31508005A90407801EB0020711E8B4580B205D1BDF818
S31508005AA00010C9B2C0B2ADF80010BDF800108842A7
S31508005AB00BF1020018BFC8465FFA80FBB345DCDB72
S31508005AC0B8F1000FC3D028E0BDF802100020FFF798
S31508005AD042FE10B34FF0010978887949401C788056
S31508005AE080B2625C2946FFF7A3FBB0B1704C7B8895
S31508005AF0248870485B1E1B1B00F01BF810B102F0CF
S31508005B002DF80AE0B9F1000F02D0FFF711FF20B116
S31508005B1001997888088030187880BDE8F78F0FF2E9
S31508005B20EC10FFF7D7B801220DF1020180B2FFF79A
S31508005B3063BB01220DF1020100EB4300FFF77CBABB
S31508005B4070B582B0044600251926012200A9A0B224
S31508005B50FFF752FBBDF80000641C48B14FF47F41C3
S31508005B60401A02D0FF3806D007E0681C40B276BD5E
S31508005B70AD1C761EE9D168B276BDBDF80000C0B28C
S31508005B8000B96D1CE843F1E738B50C4600210091D1
S31508005B904B49455C2A46214600A8FFF772FB681C5C
S31508005BA000EBD07004EB600080B2FFF7C9FF002855
S31508005BB048BFC043009940B2401832BDF0B54949C4
S31508005BC009880446404883B0254630F815608C425B
S31508005BD002D23C48285C18B940F23B71FFF79FFF98
S31508005BE037482D5C681C00EBD07006EB6007B8B22E
S31508005BF0FFF7A6FF322814D2C107BFB207EB600031
S31508005C002B4F2C4B3F884CBF00214FF47F41ADF8FA
S31508005C100410C01B012201A903EB4000FFF70CFA90
S31508005C2060B131462046FFF7AFFF00902B46401C77
S31508005C3000907F2200A92046FFF7BAFEF7BDF8B507
S31508005C40234C20780027002830D119480588607829
S31508005C5000281ABF1F4806882E461C48077838466B
S31508005C60471E02281BDBFFB2B81900F04AF8BDF838
S31508005C7000000028F3D01A48008807FB006000F0EF
S31508005C803DF80020ADF80000BB190A485B1B01224D
S31508005C9000A9FFF749FE48B101F060FF06E030466B
S31508005CA0FFF714FBFFB20FB9012020703846F2BD8A
S31508005CB0746C020800E00208142C0020386D0208F3
S31508005CC0146D0208F06C0208442A0020706C020861
S31508005CD0142F0020786C0208766C02087A6C020889
S31508005CE0726C02087E6C0208A86C0208806C0208B6
S31508005CF0846C0208EC6F02087C6C020880B2FFF71D
S31508005D00E5BA012200A980B2FFF776BA73696D2D4C
S31508005D10656570726F6D2D696E7465726E616C2E35
S31508005D2063000000DFF8841500200870FF21DFF803
S31508005D308005017001717047F8B5044601F06FFFE0
S31508005D400546DFF87005DFF868750688204602F014
S31508005D5072F8B0F5006F16D1204602F090F800F000
S31508005D60BBFAFF280DD000F029FA2146381D02F0AB
S31508005D70F4FBDFF83805017881B10089A9190E1AF4
S31508005D8010E09320F2BDFF21384602F011FC0528E9
S31508005D9002DA21463846EAE73920F2BD058131465E
S31508005DA002F067FCB2B20321204601F0C2FF0322CB
S31508005DB000F070F8204602F03BF90020F2BDF8B575
S31508005DC00446DFF8EC040078FF2813D0DFF8E8541F
S31508005DD02968465C3746384602F042F801460822EA
S31508005DE02046FFF7BFF808B90120F2BD28683F5CD6
S31508005DF0B742F0D10020F2BDF8B5044601F0C5FF60
S31508005E00000B00F00105204602F04EF80646204633
S31508005E1002F039F8B0F5404F11D1002D36D0314691
S31508005E20002000F086F90446FF2C2FD0002102F04E
S31508005E301BFD58B300F0A3F900F02AF826E0304617
S31508005E4002F030FF00F048FA0446FF2C01D100208A
S31508005E50F2BD01200021224602F052FFDFF85C2441
S31508005E60D2E9006706430F43C2E9006775B1DFF858
S31508005E7050341B6833F814304FF4FE64234205D0BF
S31508005E80D2E9024520432943C2E902010120F2BDB5
S31508005E9040F080020521204601F056BF38B5044679
S31508005EA001F0C9FFB0F5006F0CBF0125002520469B
S31508005EB001F0D6FF04462146284600F03AF9FF28A5
S31508005EC010D18DB1204602F0EDFE00F005FAFF284C
S31508005ED00AD0DFF8EC13096831F810004FF4FA61BC
S31508005EE0084201D0012032BD002032BD2DE9F04123
S31508005EF007460C46DFF8B85301F09DFFB0F5006F72
S31508005F000CBF281D28460078FF2846D0DFF8A813BE
S31508005F100968405C0646B7423CD1FEF7BFFE80469C
S31508005F200521304601F017FF00F07F00471EFAB240
S31508005F300521304601F008FF002C18BF312C01D08E
S31508005F40F8B200BBFEF7AAFE0746F0B201F073FFEF
S31508005F50B0F5006FF1B205D1281D02F029FB00F05B
S31508005F6012F902E0284602F023FB3846FEF7ACFE9B
S31508005F704046FEF7A9FE2146304603F0F5FD3046B9
S31508005F8002F064F804E000F0FEF84046FEF79CFED6
S31508005F90012003E0765C8642BDD10020BDE8F08191
S31508005FA038B501F03CFEC14C21892081421A4FF6D2
S31508005FB0FF75ADF8005000A990B200F008F9BDF8D9
S31508005FC00000A84202D10020207031BD01462046BB
S31508005FD002F04FFB31BD00214FF6FF70F7E02DE9C7
S31508005FE0F84FDFF8D892D9E90001002908BF002840
S31508005FF000F0988000264FF00108B24600270024DA
S31508006000FEF74CFED9E90023844608EA02001AEA9C
S31508006010030108BF002817D06FEA08006FEA0A01D3
S3150800602002400B40C9E90023D9E9025B012708EAC7
S3150800603005021AEA0B0308BF002A05D028400BEA16
S315080060400101C9E9020101246046FEF73DFE002F61
S3150800605057D09B48006830F81600810751D59949F2
S31508006060096831F816702CB100F49871102908BF28
S31508006070012500D0002594490978C9070AD5934A0D
S315080060801268002142F8261091490968725C42F0AC
S31508006090F0027254F4B180061CD5380A8DF8010056
S315080060A08DF8007000A9012000F043F80446FF2C83
S315080060B007D100F039F84FF6DF72114020F81610B4
S315080060C014E0002102F0D0FB80B100F058F8FFF789
S315080060D0DFFE0BE085F00100044207D000F024F84B
S315080060E041F4006120F8161004F0ECF800953B46E0
S315080060F01A226DA1032001F016FD2946384601F043
S315080061001EFD761CF6B24FEA4A0040EAD87A402EBF
S315080061104FEA480806DAD9E90001002908BF00282D
S315080061207FF46CAFBDE8F18F6548006830F816104B
S3150800613070472DE9F04188465D4900281ABF091DB8
S31508006140022508250878FF2816D05B4E3168475C7B
S315080061503C4600F014F800060AD4204601F080FEFA
S3150800616001462A464046FEF7FDFE08B9204604E0E9
S315080061703068245CBC42ECD1FF20BDE8F0810521E3
S31508006180204601F0E8BD70B50021202004F037FB59
S3150800619047480079FF2810D0474C2168455C2E46B1
S315080061A0304601F06CFE00F097F8FF2801D000F0A9
S315080061B005F82068365CAE42F2D170BD40490968E0
S315080061C031F8102042F0200221F8102070472DE9FE
S315080061D0F84F80460FF2FC00354E0068364F0090A7
S315080061E08A46344600E0341DFEF758FD814606E02F
S315080061F0204602F0C7F9294600A802F0AEF9204663
S3150800620002F00AFA40B9386821780D5C032128465D
S3150800621001F086FD8045EBD2301D844208BFFFF7AA
S31508006220B2FF4846FEF750FD2078FF281CD0396893
S3150800623010F801904D460321284601F071FDA0EBA8
S31508006240080B1FFA8BF20321284601F072FDBAF8F3
S3150800625000001FFA8BFB834588BF8346AAF800B067
S3150800626038682D5C4D45E6D1301D8442BBD100A867
S3150800627002F0D2F9A8B900A802F084F9044601F0A0
S315080062808EFD00F0FAF8FFF77AFF000603D44221E4
S31508006290204603F069FC204601F0D8FE00F0EEF82F
S315080062A0E5E7BDE8F18F0000425742002C2E00209A
S315080062B074250020D023002050230020902500209C
S315080062C06023002058230020E42D002064230020AA
S315080062D0AC230020FF000000F8B50D4C2768060027
S315080062E014D0FEF7DBFC0B4D21682A7821F81260E2
S315080062F037F8021BB142FBD1FEF7E6FCB81E21684F
S31508006300401AC0052978000E884200D1FF20F2BD48
S31508006310582300205C23002010B57348734C00688E
S315080063202060606048220021FEF715FE704821684B
S3150800633000780870002021680873216848730B20CC
S315080063402168887303202168C8734FF6FE71206898
S3150800635001824FF6FF71418200F0A6FB216808769C
S3150800636000F0A2FB2168487600F09EFB216888763B
S31508006370604821680078C8765F49206809688162A4
S315080063805E49097880F82C105D4821680068086322
S3150800639010BD10B5FCF7ECF9544C6168897B88424E
S315080063A003D00846FCF7DCF950B9FCF7E4F90146D6
S315080063B0606890F90F00814204D0FCF7E0F908B153
S315080063C0012010BD6068008AFDF7B1FE6068408A4A
S315080063D0FDF7B2FE6068007B012818BF0020FDF7B4
S315080063E093FE002010BD10B5464C0020207004F026
S315080063F072F920B92046BDE8104002F02FB904F022
S315080064001DFE08B104F04BFE62E080B5002000F0E6
S3150800641015F828B1002000F005F808B1002002BDE3
S31508006420FF2002BD31480068407B02281CBF1128A6
S31508006430432801D101207047002070472B48006887
S31508006440007B012818BF022804D003281CBF062891
S31508006450072801D1012070470020704700207047A7
S31508006460002070477047704700207047012070472A
S31508006470704700207047002070477047704700201B
S31508006480704780B50020FFF7CDFF18B1BDE8024080
S315080064900020D3E702BD80B50020FFF7C3FF30B167
S315080064A012480068007B032801DA002002BDFF209D
S315080064B002BD10B5040004D0E5210FF26C00FEF70A
S315080064C009FC09480068482101FB0400074948609F
S315080064D0BDE810405DE705484068008A70470348F4
S315080064E04068408A7047000084230020D02B002093
S315080064F0CC230020CD2300208C23002090230020CD
S3150800650094230020C02B00207047002070470020ED
S31508006510704702F0DEB97047704701F009BB04F016
S3150800652050BF01F013BB0000656D6265722D6D7575
S315080065306C74692D6E6574776F726B2D73747562E2
S315080065402E63000038B504460D46012005F0D8F83C
S315080065506D48002D12BF00210178491C01700320E7
S315080065600021FDF7D5FF694844706948FDF78AFAA6
S31508006570BDE83240002005F0C3B838B50446402CC3
S3150800658002BF644800780028154603D00021002081
S31508006590FDF7BEFF002C43D0402C23D0882C18BF13
S315080065A0892C44D08D2C31D08F2C4AD15A4800786A
S315080065B004280DD145B159490220087040F6062035
S315080065C0BDE8324005F0A4B8FDF72FFD312034E0D0
S315080065D0012001F0A7FAFDF728FD002D0CBF312098
S315080065E000202AE005F0C2F8FDF71FFD46484C4991
S315080065F000780978884204D2BDE834400021012099
S31508006600A0E7002001F08EFA402016E0002001F0F5
S3150800661089FAFDF70AFD00212020FFF782FF0BE02B
S31508006620012001F07FFAFDF700FD002005E00020BB
S3150800663001F078FAFDF7F9FC8D20BDE8324002F04A
S31508006640F7B9BDE83440A6213BE034480078022873
S3150800665000D0704780B533480078042807D00C2846
S315080066600ED131480078022818BF7C2808D105F0D9
S315080066706BF8FDF7DAFCBDE80240002002F0D8B955
S3150800668001BD38B50024FEF709FB05462348007806
S3150800669010B9FDF703F904462846FEF715FB002C4A
S315080066A01CBFBDE8314001F057BA31BD80B5FFF7D0
S315080066B0E8FFBDE804404FF4A0511C4801F0D9BFDB
S315080066C0E2210FF27000FEF705BB38B5184CA0683A
S315080066D0A16C01EA0005ADB2A8070BD5A06C20F0A5
S315080066E00200A064206810F0190F03D100210020D1
S315080066F0FDF72CFF680705D5A06C20F00400A06400
S3150800670003F0C8FEA56031BDEC2F0020302500201F
S315080067101C2F0020B52F002055250020B02D002065
S3150800672088250020DE2F0020DF2F0020D82E00200D
S3150800673000A000406D61632D656D3235302E630013
S3150800674070B504460D461646FDF7C4FC38B16078A8
S31508006750002E14BF40F0200000F0DF0060702946CC
S31508006760204601F0F6FCFF2821D0974C0146201D53
S3150800677001F0F3FE954D28882188401C288080B2B8
S3150800678081420AD26888401C6880201D01F0FAFE02
S3150800679001F05CFC2888401E2880208829888842C9
S315080067A0F3D3BDE870408A48007802F045B870BD5A
S315080067B02DE9F04FA5B082460027FEF76FFA834C05
S315080067C02188491E2180FEF77FFA504601F0CAFB50
S315080067D090F8009081784078009700EB01201FFA26
S315080067E080F800F0D4F8A0F108020823D2B2514686
S315080067F002A801F0CAFC02AD6878FFF73EFE7548AC
S31508006800007808B3606800281DD0E878FDF707F916
S315080068104946FDF70BF9074695F9020000F16605AA
S315080068200020009009F10103DBB20022514604A8BA
S3150800683001F0ABFCFFF71CFE63686AB2394604A890
S315080068409847FFF71BFE98E008F0070002282DD0AE
S31508006850FF208DF80400504601F084FB00F1010B7F
S31508006860584601F0CDFA0446A9EB0400801E46B24C
S31508006870002E1BD45FEA885003D508F007000328CA
S3150800688010D101A9584605F05BF8002876D108F022
S31508006890070001280BD19DF8040004EB0B0103F057
S315080068A08CFC20B99DF8040001F0D0FB66E04A494B
S315080068B09DF804000968475C4849096800F801A082
S315080068C000F065F800F120019DF80400C9B201F056
S315080068D04FFB9DF8040001F05DFA00F00C00042857
S315080068E01CBFA619002470B280B20090631C9DF8E4
S315080068F004009BB25246394601F0FEFDF1199DF897
S315080069000400C9B201F0E3FC354968780978884281
S3150800691004D3CD210FF2D000FEF7DCF99DF8040070
S3150800692001F033FA69788004800C40EA81319DF8D9
S31508006930040089B201F02BFAE878FDF770F84946A9
S31508006940FDF774F802469DF80400032101F0FCF9EE
S31508006950A87800F166029DF80400D2B2042101F07D
S31508006960F3F99DF808209DF80400052101F0ECF9DB
S315080069709DF804A0504602F0B7F80127504601F0EA
S3150800698065FBFFF77BFD384625B0BDE8F08F12485A
S3150800699000681AF80000704710B50C4C618829B1D8
S315080069A0C9B21D20FFF7BDFD002060800D4801F02B
S315080069B0E9FDFF2803D0FFF7FBFE0028F6D010BD3F
S315080069C0084801F029BE000080250020582E002026
S315080069D0CB2F0020912D0020442300204C2300209B
S315080069E088230020842500206D61632D7265636508
S315080069F06976652E630000000268174912BACA60F4
S31508006A00426812BA8A60826812BA4A60C06800BAD6
S31508006A1008607047704710B5104980220A6006233F
S31508006A200F4A136007230B6013689B07FCD50023E6
S31508006A3050F823405B1C24BA042B8C62F8D31368E5
S31508006A405B07FCD500220B6B1BBA40F82230521CA0
S31508006A50042AF8D310BD000038300040003000404A
S31508006A6010A0004010B504460846FFF7C5FF2046AB
S31508006A70BDE81040CFE7002848BF404270470000F5
S31508006A8081B209B94BF6EF610E4A1180000C08BFB6
S31508006A904FF6CE20508070470288130448BF4A40FC
S31508006AA0510001801046704738B5064C62212046D1
S31508006AB0FFF7F2FF054641F20B01A01CFFF7ECFFBA
S31508006AC0684032BDAA240020EFF311806028804177
S31508006AD0C043C00F70470000002181F3118870473A
S31508006AE0012100F01F029140DFF82026400942F8F4
S31508006AF0201070472DE9F04FDFF818469BB0804606
S31508006B0060681990B8F1070F08BF4FF003080AD05C
S31508006B10B8F1080F08BF4FF0020804D0B8F1050F06
S31508006B2008BF4FF00408DFF8F0552868696840EA9E
S31508006B300120A96840EA014000906868400703D52B
S31508006B40E06940F00200E0612868400703D5E06983
S31508006B5040F00400E06100982969C840C00703D5E1
S31508006B60E06940F00800E0610020DFF8A465DFF87E
S31508006B70AC953060B8F1010F00F06D82C0F09682D6
S31508006B80B8F1030F1ED005D3B8F1040F40F08E827A
S31508006B90606017E0D9F84000C00703D5E06940F007
S31508006BA04000E061D9F84000400703D5E06940F0AD
S31508006BB02000E061D9F84000800703D5E06940F07D
S31508006BC01000E061FEF76AF8FBF77DFB8DF86000C0
S31508006BD04FF0000BD9F84000DFF844A5DFF84475FC
S31508006BE0DFF844151790D9F844001690DFF83C05ED
S31508006BF0C06C1590DFF83405006D1490DFF82C058D
S31508006C00406D1390DFF82405806D1290DAF80000C5
S31508006C101190DAF804001090DAF814000F90DAF8F8
S31508006C2024000E90DAF834000D9038680C907868D5
S31508006C300B90B8680A90F8680990386908907869DE
S31508006C400790B8690690F8690590B86B0490DFF864
S31508006C50E00400680968039102212160DFF8D41472
S31508006C6009688DF80410DFF8D01409688DF8051046
S31508006C70DFF8C81409688DF806104FF0FF31616215
S31508006C80DFF888140968C9040BD56968C90708D5E7
S31508006C90E169C90705D5316841F480714FF0010BE8
S31508006CA03160DFF86814096889040BD569684906F4
S31508006CB008D5E169C90705D5316841F480414FF027
S31508006CC0010B31600121DFF84424126852040ED505
S31508006CD0009AEB68DA40D20709D5E269D20706D5E9
S31508006CE03268EB6801FA03F31A438B463260DFF821
S31508006CF01C241268120410D5009A2B69DA40D207B0
S31508006D000BD5E269D20702D4E269120705D53268C3
S31508006D102B698B46994011433160DFF8F0130968F7
S31508006D20C90308D5E169090605D5F17841F00801D6
S31508006D304FF0010BF17000216A68D2076A6848BFF4
S31508006D404FF480515206009AEB6848BF41F400514F
S31508006D50DA40D207009A2B6948BF41F48041DA40ED
S31508006D60D207E26948BF41F40041D20605D4E26978
S31508006D70920602D4E269520601D541F01001E26991
S31508006D80120648BF41F4803108400290A520FBF75F
S31508006D9091FA0120E063E069A16B11B1616A0142D1
S31508006DA0FAD0616A014200F0F3800020E0634FF0F8
S31508006DB0010BF07840F04000F070FDF775FF0D9874
S31508006DC0DFF86813CAF834000720C9F800000F2056
S31508006DD0086004F073FE1998D44960601798C9F8DA
S31508006DE040001698C9F844001598C86414980865B0
S31508006DF01398486512988865CD491198CAF8000015
S31508006E001098CAF804000F98CAF814000E98CAF821
S31508006E1024000C9838600B9878600A98B86009982E
S31508006E20F86008983861079878610698B8610598F7
S31508006E30F8610498B86302980860BB49039808602B
S31508006E404FF0FF30BE490860BA4800683070BA484B
S31508006E5000687070B9480068B070626AE0691040EE
S31508006E602A69336801994B4000990B400106490E7F
S31508006E7001F0010143EA81230106890E01F00101AF
S31508006E8043EA81030106C90E01F0010101FA02F283
S31508006E901A4300F47C7042EA00503060FDF7FEFEAB
S31508006EA0FDF710FF002020609DF8600008B1FBF791
S31508006EB0F4F9F0789E490968C90304D5C0F3C001FE
S31508006EC009B120212162D9F84010890704D5C107E4
S31508006ED044BF0221C9F80C10D9F84010490705D556
S31508006EE0C0F3400111B10421C9F80C10D9F84010BB
S31508006EF0C90705D5C0F3800010B10120C9F80C00F8
S31508006F008A48C06C10F0E00F05D03068C00544BF51
S31508006F100C20FFF7E5FD8548006D10F0E00F05D061
S31508006F203068400444BF0D20FFF7DAFD7F48406D06
S31508006F3010F0E00F07D03068E968C840C00744BFC2
S31508006F400E20FFF7CDFD7948806D10F0E00F07D0D1
S31508006F5030682969C840C00744BF0F20FFF7C0FD45
S31508006F60BBF1000F6ED17748006800056AD56068E6
S31508006F70800767D5B8F1040F64D06D480068C0066D
S31508006F803DD562480068C00639D50120307159E000
S31508006F90BBF1000F7FF40DAFDAF81800624940081C
S31508006FA04000CAF818006048806840F0040088600D
S31508006FB040F2072164480088884201BF6248408839
S31508006FC04FF20F01884205D15F494CF23C304880A8
S31508006FD04FF0010B012004F0ABFDBBF1000F05D00B
S31508006FE059494FF20F0048804FF0000B5548554954
S31508006FF040680004B06089680843B060DFE6FBF7C4
S3150800700045F95249B0FBF1F04FF47A7148432F30F5
S315080070103021B0FBF1F0002131714D494A6D42F043
S3150800702001024A650A68474B464C5B68A46844EA0D
S315080070300343B468A34205D10B689B1A1B031B0BB9
S315080070408342F0D3F07840F08000F0701BB0BDE8C2
S31508007050F04FFFF741BDFBF736F90446A520FBF7CD
S3150800706029F9FDF721FEFFF737FD3A4F3E683868E4
S31508007070400840003860FDF71DFEDFF8DCB0DBF89D
S315080070800050DBF8000020F04000CBF80000FDF7C8
S315080070900DFECBF800503E60FDF70CFE0CB1FBF779
S315080070A0FCF81BB0BDE8F04FFDF70CBE1BB0BDE801
S315080070B0F04F40F254410FF2AC00FDF70BBE11F150
S315080070C0010F154A07D0CBB21360C1F307235360EB
S315080070D0C1F307419160002320490B601368002B18
S315080070E004BF5368002B01D192681AB10A6842F0AE
S315080070F001020A600A6842F400720A600A6842F0ED
S3150800710080020A60F6E41649D9E7000000E200E0CA
S31508007110E42A00200400004008BC004014A00040F7
S31508007120044000400050004008ED00E014A800406C
S3150800713000E100E008B0004008B4004008B800408C
S3150800714080E200E00C6000400000002090D00300C0
S315080071503820004094ED00E0008000402000004008
S3150800716000404000736C6565702E63000348018813
S31508007170034808237F22FBF78DBF00BFE070020893
S31508007180042C0020DFF89402016C41F4C04141F060
S31508007190090101644FF6FF7101602020DFF88012B3
S315080071A00860704770B515461E46002804BFBDE83E
S315080071B0614000F027BB012835D113293CBF0FF2E7
S315080071C09820095C08096422504301F00F010B2935
S315080071D003DA884006E00A2250430A46511ED2B214
S315080071E00B2AF8DA01460120FBF79EFEE0B93009C2
S315080071F007280CBF00200220012D08BF40F0180008
S3150800720003D0022D08BF40F0080006F00F0102293E
S315080072108449A8BF40F00400886001200860FFF791
S31508007220B1FF002062BD212062BD38B5040012D12D
S315080072307D480468608828B140F291210FF2102039
S31508007240FDF748FDA188C9B2A01D00F0D9FA0020B3
S31508007250A080208031BD012802BF7248006801283D
S315080072600FD1FDF71BFD05467048016841F0060180
S315080072700160012000F078F82846BDE83240FDF7A5
S3150800728023BD31BD012804D16848016821F00601F3
S315080072900160704780B50B46114620B9184600F0C4
S315080072A0AFFA002002BD012802BF61488269012A9F
S315080072B007D0212002BDC2685207FCD513F8012B5E
S315080072C002600A46511ED2B2002AF4D1C1684906A4
S315080072D0FCD5E6E710B50446FAF7E8FF012C03D11A
S315080072E0564800684006FBD510BD2DE9F84304460C
S315080072F05048DFF84491DFF848814D4F254650F84D
S31508007300256014E0B18838F81520521E91421CDA1F
S31508007310318889198871308839F81510401C90FB16
S31508007320F1F201FB12003080B088401CB080F8688A
S31508007330800716D5F86810F038013868E2D00807D3
S3150800734005D4C80605D5242107E0232105E0272111
S3150800735003E088064CBF25210121204600F03EF8AF
S31508007360E5E7BDE8F183704770B52F49354A51F80E
S3150800737020102F4B0CE04C886418A4791C604C88AC
S3150800738032F8105000F00AF84C808C88641E8C8005
S315080073908C8814B1DC686407EDD470BD641C94FB5A
S315080073A0F5F605FB16447047704738B51B4C0FE0D9
S315080073B046F229700542256003D0A9B20120FFF7DD
S315080073C094FF41F6D60005421CBF0120FFF7CCFF0B
S315080073D02068216C11EA0005EAD131BD30B5154A9D
S315080073E0194C52F82020055D184B25B9128823F848
S315080073F01020015530BD33F810301380015513881D
S3150800740051888B4205D20E4C34F81000401A1818D1
S3150800741000E0581A908030BD0000000008A800401F
S3150800742000E100E054C80040D024002048A80040ED
S315080074303CC80040E0240020A47A000848C8004060
S31508007440686C02089C7A0008242A0020282A002052
S31508007450756172742E630000306090C0C1C2C39417
S31508007460C495C55C96C6AC9798990D002DE9F04170
S315080074704B4C4C4EDFF83081002020654FF4005508
S31508007480356002202060E56000202065206D40F010
S31508007490600020650E2000F029F888F800004FF4F7
S315080074A0804700206065376004202060E76016206A
S315080074B03E49086000206065606D40F060006065C8
S315080074C0162000F013F888F80100394805600760AF
S315080074D0BDE8F0810E28344902D0162802D003E010
S315080074E00878704748787047002070470E2802D001
S315080074F0162802D009E02F4800E02F4800688009C6
S3150800750000F0010080F0010070470020704710B5B8
S3150800751023484FF40051C160022101600E20FFF795
S31508007520E5FF214C227801468A4218BF21700DD109
S31508007530501E8041C00F20700E20217804F0C0FE36
S315080075402178481E8041C00F20702178BDE8104080
