S0170000636F6E74726F6C6C65722D7A726332302E733337BB
S31508002000902200204D2C0108852301088923010808
S31508002010A70A090100210008040303AC3057280069
S3150800202000000000000000000000000000000000A2
S315080020300000000000000000000000000000000092
S315080020400000000000000000FFFFFFFFFFFFFFFF8A
S31508002050FFFFFFFF00E0020800000000000000008C
S31508002060FFFFFFFFFFFFFFFFFFFFFFFFFFFFFFFF72
S31508002070FFFFFFFFFFFFFFFFFFFFFFFFFFFFFFFF62
S31508002080F02F002000000000EF2F0020EF2F002087
S3150800209090220020B83E01082C2E01083019002095
S311080020A07C0B0020000003080030002024
S31508002100902200204D2C0108852301088923010807
S31508002110912301088D230108952301080C24010841
S315080021200C2401080C2401080C2401080C240108BD
S31508002130992301080C2401080C240108192D00080C
S31508002140D5D300080C240108836E00080C24010866
S31508002150DFA70008416C00080C2401080C240108BC
S315080021604B5F0008633C000871360008A52100088B
S315080021700C240108936D0008DB6D00080C24010887
S315080021809D7100080C2401080C2401080C24010880
S31508002190012100F01F029140304A400942F8201000
S315080021A07047000070B52E4C2E4D60782968490797
S315080021B026D5032824DAA18804EB4002918101215F
S315080021C0A27801FA00F01043A070274A207890B14F
S315080021D0002320FA03F6F60708D5994063704840AD
S315080021E0207014EB4300808A106009E05B1CDBB2A8
S315080021F0032BEEDB04E0106000F0ACF803206070FF
S315080022004FF6FF702860BFF35F8F70BD80B5144826
S31508002210002101700022032141700021C1700521AF
S31508002220018100218170001D0F490A604A604FF440
S3150800223000428A601022CA60486101208861032032
S31508002240C8600421074801644FF6FF7101600B203E
S31508002250FFF79EFFBDE8014000F0BAB800E100E0D4
S315080022609C24002010A8004004D000402D48006897
S31508002270C00701D42C4870472C48704780B5FFF733
S31508002280F5FF2B49096801B9400802BD80B5FFF77B
S31508002290EDFF400802BD00F00ABC26480121816016
S315080022A04EF6BE2141600121016070472249012096
S315080022B008607047A52805D11E484DF6AD614160F6
S315080022C00221016070471B480068C00701D501203C
S315080022D070470020704780B51849194A10200860D1
S315080022E018491948007858B103280CBF0020012066
S315080022F0106040F651000860002000F092FE06E0EB
S31508002300022010604FF40060086000F089FB072186
S315080023100E4801600021016410200D490860002064
S3150800232002BD00001C400040001BB70000366E01CD
S3150800233020400040006000400860004080E100E066
S31508002340080000400C600040C62F002014A0004082
S3150800235000E100E070477047DFF8E83433F8100012
S315080023601040C840704730B50FF29854DFF8D8349B
S3150800237034F810409C601140DFF8C84434F8105017
S3150800238095432943D96002221A6000221A6024F86C
S31508002390101058680028FCD130BDDFF8B024DFF8EB
S315080023A0B0041278DFF8AC140AB149780EE0895601
S315080023B011F1090FB8BF302108DBC16D39B1C26D03
S315080023C040F24A31B1FBF2F189B2C91E0160704789
S315080023D0E0B5DFF8840401880A2300F064F8BDF844
S315080023E006104FF6FF720D20FFF7BDFF07BDF8B5C3
S315080023F00546B5F5004FDFF85C4419D1DFF85C04F3
S315080024000188022300F04FF8BDF80000000AFF28F3
S3150800241014BF002818206070BDF800000006C00E22
S3150800242010281CBF001D00F09CF9BDF80000C5432C
S31508002430DFF81864707808B1002005E0A089ADB20D
S315080024406840C00701D501207070DFF81404A58123
S3150800245005F00104016841F400410160C5F3400735
S315080024600FF2C44000EB44004FF440524078010399
S3150800247089B20220FFF777FF204600F021FE4022AE
S31508002480B90100F009FA2D06A80E00F0010038433C
S315080024903070FFF782FF707818B1FFF799FF0020B8
S315080024A070700020F2BD7F2200A800F07FBE2DE9E3
S315080024B0F04FDFF8B443207887B0042304900C214A
S315080024C00B38C0B2039000A8039A00F0E9FE9DF805
S315080024D000008DF80A009DF801008DF809009DF8A6
S315080024E002008DF808009DF803008DF80500DFF856
S315080024F07C030078012806BF607880F00105012575
S3150800250001F0D3F982469DF902000399D54F0AF1E5
S315080025100A06AAF10A09B042B6BF81454FF001087A
S315080025204FF0000801208840ADF806009DF801002C
S31508002530000604D47888BDF80610084201D04FF08A
S31508002540010801F047FA9DF8030000060AD4B88886
S31508002550BDF80610084205D19DF90000B042B8BF83
S31508002560814502DB4FF0010901E04FF0000948EA16
S31508002570050059EA000000F0A480DFF8F4B2BD496E
S31508002580DBF80000400800F001008DF80400BA48A6
S31508002590006800F4E06005904FF4E06008600020F1
S315080025A001F0FAFD00F03DFCB44EADB1607858B1CB
S315080025B0DBF80000AD4940084000CBF800000120D8
S315080025C0087000F013FD07E0306840F400503060F2
S315080025D0306820F480503060A4480078012810D173
S315080025E061780D4208BF01F02EFFDBF800009F4915
S315080025F040F00100CBF8000000200870642000F0CD
S31508002600F5FC607880F00100054203D00498C0B25A
S3150800261002F051F8607838B1306820F480503060A4
S31508002620306840F400503060BDF80600C543B8F184
S31508002630000F08D002F02AF98DF801008DF802A0E3
S31508002640788828407880B9F1000F08D002F0CFF9D1
S315080026508DF803008DF800A0B8882840B8809DF949
S3150800266000009DF90A10884202BF9DF801009DF8F6
S31508002670091088420BD19DF902009DF9081088427D
S3150800268002BF9DF803009DF80510884206D00399FD
S31508002690042300AAC9B20C2000F013FE0598764957
S315080026A0086000F043FE9DF8040001F075FD02F095
S315080026B0BEFA607828B148F260703060642000F095
S315080026C095FC9DF8010002F04DF89DF8030002F014
S315080026D089F907B0BDE8F08F80B501F0D9F8BDE8F3
S315080026E00140E4E601F0D4B870B50646A6F10B043D
S315080026F001F0C7FC0546A6F10B00102801D38A2075
S3150800270070BD5F488168090702D40068C00701D513
S315080027108C2070BD544806705A4801680C290FD0A1
S315080027200FF27811584A92F90020A4B231F8241011
S315080027305118C161FFF7BBFE012D08BF01F032FC3D
S31508002740002070BD10B5044601F0A2F82046BDE889
S315080027501040C9E74448007870473E4890F90000A1
S3150800276070472DE9F041044614F12B0F86B045DB7E
S31508002770464801881423FFF796FEBDF810004FF669
S31508002780FF71884203D0400448BF012606D43F2281
S3150800279000211020FFF7E0FD0546002604F12B0274
S315080027A02F2A2C483A491AD213220FF2301300E086
S315080027B0521ED2B213F91270BC42F9DB03EB420483
S315080027C0032764780C60002413F8121001700020A7
S315080027D08046AEB1BDF810104FF6BF7229E0092C3D
S315080027E00CDA225C0A60047014232A480188FFF771
S315080027F05AFE01240320A0462827EAE78B201DE07D
S31508002800C1024FF4605200F047F84FF4E06221022B
S3150800281000F042F880224FEAC81100F03DF885F032
S3150800282020003D18ADB2402DA8BF3F253F2285F0B8
S31508002830200100F031F8FFF7B0FD002006B0BDE832
S31508002840F0810000CC2C0020E8100040CF2F00209B
S31508002850641000403C2400208A3C0108943C01088E
S315080028601C1000406625002038240020762400200D
S315080028708020004080E100E000E100E0D010004048
S3150800288060200040AC100040CE2F0020863C010896
S31508002890C0100040883C01080B2064E5AA212900E5
S315080028A05523290000252800AA2627005528270091
S315080028B0002A2600AA2B2600552D2500002F2400C5
S315080028C0AA3024005532230000342200AA352200FB
S315080028D05537210000392000AA3A2000D500E60124
S315080028E0EC02EF03F204F405F506F707F808F90910
S315080028F0FA0AFB0BFC0DFD0FFE11FF13001601195A
S31508002900021C031F10001100200030004000410087
S3150800291050006000700080009000A000B000C00069
S31508002920D000E000F000000000000103DFF86415A5
S315080029305120086070472DE9F0410546FFF79EFCD7
S31508002940DFF85415B0FBF1F64FF4F070B0FBF6F76C
S315080029501E2D3FB201DBE81B04D5A8B2BDE8F04145
S3150800296000F044BB02F09EF9804602F0A1F9DFF8B8
S315080029702C15DFF82C25012048700721DFF82405DF
S3150800298000F041F8E91B09B27143C91C8908491EC0
S31508002990DFF81455416000F0BDF8DFF8F8743C68BC
S315080029A0386820F04000386002F084F93C602E60F8
S315080029B002F084F902F08AF94046BDE8F04102F0D7
S315080029C087B938B50546FFF759FCDFF8CC14B0FBD4
S315080029D0F1F44FF4F070B0FBF4F02D1A1E2D04DA62
S315080029E092210FF20C5002F079F9DFF8B804DFF8FB
S315080029F0B024072100F007F805FB04F1C91C890873
S31508002A00491E416031BD01600021416081604FF07F
S31508002A10007111607047DFF8842401215170D0E7F6
S31508002A20DFF88804006800B970472DE9F041DFF83F
S31508002A308054DFF8806400242C6034604FF4A04092
S31508002A40706041F29A084046FFF775FF6F68FFF716
S31508002A501DFC000142F21071B0FBF1F000F5C870E0
S31508002A60C01B00B24FF4487190FBF1F000B2082881
S31508002A70A8BF072004DA10F1080FB8BF6FF00700E7
S31508002A8030604046FFF757FF08274046FFF753FFD9
S31508002A90686804197F1EF8D1FFF7F8FB211D40016D
S31508002AA0C908B0FBF1F080B27060BDE8F081DFF8CC
S31508002AB0FC03006800B9704738B5DFF8FC530120FD
S31508002AC06FF00F04A8602C608020FFF734FFE868D9
S31508002AD0FF2802D8641C102CF5DB31BD70B5DFF871
S31508002AE0DC03016841F0010101600121416002F047
S31508002AF0D9F80446DFF8B05300F00CF85120DFF897
S31508002B00941308602E6002F0D9F82046BDE870409C
S31508002B1002F0DEB82E68286840084000286002F0F7
S31508002B20CDB80020704710B5DFF88003DFF86C4396
S31508002B3000680128BCBF032000F01DF801202070A2
S31508002B4000202071DFF87803816901F00301032969
S31508002B5007D10020A070042000F07FF80120207122
S31508002B6010BD0F210160022181610120E0706420FF
S31508002B70BDE810404FE72DE9F041CC4CC74D22681F
S31508002B8040F2DC51012A8846CD4ECE4F17DA022193
S31508002B90B9803160B16901F0030103295BD021686E
S31508002BA0002903D5B16941F00201B161FFF7B9FF08
S31508002BB05FEA00081BD1206800284CD549E0B88890
S31508002BC04FF6FF74A0421DD1BF48018802237F2219
S31508002BD0381D00F0EBFAB888A04204BF0220B8807E
S31508002BE0B069800703D4B06940F00200B0610120E3
S31508002BF0A870B88830600FFA88F0FFF70CFF4046D7
S31508002C00BDE8F081B3699B07EDD5AB780BB10846F3
S31508002C10F6E7B168B36811F0010103D10F2809D2AC
S31508002C20401C06E09B0705D53B781BB1032801DB52
S31508002C302018B880B88839700228BCBF0220B8802E
S31508002C403068B9888842D2D1B06900F003000328F9
S31508002C5001D0FFF743FF0020D2E72DE9F047804671
S31508002C6000248C4D904E02F01DF8814602F020F8A3
S31508002C704046FFF780FF08B901240AE000F0CAF8C9
S31508002C80D5F800A000F02EF9C5F800A0376002F0CC
S31508002C9015F802F01BF8484602F01AF8002CE2D0A4
S31508002CA0BDE8F0870220D8E710B57E487B4C0021A6
S31508002CB041608160016821F00201016000206070B6
S31508002CC04FF0007076490860A07838B10020A070EF
S31508002CD00620FFF726FF00F098F81CDBE0780128AD
S31508002CE014D17A480121016079490968C90748BFA2
S31508002CF003200FD40221E170016C41F00101016447
S31508002D000420744908607449086010BDE0780428F6
S31508002D1001D10520E07010BD80B5604840780028D4
S31508002D201CBFBDE80140FFF7BFBF00F071FF01BD42
S31508002D302DE9F84300F069F803DABDE8F243042008
S31508002D408BE7564C207900B35DE001F0ABFF0546F2
S31508002D5001F0AEFFE078032812D000F05AF8DFF849
S31508002D603481D8F80090D8F8000020F04000C8F860
S31508002D70000001F09FFFC8F80090376001F09EFF41
S31508002D8001F0A4FF284601F0A3FFE0780328DCD170
S31508002D904C4E4B4DB08828604FF6FF777088B84286
S31508002DA00CD14E48018802237F22B01C00F0FEF9A0
S31508002DB07088B84202D16420708001E07088C8B17A
S31508002DC0FFF764FA7188344AB0FBF2F048432F30B3
S31508002DD03021B0FBF1F042494A6D42F001024A65E2
S31508002DE00A68AB68DB07FBD50B689B1A1B031B0B32
S31508002DF08342F6D3FFF772FE0420E0704FF4C870E2
S31508002E00BDE8F24307E6BDE8F183284800680128D3
S31508002E107047254E3768306840084000306001F03A
S31508002E204DBF2DE9F8431D4C2179207881F0010129
S31508002E3008422AD0FFF7E9FF1FDA40F2EB310FF21A
S31508002E40B00001F04BFF18E001F02CFF804601F0BE
S31508002E502FFFE07805280BD0FFF7DBFF0D4DD5F8DF
S31508002E60009000F03FF8C5F80090376001F026FFA3
S31508002E7001F02CFF404601F02BFFE0780528E3D14E
S31508002E800020A0700520FFF7E8FE00202070BDE8AE
S31508002E90F18300000080004090D00300D72F002067
S31508002EA004ED00E010E000E094ED00E0A433010832
S31508002EB0104000400C000040084000401C40004004
S31508002EC0044000405C240020963C010818A00040FD
S31508002ED00C40004080E200E000E100E09A3C010876
S31508002EE038200040286820F04000286001F0E2BE43
S31508002EF0636C6F636B732E630000000010B5664C3D
S31508002F00002001F09AFE40F68C2188422068B4BF62
S31508002F1040F0080020F00800206010BD10B50446F7
S31508002F205E48018882B000F05CF89DF800109DF8B4
S31508002F300100FF2902BFFF280420002104B1801CDC
S31508002F40574A1368C0B20828A8BF072023F460733D
S31508002F5043EAC010106008291068A8BF0721C008F6
S31508002F6041EAC00010604F48047013BD00B54E48D2
S31508002F70018883B000F035F8BDF800004FF6FF7100
S31508002F8088420EBF4FF4E1600A2190FBF1F0ADF8DC
S31508002F9000004448007808B34048018802237F228D
S31508002FA001A800F003F99DF80500BDF80030FF28D8
S31508002FB008BF0420811CC9B20829A8BF0721C1F18E
S31508002FC02F0202EBD272C0F12F00521000FB032031
S31508002FD0C1F12F01B0FBF1F0ADF80000BDF800001B
S31508002FE00EBD02237F2200A800F0E0B870B52F4C72
S31508002FF025680646FFF74AF92D49B0FBF1F07043FC
S315080030002F303021B0FBF1F0032809D3616D41F070
S31508003010010161652168491B0903090B8142F9D33E
S3150800302070BD10B5040004D110BD4FF47A70FFF7D7
S31508003030DDFF2046441E80B20028F6D110BD704739
S3150800304038B50C4620B101280FD0032820D021E03E
S31508003050184D44B1FFF71AF91749B0FBF1F0401EB5
S31508003060B0F5005F0CD2286012E04CB1FFF70EF9FC
S31508003070610801EB4000B0FBF4F0B0F5003F01D366
S31508003080202032BD0D4900F001024A604008086060
S31508003090002032BD212032BD00BC00408C3C010816
S315080030A018000040D12F00208E3C0108382000402F
S315080030B090D00300100004E020A1070068C8004073
S315080030C0F0B5044689B00020FFF728FF2648018896
S315080030D00A237F2200A800F069F8BDF802004FF61F
S315080030E0FF75A84204D1DC210FF2940001F0F6FD29
S315080030F00FF2A407002601E02A4616B94FF47C42CF
S3150800310003E0022E08BF4EF23F0200A800F032F894
S31508003110761C052EF0D3012C03D114237F221348E5
S3150800312002E014237F221248018803A800F03EF823
S3150800313000260FF26C072A4608E02A46012E08BF29
S315080031404FF6C07202D0082E08BF002203A800F06E
S3150800315011F8761C0A2EF0D3012C04BF0120FFF7C4
S31508003160DDFE09B0F0BD00008A3C0108883C010874
S31508003170863C010830F81610F05DFFF7F4B8000039
S31508003180616E616C6F6775652D63656C6C2D626920
S3150800319061732E630000000000100C0D0E00000085
S315080031A0010203040708090A0B0F000030B504469C
S315080031B010467F2808BF00204BF23462914283B044
S315080031C01AD108237F2240F6120100A8FFF7EEFF66
S315080031D008220FF23C0100A801F0C8FE30B9082306
S315080031E07F2240F2A27100A8FFF7E0FF082200A99B
S315080031F0204601F071FE37BD044D294300FB03113B
S315080032001A46204601F068FE37BD00000000040893
S31508003210FFFFFFFFFFFFFFFF30B50FF20C11DFF8CE
S31508003220F8500A6883B001A80024026001202870BB
S31508003230002001F0ADFE30B1002001F0A9FE10B16A
S315080032402C7049203EBDDFF8D400018802237F2276
S315080032500DF1020000F024F802237F22002100A8C5
S3150800326000F01EF8204601A9BDF8022031F810101A
S31508003270914208BF0124401C0228F4D3BDF800007F
S3150800328024B1B0F57F7F07D100203EBDB0F57F7F22
S315080032900CBF0620042000E00720002129703EBD4F
S315080032A010B5FF2908DCDFF87040247844B1BDE882
S315080032B01040C9B202F07AB9BDE81040FFF776BFF0
S315080032C010BD2DE9F0410546FF2D0E4617469846D6
S315080032D00FF24C0012DC104C2178A1B1617811B1C3
S315080032E0C02101F0FBFC0120607043463246394696
S315080032F0E8B202F0C3FA0020607004E0BDE8F041CD
S31508003300CB2101F0EBBCBDE8F0810349097800291F
S3150800331018BF02F0B9BB7047CC2F0020923C0108B9
S31508003320746F6B656E2E6300FE01FD0210B5DFF843
S3150800333048461020206301F0B5FCDFF840160A68FD
S3150800334042F001020A6001F0C3FCDFF8340600F11E
S3150800335008016160216092306168893161600121EC
S315080033602163E060A060DFF81C16E0688930E06041
S31508003370022020634FF6FF70086010BDDFF80806CC
S3150800338045F26401C1601E21416250210162C821D3
S31508003390C1618165F021C16545F6900141668821C4
S315080033A081660621C16644F2066101604FF6FF7127
S315080033B04160DFF8D805007838B1DFF8D40548F25F
S315080033C0607101604FF4C1514160DFF8C8050168BA
S315080033D041F0040101600020DFF8BC154870704711
S315080033E02DE9F047044601F05DFCDFF8B0150A6CDC
S315080033F022F002020A6402220A6001F069FC8A21AC
S31508003400DFF87C0501FB040101F1080808F1010158
S3150800341027184A78097801EB0226DFF88415097817
S3150800342041700020B870B6B2B00603D5DFF87455FF
S31508003430686E00067BD5002006F00701032954D1E3
S3150800344006F4406306F44041B3F5806F1CBFB1F53E
S31508003450804F002949D00422B3F5006F08BF08221F
S3150800346003D0B3F5406F08BF0E2273065CBF921CEB
S31508003470D2B2B1F5004F0CBF931C02F108035FFAF4
S3150800348083F909F1010303EBD373DB054FEA136AEA
S31508003490002C14BF6B682B68534526D3B1F5404FF3
S315080034A002EB080002D102F08BFC07E0407812F824
S315080034B0081001EB002080B202F080FCA8B13107A9
S315080034C013D4002C14BF696829680AF101029142D5
S315080034D006D2E968002C14BF022201221142F0D15B
S315080034E019F80810042918BF0020E96D090901F028
S315080034F001018842B9701AD00028A86C4FF40061FF
S315080035004FF4806209D004B9114608420FD0686C9E
S3150800351040F001006864012008E004B91146084239
S3150800352005D0686C4008400068640020B870BDE8A3
S31508003530F087DFF850040068C00703D40021002094
S3150800354001F035B870472DE9F84F0446DFF830A486
S31508003550DFF850548A2000FB04A000F10806002C6E
S315080035600CBF28686868C1B2052907DAFFF7E1FFCA
S31508003570DAF80400401CCAF8040077E040005FFA55
S3150800358080F808EB0600DFF8FC7310F8081D42788F
S3150800359002EB01211FFA81FB9AF801100170002144
S315080035A04170386C20F480503864686E14B97868B5
S315080035B0400504D4012C22D1786800051FD5FFF7F1
S315080035C0B8FFDFF8E403017889B1002101701BF424
S315080035D0E45FDFF8D803016802D00022402004E047
S315080035E07078000900F001028F2002F006FC002C1A
S315080035F00CBF4FF480604FF40060786031E01BF434
S31508003600E45F2CD100F0C5FD10B15FEA4B4026D52A
S315080036103078802823DA386C7178890604EB0A0931
S315080036200ED5696E090610D4A96CC9060DD4396879
S31508003630002C0CBF80224FF480720840104204D13F
S31508003640FFF777FF002089F80200414699F8022023
S31508003650304602F0B5FC002089F8020001E0FFF7C9
S3150800366068FF002C0CBF012002202861BDE8F18FFD
S315080036702DE9F84FC34CCB4E2068216CDFF828A300
S31508003680DFF8FC82DFF8289301EA000534E040B150
S315080036904878C00605D4C548016800228F2002F084
S315080036A0ACFB280608D50FB9FFF743FF02F00DFC5F
S315080036B0802025F080052060E80509D50FB9FFF7B9
S315080036C038FF02F002FC4FF4807025F48075206004
S315080036D0680407D50FB9FFF72CFF4FF4804025F48F
S315080036E080452060280407D50FB9FFF722FF4FF45D
S315080036F0004025F400452060002D00F09480002746
S31508003700280706D50020FFF76BFE082025F00805D8
S315080037102060E80606D50120FFF762FE102025F096
S315080037201005206005F06000602803D1B06CC00564
S315080037300AD401E0A80605D52020206025F020053A
S31508003740002006E0680606D54020206025F04005E2
S315080037500120FFF7F8FEE80413D54FF480502060E7
S3150800376025F48055D9F800B00820C9F80000D9F822
S315080037700400000548BF00F065F91FFA8BF0C9F888
S315080037800000E8078DD56D0801206D00206000F067
S3150800379036FF08B3FEF77AFD074601F083FA3223AF
S315080037A0844AB169B7FBF2F25A4312012F32302329
S315080037B0B2FBF3F251188AB27262090C3162022125
S315080037C0A160A16C41F00201A16401F081FA002117
S315080037D0032000F0ECFE012798F80000002806D028
S315080037E000F059FC012807D19AF8000000283FF498
S315080037F058AF7148007804287FF453AFF068400842
S3150800380000F001008A2101FB00810831002814BF5D
S315080038107268326812B92268D204F7D5002814BF34
S315080038207068306833E700202060BDE8F18F634890
S3150800383000687047F0B504460D4689B0002103209C
S3150800384001F09EF904AE1BE0002701F0B4F926F852
S31508003850170001F0B0F900A921F817007F1C082FFE
S31508003860F3DB04A802F012FD00202080218836F838
S3150800387010205140401C08282180F7DB6D1EA41C2F
S31508003880EDB2002DE0D101F0D2F9012009B0F0BD6A
S315080038900321022001F074B94FF6FF71081A292195
S315080038A090FBF1F03A3040B2704738B501F083F931
S315080038B0FFF7F2FF424D04462878B0B903210320EA
S315080038C001F05EF93F48018802237F2200A8FFF72E
S315080038D06DFC01F070F9BDF80010401880B2FFF7D2
S315080038E0DBFF153868700120287001F0A0F96878A8
S315080038F0201A40B232BD80B50321022001F040F9FA
S31508003900BDE80140D1E770B52F480078002490B98A
S31508003910FFF7F1FF204E0546707848B13078401B16
S3150800392040B202F0BCFC0B2805DB3570012402E02E
S31508003930012035707070204670BD244800787047A5
S3150800394022490A78904200D1704780B5087040B184
S315080039501F49002008600948016821F080010160BC
S3150800396001BD00F04DFC00F023FC00F0D5FBBDE8DE
S31508003970024000F0B9BB000000200040842000404F
S31508003980F82C002000A000404C10004039240020EC
S31508003990D010004080200040DF2F002008A0004003
S315080039A03824002020200040D02E0020D82E0020C9
S315080039B0B820004090D0030075240020382000402D
S315080039C0DD2F0020903C010876240020E12F0020FE
S315080039D05410004010B50D48018884B00A237F2290
S315080039E000A8FFF7E3FBBDF800004FF6FF74A042FE
S315080039F004D14E210FF2180001F070F9BDF800103D
S31508003A0022460020FEF7AFFC1FBD00008A3C0108D5
S31508003A10616E616C6F6775652D66696C7465722E6B
S31508003A2063000000DFF8E007007848B1DFF8DC073C
S31508003A300179012904BF4079042801D10120704782
S31508003A4000207047DFF8C807016821F4805101603B
S31508003A50DFF8C007017881B100210170DFF8B817D7
S31508003A600A68520852000A600A6842F001020A60AF
S31508003A7000228168402002F0C0B97047010603D5CC
S31508003A804FF67F710840C0007047491C800189B213
S31508003A90B0FBF1F080B2FF288CBF0020C0F1FF0018
S31508003AA0C0B2704738B5DFF86C07C17809B1002095
S31508003AB032BDDFF86C47617871B1E1780079451855
S31508003AC02079ADB2854228BF054602F001FC0121E6
S31508003AD0A940491E084000E0002061790818C0B2D4
S31508003AE032BD2DE9F0470446C00705D54FF4BE712F
S31508003AF00FF2A87001F0F2F8DFF82857286DC00712
S31508003B0048BF8C2000F18280DFF80807DFF81077BD
S31508003B1000210170417829B9397819B1A96F41F0A6
S31508003B20010102E0A96F49084900A967DFF8DC86A8
S31508003B307A7898F80610DFF8F096DFF8F06692B112
S31508003B40002202710129286D40F00400286506D17B
S31508003B504FF6FF7030604FF40070C9F80000FFF7A9
S31508003B60A1FF82460CE0286D20F004000129286593
S31508003B704FF0000A04D100F052FA6420FFF736FA33
S31508003B80A86F20F00800A8671420E864C5F848A0C4
S31508003B90787838B198F80600002801BFA86C002884
S31508003BA00120A864B8790028286D14BF40F00800E1
S31508003BB020F008002865FFF735FF18B1306C40F093
S31508003BC008003064202028626C602C604FF4E064A2
S31508003BD068687F30686004202862DFF8540604604D
S31508003BE006E002F085FB18B102F08AFB01F05AF8EC
S31508003BF0DFF84006006800F003000328F1D0C9F892
S31508003C000040286D40F0010028650020BDE8F087D7
S31508003C10DFF82406002141608160016821F0020175
S31508003C2001604FF00070DFF8141608600120DFF815
S31508003C30101608707047A0F13301DFF80826914284
S31508003C4000D3704710B5DFF8F84500212170FEF75C
S31508003C50B8FE02E0012002F061FB20780028F9D0C6
S31508003C6010BD2DE9F84FDFF8E065DFF8A855706854
S31508003C70716CDFF8B07508401FFA80F8C6F8048042
S31508003C806878002840F0DD805FEAC870DFF8BC4538
S31508003C90DFF88C9553D5D7F800A0386C796C41EAD3
S31508003CA0004199F80000A960002844D09AF801005C
S31508003CB0800640D5012028704FF480503060306C63
S31508003CC040F480503064FFF7ADFEC0B31920FFF70B
S31508003CD08DF94FF44040DFF878B5CBF82800DBF8CB
S31508003CE000000090E06E40F40050E066E06E40F49C
S31508003CF08050E0669AF80010A8684901B83101EBCF
S31508003D00000AFFF794FDAAEB00000003000BFFF77B
S31508003D1092FFE06E80098001E06600A9E06E0988DE
S31508003D200843E0660020CBF8280048F26070E06699
S31508003D30E888206003E00022002002F05EF85FEACF
S31508003D4008600CD5287830B1002028700022A968B0
S31508003D50402002F052F8306C20F4805030645FEA5C
S31508003D60486008D5687830B9FFF761FD014600223A
S31508003D70892002F042F85FEAC86054D5DFF88CA4BF
S31508003D80DFF8A4B49AF80400012804BF9AF80610CC
S31508003D9001291FD100F057FB386F40F00100386742
S31508003DA000208AF80600FFF7C1FA0A20FFF71EF975
S31508003DB04FF6FF7070604FF000084FF4E060CBF8E4
S31508003DC000000920B8660120B864B86F40F0080002
S31508003DD0B86718E0297999F80220491C2971C9B2EF
S31508003DE0914215D2012808BF00F0DCF8B86F20F020
S31508003DF00800B8671420B866FFF754FEB8644FF495
S31508003E000070CBF80000386D40F0010038650AE014
S31508003E10012808BF00F0C6F8FFF709FD0146002291
S31508003E208D2001F0EAFF5FEA08700AD5FFF7FAFD70
S31508003E3038B12068E88001202060706C20F0080006
S31508003E4070645FEA88600AD520203862687830B9DD
S31508003E50FFF7EDFC01460022882001F0CEFF6878C6
S31508003E6020B118F4407F04BF0120A870BDE8F18F87
S31508003E70DFF89C130028086814BF40F4404020F47B
S31508003E8040400860704770B582B00546FEF72AFCC8
S31508003E90DFF8C803DFF88043002101601521E160DF
S31508003EA0092101651F21416001210166DFF8A80388
S31508003EB00088FEF79CFAFFF761FA02F06BFD00F046
S31508003EC02EF9DFF84863308900F056F9708900F05A
S31508003ED05BF900F0E7FE616841F04001616000F0BF
S31508003EE0F7FE707800F0ECF8B07800F0FDF8DFF82F
S31508003EF07003007800F02AF9DFF8680390F90000EB
S31508003F00FEF72FFC307800F047F996F9030000F029
S31508003F104FF9DFF8540300F06DF9BDF80000DFF83B
S31508003F204C13C0054CBF0020BDF800000870DFF830
S31508003F3040030078FEF7D8FB28B10FF260304FF443
S31508003F40707100F0CBFE012D05D12068C00711D590
S31508003F5000F028F80EE06DB92068C0070AD400F012
S31508003F6072FA206840F001002060C820FFF73EF88A
S31508003F700020B071F120DFF8B452286440F2F9103D
S31508003F80E86300F03CFBFFF773FFFFF7CFF9206803
S31508003F90C00704D54FF6FF70286000F06DF8FEF7ED
S31508003FA040FF73BD70B5DFF8CC52DFF860422E686B
S31508003FB0A079012832D000F075FE48F2D0012960B8
S31508003FC06A68520509D548F222022A606A68D2054B
S31508003FD0F5D529606A685207F1D4B6B2DFF85022DF
S31508003FE02E604FF4E0611160DFF868120A6A520821
S31508003FF052000A620A68520852000A600A6842F0C9
S3150800400002020A604A6A42F001024A620121A1716B
S3150800401000F05EFEBDE8704000F00ABA70BD70B5EB
S315080040207A4CA07938B300F00EFA00F03BFE05464C
S31508004030DFF84412794E01200860306D40F0010027
S3150800404030650020A071FFF771F920203060306BD1
S3150800405040F002003063F06D40F00800F065284635
S3150800406000F036FE0A20FEF7C1FF70494FF6FF70D2
S31508004070086000F001F870BD4FF4E0606A49086016
S31508004080704762488079704760480079012808BF00
S31508004090FFF788BF70475D480079704780B50228EA
S315080040A001DB012002BD594908718979884205D08A
S315080040B010B9FFF7B4FF01E0FFF774FF002002BD57
S315080040C010B5044600F0EEFD6C490A68002C04D0D1
S315080040D042F012020A60012103E022F012020A608D
S315080040E000214A4A517040E038B5044600F0DAFD2E
S315080040F00546FFF722FC40B960480168002C14BF4A
S3150800410041F0800121F08001016040488470284612
S31508004110BDE8324000F0DCBD3C488078704758491D
S315080041204A780B78574803EB022202608B78CA78E4
S3150800413003EB022242600B794A7903EB0222826082
S31508004140CA79897901EB0221C160704710B5044626
S3150800415000F0A8FD49490A68002C14BF42F0200265
S3150800416022F020020A603E490C70BDE8104000F0BB
S31508004170AFBD26480089704724490881424908602E
S315080041807047224840897047204948813F4908605E
S3150800419070473F48007870471F490A68002814BFCF
S315080041A042F0020222F002020A60184908707047BB
S315080041B038B504467F2C0AD1364800F01BF8BDF8FE
S315080041C00000C00554BFBDF800406FF04A0400F077
S315080041D069FD0546FFF7B1FB30B964B204F19A00F0
S315080041E080052D49000C08600848C470284600F070
S315080041F06FFD31BD018802237F2200A8FEF7D6BFD6
S31508004200024890F903007047E82F00207024002028
S3150800421040A00040D02E00208020004030200040E2
S31508004220542400201020004000E100E004A00040D3
S3150800423080E100E0A820004010E000E004ED00E086
S31508004240E92F0020CDFF070000A0004064100040C1
S31508004250E410004060200040482400205C10004024
S31508004260E72F00203C240020983C0108CE2F002090
S31508004270382400201C1000402810004084200040EC
S31508004280142E0020982000409420004090200040E2
S315080042906E2400209C3C0108541000407068792D5B
S315080042A0636F6D6D6F6E2E630000000038B50120D8
S315080042B0FEF761FC0020FEF731FEDFF84C4320686C
S315080042C040F008002060FDF7E8FFFEF717FEDFF86C
S315080042D03C13DFF83C030A78C2604B78DFF83423D6
S315080042E0D3608D78DFF83033DD608D880560CD8842
S315080042F04560088910604889506088891860C889AF
S31508004300586000F095F8206820F010002060FDF74E
S315080043107DFF02F094FC02F0F7FCFEF7C3FCFDF704
S31508004320BAFFBDE83140FDF7D6BF40F2016002F0A2
S3150800433087BD10B502F05FFE02F06CFCDFF8DC12F8
S3150800434000F001F810BDDFF8C8020A78C2604B78A1
S31508004350DFF8C022D3608C78DFF8BC32DC608C884A
S315080043600460CC8844600889106048895060888950
S315080043701860C8895860704710B5FEF7D4FBFEF779
S31508004380BDFDA249FFF7DFFF00F052F800F008F87C
S31508004390FEF7CEFC02F047FCBDE8104002F047BE2F
S315080043A09948016821F010010160FDF72FBFF0B5AB
S315080043B00B689C4C0F256468960005FA06F634428D
S315080043C015D0002606EB820724FA07F7FF070BD558
S315080043D0B70005FA07FC23EA0C0330F812C005FA01
S315080043E007F707EA0C073B43761C042EEADB0B604B
S315080043F0F0BDF0B50B688B4CFF256468D600B54058
S315080044002C4213D00025012605EBC20724FA07F72C
S31508004410FF0708D506FA05F7BB43175C06FA05FC3D
S315080044200CEA07073B436D1C082DEDDB0B60F0BD5E
S3150800443010B50021002000F0BAF87A48406808B1A3
S31508004440764C0BE010BD10B5764C20780020FFF7AF
S3150800445077FA606808B16D4C00E010BD7249002219
S315080044602046FFF7C6FF012270492046FFF7C1FF25
S3150800447002226F492046FFF7BCFF0022644900F07C
S3150800448016F80122664900F012F80222614900F086
S315080044900EF80322674900F00AF804225E4900F084
S315080044A006F8201DBDE81040052263497FE7201D58
S315080044B07DE70320FEF729BF80B502F03AFF0FF229
S315080044C07C1109E080B502F038FF0FF29C11020456
S315080044D0120E51F82210C0B201EB800002BD000096
S315080044E010B502F026FF044602F027FFC0B208B94D
S315080044F0012C07D1072C11D8DFE804F004100608B0
S31508004500080A0C0E002010BD092010BD022010BD9F
S31508004510032010BD0B2010BD062010BD44F08000FE
S3150800452010BD10B53F4C6078A17800F0010001F08D
S315080045300101084317D0E06848B1A078000706D5FE
S31508004540E16808208847A07800F0F700A070A06806
S3150800455048B16078000706D5A168082088476078C2
S3150800456000F0F70060702078BDE810400020FFF7E3
S31508004570E7B92DE9F04100F03DF82A4F8046387832
S31508004580A0B15CB9787800281CBFB868002805D0A7
S315080045907878400602D5B96840208847BD607878A3
S315080045A0A0421CBF7C70FFF7BCFF00261CE02DE96B
S315080045B0F04100F01FF81B4F80463878A0B15CB96F
S315080045C0B87800281CBFF868002805D0B8784006D7
S315080045D002D5F96840208847FD60B878A0421CBF1C
S315080045E0BC70FFF79EFF0026404600F071FB304680
S315080045F0BDE8F08104460D46012600F053BB094884
S31508004600007870470000000000BC0040E42200204B
S3150800461000B0004000B4004000B80040F42200207A
S3150800462004B00040A02500200CB000400CB40040A7
S315080046300CB8004004B4004004B80040554E4B0086
S315080046404649420042544C004558540050575200BF
S3150800465057444700205357004352530046534800D7
S3150800466042414400464C5400A8330108AC330108C3
S3150800467004340108243401082C34010838340108AC
S3150800468044340108503401085834010864340108D8
S31508004690743401082A490A68920992010A600A686C
S315080046A0104308604FF4004126480160002101606C
S315080046B06420FEF79BBC2DE9F047234D204FD5F823
S315080046C00090224C8046286840F4004028603868EC
S315080046D020F480503860207868B162781C48A17848
S315080046E000EB820200EB880012F82A2C10F82A0C3C
S315080046F0891A461802E0012020262070B0B2FFF77A
S31508004700C9FF0FF2500A02E0B0B2FFF7C3FF386BD9
S31508004710042805D0386B400754BF761E761CF3E78D
S31508004720F86A38B184F80180A6701FFA89F0286003
S31508004730BDE8F08740F22111504600F0CFFAE6E7CF
S31508004740D0100040181000401C100040E42F002034
S315080047509C280008616E616C6F6775652D76636FBE
S315080047602E63000081014FF4FE5289B20C20FDF73A
S31508004770FABD2DE9F84F8F4CA56820680127ADB220
S3150800478000264FF00A08B9461FFA80FA00F04FFAD9
S31508004790B0202063DFF820B208E016F1190FB8BF81
S315080047A04FF00A08464436B27019A060DBF80000DC
S315080047B0000702D559EA070028D00120FEF716FCA3
S315080047C0B9F1000F11D0AAF10300874202DAF81CEA
S315080047D087B213E00AF500402060574606210920F3
S315080047E000F0CEF94FF000090BE0DBF800000007F7
S315080047F007D5042FA6BFF81E87B2002707F5004085
S3150800480020601A2EC9DB6FF00908CBE7A560C4F84B
S3150800481000A00820CBF800006848006880B2BDE810
S31508004820F28F80B5624B66491B784FF0FF326BB149
S31508004830002819BF4A606348486041F211100860B1
S31508004840614841880088BDE8044092E7002819BFFE
S315080048504A600A604860086000F0E9F9BDE804406B
S315080048600621092000F0DDB938B50120FFF7D9FF88
S3150800487004460020FFF7D5FF05460120FFF7D1FFC4
S315080048804042001B00EB450000B232BD2DE9FE4F49
S315080048904E4CDFF83C81A06A454EADF8020025680B
S315080048A0D8F800B0307860B14FF6FF7200210820C2
S315080048B0FDF752FDADF80000C022C0210820FDF723
S315080048C052FD4448DFF81091007818B148F260703C
S315080048D0C9F80000708840F4404040F04C00C9F820
S315080048E03C000220A0620120206040F24C40FEF706
S315080048F07DFB0120C8F80C00C8F800000020324FE4
S31508004900388040207880307800B12020FFF72AFFD1
S31508004910FFF7AAFF8246402038807F207880FFF77D
S3150800492021FFFFF7A1FF0290504601F0B8FCFE21D7
S3150800493001FB00F70298AAEB00000190307860B1FD
S31508004940029801F0ACFC8246019801F0A8FC80B2FE
S3150800495007EB8A11B1FBF0F005E0019801F09FFC26
S3150800496080B2B7FBF0F080B2401CC7031FFA8BF089
S31508004970C8F80000ADB20020C8F80C00022020607C
S315080049802560BDF80200A0620020C9F83C00307816
S3150800499030B1BDF800104FF6FF720820FDF7E3FCB2
S315080049A040F24C40FEF722FB380CBDE8FE8F0000B3
S315080049B06A240020C010004018A000400070004083
S315080049C038100040EEEEFFFFBC2F002060200040AC
S315080049D02810004039240020D010004041003F2212
S315080049E089B201E001463F220220FDF7BCBC2DE951
S315080049F0F04F564C564D95B0E06CADF810004FF69A
S31508004A00FF782068ADF80E004246E86AADF80C005B
S31508004A1000210120FDF7A0FCADF80A00424600215E
S31508004A200B20FDF799FCADF808004FF40040206014
S31508004A3000202861686148F2020000F08BF84CF605
S31508004A408C30E0644FF4805248F2F000E862114678
S31508004A500120FDF788FC424600210B20FDF783FC68
S31508004A600621062000F0DDF8019000F085F8009098
S31508004A704CF69C30E0640020FFF7B0FF062108469C
S31508004A8000F07EF800260DF1140BB0B2FFF7A6FF72
S31508004A900621062000F074F800F08DF82BF81600B1
S31508004AA0761C202EF1DB00F086F81020FFF796FF23
S31508004AB000F062F80099019A401ABBF82010891A8A
S31508004AC0404301FB01094FF0100A112700F04EF888
S31508004AD000F052F800F043F806DB81461FFA87FA21
S31508004AE0781C07B2202FF1DBBAF1100F0ED10F2771
S31508004AF000F03CF800F040F800F031F806DB81469B
S31508004B001FFA87FA781E07B2002FF1D5BDF81000F4
S31508004B10E0644246BDF80E002060BDF80C00E8626D
S31508004B200120BDF80A10FDF71EFCBDF80810424624
S31508004B300B20FDF718FC01202861002000F00AF878
S31508004B404FEA4A00C0B215B0BDE8F08FC010004069
S31508004B5018100040286040F24C40FEF747BA00990A
S31508004B60401A404306FB0600484570473BF81700C5
S31508004B700199461AB8B231E70621072000F051B864
S31508004B8070B505460E4600F093F83F4C206C20F0B1
S31508004B900800206400F09AF800F084F8310341EA2E
S31508004BA0C5113A4A41F00101116008212160BDE8AA
S31508004BB0704000F08DB82DE9F041354C354D324E38
S31508004BC025E000F075F8344904200860306C40F0A0
S31508004BD0080030642F68286840084000286000F004
S31508004BE06DF8D4F80080206820F04000206000F0BE
S31508004BF061F8C4F800802F6000F060F8306C27492F
S31508004C0020F0080030640420086000F05FF830687F
S31508004C100007D6D5082030602148006880B2BDE874
S31508004C20F08180B5FFF7ACFFBDE80140C3E7174840
S31508004C3001684908490001607047F8B50746FEF75C
S31508004C4095F9044639460320FFF7EBFF0546394632
S31508004C500120FFF7E6FF0646FDF77DFB39460020F3
S31508004C60FFF7DFFF0746FDF775FB084801684908A7
S31508004C7049000160781B0004711BB0FBF1F060432A
S31508004C804000000CF2BD000018A00040047000406F
S31508004C900080004094ED00E000E100E080E200E0E2
S31508004CA000700040EFF31180602181F3118870478E
S31508004CB072B6704700BF30BF00BF7047BFF35F8F43
S31508004CC0BFF34F8FBFF36F8F7047000062B6704710
S31508004CD080F311887047000042DE704738B50446F5
S31508004CE00D46FDF7E3FAFFF7DDFF2946204602F0F9
S31508004CF05AFB2B4622460FF2CC11012002F0C5FDC5
S31508004D0029462046BDE83440E6E72DE9F84F6548D0
S31508004D10654D01682E1D4FF4206A7165016AB165FB
S31508004D2062490968F165416A3166816A7166C16AD4
S31508004D30B166016BF166806B306796F83400400700
S31508004D404CBFF76BB76BBB4602F019F90022584CFB
S31508004D50DFF86081DFF86091F2648742014624BF7C
S31508004D60A4F12003BB4231651DD357F8180F3064F0
S31508004D7057F8040F7064706DC005C00D062815D16C
S31508004D80306C484512D3404510D200884DF6426231
S31508004D9090420BD105F18C006A68426040F2017AB4
S31508004DA07268826002E032647264834643488142D4
S31508004DB002D2014600E0091DA14203D20B68B3F1F5
S31508004DC0CD3FF8D0601AB064182105F1780002F0DA
S31508004DD09DFD002003E0C0B205EB80029167A34564
S31508004DE023D254F8041D4945F9D34145F7D2CA07D9
S31508004DF0F5D5002205EB82039B6F8B4203D0521C2C
S31508004E00D2B2062AF6DB062AE9D1002814BF401ECC
S31508004E100520E0E7716F002205EB8203521CDF6F65
S31508004E209F67052AF8DBC5F88C100146481EC9B2EB
S31508004E300029EFD1706DC005C00D02280AD00328DD
S31508004E4015D0042816D0052817D0062818D00C28FF
S31508004E501CD01EE01A480168890748BF40F6021AA6
S31508004E601CD40068C00719D540F2025A16E040F66D
S31508004E70012A13E040F6022A10E040F6032A0DE064
S31508004E80BAF5206F0AD140F6042A07E040F6052A4B
S31508004E9004E018B1242838BF40F6072A5046BDE872
S31508004EA0F28F000004ED00E00000002000E300E0BF
S31508004EB0902200202C2E010890210008980000203E
S31508004EC01CA000400D0A5B4153534552543A2570C5
S31508004ED03A25645D0D0A0000814233D21018511834
S31508004EE0401E491E10E011F8013900F80139121F59
S31508004EF011F8013900F8013911F8013900F80139BA
S31508004F0011F8013900F8013992B2042AEBDA92B2A3
S31508004F10002A1EBF11F8013900F80139521EF6D1D0
S31508004F20704711F8013B00F8013B121F11F8013BCD
S31508004F3000F8013B11F8013B00F8013B11F8013B71
S31508004F4000F8013B92B2042AEBDA92B2002A1EBF9D
S31508004F5011F8013B00F8013B521EF6D170471300C9
S31508004F6003D00A46194602F0D5BC704710B500E0D2
S31508004F70521E92B222B100F005F8F9D0181B10BDE6
S31508004F80002010BD10F8013B11F8014BA3427047F1
S31508004F902DE9F04F89B080461D251D22FF2100A866
S31508004FA0FFF7DDFFDFF8ACA07C22FF215046FFF7B4
S31508004FB0D6FF0027284CDFF8A490294EB85D17F8CD
S31508004FC009B0395D401C00EBD070401001B11930B2
S31508004FD0401C00FB0BF2234830F817100FF288002C
S31508004FE092B202F0CEFCBBF1010F1CBF2AF8175093
S31508004FF05D447F1C1D2FE1DB0FF288001D2340F264
S315080050001C4240F2122102F0BCFC0FF2A8054FF434
S31508005010E04000F00DF918B1CA212846FFF75EFEF8
S315080050204FF4804000F004F918B1CC212846FFF768
S3150800503055FE4FF4805000F0FBF818B1CE212846F3
S31508005040FFF74CFE00A9404600F01FF909B0BDE87D
S31508005050F08F0000382C002090390108D03901085B
S31508005060B03901085439010843726561746F723AA0
S315080050702030782532582C20576F7264733A2025D1
S31508005080640A000053696D454520646174613A20DD
S31508005090256420776F726473206F66202564206DFF
S315080050A061782C20746F6B656E436F756E743A2049
S315080050B025640A0073696D2D656570726F6D2E63C0
S315080050C00000000010B5DFF8B44ADFF8B43A2488C7
S315080050D0001B06E010B5DFF8AC4ADFF8A43A2468EE
S315080050E01B1B03EB4000002304E030F8134021F8B3
S315080050F013405B1C9342F8DB002010BD2DE9F041FC
S3150800510082B004460D4616460027DFF8748A01E089
S31508005110B81CC7B2B74217DA7819795D4078DFF854
S315080051205C3A1B8801EB0020ADF80000012207EB72
S31508005130D77004EB6000C01A00F09BFB0028E7D08C
S3150800514002F0A9FC002000E00120BDE8F681F8B5D0
S3150800515004460E46154600270DE000F019F8BDF87E
S31508005160000004EB4701000A4870761CBDF80000F1
S3150800517004F817007F1CB7EB550FEEDBE80706D5DA
S3150800518000F006F8BDF80000291901F8010CF1BD78
S31508005190012200A9B0B295E7DFF8E029DFF8E019A7
S315080051A01288801A01EB4001022002F0DABCDFF80F
S315080051B0D819DFF8D829415C825CDFF8D439C05C9D
S315080051C010B102F5997292B241EAC21080B27047E4
S315080051D010B5DFF8C039DFF8B04903EB4002005DCF
S315080051E0012801D1104610BD1088081803EB4000AD
S315080051F010BD38B50C46DFF8A0190D782A462146A9
S31508005200FFF760FF208800281CBF4FF6FF71884211
S315080052100AD0012000E0401CC0B2A84206D234F8E9
S31508005220101022889142F6D0002032BD012032BDEE
S31508005230F0B5DFF8501987B008600C2200A90020E5
S31508005240FFF748FF00A90025C88A8A890346040A89
S3150800525001204FF6FF7631F81570BDF800C0BC4541
S3150800526003D1B74218BF002F00D100206D1C062DB0
S31508005270F1DBB21A944518BF0020DBB2C4F1FF0176
S315080052808B4218BF002007B0F0BD2DE9F24F044647
S31508005290DFF808690020307070809CB0DFF80009DC
S315080052A00088ADF8020007A9FFF7A3FF834601208F
S315080052B0707009A9DFF8EC080588DFF8EC08B0F883
S315080052C00080DFF8B808BDF802A007883846FFF75F
S315080052D090FFB8B1BBF1000F3CD0BDF81C10BDF86B
S315080052E024004FF6FE72914202D1012804D10CE047
S315080052F0012908BF90422DD00846BDF824108842DF
S3150800530028D202E0BBF1000F23D00020707002976C
S3150800531050460695CDF810800122DFF87C1891F8E2
S3150800532000804044ADF8060000A9BDF80600FFF766
S31508005330C9FEDFF87808008805904FF6FF79BDF8B2
S315080053400000000B404518BF0F2800D10CB30025FC
S3150800535016E0012470780028D9D03846CDF808A080
S31508005360CDF818800495D7E7059805FB00F4E019F1
S3150800537000F02AFCBDF80200201800F025FC6D1C80
S315080053804545F1DB012030704D2002F084FB0025F5
S31508005390FEE0BDF80650012201A92846FFF792FE55
S315080053A0BDF80400C043C0B2ADF804006F1CDFF8B6
S315080053B000080588BDF80400A84218BF01244FF06C
S315080053C0000A20E0401CC1B2A94218D2C0B2DFF8D8
S315080053D0E417BDF80E20834631F81B109142F1D12F
S315080053E0FFF7E5FE4FF680710840BDF80C104FF642
S315080053F080721140884204BF1C980BF800A00AF17D
S3150800540001001FFA80FABDF80400824507DA022275
S3150800541003A9B8B2FFF756FEBF1C0020D3E7002049
S3150800542001E0401C80B2A84217DA1C99415C81420F
S31508005430F7D0012411E02AF81070BDF8060000EB39
S315080054404300401C00F0D5FABDF80200C0F3C710AF
S31508005450401C00EBD07007EB60070498DFF834A710
S31508005460BFB2874211DA012200A93846FFF72AFEA1
S31508005470BDF80000484508D0030A00F07F01BDF8D2
S3150800548004007F1C834202DB012400252FE0002054
S3150800549001E0401C80B2A842CFDA1C9A825C9A428C
S315080054A0F7D1C0B2FF28C8D0DFF8DC26825C7F2996
S315080054B00CBF4FF0000C8C4694450BDABDF800C0C3
S315080054C0DFF8CCE610F80EE04FEA0C6C4FEADC7C0D
S315080054D0F44501D00124B0E7012AACD07F293AF877
S315080054E0100008BF00210818A5E76D1CADB2DFF84B
S315080054F0C8060088854204DA3AF815004845F4D10A
S31508005500012477800498BDB285420ADA012200A9EF
S315080055102846FFF7D7FDBDF800006F1C4845F1D0B7
S3150800552032E7002CFCD1029801220BA980B2FFF7C2
S31508005530C9FDBDF82C0048450DD105E0401C80B2D8
S31508005540202813DB2034A4B20699029A891A8C42C1
S3150800555005DB0120307000201DB0BDE8F08FA518CE
S3150800556020220BA9A8B2FFF7ADFD00200BA931F840
S3150800557010104945E2D0A8B2FFF70EFE203CA4B2AF
S31508005580E0E70298059905FB010000F01DFB6D1C7C
S315080055904545F6DB01203070494600F042F818B15F
S315080055A000F02CF90028D6D10120D5E72DE9F042E4
S315080055B00F46DFF8FC15DFF8D45509888F420446F4
S315080055C0164699460CD2DFF8C015795C30467F2816
S315080055D008BF0020884203DA785D814500D11CB9EE
S315080055E040F2D64100F001FA31463846FFF7F0FDA1
S315080055F00188DFF89C05385C60B1384600F02AFA65
S31508005600795D012908BF207009D0022914BF2060DE
S31508005610208004E04A462046BDE8F04297E5BDE80A
S31508005620F0822DE9F34FDFF85405DFF86C1504888E
S31508005630DFF868050978407883B000281ABFDFF8D4
S315080056406005008820460D18DFF864050088ADF867
S315080056500800ADB2C043C0B200EB013000F550609F
S31508005660ADF802002B1BDFF8180500F0C8F96E1C10
S315080056700028B6B238D10025DFF8387514E0E8B24C
S31508005680FFF795FDADF80400331B37F81500ADF8A4
S3150800569006000222DFF8E80400F0ABF8002823D160
S315080056A0B61C6D1CB6B2ADB2BDF808008542E6DB85
S315080056B0002501E06D1CADB2BDF80800854280F2F8
S315080056C093804FF0000A1CE001220DF102011FFA37
S315080056D089F0FFF7F7FCBB19DFF8A4041B1B09F1D7
S315080056E0010900F08CF9002878D17F1CFFB2B7EBCE
S315080056F01B6FE9DBDFF8C404285C8619B6B20AF129
S31508005700010ADFF8840415F800B05FFA8AFADA4568
S31508005710D0D25146E8B2FFF75BFD8046DFF8700449
S31508005720B8F800902F5CF80140EA0520ADF80000B3
S31508005730BBF1010FBDF800000CBF40F07F004AEA3C
S315080057400000ADF80000311BDFF8340400EB41001F
S31508005750711C89B201914FF6FF7189451EBFBDF8CC
S315080057600010BDF81020914218D19DF80C100029A0
S31508005770C5D0012200A902F02DFA019E70BBDFF800
S315080057800C04A8F800602A5CDFF8340450F82510E9
S31508005790B0B2FFF7B3FC0028ACD122E0DFF8EC1377
S315080057A0695C491C01EBD1714FEAC15B012200A972
S315080057B002F010FA019E88B9002FA8F8006095D06B
S315080057C04946E8B200F046F90190331BDFF8B0030A
S315080057D04FEA1B6200F00DF800288BD002F05BF947
S315080057E0002005B0BDE8F08FDFF8B0034680012041
S315080057F0F7E701A900EB430002F0ECB92DE9F04107
S31508005800DFF89C03DFF894530688DFF870030488F2
S315080058106878002882B012BF204630462646012204
S3150800582000A9FFF74FFCBDF80000DFF854830128F4
S315080058300CBF4FF6FE70401EADF80000DFF85803A7
S3150800584007783846471E58B1BFB2B819001B01225F
S3150800585000F00FF80028F4D002F01DF9002006E049
S31508005860687880F001006870002028700120BDE883
S31508005870F68100A908EB400002F0ACB92DE9FE4F0D
S315080058800D46CB4909888842044617461E464FF0FE
S3150800589000094FF001080CD2BB49615C38467F28E5
S315080058A008BF0020884204DAB848205C864200D146
S315080058B01DB940F2FA5100F098F839462046FFF72C
S315080058C087FC0190B54F787820B1B648B0F800A0AB
S315080058D0AA4803E0B448B0F800A0B148397800886F
S315080058E049B97988081AB74909888842B4BF432054
S315080058F0442002F0D0F801980188A548205CF8B148
S31508005900204600F0A7F8012E08BF297803D0022EFA
S315080059100CBF29882968814265D001980088401EF5
S3150800592000F067F8A548265C7888AAF10101891B6A
S31508005930814201DB002835D1387858BB452044E040
S315080059400291CB4620E002980BEBDB7300EB630079
S3150800595000F03DF90BEB05001BF80510407801EB4C
S315080059600020711E8B4580B205D1BDF80010C9B262
S31508005970C0B2ADF80010BDF8001088420BF1020065
S3150800598018BFC8465FFA80FBB345DCDBB8F1000FE9
S31508005990C3D028E0BDF802100020FFF742FE10B37E
S315080059A04FF0010978887949401C788080B2625C9A
S315080059B02946FFF7A3FBB0B1704C7B882488704852
S315080059C05B1E1B1B00F01BF810B102F064F80AE01E
S315080059D0B9F1000F02D0FFF711FF20B101997888BD
S315080059E0088030187880BDE8F78F0FF2EC10FFF7C3
S315080059F075B901220DF1020180B2FFF763BB0122DE
S31508005A000DF1020100EB430002F0E4B870B582B074
S31508005A10044600251926012200A9A0B2FFF752FB69
S31508005A20BDF80000641C48B14FF47F41401A02D00B
S31508005A30FF3806D007E0681C40B276BDAD1C761E5E
S31508005A40E9D168B276BDBDF80000C0B200B96D1CD8
S31508005A50E843F1E738B50C46002100914B49455C0F
S31508005A602A46214600A8FFF772FB681C00EBD07097
S31508005A7004EB600080B2FFF7C9FF002848BFC043A7
S31508005A80009940B2401832BDF0B549490988044624
S31508005A90404883B0254630F815608C4202D23C480F
S31508005AA0285C18B940F23B71FFF79FFF37482D5C19
S31508005AB0681C00EBD07006EB6007B8B2FFF7A6FFCC
S31508005AC0322814D2C107BFB207EB60002B4F2C4B0C
S31508005AD03F884CBF00214FF47F41ADF80410C01B2E
S31508005AE0012201A903EB400002F074F860B13146C7
S31508005AF02046FFF7AFFF00902B46401C00907F2200
S31508005B0000A92046FFF7BAFEF7BDF8B5234C207862
S31508005B100027002830D119480588607800281ABF60
S31508005B201F4806882E461C4807783846471E02280E
S31508005B301BDBFFB2B81900F04AF8BDF800000028D0
S31508005B40F3D01A48008807FB006000F03DF80020F3
S31508005B50ADF80000BB190A485B1B012200A9FFF734
S31508005B6049FE48B101F097FF06E03046FFF714FBFF
S31508005B70FFB20FB9012020703846F2BD243901085A
S31508005B8000E00208282E0020D0390108B0390108A3
S31508005B9090390108382C002020390108B82F002038
S31508005BA028390108263901082A3901082239010845
S31508005BB02E390108543901083039010834390108E9
S31508005BC0103C01082C39010880B2FFF7E5BA01221A
S31508005BD000A980B2FFF776BA73696D2D6565707294
S31508005BE06F6D2D696E7465726E616C2E63000000B0
S31508005BF080B502F0DBF802F0E7F9BDE8014002F0F3
S31508005C00C5BB62490020087161480078022808BFB0
S31508005C1002F08EBF704770B55E4803F032FA04464C
S31508005C20FF2C44D003F0A8FA0646584D0321204617
S31508005C3003F083FA28700421204603F07EFA687080
S31508005C400521204603F079FAA870012003F05CFBD1
S31508005C50204603F091FA00F00C00082803D12046EC
S31508005C6002F02CFA1BE006F00C000C2817D120468F
S31508005C7003F073FA064603F097FA805D072802BF19
S31508005C804348007802280AD1287940B900F020FB59
S31508005C9000F07F00411C89B2281D03F05AFB2046FC
S31508005CA003F002F8BDE87040002003F02DBB70BD7C
S31508005CB02DE9F04180460D4600260DB9012602E081
S31508005CC0312D08BF0025344F03F056FA0C2108423F
S31508005CD002D13978012013E00324404603F07FFA05
S31508005CE0B0F5006F08D1404603F09DFA4FF6FF71F4
S31508005CF0884208BF012401D005B105243978204619
S31508005D0003F066FC2946404602F072F828B9324686
S31508005D1029464046BDE8F04101E0BDE8F08170B58E
S31508005D2004460D46164603F027FA00F00C0008282C
S31508005D3006D1324629462046BDE8704002F085B9AC
S31508005D4070BD10B50446A079012804D1134801781E
S31508005D5041F001010170207803F00EFA00F00C0002
S31508005D60082809D1207802F0D2F928B9607800F01D
S31508005D70F0006070002010BD012010BD08490870B1
S31508005D80411E8941C80FFEF789B900001C2E002064
S31508005D90EB2F002094240020EC2F00200D2F00204C
S31508005DA0EA2F002080B503F0DCFD08B1002002BD13
S31508005DB0702002BD00207047012070470020704700
S31508005DC00020704738B504460D46012003F09CFABA
S31508005DD06D48002D12BF00210178491C017003206F
S31508005DE00021FEF7C6FB694844706948FDF779FE4D
S31508005DF0BDE83240002003F087BA38B50446402C87
S31508005E0002BF644800780028154603D00021002008
S31508005E10FEF7AFFB002C43D0402C23D0882C18BFAC
S31508005E20892C44D08D2C31D08F2C4AD15A480078F1
S31508005E3004280DD145B159490220087040F60620BC
S31508005E40BDE8324004F050BBFEF71EF9312034E0BD
S31508005E50012001F0C9FDFEF717F9002D0CBF31200E
S31508005E6000202AE004F06EFBFEF70EF946484C497E
S31508005E7000780978884204D2BDE834400021012020
S31508005E80A0E7002001F0B0FD402016E0002001F058
S31508005E90ABFDFEF7F9F80021202003F099FB0BE093
S31508005EA0012001F0A1FDFEF7EFF8002005E0002033
S31508005EB001F09AFDFEF7E8F88D20BDE8324002F0C1
S31508005EC05BBDBDE83440A6213BE034480078022893
S31508005ED000D0704780B533480078042807D00C28CE
S31508005EE00ED131480078022818BF7C2808D104F062
S31508005EF017FBFEF7C9F8BDE80240002002F03CBDDA
S31508005F0001BD38B50024FEF7CDFE054623480078C6
S31508005F1010B9FDF7F8FC04462846FEF7D9FE002C12
S31508005F201CBFBDE8314001F0FCBD31BD80B5FFF7AF
S31508005F30E8FFBDE804404FF4A0511C4803F009BA35
S31508005F40E2210FF27000FEF7C9BE38B5184CA068FA
S31508005F50A16C01EA0005ADB2A8070BD5A06C20F02C
S31508005F600200A064206810F0190F03D10021002058
S31508005F70FEF71DFB680705D5A06C20F00400A06499
S31508005F8002F015FCA56031BDEC2F0020542400203A
S31508005F901C2F0020C72F0020752400200C2F00205E
S31508005FA085240020ED2F0020EE2F0020FC2E002057
S31508005FB000A000406D61632D656D3235302E63009B
S31508005FC070B504460D461646FEF7A6F838B1607851
S31508005FD0002E14BF40F0200000F0DF006070294654
S31508005FE0204602F0C3FEFF2821D0864C0146201D1C
S31508005FF003F032F8844D28882188401C288080B216
S3150800600081420AD26888401C6880201D03F039F84E
S3150800601002F04AFE2888401E28802088298888425F
S31508006020F3D3BDE870407948007803F061BA70BDD3
S315080060302DE9F04FA5B082460027FEF733FE724CD5
S315080060402188491E2180FEF743FE504602F0B8FD1E
S3150800605090F8009081784078009700EB01201FFAAD
S3150800606080F800F0B3F8A0F108020823D2B251462E
S3150800607002A802F097FE6648007802AEE8B16068AA
S31508006080002819D0F078FDF7F9FC4946FDF7FDFC24
S31508006090074696F9020000F166060020009009F10D
S315080060A00103DBB20022514604A802F07BFE6368B6
S315080060B072B2394604A8984780E008F0070002281B
S315080060C07DD0FF208DF80400504602F079FD00F1DE
S315080060D0010B584603F068F80446A9EB0400801E35
S315080060E045B2002D6BD45FEA885003D508F0070047
S315080060F0032810D101A9584602F08BFC00285ED16E
S3150800610008F0070001280BD19DF8040004EB0B01E9
S31508006110FFF752FE20B99DF8040002F0C5FD4EE0D7
S315080061203C499DF804000968475C3B49096800F842
S3150800613001A000F04BF800F120019DF80400C9B257
S3150800614002F044FD9DF8040003F016F800F00C0078
S3150800615004281CBF6519002468B280B20090631C2D
S315080061609DF804009BB25246394602F044FFE919ED
S315080061709DF80400C9B202F0C1FEF078FDF77EFC76
S315080061804946FDF782FC02469DF80400032102F009
S31508006190CDFFB07800F166029DF80400D2B2042162
S315080061A002F0C4FF9DF808209DF80400052102F0BE
S315080061B0BDFF9DF804A0504602F0F5FB01275046A6
S315080061C002F072FD384625B0BDE8F08F1148006828
S315080061D01AF80000704710B50B4C618829B1C9B28E
S315080061E01D2003F0F5F9002060800C4802F049FFF5
S315080061F0FF2803D0FFF71CFF0028F6D010BD07487C
S3150800620002F066BF88240020042F0020D42F002027
S31508006210D12E0020BC220020C42200208C2400207D
S315080062200268174912BACA60426812BA8A60826856
S3150800623012BA4A60C06800BA0860704710B51149BA
S3150800624080220A600623104A136007230B6013682E
S315080062509B07FCD5002350F823405B1C24BA042B6B
S315080062608C62F8D313685B07FCD500220B6B1BBA4C
S3150800627040F82230521C042AF8D310BD0000000052
S31508006280383000400030004010A0004010B50446E9
S315080062900846FFF7C5FF2046BDE81040CEE70028B0
S315080062A048BF40427047000081B209B94BF6EF611A
S315080062B00E4A1180000C08BF4FF6CE20508070475A
S315080062C00288130448BF4A405100018010467047AF
S315080062D038B5064C62212046FFF7F2FF054641F223
S315080062E00B01A01CFFF7ECFF684032BD44230020D9
S315080062F0EFF3118060288041C043C00F704700004B
S31508006300002181F311887047012100F01F02914096
S31508006310DFF82026400942F8201070472DE9F04F93
S31508006320DFF818469BB0804660681990B8F1070FE9
S3150800633008BF4FF003080AD0B8F1080F08BF4FF09E
S31508006340020804D0B8F1050F08BF4FF00408DFF8BB
S31508006350F0552868696840EA0120A96840EA0140C2
S3150800636000906868400703D5E06940F00200E061E4
S315080063702868400703D5E06940F00400E06100980A
S315080063802969C840C00703D5E06940F00800E06104
S315080063900020DFF8A465DFF8AC953060B8F1010F8E
S315080063A000F06D82C0F09682B8F1030F1ED005D3B7
S315080063B0B8F1040F40F08E82606017E0D9F840000B
S315080063C0C00703D5E06940F04000E061D9F8400015
S315080063D0400703D5E06940F02000E061D9F84000A5
S315080063E0800703D5E06940F01000E061FEF75AFC2B
S315080063F0FBF769FF8DF860004FF0000BD9F84000F5
S31508006400DFF844A5DFF84475DFF844151790D9F886
S3150800641044001690DFF83C05C06C1590DFF834058B
S31508006420006D1490DFF82C05406D1390DFF82405F5
S31508006430806D1290DAF800001190DAF804001090D6
S31508006440DAF814000F90DAF824000E90DAF834001F
S315080064500D9038680C9078680B90B8680A90F868C0
S3150800646009903869089078690790B8690690F869BC
S315080064700590B86B0490DFF8E0040068096803919A
S3150800648002212160DFF8D41409688DF80410DFF8BA
S31508006490D01409688DF80510DFF8C81409688DF856
S315080064A006104FF0FF316162DFF888140968C904E5
S315080064B00BD56968C90708D5E169C90705D53168E3
S315080064C041F480714FF0010B3160DFF868140968F8
S315080064D089040BD56968490608D5E169C90705D550
S315080064E0316841F480414FF0010B31600121DFF83A
S315080064F04424126852040ED5009AEB68DA40D20793
S3150800650009D5E269D20706D53268EB6801FA03F3C2
S315080065101A438B463260DFF81C241268120410D521
S31508006520009A2B69DA40D2070BD5E269D20702D462
S31508006530E269120705D532682B698B4699401143E3
S315080065403160DFF8F0130968C90308D5E16909065F
S3150800655005D5F17841F008014FF0010BF1700021E3
S315080065606A68D2076A6848BF4FF480515206009A93
S31508006570EB6848BF41F40051DA40D207009A2B690C
S3150800658048BF41F48041DA40D207E26948BF41F486
S315080065900041D20605D4E269920602D4E26952069F
S315080065A001D541F01001E269120648BF41F4803175
S315080065B008400290A520FBF77DFE0120E063E06914
S315080065C0A16B11B1616A0142FAD0616A014200F019
S315080065D0F3800020E0634FF0010BF07840F04000B4
S315080065E0F070FEF765FB0D98DFF86813CAF83400FB
S315080065F00720C9F800000F20086003F0A5FF1998C6
S31508006600D44960601798C9F840001698C9F844003C
S315080066101598C8641498086513984865129888658B
S31508006620CD491198CAF800001098CAF804000F98C6
S31508006630CAF814000E98CAF824000C9838600B980B
S3150800664078600A98B8600998F860089838610798D9
S3150800665078610698B8610598F8610498B863029855
S315080066600860BB49039808604FF0FF30BE490860D0
S31508006670BA4800683070BA4800687070B94800684F
S31508006680B070626AE06910402A69336801994B4024
S3150800669000990B400106490E01F0010143EA8123E6
S315080066A00106890E01F0010143EA81030106C90EBC
S315080066B001F0010101FA02F21A4300F47C7042EA81
S315080066C000503060FEF7EEFAFEF700FB002020606F
S315080066D09DF8600008B1FBF7E0FDF0789E4909686F
S315080066E0C90304D5C0F3C00109B120212162D9F834
S315080066F04010890704D5C10744BF0221C9F80C1008
S31508006700D9F84010490705D5C0F3400111B1042155
S31508006710C9F80C10D9F84010C90705D5C0F3800090
S3150800672010B10120C9F80C008A48C06C10F0E00FBF
S3150800673005D03068C00544BF0C20FFF7E5FD854845
S31508006740006D10F0E00F05D03068400444BF0D20FE
S31508006750FFF7DAFD7F48406D10F0E00F07D030688C
S31508006760E968C840C00744BF0E20FFF7CDFD794849
S31508006770806D10F0E00F07D030682969C840C0075F
S3150800678044BF0F20FFF7C0FDBBF1000F6ED177485D
S31508006790006800056AD56068800767D5B8F1040FF8
S315080067A064D06D480068C0063DD562480068C006DA
S315080067B039D50120307159E0BBF1000F7FF40DAFD8
S315080067C0DAF81800624940084000CAF8180060481C
S315080067D0806840F00400886040F207216448008819
S315080067E0884201BF624840884FF20F01884205D1AE
S315080067F05F494CF23C3048804FF0010B012003F012
S31508006800DDFEBBF1000F05D059494FF20F00488055
S315080068104FF0000B5548554940680004B060896838
S315080068200843B060DFE6FBF731FD5249B0FBF1F0F3
S315080068304FF47A7148432F303021B0FBF1F0002134
S3150800684031714D494A6D42F001024A650A68474B63
S31508006850464C5B68A46844EA0343B468A34205D17E
S315080068600B689B1A1B031B0B8342F0D3F07840F08E
S315080068708000F0701BB0BDE8F04FFFF741BDFBF795
S3150800688022FD0446A520FBF715FDFEF711FAFFF7D2
S3150800689037FD3A4F3E683868400840003860FEF7D2
S315080068A00DFADFF8DCB0DBF80050DBF8000020F06A
S315080068B04000CBF80000FEF7FDF9CBF800503E602B
S315080068C0FEF7FCF90CB1FBF7E8FC1BB0BDE8F04F8E
S315080068D0FEF7FCB91BB0BDE8F04F40F254410FF289
S315080068E0AC00FEF7FBB911F1010F154A07D0CBB280
S315080068F01360C1F307235360C1F307419160002376
S3150800690020490B601368002B04BF5368002B01D184
S3150800691092681AB10A6842F001020A600A6842F4EB
S3150800692000720A600A6842F080020A60F6E41649B4
S31508006930D9E7000000E200E0B42C00200400004083
S3150800694008BC004014A0004004400040005000402D
S3150800695008ED00E014A8004000E100E008B000409F
S3150800696008B4004008B8004080E200E00C6000402F
S315080069700000002090D003003820004094ED00E08D
S31508006980008000402000004000404000736C6565B0
S31508006990702E630003480188034808237F22FCF70A
S315080069A005BC00BF9E3C0108142E0020DFF800033A
S315080069B0016C41F4C04141F0090101644FF6FF71D1
S315080069C001602020DFF8EC120860704770B51546A4
S315080069D01E46002804BFBDE8614000F0FBBA012846
S315080069E035D113293CBF0FF20C30095C0809642223
S315080069F0504301F00F010B2903DA884006E00A220A
S31508006A0050430A46511ED2B20B2AF8DA0146012033
S31508006A10FCF716FBE0B9300907280CBF0020022056
S31508006A20012D08BF40F0180003D0022D08BF40F022
S31508006A30080006F00F0102299F49A8BF40F004008C
S31508006A40886001200860FFF7B1FF002062BD2120A1
S31508006A5062BD38B5040012D198480468608828B128
S31508006A6040F291210FF28420FEF738F9A188C9B2C5
S31508006A70A01D00F0A5FC0020A080208031BD0128C3
S31508006A8002BF8D48006801280FD1FEF70BF90546AD
S31508006A908B48016841F006010160012000F09AF870
S31508006AA02846BDE83240FEF713B931BD012804D1A6
S31508006AB08348016821F006010160704780B50B46DE
S31508006AC0114620B9184600F07BFC002002BD0128BB
S31508006AD002BF7C488269012A07D0212002BDC2680C
S31508006AE05207FCD513F8012B02600A46511ED2B292
S31508006AF0002AF4D1C1684906FCD5E6E710B5044674
S31508006B00FBF7D4FB012C03D1714800684006FBD57E
S31508006B1010BD70B56C4A6D4B12680CE0158810F8FC
S31508006B20014BAD18AC7114881D8800F06DF81480FF
S31508006B309488641C94800C46611EE4B254B194880F
S31508006B40644D2D886D1EAC42E8DBBDE870402321FC
S31508006B5000208EE070BD2DE9F84304465A48DFF858
S31508006B606C91DFF87081574F254650F8256014E080
S31508006B70B18838F81520521E91421CDA31888919D5
S31508006B808871308839F81510401C90FBF1F201FB2A
S31508006B9012003080B088401CB080F868800716D58F
S31508006BA0F86810F038013868E2D0080705D4C80636
S31508006BB005D5242107E0232105E0272103E08806DF
S31508006BC04CBF25210121204600F053F8E5E7BDE832
S31508006BD0F183704770B539493F4A51F82010394B4F
S31508006BE00CE04C886418A4791C604C8832F8105064
S31508006BF000F00AF84C808C88641E8C808C8814B14E
S31508006C00DC686407EDD470BD641C94FBF5F605FBDF
S31508006C101644704731483249C2680A6002694A60B8
S31508006C200068886070472E4923480A6842614A68A6
S31508006C30826189688160012101600120B6E670479A
S31508006C4038B51B4C0FE046F229700542256003D083
S31508006C50A9B20120FFF77FFF41F6D60005421CBF07
S31508006C600120FFF7B7FF2068216C11EA0005EAD179
S31508006C7031BD30B5144A1B4C52F82020055D1A4B1D
S31508006C8025B9128823F81020015530BD33F8103085
S31508006C9013800155138851888B4205D20D4C34F860
S31508006CA01000401A181800E0581A908030BD0000ED
S31508006CB008A8004000E100E054C80040182400205D
S31508006CC048A800403CC80040282400200079000855
S31508006CD048C8004018390108F87800085CC8004020
S31508006CE0C02C00202C2C0020302C002075617274DA
S31508006CF02E630000306090C0C1C2C394C495C55CC1
S31508006D0096C6AC9798990D002DE9F041454C464E2C
S31508006D10DFF81881002020654FF400553560022001
S31508006D202060E56000202065206D40F06000206549
S31508006D300E2000F01DF888F800004FF48047002068
S31508006D406065376004202060E760162038490860CF
S31508006D5000206065606D40F060006065162000F0F8
S31508006D6007F888F80100334805600760BDE8F08138
S31508006D700E2802D0162802D009E02F4800E02F4836
S31508006D800068800900F0010080F0010070470020CB
S31508006D90704710B523484FF40051C16002210160C5
S31508006DA00E20FFF7E5FF214C227801468A4218BFDC
S31508006DB021700DD1501E8041C00F20700E20217801
S31508006DC003F041FC2178481E8041C00F20702178CD
S31508006DD0BDE810400E2003F036BC10B511484FF43C
S31508006DE08041C160042101601620FFF7C1FF0F4CE6
S31508006DF0627801468A4218BF61700DD1501E8041E3
S31508006E00C00F60701620617803F01DFC6178481E7B
S31508006E108041C00F60706178BDE81040162003F00D
S31508006E2012BC000014A8004080E100E0C02F00203A
S31508006E3014BC004000E100E008B4004008B8004077
S31508006E4010B50446FDF72EFF4E49302008604E491E
S31508006E5008604E49086010204D4908604FF20F013E
S31508006E60200A00284B4808BF240204804180BFF34B
S31508006E705F8F4948002101604160484848490860D9
S31508006E8010BD10B5474C2068C0060BD54649414889
S31508006E900A68C0F894204968C0F8901040F60620A1
S31508006EA0FFF7CEFF2068C00708D5404903200870C1
S31508006EB0206C4008400020640120206020680007FC
S31508006EC003D5206C20F00800206410BD80B5002092
S31508006ED000F009F830B9BDE80440FC210FF2E000E3
S31508006EE0FDF7FCBE01BD2DE9F044314C21680D1AB1
S31508006EF015F01F0105D0002852BF6D1A681A00F157
S31508006F0020052C48A5F12006A84224BF2A48864217
S31508006F1003D3EFF30880854201D300202DE0FDF767
S31508006F20C1FE82462548006810F0010718BF03F025
S31508006F3023FB206801468D4206D2A84224BFCD21F4
S31508006F4000F80119F9D206E02038002201E000F81D
S31508006F50012B8842FBD32560304603F012FBE22062
S31508006F6001E006F8010BAE42FBD30FB103F0ECFAD1
S31508006F705046FDF7ADFE20682038BDE8F0840C4881
S31508006F80006870473020004030C8004030C00040DC
S31508006F9010D00040000000201C4000400400FA0504
S31508006FA00CED00E018A0004030500040DA2F002019
S31508006FB050240020301900207C0B002094ED00E0BE
S31508006FC06D6963726F2D696E7465726E616C2E637E
S31508006FD00000000080B5A54800214160417081701D
S31508006FE0A5210170012000F0C9FC00F0F8FC00F0B2
S31508006FF01EF8002002BD9E480168C90700D47047E4
S3150800700080B59C490A6822F440620A60016849080A
S315080070104900016001680902FCD49748006810B16C
S315080070206420FBF7E3FF95490020086001BD80B5A1
S315080070309348016841F08071016001209149086018
S3150800704000209149FBF7FCFF9049914A022008600D
S31508007050002090490860904990480160012111601C
S31508007060834A8F49116040F2014101654FF480302F
S315080070708C49086001BD8148006800281EBF7E480B
S315080070800068002805D07E480068000E00F0010060
S31508007090704700207047D12202704170090A81703A
S315080070A081490A78C270501C0870042070472DE97F
S315080070B0F14F82B0DFF8F48100900026D8F800007E
S315080070C00099085C451DEDB203F06BFB01904FF685
S315080070D0FF7B19E0B11E9DF80800C9B201F059FFFF
S315080070E00746594603F026FC83465646F9B24FEA48
S315080070F0C90001FA00F0044309F10109B9F1040FC6
S3150800710017DB4FF060400460F6B2FFF7B4FF90B3A8
S31508007110AE4230DA03F045FB0199401A80B2B0F569
S31508007120FA7F28DC4FF0604000680128ECD1002483
S31508007130A146F6B216B95B270126D7E7012E06F156
S31508007140010A04D1D8F8000000990F5CCDE7E91EC2
S315080071508E4208BF5F46C8D0A91E8E4208BF4FEAB6
S315080071601B27C2D0691E8E4208BF5D27BDD0AE421E
S31508007170B0D10027BAE74FF4C870FBF737FFAE4225
S315080071800CBF00200120BDE8FE8F48490968415C14
S315080071900429A8BFFFF78BBF012070472DE9F04DE2
S315080071A0324D6E78002E5ED003F0FBFA83463146E8
S315080071B0002001F0DBFD0446FF2CA04602D100208A
S315080071C0687050E0202EB4BF3746202701F0F8FC3F
S315080071D06860AF70DFF8D8A004E0404601F0F0FC24
S315080071E06860AF706878C0B103F0DBFAA0EB0B00FB
S315080071F080B2B0F5FA7F10DCA8780028F2D1F61B29
S315080072006E70F6B2002EEDD0DAF8000018F800809D
S31508007210202EB4BF37462027DFE7002E04BF687844
S31508007220002818D1A878B0B920480068205C851EC7
S31508007230E9B2204601F0B8FE122808D1E9B2204684
S3150800724001F05CFE2146122000F09FF906E0204678
S3150800725000F0E5F802E000206870A8702046BDE856
S31508007260F04D01F021BDBDE8F08D0000F02F0020A3
S31508007270800E00E0001000E034000040100004E03A
S31508007280FCED00E0040004E020A10700F00004E0A3
S31508007290000E00E0040304E055CEACC5B00F00E0D4
S315080072A00D00010000E100E0DC2F0020BC220020D8
S315080072B0C422002030B5224801680020002201249B
S315080072C09440CBB2234213D00FF284001D4C30F801
S315080072D0120006284CF23C324FF20F031DD160888B
S315080072E0984216D12188080A0B2812DA084612E0B5
S315080072F0521C92B2082AE2D31349088140F201725D
S315080073000889904204D11148D0E90023C1E9002335
S3150800731030BD4FF4C0606280EEE740F20725A84210
S3150800732001BF618899422188A942E5D16280084651
S31508007330E2E705480089000A704703480089704754
S315080073402C000040000000205C2500209000002052
S3150800735001040204010301050600070203090109E5
S3150800736070B5B24C204601F0B3FED8B9204601F0FC
S3150800737088FEFF28044615D0AD490968405C851E7D
S31508007380E9B2204601F010FE0646E9B2204601F0B1
S31508007390B5FD2146304600F0F8F82046BDE87040B5
S315080073A001F082BC70BD03460A469EA10420FFE791
S315080073B00CB480B502AA00F03DF801BC5DF80CFBE0
S315080073C021B103460A4698A11120F1E7704700B596
S315080073D087B0FDF785F80021059102463021049112
S315080073E0002357210391012000210291019191491F
S315080073F000910FF25021FFF7DBFF8F488179C378A0
S31508007400827803910188029141790191017900916D
S3150800741042200FF23C21FFF7CBFF07B000BD10B5A5
S3150800742004462146814801F017FE2046BDE8104073
S3150800743001F02CBC2DE9F04F85B005460C46904668
S31508007440002600F0E0FAF8B9FFF715FEE0B10120D2
S3150800745001F0C1FB8246BAF1FF0F15D0002101F0F9
S31508007460B5FB294601A8FFF716FE05469CB900F0AC
S3150800747087F830B95046FFF788FE10B1042000F0AF
S31508007480B3FA504601F010FC05B0BDE8F08F8DF850
S3150800749004200125641C20780028E8D0A0F13001DA
S315080074A00A2905D20A2101FB0600A0F13006F1E7F8
S315080074B000F066F80028E4D122780025422A01A8BF
S315080074C00ED0442A1AD0462A25D0572A0DD0622A29
S315080074D03AD0662A2AD06C2A25D0702A26D0D6E732
S315080074E058F8040B8DF80400D3E758F8041B8DF8F8
S315080074F0041002250904090E4170CBE758F8041B4D
S315080075008DF804100A0A427004250A0C8270080EC7
S315080075108DF80700BEE758F8041B504601F0AEFC8C
S315080075200028B7D0ADE758F8046BB3E7012358F83D
S31508007530041B662A08BF0223F2B2504601F080FCFB
S31508007540002808BF0026ECE7394858F8041B0068ED
