S02100007365637572652D657A73702D7370692D626F6F746C6F616465722E7333378C
S31508000000000400207500000881000008810000082F
S31508000010A70B0A0100000000040130570020000861
S31508000020041B0000890B00083B1000087C0600082A
S3150800003000000000000000000000000000000000B2
S31508000040000000000000000000000000280000007A
S31508000050FFFFFFFF05480068202100EA010020B1E4
S315080000600348016842688D46104770472C000040D7
S3150800007000200008FFF7EEFF00F00AF800F03EF84F
S3150800008002E00000854670474FF4017000F09EB804
S3150800009038B54FF20F04414D00F0C2F828B140F2CE
S315080000A0052028806C80012032BD3D480068C006C6
S315080000B015D56888A0421ED1288840F202218842B8
S315080000C01CBF40F20621884215D040F20111884231
S315080000D01EBFB0F58A7F40F2111188420BD0314C11
S315080000E0208A40F6A721884205D12068FFF7CAFF73
S315080000F06068804700BF002032BD000038B50400A4
S31508000100294872B6016849084900016000F0E8F814
S3150800011023480068000910F001000CBF2349244950
S3150800012002E0CD2201F8012B224A9142F9D3224955
S31508000130224A234B03E011F8015B02F8015B9A425D
S31508000140F9D32049204A002301E001F8013B9142F6
S31508000150FBD3124A53884FF20F05AB4240F20521F2
S315080001600AD113888B4205D030B1180A012818BF66
S31508000170022801D1194601E004B900210648018088
S315080001804CF23C30508000F0C3F94FF40170BDE8E2
S31508000190324000F01BB80000840D0020000000204B
S315080001A02C00004000200008FCED00E000000020C4
S315080001B09800002000040020E81900080004002028
S315080001C00404002004040020970D00200D4A302165
S315080001D011600D4A116010210C4A1160010A0029AC
S315080001E00B4908BF000208804FF20F004880BFF392
S315080001F05F8F084800210160416007480749086089
S31508000200704700003020004030C8004010D0004041
S31508000210000000201C4000400400FA050CED00E038
S3150800022010B5002408210E2000F04EFA2948402176
S3150800023081600A2100BF491EFCD1C8210268520606
S3150800024001D4012401E0491EF8D104210E2000F052
S315080002503BFA204610BD80B500F029FA0121152089
S3150800026000F032FA152000F05FFA0121072000F0AD
S315080002702BFA072000F04CFA1748016821F0100104
S31508000280016001BD052800D9704710B5DFE800F008
S315080002901721030F1C17114C2088411E2180C0B955
S315080002A0072000F04DFA42F21070208010BD07209A
S315080002B000F03AFABDE81040152000F041BABDE852
S315080002C01040152000F024BABDE81040152000F0B3
S315080002D02BBA10BD08B4004000BC0040900D0020A9
S315080002E06F4951200860704738B5054600F0D2F9C5
S315080002F06C49B0FBF1F44FF4F070B0FBF4F02D1A32
S315080003001E2DBCBF4FF40170FFF760FF6648674AB1
S31508000310072101600021416081604FF00071116082
S3150800032005FB04F1C91C8908491E416031BD604AB4
S3150800033001215170D8E76048016841F00101016068
S3150800034001214160512056490860704700207047D6
S315080003502DE9F047574D564E2968814640F2DC583C
S315080003600129C2465048554F554C1DDA0221618075
S3150800037039600068C00348BF00F079F8B86900F032
S315080003800300032861D02868002803D5B86940F01F
S315080003900200B8614846FFF7D9FF5FEA000A1BD199
S315080003A02868002851D54EE061884FF6FF75A942A6
S315080003B01DD14448018802237F22A01C00F0D6F9EB
S315080003C06088A84204BF02206080B869800703D409
S315080003D0B86940F00200B8610120B07060883860E2
S315080003E00FFA8AF0FFF7A3FF5046BDE8F087B96910
S315080003F08907EDD50068C00348BF00F038F8B07823
S3150800040008B14046F1E7B868B968628810F001009B
S3150800041003D10F2A08D2521C06E0890704D5217891
S3150800042011B1032AA8BFAA1892B2022A2070B8BF2F
S3150800043002226280386861888842CDD1B86900F0A6
S315080004400300032801D0FFF776FF0020CDE710B59B
S31508000450044604E000F0C0F90620FFF777FF2046BF
S31508000460FFF776FF0028F5D110BD0220EFE70E480A
S315080004700E4A002141608160016821F00201016095
S3150800048000210B4841704FF000711160817801B965
S31508000490704780B5002181700620FFF757FF01BD20
S315080004A00080004090D0030010E000E004ED00E07A
S315080004B0920D0020DC1900081C4000400440004052
S315080004C000040020E41900080078704730B5DBB056
S315080004D00446214636A800F09FF9002000904FF404
S315080004E00263514A36A901A800F04EFB0FF28012AA
S315080004F00FF2881001A900F0A0FD054600F0E0F80B
S315080005001DB12146284600F0D2F928465BB030BD19
S3150800051080B5FFF7AAFFFFF79EFE00F0B9FD00F0D1
S31508000520CFF800F0E5FD0020FFF7ACFE07E01A2043
S3150800053000F0BBFA01220021522000F023F800F057
S31508000540BFF80220FFF79EFE00A800F0A3FD0028D2
S31508000550F5D19DF800005128E9D0344900200870EB
S315080005600120FFF7B3FF20B90520FFF78BFE012016
S3150800057000E00420FFF786FE40F20120FFF726FE82
S31508000580002002BDF8B506460F461546284C0FF260
S31508000590B8011D22204600F0ACFD0A2204F1340100
S315080005A0201D00F0A6FD2348018808237F2204F1B8
S315080005B00E0000F0DBF8522EA6761BD135202070EF
S315080005C006220FF2A40104F12E0000F092FD01208C
S315080005D0E0760223184801887F2204F11C0000F007
S315080005E0C5F81648018810237F2204F11E0000F082
S315080005F0BDF802E01D202070E776012D12D1207883
S31508000600A0F11B05012000F0C2FD0D48FD21017077
S315080006104570EAB204F11A01801C00F06AFD094926
S3150800062001200870F1BD0000640500208F0D002030
S3150800063024050020E6190008E2190008E019000858
S31508000640940400208E0D00200063CC00FFFF0000FC
S31508000650000000000000FFFFFFFFFFFFFFFF7C65B3
S315080006606D0100000000000000041B005730000068
S31508000670531900088F190008C90400082F0A000832
S31508000680670A00081A480068C00701D41948704765
S315080006901948704780B5FFF7F5FF1849096801B989
S315080006A0400802BD80B5FFF7EDFF400802BD1448BB
S315080006B0012181604EF6BE2141600121016070472B
S315080006C01049012008607047C208430710B54CBF9F
S315080006D00D4B0E4B03EB822200F0030080001368DB
S315080006E00F248440A34301FA00F01843106010BD9C
S315080006F01C400040001BB70000366E012040004039
S31508000700006000400860004004B0004000B00040AF
S31508000710C108032907DA012100F007029140C00841
S3150800072080020F4A11507047C108032907DA0121D0
S3150800073000F007029140C00880020A4A115070472B
S31508000740C10803290ADA084A02EB812101230A684B
S3150800075000F0070003FA00F05040086070470000F8
S3150800076014B0004010B000400CB0004030B504464C
S3150800077010467F2808BF00204BF23462914283B0AE
S315080007801AD108237F2240F6120100A8FFF7EEFFD0
S3150800079008220FF23C0100A800F0CBFC30B9082370
S315080007A07F2240F2A27100A8FFF7E0FF082200A905
S315080007B0204600F09EFC37BD044D294300FB03117B
S315080007C01A46204600F095FC37BD000000000408D4
S315080007D0FFFFFFFFFFFFFFFF70B50D4C25680646BC
S315080007E0FFF760FF0B49B0FBF1F070432F30302163
S315080007F0B0FBF1F0032809D3616D41F00101616591
S315080008002168491B0903090B8142F9D370BD000011
S315080008103820004090D0030001700122427001295F
S3150800082082700CBF8021402181800021C180018116
S31508000830AC4801600E218162016821F01001016057
S315080008400021416341627047F8B50D460446A64942
S31508000850A44F4FF0FF3008601646FE62002078620B
S31508000860386840F001003860FFF72AFF012C11D1E3
S3150800087035B900F021FC00F0010080F0010002E02B
S31508000880284600F007FC38B9386840084000386048
S315080008900020F2BD0120F2BD786AB042E4D3002EF2
S315080008A0E2D038684008400038601620F2BD80B5AE
S315080008B00A4601461820FFF765FE012000F067FC8E
S315080008C0BDE80140F4E038B50446002020814AF628
S315080008D0B432207800A9FFF7B7FF08B11C2032BD53
S315080008E09DF80000032818BF182801D1182032BD2A
S315080008F0042801D1172032BD012801D0212032BD9C
S31508000900002500E06D1CA188EDB2091D8D420BDAA9
S31508000910281900F10A01207840F2DD22FFF794FF3A
S315080009200028EFD0262032BD0025002006E001462B
S31508000930EDB22819007B00F031FD6D1CA188EAB2E2
S315080009408A42F4D3A27AE37A9B18FF2B01D022209D
S3150800095032BD0B191D7BB5EB102F01D0232032BDFC
S315080009605B7BC0B2834201D0242032BDA07882428C
S3150800097007D0401EC0B2824201D1272032BD2520B1
S3150800098032BD881C20810220E080002032BD38B5A7
S3150800099004466078012804D00ED3032845D003D333
S315080009A00AE0022060700FE000F0A2FB00F065F894
S315080009B0A078401CA07007E0182032BDA0782278E5
S315080009C0411EC9B200F05BF82046FFF77CFF0546DA
S315080009D02078012804BF284600F067F80DB100F01A
S315080009E087FB272DEAD0A8060BD52278A1781520F3
S315080009F0FFF7C8FD002DE7D10320FFF743FC0020D1
S31508000A0032BD680603D4182D18BF1C2D07D12178CE
S31508000A102846FFF74CFF04206070284632BD172D84
S31508000A20E8D100F02AF803206070172032BDF8B527
S31508000A3004460D461646002706E0E088411C0019C4
S31508000A40E180807A78557F1CBFB2B74209D2E08828
S31508000A5021898842F1D32046FFF799FF0028ECD078
S31508000A60F2BD0020F2BD10B50446FFF790FF00F076
S31508000A7004F800F01DF8172010BD2278A17806208A
S31508000A80FFF780BD80B51949FD220A7088700122DA
S31508000A904A70012000E0002000F04DFC00F0A2FBA7
S31508000AA00028F8D11249087001BD00B91920E9E7F4
S31508000AB010B582B00F4C207860B1002000F03BFCE6
S31508000AC00028F8D0002000F062FB012000F033FC7B
S31508000AD00020207040F2DD2200A90120FFF7B4FEB5
S31508000AE013BD000000E0004000A800409404002068
S31508000AF08D0D00208E0D0020F8B504460D461646CD
S31508000B001F4607E03046A047294600F059FC05462F
S31508000B107F1E761CBFB2002FF4D12846F2BD38B529
S31508000B200C46154605E0014614F8010B00F048FC92
S31508000B306D1EADB2002DF6D132BDF8B507460E468C
S31508000B401D46144630683B682A46214698470700E2
S31508000B5005D1F0682A462146FFF7E1FFF060D6F88E
S31508000B60A8002818C6F8A80096F8A70050B1AC3611
S31508000B702A462146304600F0F5FC2A4621463046EC
S31508000B8000F072FC3846F2BD10B5029C84720381EF
S31508000B904260016028224FF0FF31C16000210174D4
S31508000BA0A0F8A410802180F8A610002180F8A710CC
S31508000BB0C0F8A810AC30BDE8104000F0B3BA2DE973
S31508000BC0F84F8946044699F81BB0D0689A49BBF194
S31508000BD0800FA8BF4FF0800B88421E4651D1002EC9
S31508000BE04DD0B06800904FF0FF38002509EB450A54
S31508000BF09AF848700DE0FFF763FDF80240F00062CE
S31508000C0000984FF400634146FFF776FF8046781C4C
S31508000C10C7B20AF148004078B84204DA681CC5B27F
S31508000C20062D02DAE2E7FF2FE5D1D9F844006FEA8C
S31508000C300801884225D1A068736800BA4FEA5B02AA
S31508000C4049469847C8B9E06805BAA06802BAB068C4
S31508000C505B464FF0FF31FFF74FFFC04385420CD18B
S31508000C6040F6A720A9F810000122A068736800BA08
S31508000C7009F110011030984708B1422002E0172008
S31508000C8000E04320BDE8F28F2DE9F04F0D4683B012
S31508000C9081466868009093462889009AADF8040052
S31508000CA005F1140606F1100704234846FFF745FF29
S31508000CB0002873D10098008840BA1FFA80F8009877
S31508000CC0408840BA84B2E00705D54FF208608045EF
S31508000CD018BF462062D1B4F5026FC8BF4E205DDC4E
S31508000CE0002C5AD0B8F1000FDFF850A109D04FF602
S31508000CF00441B8EB010050D0FF3853D0FE3851D02C
S31508000D0098E0287C08B1512048E08D2C28BF4F2058
S31508000D1044D22346321D00F093F800283ED1FA7ECD
S31508000D20802AA8BF802202F10C00844201BFB08845
S31508000D3040BA00F47F40B0F5007F31D1F08840BA60
S31508000D404EF25031884202BF388A40F6A7218842BF
S31508000D5026D1788A00F47F40B0F5807F01BFB0685D
S31508000D6000BADAF81C1088421AD14FF6FF7038829A
S31508000D7006F110014FF0FF30FFF7D1FEF16809BA0E
S31508000D80C943884204BF387E042809D1787E1B28C7
S31508000D9018BF062804D1012028740020BDE8FE8F5C
S31508000DA04520FBE7287C08B94120F7E7009A042389
S31508000DB000F046F80028F1D10098006806BA201F0E
S31508000DC084B2DAF81C00864238BF4820E6D3796D2B
S31508000DD0A019884228BF4920E0D24FF60350804523
S31508000DE00DD1BBF1000F0AD0DBF8002031460220F6
S31508000DF0904720B14A20D1E7E01B84B2BE19002CE7
S31508000E00CBD0BDF80400009A8442B4BF27460746F3
S31508000E103B4600F015F80028C0D1BBF1000FEBD017
S31508000E200099DBF804307A08304698470028E3D062
S31508000E304B20B3E74420B1E7E320BBDE00000008FF
S31508000E402946484679E62DE9F04F0D4685B0804695
S31508000E506F6805F11400009005F1A40410300490A1
S31508000E609146A07883284FF6071A04D1A6888221CE
S31508000E705046A1700CE004233A464046FFF75DFE53
S31508000E8000280DD13888798840BA49BA80B28EB21E
S31508000E90F10707D54FF6062188421CBF5045462064
S31508000EA040F0C4804FF20972A178801A05F1AC0AA5
S31508000EB005F1040B00F08A804FF4FF72801A6BD09C
S31508000EC0FF3830D0FF3803D0FF3800F09980ACE007
S31508000ED0802929D1062E23D3062302AA294640466D
S31508000EE0FFF72BFEE8B9BDF8080040BA00F47F40CA
S31508000EF0B0F5007F01BFBDF80C0040BA4EF2503184
S31508000F0088420DD1BDF80A0040BA012818BF522000
S31508000F1007D1BDF80A0040BAA5F8A400002000E0F1
S31508000F20452081217FE081296CD1BBF80490102EE1
S31508000F3038BF4E202ED30423524600F07BF848BB18
S31508000F400C230AF1040200F075F818BBDAF8000061
S31508000F5000BAA6F11001CAF800008EB23146504612
S31508000F6000F04AFA05E069683A46504600F07CFA0D
S31508000F70F61BB6B256B137464E4588BF4F466A6825
S31508000F803B4600F057F80028EDD003E0504600F045
S31508000F908EFA0020822146E0822933D1042E2AD3F4
S31508000FA00120E0704A460020606029464046FFF767
S31508000FB06BFE00BB0021E17061688E421BD3B14213
S31508000FC034D28322A270711A61602FE0822919D166
S31508000FD0504600F06CFABBF80400B042B8BF4F2088
S31508000FE024DB334600F025F800BBF2B239465046FA
S31508000FF000F083FA08B9542018E00020842112E092
S31508001000842901D0512011E0042E18BF4C200DD19F
S31508001010042300F00EF848B9049900984B462A466E
S31508001020FFF7CDFD8521A17000E0442005B0BDE89D
S31508001030F08F3A46294640467FE570B50D46044688
S3150800104028898028164601DA4F2070BD00F0C8F9B5
S3150800105008B9532070BD324629462046FFF7F3FEED
S31508001060002818BF172803D08F2185F8A61070BD51
S3150800107095F8A600852806D1286861688847172844
S3150800108005D1002070BDA87A0028E4D0502070BD94
S3150800109000F068B810B5044600F00EF850B11248D2
S315080010A0124982785118897821708178491C817093
S315080010B0002010BD012010BD10B50B4C207888B952
S315080010C000F039F978B1607840B1002000F05FF897
S315080010D0012000F030F90020607010BD012020705A
S315080010E00020A070012010BD8D0D002004040020F2
S315080010F07047814212D210185118401E491E92B2EA
S31508001100002A1EBF11F8013900F80139521EF6D11E
S31508001110704711F8013B00F8013B521E92B2002AB3
S31508001120F7D17047130003D00A46194600F044BAAF
S31508001130704710B500E0521E92B222B100F005F8D1
S31508001140F9D0181B10BD002010BD10F8013B11F88E
S31508001150014BA342704700008A4800214171817102
S3150800116000F05EBA80B58748002181700121C17000
S315080011700171002101700921417000F080FAFFF722
S31508001180EBFF00F07DFABDE8014000F08BBA58B1DC
S315080011907D480168C90705D50068C00602D57B49A0
S315080011A080200860002000E001207649C87070475A
S315080011B074490A7922B90870012200200A71487018
S315080011C0704710B5044600F0A4FA71484078A7287D
S315080011D007BF704804700320FFF7EAFFBDE8104018
S315080011E00120A8E0674880797047F8B5654C6A4DD4
S315080011F02179654E21B13268D20644BF80226A60E1
S31508001200A278A2B18020686001E0FFF759FA306839
S31508001210C007FAD5802028600020A070E07820B9A1
S315080012203220FFF7D9FA802068600020F2BD627983
S31508001230584F104225D031B1002020710222214694
S315080012403846FFF756FFE07808B1802028603878DE
S31508001250052803DAA720B87003200DE0FE2818BF7A
S31508001260FD2806D17978C919A72088707878C01C16
S3150800127002E0A72078700220A071A07900F064FA35
S31508001280D1E7A0790028D0D100F06FFA30B93068DC
S31508001290C00603D500F071FA00F044FA00F07DFAB2
S315080012A00028C2D00120607180202860384D00F0E7
S315080012B07FFA00BB00F084FA0028B6D028780A28FE
S315080012C006D00B2808D0FD2818BFFE2806D0ACE7A4
S315080012D08220FFF776FFA8E7C120FAE76878862814
S315080012E005DBFFF739FF0120FFF762FF9DE700F0F6
S315080012F06FFA002899D000F002FA00F00AFA00F016
S315080013000CFA207918B1012000F015F88DE76878F5
S3150800131040198078A72803D00320FFF749FFF2E792
S315080013202878FE2803D10420FFF742FFEBE7FD20CB
S3150800133038700120F2BD70B5124E174D0446B079CB
S3150800134000F051FA18B1802028600120707100F071
S3150800135052FA08B10120B07000F055FA70B1802039
S315080013602860B07900F05AFA10B90220FFF720FF7A
S31508001370FFF7F2FEF07808B9802068602046BDE8DD
S31508001380704032E7860D002008B4004014B80040CB
S31508001390040400209404002010B800400A0242EA1F
S315080013A011214840C0F30311484080EA003041014A
S315080013B00206C9B2D20E41EA0221484080B27047FD
S315080013C00A0A4840C0B208214308C00746BF034876
S315080013D058401846491EF7D1504070472083B8ED4B
S315080013E000205F49415CFF2901D001207047401C5D
S315080013F01028F6DB0020704712B5044683B0206833
S31508001400039900BA00903A2001B17A2020740C2280
S31508001410211D04F11100FFF76CFE03220DF10101F5
S3150800142004F11D00FFF765FE00F03CF80398D0B103
S31508001430B0F57F4F05D200BA039002220DF10E01D6
S315080014400EE00FF270100088ADF80400022203982F
S3150800145000BA039001A9204600F006F8042203A961
S31508001460204600F001F81FBDF8B504460D4616469D
S31508001470002714E094F825007A5D0019017C514094
S31508001480017494F82500401C84F82500C0B2102881
S3150800149004D300F007F8002084F825007F1CB74223
S315080014A0E8D3F1BD2E4904F1100000F019BA1FB5B2
S315080014B0044600A8102100F01DFA94F82500C0F192
S315080014C01000C11000EB11710911A0EB011200A95F
S315080014D02046FFF7C9FF1FBD1FB50C46011D00AA10
S315080014E0002000F026F8002000AA015D825C514029
S315080014F00155401C1028F7DB1FBD38B5102A0446D5
S315080015000D4612D1216A94F82420206802EB0111B5
S3150800151088420AD129462046FFF7DEFF102204F149
S3150800152010012846FFF705FE08B1002032BD01204C
S3150800153032BD11B581B000BA019014460220207060
S315080015400C22601CFFF7D5FD03220DF1050104F1FD
S315080015500D00FFF7CEFD0249204600F0C1F913BD84
S31508001560F80804082DE9FF4104460D469046002078
S31508001570002704F1200619E030B9206A00AA211DC7
S31508001580401CFFF7D6FF01203379795D00AA9A5CE3
S31508001590514079553179491CC9B2102904DB206AB2
S315080015A0401C20620021002031717F1C4745E3D38F
S315080015B0BDE8FF81FFFE000062F30F2262F31F42BF
S315080015C0401810F0030308D0C91A1FD3DB0748BF19
S315080015D000F8012D28BF20F8022D130030B4144658
S315080015E01546103928BF20E93C00FAD8490728BF14
S315080015F020E90C0048BF40F8042D890028BF20F8D0
S31508001600022D48BF00F8012D30BC7047C91818BF15
S3150800161000F8012DCB0728BF00F8012D7047000000
S315080016208248016C4908490001641022016C21F4C2
S31508001630007101647E490A6320220A6300224A6512
S315080016400A664A668A6502224A657A4A0A608D32BD
S315080016504A60794A0A618D324A61784A1268D20626
S3150800166009D5026C42F001020264026C42F400726F
S31508001670026401220A634FF6FF71016070477047E2
S315080016806F48016801F00F0141F4884141F090016B
S31508001690016041680909090141F00401416010210E
S315080016A00161704710B5674967484FF480520A6070
S315080016B00023C364624B1C682409240144F008040F
S315080016C01C6001241C610460604B614C1A60402256
S315080016D0C2644FF480420A60002141650C212160F2
S315080016E0042101601A602021416580215948C160A2
S315080016F0016821F4704141F48051016010BD5648DB
S315080017000168490849000160016821F40071016017
S315080017107047524910200860704744494FF40070DA
S31508001720086070474148012101604FF4007101606B
S31508001730016C41F001010164016C41F4007101641E
S3150800174001204649086070473B4A45498018401EB3
S3150800175008600122FF208862344802600422CA61B8
S31508001760016C41F00101016470473E480068C007FA
S3150800177001D400207047012070473B4881B00168BA
S315080017808DF8001001688DF8001001688DF80010BA
S3150800179000688DF8000001B070473448006818B931
S315080017A022480068800501D501207047002070474F
S315080017B01E480068800501D5012070470020704743
S315080017C02A480068022801D3012070470020704784
S315080017D02648184900684978C91C884201D301205F
S315080017E070470020704711480068C00701D50120DE
S315080017F070470020704714480168C90701D50121C0
S3150800180009E00020704710480168490701D50421FE
S3150800181001E00020704701600120704714490968FB
S31508001820814201D0002070470120704708A8004077
S3150800183000C80040040400209404002008B40040B6
S3150800184000B4004080E100E014A8004080E200E017
S3150800185014BC004004B8004048A8004030C8004006
S3150800186014C800402CC800403CC8004020C80040AE
S3150800187028C800400268174912BACA60426812BAF4
S315080018808A60826812BA4A60C06800BA08607047FF
S3150800189010B5114980220A600623104A13600723EF
S315080018A00B6013689B07FCD5002350F823405B1C8C
S315080018B024BA042B8C62F8D313685B07FCD5002284
S315080018C00B6B1BBA40F82230521C042AF8D310BD01
S315080018D000000000383000400030004010A00040F2
S315080018E010B504460846FFF7C5FF2046BDE8104078
S315080018F0CEE70000002200F001B8000000B500BFE6
S31508001900130096469446103928BFA0E80C50FAD81A
S315080019105FEA417C28BF0CC048BF40F8042BC907C2
S3150800192028BF20F8022B48BF00F8012B00BD000095
S315080019302748018A40F6A772914202BF408A4FF4AF
S315080019407F41084203D1022801DB012070470020AD
S315080019507047F8B504461D4E01200D463070FFF756
S31508001960E7FF18B94FF40170FEF730FC294618480E
S31508001970876A44F48070B847002131700FF2540624
S3150800198018B9294644F40070B847805DF2BD2DE9C0
S31508001990F041044688465600FFF7CAFF18B94FF4C7
S315080019A00170FEF713FC0A48476A0023324641468F
S315080019B02046B8470FF21C0520B933460022414697
S315080019C02046B847405DBDE8F0810000960D00202E
S315080019D000000408000202024B4B464700366E011F
S311080019E02A083A08EE0834B60100FFFF9A
S705080000757D
