S02400006170702D626F6F746C6F616465722D6932632D6D6332346161313032352E7333371F
S31508000000000400207500000881000008810000082F
S31508000010A70B0A0100000000020230570020000862
S31508000020041A00005F0E0008F91100089C06000873
S315080000309D0800088D090008DD090008CD0800089C
S31508000040C7080008B30A0008CF08000828000000FF
S31508000050FFFFFFFF05480068202100EA010020B1E4
S315080000600348016842688D46104770472C000040D7
S3150800007000200008FFF7EEFF00F00DF800F042F848
S3150800008005E00000854670474548008870474FF4EC
S31508000090017000F09FB838B54FF20F04414D00F0DB
S315080000A0C3F828B140F2052028806C80012032BDB3
S315080000B03D480068C00615D56888A0421ED1288824
S315080000C040F2022188421CBF40F20621884215D020
S315080000D040F2011188421EBFB0F58A7F40F2111125
S315080000E088420BD0314C208A40F6A721884205D198
S315080000F02068FFF7C7FF6068804700BF002032BD51
S315080001000000000038B50400294872B6016849089D
S315080001104900016000F0CEF823480068000910F095
S3150800012001000CBF2349244902E0CD2201F8012B26
S31508000130224A9142F9D32249224A234B03E011F875
S31508000140015B02F8015B9A42F9D32049204A002351
S3150800015001E001F8013B9142FBD3124A53884FF262
S315080001600F05AB4240F205210AD113888B4205D010
S3150800017030B1180A012818BF022801D1194601E032
S3150800018004B90021064801804CF23C30508000F04A
S3150800019055FA4FF40170BDE8324000F01BB8000074
S315080001A0B40C0020000000202C00004000200008AD
S315080001B0FCED00E00000002098000020000400206C
S315080001C02814000800040020040400200404002069
S315080001D0BD0C00200D4A302111600D4A1160102116
S315080001E00C4A1160010A00290B4908BF0002088061
S315080001F04FF20F004880BFF35F8F08480021016067
S3150800020041600748074908607047000030200040F1
S3150800021030C8004010D00040000000201C400040BC
S315080002200400FA050CED00E00020704780B500F0E8
S315080002304EFA0121152000F057FA152000F084FA2D
S315080002400121072000F050FA072000F071FA17483C
S31508000250016821F01001016001BD0000052800D9E0
S31508000260704710B5DFE800F01721030F1C17104C74
S315080002702088411E2180C0B9072000F071FA42F299
S315080002801070208010BD072000F05EFABDE810400F
S31508000290152000F065BABDE81040152000F048BAF0
S315080002A0BDE81040152000F04FBA10BD00BC004054
S315080002B0B60C00206F4951200860704738B50546CE
S315080002C000F0F8F96C49B0FBF1F44FF4F070B0FBAC
S315080002D0F4F02D1A1E2DBCBF4FF40170FFF77AFFFC
S315080002E06648674A072101600021416081604FF036
S315080002F00071116005FB04F1C91C8908491E41609B
S3150800030031BD604A01215170D8E76048016841F063
S31508000310010101600121416051205649086070477A
S31508000320002070472DE9F047574D564E29688146FB
S3150800033040F2DC580129C2465048554F554C1DDA43
S315080003400221618039600068C00348BF00F079F86F
S31508000350B86900F00300032861D02868002803D58F
S31508000360B86940F00200B8614846FFF7D9FF5FEA6E
S31508000370000A1BD12868002851D54EE061884FF63F
S31508000380FF75A9421DD14448018802237F22A01C7B
S3150800039000F0FCF96088A84204BF02206080B869B2
S315080003A0800703D4B86940F00200B8610120B07034
S315080003B0608838600FFA8AF0FFF7A3FF5046BDE859
S315080003C0F087B9698907EDD50068C00348BF00F012
S315080003D038F8B07808B14046F1E7B868B968628875
S315080003E010F0010003D10F2A08D2521C06E0890733
S315080003F004D5217811B1032AA8BFAA1892B2022AF5
S315080004002070B8BF02226280386861888842CDD1E0
S31508000410B86900F00300032801D0FFF776FF002033
S31508000420CDE710B5044604E000F0E6F90620FFF72C
S3150800043077FF2046FFF776FF0028F5D110BD02208A
S31508000440EFE70E480E4A002141608160016821F0FD
S315080004500201016000210B4841704FF000711160E4
S31508000460817801B9704780B5002181700620FFF7B1
S3150800047057FF01BD0080004090D0030010E000E067
S3150800048004ED00E0B80C0020141400081C400040DD
S315080004900440004000040020241400080078704737
S315080004A0002101608180C18001817047F8B504464A
S315080004B00D461646002710E0206880302060002090
S315080004C0E08080202081A088401CA080E088411C14
S315080004D00019E180807A78557F1CBFB2B7420CD2EA
S315080004E0E08821898842F1D32068802204F10A0134
S315080004F000F04CFA0028DFD0F2BD0020F2BD17202C
S31508000500704710B5044600F0EBF82046BDE81040E9
S3150800051000F0F8BA2DE9F043A5B000F0D9FA00F0DA
S31508000520DFF800F02FFB012100A800F033FB414C57
S3150800053004F1800500206860A86000F0C4F900286E
S315080005400FBFE8608168E9604088A4F8800000A8C9
S3150800055000F0E7FB070047D1BDF80610BDF80420F8
S3150800056000A8081800F10A0694F8800080075FFAC8
S3150800057082F80FD5E96869B1686808EB00024B1E76
S3150800058022EA030710B1A868B84203D2384600F039
S3150800059090FAAF6068684246314600F01FFA0700D5
S315080005A010D168684246214600F0F0F9002001E0C3
S315080005B0401CC0B2404505DA015D825D9142F7D024
S315080005C0832706E068684044002F6860BFD01B2F69
S315080005D0BDD00420FFF742FE0121384600F02AFB71
S315080005E0384625B0BDE8F083172FF0D10020F8E78C
S315080005F070B5DAB0044636A8FFF752FF012000901E
S315080006004FF402630C4A36A901A800F028FC0FF241
S315080006108C050FF27C0600F063F8002C14BF3246F6
S31508000620002201A9284600F0E7FD5028F3D05AB069
S3150800063070BD0000240C00200404002010B5FFF74C
S3150800064023FD044600F0FCFDFFF7F0FD00F026F957
S3150800065018B14FF40170FFF7BDFD00F041F840F204
S31508000660011084421CBF40F21110844209D0B4F52F
S315080006708A7F1FBF40F20520844240F2032084424D
S3150800068001D1012000E0002000F0DCFD002010BDB3
S315080006908B130008C71300089D040008AD04000862
S315080006A0FF0400081A480068C00701D419487047B3
S315080006B01948704780B5FFF7F5FF1849096801B969
S315080006C0400802BD80B5FFF7EDFF400802BD14489B
S315080006D0012181604EF6BE2141600121016070470B
S315080006E01049012008607047C208430710B54CBF7F
S315080006F00D4B0E4B03EB822200F0030080001368BB
S315080007000F248440A34301FA00F01843106010BD7B
S315080007101C400040001BB70000366E012040004018
S31508000720006000400860004004B0004000B000408F
S31508000730C108032907DA012100F007029140C00821
S3150800074080020F4A11507047C108032907DA0121B0
S3150800075000F007029140C00880020A4A115070470B
S31508000760C10803290ADA084A02EB812101230A682B
S3150800077000F0070003FA00F05040086070470000D8
S3150800078014B0004010B000400CB0004030B504462C
S3150800079010467F2808BF00204BF23462914283B08E
S315080007A01AD108237F2240F6120100A8FFF7EEFFB0
S315080007B008220FF23C0100A800F0A1FD30B9082379
S315080007C07F2240F2A27100A8FFF7E0FF082200A9E5
S315080007D0204600F07BFD37BD044D294300FB03117D
S315080007E01A46204600F072FD37BD000000000408D6
S315080007F0FFFFFFFFFFFFFFFF70B5234C2568064686
S31508000800FFF760FF2149B0FBF1F070432F3030212C
S31508000810B0FBF1F0032809D3616D41F00101616570
S315080008202168491B0903090B8142F9D370BD38B504
S315080008300C4620B101280FD0032820D021E0144D02
S3150800084044B1FFF73FFF1349B0FBF1F0401EB0F586
S31508000850005F0CD2286012E04CB1FFF733FF610845
S3150800086001EB4000B0FBF4F0B0F5003F01D32020C7
S3150800087032BD094900F001024A60400808600020BC
S3150800088032BD212032BD00003820004090D0030040
S31508000890100004E020A1070068C8004080B50D21BB
S315080008A00920FFF721FF0D210A20FFF71DFF7948D0
S315080008B00E2141610121816100210160416003210E
S315080008C08160002002BD0FF2F010704770470020CB
S315080008D07047F8B50C46010CC90041F0A001154651
S315080008E0C9B26D4E326942F004023261B26812072B
S315080008F0FCD5316000F039F8B268D207F2D40204A8
S31508000900120E326000F031F8C0B200F036F83069E5
S3150800091040F004003061B0680007FCD541F00100E2
S3150800092000F02BF800270AE07061306940F00100FA
S315080009303061B0684007FCD5306838557F1CAF4237
S315080009400ADAFFF7CDFE681E87427069B2BF40F02B
S31508000950010040084000E7E7306940F008003061D0
S31508000960B0680007FCD50020F2BD326942F00202E9
S315080009703261B2689207FCD570473060306940F042
S3150800098002003061B0688007FCD57047F8B50446A8
S3150800099042480D46164684423EBF374639198142BB
S315080009A001D38520F2BD20040DD0200C000400F5EB
S315080009B08030814207D36742BFB204E0F61B3C1978
S315080009C07D19B6B237463EB13A4629462046FFF764
S315080009D080FF0028F2D0F2BD0020F2BD2DE9F843D1
S315080009E004462E488846164684423ABF3119814243
S315080009F085200ED214F07F0F06D0E009C0018030A2
S31508000A00814203D3071B02E0812E04DA37461EB95A
S31508000A100020BDE8F2838027200CC00040F0A0002B
S31508000A20C0B21D4D296941F004012961A968090769
S31508000A30FCD52860296941F002012961A96889075E
S31508000A40FCD5A968C907EDD42004000E00F028F8E3
S31508000A50E0B200F025F84FF0000907E0FFF740FE86
S31508000A6019F8080000F01CF809F101091FFA89F9BC
S31508000A70BFB2B945F2D3286940F008002861A868D2
S31508000A800007FCD5F61B3C19B6B2812EB844C2DA6B
S31508000A90BCE700004CC800403CC80040010002000A
S31508000AA02860286940F002002861A8688007FCD5FC
S31508000AB0704788207047000002010000000000000F
S31508000AC08000000000000200181400080100000061
S31508000AD080B54FF4E1310120FFF7A9FE264802212F
S31508000AE081600121016009200921FFF7FDFDBDE8AC
S31508000AF0044004210A20FFF7F7BD20480068400695
S31508000B00FBD570471E49CA685207FCD5086070476E
S31508000B1010B5044603E014F8010BFFF7F3FF20783D
S31508000B200028F8D110BD10B5044620090A28ACBF24
S31508000B3037303030C0B2FFF7E5FF04F00F000A285F
S31508000B40BDE81040ACBF37303030C0B2DAE70B48EA
S31508000B500068800701D5012070470020704710B54E
S31508000B600446FFF7F4FF20B105480068207000200E
S31508000B7010BD012010BD000054C8004048C8004000
S31508000B803CC8004080B500A8FFF7E9FF0028FAD066
S31508000B9001BD0000017001224270012982700CBF5C
S31508000BA08021402181800021C18001811F48016088
S31508000BB00E218162016821F0100101600021416364
S31508000BC041627047F8B50D4604461949174F4FF06C
S31508000BD0FF3008601646FE6200207862386840F0EA
S31508000BE001003860FFF77CFD012C11D135B9FFF7FC
S31508000BF0AEFF00F0010080F0010002E02846FFF792
S31508000C00AEFF38B938684008400038600020F2BDA9
S31508000C100120F2BD786AB042E4D3002EE2D03868EB
S31508000C204008400038601620F2BD000000E0004091
S31508000C3000A8004038B504460D4600F009F800F053
S31508000C4007F82A462146BDE838401820FFF759BC60
S31508000C502A4621461820FFF754BC38B5044600201A
S31508000C6020814AF6B432207800A9FFF7ABFF08B115
S31508000C701C2032BD9DF80000032818BF182801D192
S31508000C80182032BD042801D1172032BD012801D011
S31508000C90212032BD002500E06D1CA188EDB2091D9A
S31508000CA08D420BDA281900F10A01207840F2DD227C
S31508000CB0FFF788FF0028EFD0262032BD0025002048
S31508000CC006E00146EDB22819007B00F02BFB6D1CEF
S31508000CD0A188EAB28A42F4D3A27AE37A9B18FF2B58
S31508000CE001D0222032BD0B191D7BB5EB102F01D088
S31508000CF0232032BD5B7BC0B2834201D0242032BDA3
S31508000D00A078824207D0401EC0B2824201D1272075
S31508000D1032BD252032BD881C20810220E0800020BB
S31508000D2032BD38B504466078012804D028D3032894
S31508000D3059D01DD324E02078012816D13B2500A8D8
S31508000D40FFF70DFF0028FAD04320FFF7DBFE2078D7
S31508000D5040F2DD220021FFF735FF30B12846451E57
S31508000D60C0B20028F0D11B2032BD022060700FE00F
S31508000D70FFF708FF00F039F8A078401CA07007E0DC
S31508000D80182032BDA0782278411EC9B200F02FF88B
S31508000D902046FFF762FF050018BFFFF7F3FE272D71
S31508000DA0F0D0A8060BD52278A1781520FFF7A9FB65
S31508000DB0002DEDD10320FFF751FA002032BD680659
S31508000DC003D4182D18BF1C2D07D121782846FFF704
S31508000DD031FF04206070284632BD172DE8D100F097
S31508000DE004F803206070172032BD2278A178062007
S31508000DF0FFF787BBF8B504460D4616461F4607E0BB
S31508000E003046A047294600F09FFA05467F1E761C05
S31508000E10BFB2002FF4D12846F2BD38B50C461546A8
S31508000E2005E0014614F8010B00F08EFA6D1EADB20E
S31508000E30002DF6D132BDF8B504460D461F461646B6
S31508000E40286823683A4631469847040005D1E86879
S31508000E503A463146FFF7E1FFE8602046F2BD70B535
S31508000E608AB004460E98A0720D462381626002225B
S31508000E70286800A9FFF78AFDBDF8000058B328685E
S31508000E80202201A9FFF782FD00200FF2A83101AA4E
S31508000E90435C825C9A421ED1401CC0B20828F6DB2D
S31508000EA0BDF80C0040BAB0B9079800BA202812D38A
S31508000EB0079806BAFFF707FDC06886420BD22022BC
S31508000EC001A94FF0FF30FFF7A8FFC649884202D1B3
S31508000ED0079800BA286025604FF0FF30E0600020D0
S31508000EE020740AB070BD2DE9F84F8946044699F872
S31508000EF01BB0D068BB49BBF1800FA8BF4FF0800B71
S31508000F0088421E4651D1002E4DD0B06800904FF051
S31508000F10FF38002509EB450A9AF848700DE0FFF7F7
S31508000F20DFFBF80240F0006200984FF40063414688
S31508000F30FFF760FF8046781CC7B20AF14800407880
S31508000F40B84204DA681CC5B2062D02DAE2E7FF2FBA
S31508000F50E5D1D9F844006FEA0801884225D1A0688E
S31508000F60736800BA4FEA5B0249469847C8B9E06811
S31508000F7005BAA06802BAB0685B464FF0FF31FFF7C2
S31508000F8039FFC04385420CD140F6A720A9F81000C6
S31508000F900122A068736800BA09F110011030984759
S31508000FA008B1422002E0172000E04320BDE8F28F96
S31508000FB02DE9F04F0D4683B08146D5F804A028895F
S31508000FC0ADF80000904605F1140404F11006042358
S31508000FD052464846FFF72FFF002810D1BAF80000FE
S31508000FE040BA80B20190BAF8020047BABFB2F80711
S31508000FF006D501984FF20861884218BF46207AD173
S31508001000B7F5026FC8BF4E2075DC002F72D0019865
S31508001010DFF8D4B168B14FF20861401A6FD040F2D8
S31508001020FC51401A00F0C580FF387CD0FE387AD0D3
S31508001030D5E0287C08B151205DE08D2F28BF4F20D0
S3150800104059D23B46221D00F0D4F8002853D1F27E2F
S31508001050802AA8BF802202F10C00874201BFA0881F
S3150800106040BA00F47F40B0F5007F46D1E08840BA28
S315080010704EF25031884202BF308A40F6A721884294
S315080010803BD1708A00F47F40B0F5807F01BFA0682D
S3150800109000BADBF81C1088422FD1BBF8180040F2C2
S315080010A0032188420ED1708AB0F5847F25DBF06D66
S315080010B0410522D14D49081AB0F5E03F1DD8B0F5D3
S315080010C0005F1AD34FF6FF70308204F110014FF01B
S315080010D0FF30FFF7A2FEE16809BAC943884204BF98
S315080010E0307E042809D1707E1A2818BF062804D134
S315080010F0012028740020BDE8FE8F4520FBE7287CE8
S31508001100002858D0BDF800008742B4BFB8468046CC
S31508001110434600F06DF80028EDD1A7EB0807BFB2EB
S31508001120002FEFD1E6E7287C002844D0042300F0FE
S315080011305FF80028DFD1DAF8000004BADBF81C00F3
S315080011403F1F8442BFB238BF4820D4D3716D3819C7
S31508001150884228BF4920CED201984FF603518842CB
S315080011600DD1B8F1000F0AD0D8F800202146022088
S31508001170904720B14A20BEE7BF1BBFB23419002FE3
S31508001180B8D0BDF800008742B4BF3E46064633468F
S3150800119000F02EF80028AED1B8F1000FECD0D8F840
S315080011A0043072085146204698470028E4D04B2060
S315080011B0A1E7287C08B941209DE7042F18BF4C20D9
S315080011C099D16A68042300F014F8002893D143469D
S315080011D02A463146204603B0BDE8F04F83E6442050
S315080011E089E70000E320BBDE0000000800000208D3
S315080011F05246294648461EE670B50D4604462889D5
S315080012008028164603DA4F2070BDA87A78B9324688
S3150800121029462046FFF7CCFE0028F6D0172807D126
S31508001220286861688847172802D1002070BD5020B9
S3150800123070BD0000534C4142494252200000000054
S31508001240FFF7FDB810B504460020FFF707F824BBE2
S315080012500020FFF7CDF950B90120FFF7C9F930B9D9
S315080012600520FEF7FBFF40F20120FEF7B3FF04203E
S31508001270FEF7F4FF0120FEF7F1FFBDE8104040F24B
S315080012800320FEF7A7BF0FF23400FFF741FCFFF774
S3150800129034FC40F20220FEF79DFFFFF73BF90400FD
S315080012A0F1D00FF22000FFF733FC2046FFF73BFC96
S315080012B001A0FFF72DFCF0E70D0A00000D0A4F6BA1
S315080012C00D0A00000D0A455252200000814212D232
S315080012D010185118401E491E92B2002A1EBF11F856
S315080012E0013900F80139521EF6D1704711F8013B51
S315080012F000F8013B521E92B2002AF7D1704710B58A
S3150800130000E0521E92B222B100F005F8F9D0181B7F
S3150800131010BD002010BD10F8013B11F8014BA34287
S31508001320704700000A0242EA11214840C0F303113F
S31508001330484080EA003041010206C9B2D20E41EAAD
S315080013400221484080B270470A0A4840C0B20821C4
S315080013504308C00746BF034858401846491EF7D1F8
S31508001360504070472083B8ED2748018A40F6A77297
S31508001370914202BF408A4FF47F41084203D10228B6
S3150800138001DB0120704700207047F8B504461D4E62
S3150800139001200D463070FFF7E7FF18B94FF40170CA
S315080013A0FEF718FF29461848876A44F48070B8473C
S315080013B0002131700FF2540618B9294644F400701A
S315080013C0B847805DF2BD2DE9F041044688465600CF
S315080013D0FFF7CAFF18B94FF40170FEF7FBFE0A487B
S315080013E0476A0023324641462046B8470FF21C0595
S315080013F020B93346002241462046B847405DBDE83D
S31508001400F0810000BC0C0020000004080002020263
S315080014104B4B464700366E014D433234414131301D
S3110800142032350000EE0800000100FFFF56
S705080000757D
