S01E00006170702D626F6F746C6F616465722D737069666C6173682E733337B6
S31508000000000400207500000881000008810000082F
S31508000010A70B0A0100000000010230570020000863
S31508000020040300008F13000829170008A406000817
S31508000030630B0008F10B00082F0C0008EB0C0008F6
S31508000040450A0008310D0008FD0D000828000000CB
S31508000050FFFFFFFF05480068202100EA010020B1E4
S315080000600348016842688D46104770472C000040D7
S3150800007000200008FFF7EEFF00F00DF800F042F848
S3150800008005E00000854670474548008870474FF4EC
S31508000090017000F09FB838B54FF20F04414D00F0DB
S315080000A0C7F828B140F2052028806C80012032BDAF
S315080000B03D480068C00615D56888A0421ED1288824
S315080000C040F2022188421CBF40F20621884215D020
S315080000D040F2011188421EBFB0F58A7F40F2111125
S315080000E088420BD0314C208A40F6A721884205D198
S315080000F02068FFF7C7FF6068804700BF002032BD51
S315080001000000000038B50400294872B6016849089D
S315080001104900016000F0D2F823480068000910F091
S3150800012001000CBF2349244902E0CD2201F8012B26
S31508000130224A9142F9D32249224A234B03E011F875
S31508000140015B02F8015B9A42F9D32049204A002351
S3150800015001E001F8013B9142FBD3124A53884FF262
S315080001600F05AB4240F205210AD113888B4205D010
S3150800017030B1180A012818BF022801D1194601E032
S3150800018004B90021064801804CF23C30508000F04A
S3150800019059FA4FF40170BDE8324000F01BB8000070
S315080001A0B40C0020000000202C00004000200008AD
S315080001B0FCED00E00000002098000020000400206C
S315080001C0AC1A0008000400200404002004040020DF
S315080001D0BD0C00200E4A302111600E4A11600E4AED
S315080001E0116010210D4A1160010A00290C4908BF47
S315080001F0000208804FF20F004880BFF35F8F09485E
S3150800020000210160416008480849086070470000FD
S315080002103020004030C8004030C0004010D00040B8
S31508000220000000201C4000400400FA050CED00E028
S315080002300020704780B500F04EFA0121062000F034
S3150800024057FA062000F084FA0121072000F050FA38
S31508000250072000F071FA1748016821F010010160C3
S3150800026001BD0000052800D9704710B5DFE800F089
S315080002701721030F1C17104C2088411E2180C0B976
S31508000280072000F071FA42F21070208010BD072096
S3150800029000F05EFABDE81040062000F065BABDE839
S315080002A01040062000F048BABDE81040062000F0CD
S315080002B04FBA10BD00BC0040B60C00206F49512053
S315080002C00860704738B5054600F0F8F96C49B0FB88
S315080002D0F1F44FF4F070B0FBF4F02D1A1E2DBCBFEC
S315080002E04FF40170FFF776FF6648674A07210160F9
S315080002F00021416081604FF00071116005FB04F137
S31508000300C91C8908491E416031BD604A01215170E6
S31508000310D8E76048016841F00101016001214160A8
S315080003205120564908607047002070472DE9F0476C
S31508000330574D564E2968814640F2DC580129C24677
S315080003405048554F554C1DDA0221618039600068C6
S31508000350C00348BF00F079F8B86900F00300032825
S3150800036061D02868002803D5B86940F00200B86152
S315080003704846FFF7D9FF5FEA000A1BD1286800281C
S3150800038051D54EE061884FF6FF75A9421DD1444804
S31508000390018802237F22A01C00F0FCF96088A8428D
S315080003A004BF02206080B869800703D4B86940F0AA
S315080003B00200B8610120B070608838600FFA8AF0D0
S315080003C0FFF7A3FF5046BDE8F087B9698907EDD561
S315080003D00068C00348BF00F038F8B07808B1404656
S315080003E0F1E7B868B968628810F0010003D10F2AEE
S315080003F008D2521C06E0890704D5217811B1032AD0
S31508000400A8BFAA1892B2022A2070B8BF0222628038
S31508000410386861888842CDD1B86900F0030003289E
S3150800042001D0FFF776FF0020CDE710B5044604E0BB
S3150800043000F0E6F90620FFF777FF2046FFF776FF7C
S315080004400028F5D110BD0220EFE70E480E4A00211C
S3150800045041608160016821F00201016000210B48BA
S3150800046041704FF000711160817801B9704780B50D
S31508000470002181700620FFF757FF01BD008000406C
S3150800048090D0030010E000E004ED00E0B80C002076
S31508000490C01900081C400040044000400004002029
S315080004A0A81A000800787047002101608180C18081
S315080004B001817047F8B504460D461646002710E038
S315080004C02068803020600020E08080202081A0887D
S315080004D0401CA080E088411C0019E180807A78558C
S315080004E07F1CBFB2B7420CD2E08821898842F1D37B
S315080004F02068802204F10A0100F07AFB0028DFD088
S31508000500F2BD0020F2BD1720704710B5044600F072
S31508000510EBF82046BDE8104000F08CBD2DE9F0430D
S31508000520A5B000F06DFD00F0DFF800F0C3FD012175
S3150800053000A800F0C7FD414C04F180050020686062
S31508000540A86000F07FFA00280FBFE8608168E960BC
S315080005504088A4F8800000A800F07BFE070047D179
S31508000560BDF80610BDF8042000A8081800F10A0610
S3150800057094F8800080075FFA82F80FD5E96869B1B8
S31508000580686808EB00024B1E22EA030710B1A86848
S31508000590B84203D2384600F0CBFBAF6068684246E3
S315080005A0314600F044FB070010D1686842462146F0
S315080005B000F01EFB002001E0401CC0B2404505DAF1
S315080005C0015D825D9142F7D0832706E06868404462
S315080005D0002F6860BFD01B2FBDD00420FFF742FE56
S315080005E00121384600F0BEFD384625B0BDE8F08347
S315080005F0172FF0D10020F8E770B5DAB0044636A810
S31508000600FFF752FF012000904FF402630C4A36A907
S3150800061001A800F0BCFE0FF28C050FF27C0600F074
S3150800062063F8002C14BF3246002201A9284601F0BF
S315080006307BF85028F3D05AB070BD0000240C002077
S315080006400404002010B5FFF71FFD044601F090F8DA
S31508000650FFF7F0FD00F085FA18B14FF40170FFF7C7
S31508000660B9FD00F041F840F2011084421CBF40F287
S315080006701110844209D0B4F58A7F1FBF40F20520C5
S31508000680844240F20320844201D1012000E0002088
S3150800069001F070F8002010BD37190008731900081A
S315080006A0A5040008B5040008070500081A480068EC
S315080006B0C00701D4194870471948704780B5FFF735
S315080006C0F5FF1849096801B9400802BD80B5FFF76A
S315080006D0EDFF400802BD1448012181604EF6BE2197
S315080006E04160012101607047104901200860704788
S315080006F0C208430710B54CBF0D4B0E4B03EB8222C5
S3150800070000F00300800013680F248440A34301FA15
S3150800071000F01843106010BD1C400040001BB700D5
S3150800072000366E012040004000600040086000402E
S3150800073004B0004000B00040C108032907DA0121CF
S3150800074000F007029140C00880020F4A1150704716
S31508000750C108032907DA012100F007029140C00801
S3150800076080020A4A11507047C10803290ADA084A62
S3150800077002EB812101230A6800F0070003FA00F062
S31508000780504008607047000014B0004010B00040A8
S315080007900CB0004030B5044610467F2808BF00203C
S315080007A04BF23462914283B01AD108237F2240F675
S315080007B0120100A8FFF7EEFF08220FF23C0100A87D
S315080007C001F035F830B908237F2240F2A27100A85B
S315080007D0FFF7E0FF082200A9204601F00FF837BD11
S315080007E0044D294300FB03111A46204601F006F87A
S315080007F037BD000000000408FFFFFFFFFFFFFFFFF3
S3150800080070B5234C25680646FFF760FF2149B0FB03
S31508000810F1F070432F303021B0FBF1F0032809D3F3
S31508000820616D41F0010161652168491B0903090BE6
S315080008308142F9D370BD38B50C4620B101280FD0D6
S31508000840032820D021E0144D44B1FFF73FFF134998
S31508000850B0FBF1F0401EB0F5005F0CD2286012E044
S315080008604CB1FFF733FF610801EB4000B0FBF4F031
S31508000870B0F5003F01D3202032BD094900F001023E
S315080008804A6040080860002032BD212032BD0000C1
S315080008903820004090D00300100004E020A1070093
S315080008A068C8004010B5044602E0FF2000F0D2FFF9
S315080008B02046441EC0B20028F7D110BD10B5044624
S315080008C001E000F0CDFF2046441EC0B20028F8D152
S315080008D010BD10B504462002000E00F0BBFF200430
S315080008E0000E00F0B7FFE0B2BDE8104000F0B2BF5E
S315080008F010B500F0B5FF044600F0B2FF40EA042048
S3150800090010BD80B501E080B5FF2000F0A3FFBDE86B
S31508000910014000F0A5BF38B500F0A9FF9F20FFF7FA
S31508000920F0FFFFF7F0FF04460220FFF7BBFFFFF7D3
S31508000930DFFF054600F09DFF012C0AD01F2C3ED094
S31508000940202C49D09D2C5AD0C22C15D0EF2C06D07D
S315080009506CE044F21400854268D1012032BD43F2AE
S315080009601200854204D044F21400854202D05DE0AC
S31508000970022032BD032032BD42F212002D1A10D0D9
S315080009806D1E10D06D1E10D06D1E12D04FF4A460CF
S315080009902D1A10D040F2DF202D1A08D0ED1E0CD0EB
S315080009A044E0042032BD052032BD062032BD0720B2
S315080009B032BD082032BD092032BD0A2032BD44F2BC
S315080009C00140854204D044F20150854202D02DE010
S315080009D00B2032BD0C2032BD42F212002D1A06D071
S315080009E06D1E06D06D1E06D06D1E06D01EE00D20AB
S315080009F032BD0E2032BD0F2032BD102032BD44F26A
S31508000A0009002D1A08D0ED1F08D06D1E08D06D1EDE
S31508000A1008D06D1E08D009E0112032BD122032BD63
S31508000A20132032BD142032BD152032BD002032BD40
S31508000A3080B500F01CFF0620FFF763FFBDE8014004
S31508000A4000F017BF80B500F0D9F90028FBD1FFF7F1
S31508000A5062FF401E142848D8DFE800F00B0E111478
S31508000A60171A1D202326292C2F323547383B3E419D
S31508000A7044000FF2AC3002BD0FF2BC3002BD0FF2DB
S31508000A80D03002BD0FF2E03002BD0FF2F43002BDE5
S31508000A900FF2044002BD0FF2184002BD0FF22840C3
S31508000AA002BD0FF23C4002BD0FF24C4002BD0FF2F0
S31508000AB0604002BD0FF2704002BD0FF2844002BDD5
S31508000AC00FF2944002BD0FF2A84002BD0FF2B840E3
S31508000AD002BD0FF2CC4002BD0FF2DC4002BD0FF2A0
S31508000AE0F04002BD0FF2005002BD002002BD00001A
S31508000AF010B5044600F082F90028FBD114B9FFF7B7
S31508000B000AFF04E0207810B9FFF705FF2070401EA1
S31508000B10142824D8DFE800F01A141A14171A1A1D14
S31508000B201D20171A14171A1D0B0E111417004FF44F
S31508000B30004010BD4FF4803010BD4FF4003010BD9A
S31508000B404FF4802010BD4FF4002010BD4FF48010E4
S31508000B5010BD4FF4001010BD4FF4000010BD00206A
S31508000B6010BD10B500F09CFE00F087FE00F0ADFE4B
S31508000B7000F0ACFE42F21074204600F0A3FE00F02E
S31508000B8076FEAB20FFF7BDFE00F073FE204600F0B0
S31508000B9099FEFFF7C0FE08B9862010BD0B3802285B
S31508000BA00BD2FFF745FF00F062FE0120FFF7A9FE12
S31508000BB00020FFF7A6FE00F05CFE002010BD10B571
S31508000BC00C18B4F5802F04D91046FFF791FFA04200
S31508000BD001D3012010BD002010BD10B50C46FFF74B
S31508000BE090FE2046FFF775FEBDE81040032065E637
S31508000BF070B50D4600F074F808B9852070BD00F090
S31508000C00FDF80028FBD100F032FE21460320FFF74D
S31508000C10E4FF03E0FFF777FE05F8010B3046461EB2
S31508000C2080B20028F6D100F024FE002070BD2DE920
S31508000C30F84F894600F054F808B985202AE0374667
S31508000C4000F0DCF80028FBD100F011FE2146032055
S31508000C50FFF7C3FF3846471E80B228B1FFF753FE99
S31508000C60FF28F7D0872015E000F003FE200640F2A3
S31508000C7001174FF4807808D0200A000200F580702A
S31508000C803119814203D3051B02E0BE4204DA354618
S31508000C901EB90020BDE8F28F4546AB46CA4600F0AD
S31508000CA0ADF80028FBD1FFF7C3FE00F0E0FD2146B2
S31508000CB00220FFF792FF03E01AF8010BFFF721FE67
S31508000CC05846A0F1010B80B20028F5D100F0D1FDFD
S31508000CD0761BB6B2A8B2BE4204448144DCDAD6E733
S31508000CE0164604460022314669E780B500F086F8C4
S31508000CF00028FBD100F0BBFDB920FFF702FE00F08B
S31508000D00B8FDBDE8014000F0E2BD38B504460D4621
S31508000D1000F074F80028FBD1FFF78AFE00F0A7FD63
S31508000D2029462046FFF759FFBDE8314000F0A1BD2E
S31508000D302DE9F843044600208DF800000D4640F6DC
S31508000D40FF7600A8FFF7D4FE9DF800108046A1F1B3
S31508000D500D024FF6FF70042A4FF48037814638BFDC
S31508000D60064607D3A1F1110002283CBF4FF40047FD
S31508000D7047F6FF79354218BF82203DD1344218BF65
S31508000D80812039D100AAA9B22046FFF718FF08B971
S31508000D90852031E0BCB9454515D100F02FF800286B
S31508000DA0FBD1FFF745FE00F062FDC720FFF7A9FD5E
S31508000DB000F05FFD1FE021462020FFF7A6FF04F59F
S31508000DC08054A5F58055002D18BF14EA090FF2D1F5
S31508000DD0BD420ED32146D820FFF797FF3C19ED1BDD
S31508000DE0F6E721462020FFF790FF04F58054A5F585
S31508000DF08055002DF5D10020BDE8F28310B500F02E
S31508000E0036FD0520FFF77DFDFFF77DFD044600F062
S31508000E1030FDE00701D5012010BD002010BD0000FF
S31508000E20020103009A01003C0010000000001000B7
S31508000E30C419000801000000020103009A01000815
S31508000E400010000000000400D0190008010000008E
S31508000E50020103009A0100180010000000001000AB
S31508000E60DC19000801000000020103009A01340F92
S31508000E700010000000000400E81900080100000046
S31508000E80020103009A01001E00100000000008007D
S31508000E90F419000801000000020103009A01003C51
S31508000EA00010000000001000001A000801000000F1
S31508000EB0020103009A0100780010000000001000EB
S31508000EC00C1A000801000000020103009A010078CC
S31508000ED00010000000002000181A00080100000099
S31508000EE0020103009A0100500010000000002000D3
S31508000EF0241A000801000000020103009A0100C03C
S31508000F000010000000008000301A000801000000F0
S31508000F10020103009A01001C0010000000000800EE
S31508000F203C1A000801000000020103009A01007043
S31508000F300010000000001000481A00080100000018
S31508000F4002010300000C0018000001000000040064
S31508000F50541A00080100000002010300000C0028D2
S31508000F6000000100000008005C1A000801000000EB
S31508000F7002010300000C00500000010000001000F0
S31508000F80641A000801000000020103009A01000229
S31508000F9000100000008000006C1A00080100000024
S31508000FA0020103009A01000400100000000001007D
S31508000FB0781A000801000000020103009A010006E1
S31508000FC00010000000000200841A0008010000005A
S31508000FD0020103009A010008001000000000040046
S31508000FE0901A000801000000020103009A01000C93
S31508000FF000100000000008009C1A0008010000000C
S3150800100080B54FF4E1310120FFF715FC264802218F
S3150800101081600121016009200921FFF769FBBDE80C
S31508001020044004210A20FFF763BB204800684006F5
S31508001030FBD570471E49CA685207FCD50860704739
S3150800104010B5044603E014F8010BFFF7F3FF207808
S315080010500028F8D110BD10B5044620090A28ACBFEF
S3150800106037303030C0B2FFF7E5FF04F00F000A282A
S31508001070BDE81040ACBF37303030C0B2DAE70B48B5
S315080010800068800701D5012070470020704710B519
S315080010900446FFF7F4FF20B10548006820700020D9
S315080010A010BD012010BD000054C8004048C80040CB
S315080010B03CC8004080B500A8FFF7E9FF0028FAD031
S315080010C001BD0000017001224270012982700CBF27
S315080010D08021402181800021C18001811F48016053
S315080010E00E218162016821F010010160002141632F
S315080010F041627047F8B50D4604461949174F4FF037
S31508001100FF3008601646FE6200207862386840F0B4
S3150800111001003860FFF7E8FA012C11D135B9FFF75D
S31508001120AEFF00F0010080F0010002E02846FFF75C
S31508001130AEFF38B938684008400038600020F2BD74
S315080011400120F2BD786AB042E4D3002EE2D03868B6
S315080011504008400038601620F2BD000000E000405C
S3150800116000A8004038B504460D4600F009F800F01E
S3150800117007F82A462146BDE838401820FFF7C5B9C2
S315080011802A4621461820FFF7C0B938B5044600207C
S3150800119020814AF6B432207800A9FFF7ABFF08B1E0
S315080011A01C2032BD9DF80000032818BF182801D15D
S315080011B0182032BD042801D1172032BD012801D0DC
S315080011C0212032BD002500E06D1CA188EDB2091D65
S315080011D08D420BDA281900F10A01207840F2DD2247
S315080011E0FFF788FF0028EFD0262032BD0025002013
S315080011F006E00146EDB22819007B00F069FB6D1C7C
S31508001200A188EAB28A42F4D3A27AE37A9B18FF2B22
S3150800121001D0222032BD0B191D7BB5EB102F01D052
S31508001220232032BD5B7BC0B2834201D0242032BD6D
S31508001230A078824207D0401EC0B2824201D1272040
S3150800124032BD252032BD881C20810220E080002086
S3150800125032BD38B504466078012804D028D303285F
S3150800126059D01DD324E02078012816D13B2500A8A3
S31508001270FFF70DFF0028FAD04320FFF7DBFE2078A2
S3150800128040F2DD220021FFF735FF30B12846451E22
S31508001290C0B20028F0D11B2032BD022060700FE0DA
S315080012A0FFF708FF00F039F8A078401CA07007E0A7
S315080012B0182032BDA0782278411EC9B200F02FF856
S315080012C02046FFF762FF050018BFFFF7F3FE272D3C
S315080012D0F0D0A8060BD52278A1781520FFF715F9C6
S315080012E0002DEDD10320FEF7BDFF002032BD6806B4
S315080012F003D4182D18BF1C2D07D121782846FFF7CF
S3150800130031FF04206070284632BD172DE8D100F061
S3150800131004F803206070172032BD2278A1780620D1
S31508001320FFF7F3B8F8B504460D4616461F4607E01C
S315080013303046A047294600F0DDFA05467F1E761C92
S31508001340BFB2002FF4D12846F2BD38B50C46154673
S3150800135005E0014614F8010B00F0CCFA6D1EADB29B
S31508001360002DF6D132BDF8B504460D461F46164681
S31508001370286823683A4631469847040005D1E86844
S315080013803A463146FFF7E1FFE8602046F2BD70B500
S315080013908AB004460E98A0720D4623816260022226
S315080013A0286800A9FFF724FCBDF8000058B3286890
S315080013B0202201A9FFF71CFC00200FF2A83101AA80
S315080013C0435C825C9A421ED1401CC0B20828F6DBF8
S315080013D0BDF80C0040BAB0B9079800BA202812D355
S315080013E0079806BAFFF72EFBC06886420BD2202262
S315080013F001A94FF0FF30FFF7A8FFC649884202D17E
S31508001400079800BA286025604FF0FF30E06000209A
S3150800141020740AB070BD2DE9F84F8946044699F83C
S315080014201BB0D068BB49BBF1800FA8BF4FF0800B3B
S3150800143088421E4651D1002E4DD0B06800904FF01C
S31508001440FF38002509EB450A9AF848700DE0FFF7C2
S315080014504BF9F80240F0006200984FF400634146E9
S31508001460FFF760FF8046781CC7B20AF1480040784B
S31508001470B84204DA681CC5B2062D02DAE2E7FF2F85
S31508001480E5D1D9F844006FEA0801884225D1A06859
S31508001490736800BA4FEA5B0249469847C8B9E068DC
S315080014A005BAA06802BAB0685B464FF0FF31FFF78D
S315080014B039FFC04385420CD140F6A720A9F8100091
S315080014C00122A068736800BA09F110011030984724
S315080014D008B1422002E0172000E04320BDE8F28F61
S315080014E02DE9F04F0D4683B08146D5F804A028892A
S315080014F0ADF80000904605F1140404F11006042323
S3150800150052464846FFF72FFF002810D1BAF80000C8
S3150800151040BA80B20190BAF8020047BABFB2F807DB
S3150800152006D501984FF20861884218BF46207AD13D
S31508001530B7F5026FC8BF4E2075DC002F72D0019830
S31508001540DFF8D4B168B14FF20861401A6FD040F2A3
S31508001550FC51401A00F0C580FF387CD0FE387AD09E
S31508001560D5E0287C08B151205DE08D2F28BF4F209B
S3150800157059D23B46221D00F0D4F8002853D1F27EFA
S31508001580802AA8BF802202F10C00874201BFA088EA
S3150800159040BA00F47F40B0F5007F46D1E08840BAF3
S315080015A04EF25031884202BF308A40F6A72188425F
S315080015B03BD1708A00F47F40B0F5807F01BFA068F8
S315080015C000BADBF81C1088422FD1BBF8180040F28D
S315080015D0032188420ED1708AB0F5847F25DBF06D31
S315080015E0410522D14D49081AB0F5303F1DD8B0F54E
S315080015F0005F1AD34FF6FF70308204F110014FF0E6
S31508001600FF30FFF7A2FEE16809BAC943884204BF62
S31508001610307E042809D1707E032818BF062804D115
S31508001620012028740020BDE8FE8F4520FBE7287CB2
S31508001630002858D0BDF800008742B4BFB846804697
S31508001640434600F06DF80028EDD1A7EB0807BFB2B6
S31508001650002FEFD1E6E7287C002844D0042300F0C9
S315080016605FF80028DFD1DAF8000004BADBF81C00BE
S315080016703F1F8442BFB238BF4820D4D3716D381992
S31508001680884228BF4920CED201984FF60351884296
S315080016900DD1B8F1000F0AD0D8F800202146022053
S315080016A0904720B14A20BEE7BF1BBFB23419002FAE
S315080016B0B8D0BDF800008742B4BF3E46064633465A
S315080016C000F02EF80028AED1B8F1000FECD0D8F80B
S315080016D0043072085146204698470028E4D04B202B
S315080016E0A1E7287C08B941209DE7042F18BF4C20A4
S315080016F099D16A68042300F014F8002893D1434668
S315080017002A463146204603B0BDE8F04F83E644201A
S3150800171089E70000E320BBDE00000008000003089C
S315080017205246294648461EE670B50D46044628899F
S315080017308028164603DA4F2070BDA87A78B9324653
S3150800174029462046FFF7CCFE0028F6D0172807D1F1
S31508001750286861688847172802D1002070BD502084
S3150800176070BD0000534C414249425220000000001F
S31508001770FEF769BE10B504460020FEF773FD24BBCC
S315080017800020FEF739FF50B90120FEF735FF30B9C2
S315080017900520FEF767FD40F20120FEF71BFD042039
S315080017A0FEF760FD0120FEF75DFDBDE8104040F242
S315080017B00320FEF70FBD0FF23400FFF741FCFFF7D9
S315080017C034FC40F20220FEF705FDFEF7A7FE0400F2
S315080017D0F1D00FF22000FFF733FC2046FFF73BFC61
S315080017E001A0FFF72DFCF0E70D0A00000D0A4F6B6C
S315080017F00D0A00000D0A455252200000814212D2FD
S3150800180010185118401E491E92B2002A1EBF11F820
S31508001810013900F80139521EF6D1704711F8013B1B
S3150800182000F8013B521E92B2002AF7D1704710B554
S3150800183000E0521E92B222B100F005F8F9D0181B4A
S3150800184010BD002010BD10F8013B11F8014BA34252
S315080018507047000017494A685207FCD50860704768
S31508001860144841688907FCD50068C0B27047124918
S3150800187000E0124908200860704780B50921002059
S31508001880FEF736FF04210120FEF732FF0921022068
S31508001890FEF72EFFBDE8044001210320FEF728BF0E
S315080018A007480021C16001614160102141600221A1
S315080018B0016070473CC0004014B0004010B00040C2
S315080018C054C0004080B2FEF79BBF70477047704710
S315080018D00A0242EA11214840C0F30311484080EA4F
S315080018E0003041010206C9B2D20E41EA022148403F
S315080018F080B270470A0A4840C0B208214308C007A8
S3150800190046BF034858401846491EF7D1504070470D
S315080019102083B8ED2748018A40F6A772914202BF94
S31508001920408A4FF47F41084203D1022801DB012097
S31508001930704700207047F8B504461D4E01200D4635
S315080019403070FFF7E7FF18B94FF40170FEF742FC55
S3150800195029461848876A44F48070B84700213170D0
S315080019600FF2540618B9294644F40070B847805D4A
S31508001970F2BD2DE9F041044688465600FFF7CAFF36
S3150800198018B94FF40170FEF725FC0A48476A002388
S31508001990324641462046B8470FF21C0520B9334661
S315080019A0002241462046B847405DBDE8F081000068
S315080019B0BC0C002000000408000202024B4B4647FC
S315080019C000366E01533235464C3230384B00000033
S315080019D057323558323042560000000057323551DA
S315080019E038304256000000004D5832354C323030FF
S315080019F0364500004D5832354C34303036450000F7
S31508001A004D5832354C383030364500004D58323551
S31508001A1052383033354600004D5832354C31363061
S31508001A20364500004D5832355531363335450000B8
S31508001A304D58323552363433354600004154323526
S31508001A40444630343141000041543235444630383A
S31508001A50314100004D323550323000004D3235509C
S31508001A60343000004D323550383000004953323595
S31508001A704C51303235420000495332354C513531DC
S31508001A8032420000495332354C5130313042000061
S31508001A90495332354C5130323042000049533235C1
S31508001AA04C51303430420000EE0800000100FFFFC0
S705080000757D
