S02400007365637572652D73657269616C2D756172742D626F6F746C6F616465722E7333375B
S31508000000000400207500000881000008810000082F
S31508000010A70B0A0100000000010130570020000864
S31508000020041B00004D0A0008FF0E0008140500080E
S3150800003000000000000000000000000000000000B2
S31508000040000000000000000000000000280000007A
S31508000050FFFFFFFF05480068202100EA010020B1E4
S315080000600348016842688D46104770472C000040D7
S3150800007000200008FFF7EEFF00F00AF800F03EF84F
S3150800008002E00000854670474FF4017000F09EB804
S3150800009038B54FF20F04414D00F0C2F828B140F2CE
S315080000A0052028806C80012032BD3D480068C006C6
S315080000B015D56888A0421ED1288840F202218842B8
S315080000C01CBF40F20621884215D040F20111884231
S315080000D01EBFB0F58A7F40F2111188420BD0314C11
S315080000E0208A40F6A721884205D12068FFF7CAFF73
S315080000F06068804700BF002032BD000038B50400A4
S31508000100294872B6016849084900016000F0CEF82E
S3150800011023480068000910F001000CBF2349244950
S3150800012002E0CD2201F8012B224A9142F9D3224955
S31508000130224A234B03E011F8015B02F8015B9A425D
S31508000140F9D32049204A002301E001F8013B9142F6
S31508000150FBD3124A53884FF20F05AB4240F20521F2
S315080001600AD113888B4205D030B1180A012818BF66
S31508000170022801D1194601E004B900210648018088
S315080001804CF23C30508000F0ABF94FF40170BDE8FA
S31508000190324000F01BB80000240C002000000020AC
S315080001A02C00004000200008FCED00E000000020C4
S315080001B09800002000040020C8160008000400204B
S315080001C004040020040400202D0C00200D4A3021D0
S315080001D011600D4A116010210C4A1160010A0029AC
S315080001E00B4908BF000208804FF20F004880BFF392
S315080001F05F8F084800210160416007480749086089
S31508000200704700003020004030C8004010D0004041
S31508000210000000201C4000400400FA050CED00E038
S315080002200020704780B500F08EF90121152000F0F6
S3150800023097F9152000F0C4F90121072000F090F97C
S31508000240072000F0B1F91748016821F01001016094
S3150800025001BD0000052800D9704710B5DFE800F099
S315080002601721030F1C17104C2088411E2180C0B986
S31508000270072000F0B1F942F21070208010BD072067
S3150800028000F09EF9BDE81040152000F0A5B9BDE8BC
S315080002901040152000F088B9BDE81040152000F080
S315080002A08FB910BD00BC0040260C00206F495120B4
S315080002B00860704738B5054600F038F96C49B0FB58
S315080002C0F1F44FF4F070B0FBF4F02D1A1E2DBCBFFC
S315080002D04FF40170FFF77AFF6648674A0721016005
S315080002E00021416081604FF00071116005FB04F147
S315080002F0C91C8908491E416031BD604A01215170F7
S31508000300D8E76048016841F00101016001214160B8
S315080003105120564908607047002070472DE9F0477C
S31508000320574D564E2968814640F2DC580129C24687
S315080003305048554F554C1DDA0221618039600068D6
S31508000340C00348BF00F079F8B86900F00300032835
S3150800035061D02868002803D5B86940F00200B86162
S315080003604846FFF7D9FF5FEA000A1BD1286800282C
S3150800037051D54EE061884FF6FF75A9421DD1444814
S31508000380018802237F22A01C00F03CF96088A8425D
S3150800039004BF02206080B869800703D4B86940F0BA
S315080003A00200B8610120B070608838600FFA8AF0E0
S315080003B0FFF7A3FF5046BDE8F087B9698907EDD571
S315080003C00068C00348BF00F038F8B07808B1404666
S315080003D0F1E7B868B968628810F0010003D10F2AFE
S315080003E008D2521C06E0890704D5217811B1032AE0
S315080003F0A8BFAA1892B2022A2070B8BF0222628049
S31508000400386861888842CDD1B86900F003000328AE
S3150800041001D0FFF776FF0020CDE710B5044604E0CB
S3150800042000F026F90620FFF777FF2046FFF776FF4C
S315080004300028F5D110BD0220EFE70E480E4A00212C
S3150800044041608160016821F00201016000210B48CA
S3150800045041704FF000711160817801B9704780B51D
S31508000460002181700620FFF757FF01BD008000407C
S3150800047090D0030010E000E004ED00E0280C002016
S31508000480C01600081C40004004400040000400203C
S31508000490C41600080078704730B5DBB0044621461C
S315080004A036A800F037F9002000904FF402630B4A93
S315080004B036A901A800F0CAFA0FF24C020FF254004E
S315080004C001A900F01CFD054600F046F81DB12146BD
S315080004D0284600F06FF928465BB030BD04040020BA
S315080004E080B5FFF7A8FFFFF79DFE00F033FD00F08B
S315080004F0BDFD40F20120FFF769FE002002BD012A7A
S3150800050008BF00F03CBD7047371600087316000890
S315080005109504000875090008AD0900081A4800681E
S31508000520C00701D4194870471948704780B5FFF7C6
S31508000530F5FF1849096801B9400802BD80B5FFF7FB
S31508000540EDFF400802BD1448012181604EF6BE2128
S315080005504160012101607047104901200860704719
S31508000560C208430710B54CBF0D4B0E4B03EB822256
S3150800057000F00300800013680F248440A34301FAA7
S3150800058000F01843106010BD1C400040001BB70067
S3150800059000366E01204000400060004008600040C0
S315080005A004B0004000B00040C108032907DA012161
S315080005B000F007029140C00880020F4A11507047A8
S315080005C0C108032907DA012100F007029140C00893
S315080005D080020A4A11507047C10803290ADA084AF4
S315080005E002EB812101230A6800F0070003FA00F0F4
S315080005F0504008607047000014B0004010B000403A
S315080006000CB0004030B5044610467F2808BF0020CD
S315080006104BF23462914283B01AD108237F2240F606
S31508000620120100A8FFF7EEFF08220FF23C0100A80E
S3150800063000F03EFE30B908237F2240F2A27100A8DE
S31508000640FFF7E0FF082200A9204600F011FE37BD9B
S31508000650044D294300FB03111A46204600F008FE04
S3150800066037BD000000000408FFFFFFFFFFFFFFFF84
S3150800067070B5234C25680646FFF760FF2149B0FB95
S31508000680F1F070432F303021B0FBF1F0032809D385
S31508000690616D41F0010161652168491B0903090B78
S315080006A08142F9D370BD38B50C4620B101280FD068
S315080006B0032820D021E0144D44B1FFF73FFF13492A
S315080006C0B0FBF1F0401EB0F5005F0CD2286012E0D6
S315080006D04CB1FFF733FF610801EB4000B0FBF4F0C3
S315080006E0B0F5003F01D3202032BD094900F00102D0
S315080006F04A6040080860002032BD212032BD000053
S315080007003820004090D00300100004E020A1070024
S3150800071068C80040017001224270012982700CBF2E
S315080007208021402181800021C18001811F4801600C
S315080007300E218162016821F01001016000214163E8
S3150800074041627047F8B50D4604461949174F4FF0F0
S31508000750FF3008601646FE6200207862386840F06E
S3150800076001003860FFF7F8FE012C11D135B900F009
S3150800077057FC00F0010080F0010002E0284600F076
S3150800078057FC38B938684008400038600020F2BD88
S315080007900120F2BD786AB042E4D3002EE2D0386870
S315080007A04008400038601620F2BD000000E0004016
S315080007B000A8004038B504460D4600F009F800F0D8
S315080007C007F82A462146BDE838401820FFF797BEA5
S315080007D02A4621461820FFF792BE38B5044600205F
S315080007E020814AF6B432207800A9FFF7ABFF08B19A
S315080007F01C2032BD9DF80000032818BF182801D117
S31508000800182032BD042801D1172032BD012801D095
S31508000810212032BD002500E06D1CA188EDB2091D1E
S315080008208D420BDA281900F10A01207840F2DD2200
S31508000830FFF788FF0028EFD0262032BD00250020CC
S3150800084006E00146EDB22819007B00F043FD6D1C59
S31508000850A188EAB28A42F4D3A27AE37A9B18FF2BDC
S3150800086001D0222032BD0B191D7BB5EB102F01D00C
S31508000870232032BD5B7BC0B2834201D0242032BD27
S31508000880A078824207D0401EC0B2824201D12720FA
S3150800089032BD252032BD881C20810220E080002040
S315080008A032BD38B504466078012804D028D3032819
S315080008B059D01DD324E02078012816D13B2500A85D
S315080008C000F0B6FB0028FAD0432000F058FB207849
S315080008D040F2DD220021FFF735FF30B12846451EDC
S315080008E0C0B20028F0D11B2032BD022060700FE094
S315080008F000F0B0FB00F039F8A078401CA07007E0C3
S31508000900182032BDA0782278411EC9B200F02FF80F
S315080009102046FFF762FF050018BF00F09BFB272D56
S31508000920F0D0A8060BD52278A1781520FFF7E7FDA9
S31508000930002DEDD10320FFF78DFC002032BD68069F
S3150800094003D4182D18BF1C2D07D121782846FFF788
S3150800095031FF04206070284632BD172DE8D100F01B
S3150800096004F803206070172032BD2278A17806208B
S31508000970FFF7C5BDF8B504460D461646002706E03E
S31508000980E088411C0019E180807A78557F1CBFB247
S31508000990B74209D2E08821898842F1D32046FFF779
S315080009A080FF0028ECD0F2BD0020F2BD10B5044649
S315080009B02046FFF776FF0028FAD010BDF8B50446A2
S315080009C00D4616461F4607E03046A047294600F062
S315080009D093FC05467F1E761CBFB2002FF4D128462D
S315080009E0F2BD38B50C46154605E0014614F8010B6C
S315080009F000F082FC6D1EADB2002DF6D132BDF8B501
S31508000A0007460E461D46144630683B682A46214668
S31508000A109847070005D1F0682A462146FFF7E1FF07
S31508000A20F060D6F8A8002818C6F8A80096F8A70017
S31508000A3050B1AC362A462146304600F02FFD2A46EC
S31508000A402146304600F0ACFC3846F2BD10B5029C93
S31508000A50847203814260016028224FF0FF31C16031
S31508000A6000210174A0F8A410802180F8A6100021A6
S31508000A7080F8A710C0F8A810AC30BDE8104000F008
S31508000A8010BC2DE9F84F8946044699F81BB0D06882
S31508000A909A49BBF1800FA8BF4FF0800B88421E46CB
S31508000AA051D1002E4DD0B06800904FF0FF38002588
S31508000AB009EB450A9AF848700DE0FFF74DFDF80274
S31508000AC040F0006200984FF400634146FFF776FF56
S31508000AD08046781CC7B20AF148004078B84204DA62
S31508000AE0681CC5B2062D02DAE2E7FF2FE5D1D9F870
S31508000AF044006FEA0801884225D1A068736800BAE5
S31508000B004FEA5B0249469847C8B9E06805BAA06843
S31508000B1002BAB0685B464FF0FF31FFF74FFFC0439C
S31508000B2085420CD140F6A720A9F810000122A0683A
S31508000B30736800BA09F110011030984708B14220CD
S31508000B4002E0172000E04320BDE8F28F2DE9F04FC0
S31508000B500D4683B081466868009093462889009AB6
S31508000B60ADF8040005F1140606F1100704234846FB
S31508000B70FFF745FF002873D10098008840BA1FFA8E
S31508000B8080F80098408840BA84B2E00705D54FF24D
S31508000B900860804518BF462062D1B4F5026FC8BF09
S31508000BA04E205DDC002C5AD0B8F1000FDFF850A1BA
S31508000BB009D04FF60441B8EB010050D0FF3853D0A6
S31508000BC0FE3851D098E0287C08B1512048E08D2C99
S31508000BD028BF4F2044D22346321D00F093F8002840
S31508000BE03ED1FA7E802AA8BF802202F10C008442F8
S31508000BF001BFB08840BA00F47F40B0F5007F31D11C
S31508000C00F08840BA4EF25031884202BF388A40F620
S31508000C10A721884226D1788A00F47F40B0F5807FE4
S31508000C2001BFB06800BADAF81C1088421AD14FF62C
S31508000C30FF70388206F110014FF0FF30FFF7D1FE42
S31508000C40F16809BAC943884204BF387E042809D125
S31508000C50787E1B2818BF062804D101202874002096
S31508000C60BDE8FE8F4520FBE7287C08B94120F7E759
S31508000C70009A042300F046F80028F1D1009800688D
S31508000C8006BA201F84B2DAF81C00864238BF48200C
S31508000C90E6D3796DA019884228BF4920E0D24FF6DD
S31508000CA0035080450DD1BBF1000F0AD0DBF80020B8
S31508000CB031460220904720B14A20D1E7E01B84B292
S31508000CC0BE19002CCBD0BDF80400009A8442B4BFEC
S31508000CD0274607463B4600F015F80028C0D1BBF169
S31508000CE0000FEBD00099DBF804307A0830469847B5
S31508000CF00028E3D04B20B3E74420B1E7E320BBDE6E
S31508000D00000000082946484679E62DE9F04F0D46C9
S31508000D1085B080466F6805F11400009005F1A404BB
S31508000D20103004909146A07883284FF6071A04D10C
S31508000D30A68882215046A1700CE004233A46404614
S31508000D40FFF75DFE00280DD13888798840BA49BA80
S31508000D5080B28EB2F10707D54FF6062188421CBF2E
S31508000D605045462040F0C4804FF20972A178801A97
S31508000D7005F1AC0A05F1040B00F08A804FF4FF7206
S31508000D80801A6BD0FF3830D0FF3803D0FF3800F018
S31508000D909980ACE0802929D1062E23D3062302AAFE
S31508000DA029464046FFF72BFEE8B9BDF8080040BAC9
S31508000DB000F47F40B0F5007F01BFBDF80C0040BAD3
S31508000DC04EF2503188420DD1BDF80A0040BA0128CA
S31508000DD018BF522007D1BDF80A0040BAA5F8A400EA
S31508000DE0002000E0452081217FE081296CD1BBF8F5
S31508000DF00490102E38BF4E202ED30423524600F0FE
S31508000E007BF848BB0C230AF1040200F075F818BBFE
S31508000E10DAF8000000BAA6F11001CAF800008EB28E
S31508000E203146504600F084FA05E069683A4650466D
S31508000E3000F0B6FAF61BB6B256B137464E4588BF2D
S31508000E404F466A683B4600F057F80028EDD003E0A5
S31508000E50504600F0C8FA0020822146E0822933D1A4
S31508000E60042E2AD30120E0704A46002060602946F5
S31508000E704046FFF76BFE00BB0021E17061688E42B9
S31508000E801BD3B14234D28322A270711A61602FE05B
S31508000E90822919D1504600F0A6FABBF80400B042E0
S31508000EA0B8BF4F2024DB334600F025F800BBF2B26A
S31508000EB03946504600F0BDFA08B9542018E000201B
S31508000EC0842112E0842901D0512011E0042E18BF94
S31508000ED04C200DD1042300F00EF848B90499009867
S31508000EE04B462A46FFF7CDFD8521A17000E0442038
S31508000EF005B0BDE8F08F3A46294640467FE570B50D
S31508000F000D46044628898028164601DA4F2070BD0A
S31508000F1000F002FA08B9532070BD32462946204629
S31508000F20FFF7F3FE002818BF172803D08F2185F88E
S31508000F30A61070BD95F8A600852806D128686168B0
S31508000F408847172805D1002070BDA87A0028E4D064
S31508000F50502070BD80B54FF4E1310120FFF7A3FBA7
S31508000F603948022181600121016009200921FFF722
S31508000F70F7FABDE8044004210A20FFF7F1BA34491C
S31508000F80CA685207FCD50860704710B5044603E0E6
S31508000F9014F8010BFFF7F3FF20780028F8D110BDED
S31508000FA030B583B00FF2BC0218CA00A9042218C1D2
S31508000FB0052100AD0DE080B20A2390FBF3F30A2465
S31508000FC004FB1304E4B2184604F130034B5504B18C
S31508000FD00A46491E49B20029EDD500A8D2B2101812
S31508000FE0FFF7D3FF37BD10B5044620090A28ACBF62
S31508000FF037303030C0B2FFF7C2FF04F00F000A28BE
S31508001000BDE81040ACBF37303030C0B2B7E710B5D6
S315080010100446200AFFF7E7FFE0B2BDE81040E2E722
S315080010200A480068800701D50120704700207047EC
S3150800103010B50446FFF7F4FF20B105480068207094
S31508001040002010BD012010BD54C8004048C800400B
S315080010503CC8004080B500A8FFF7EAFF0028FAD090
S3150800106001BD000030303030300000002DE9F84F67
S31508001070FFF772FAFFF7EEFF0020FFF7EBF80FF223
S315080010806C18474D0FF2381BDFF818910FF2181A33
S3150800109041A642A41EE05046FFF777FF0C27B9F891
S315080010A01A00F84000F00F00FFF77AFF012FA4BFDF
S315080010B02E20FFF764FF3F1FF1D52046FFF765FF97
S315080010C009F11A00408EFFF76BFF5846FFF75DFFE0
S315080010D0FFF7C0FFFFF740FA0220FFF7BBF800A8AA
S315080010E0FFF7A6FF0028F5D19DF80000FFF747FF98
S315080010F09DF800000A2818BF0D28CCD0312804D046
S3150800110032282ED0332831D0E2E70FF2F000FFF76D
S315080011103CFF0120FFF7C0F907460FF2F400FFF77E
S3150800112034FF2FB90520FFF795F80FF2F800CDE741
S315080011300420FFF78FF80FF2F800FFF726FFB8062E
S3150800114048BF0FF2F80005D478064CBF0FF204101A
S315080011500FF21010FFF719FF3846FFF758FF304611
S31508001160B4E70120FFF776F8BDE8F18F002730468F
S31508001170FFF70BFF288A40F6A721884218BF40468A
S31508001180A4D178197F1C90F8240020B1FFF7F7FE48
S31508001190FFB2202FF5DBE2E70D0A0000206200000F
S315080011A000200008000000080D0A45465220333288
S315080011B053657269616C2042746C207600000000E9
S315080011C00D0A312E2075706C6F61642065626C0D96
S315080011D00A322E2072756E0D0A332E2065626C2037
S315080011E0696E666F0D0A424C203E20002A2A206E40
S315080011F06F20617070202A2A0D0A00000D0A6265A8
S3150800120067696E2075706C6F61640D0A00000000D6
S315080012100D0A53657269616C2075706C6F61642084
S3150800122000000000636F6D706C6574650D0A000040
S3150800123061626F727465640D0A0000000D0A584DEC
S315080012406F64656D20626C6F636B206572726F7276
S31508001250203078000D0A66696C65206572726F72B7
S31508001260203078000D0A6572726F7220307800009F
S31508001270814212D210185118401E491E92B2002AF5
S315080012801EBF11F8013900F80139521EF6D1704710
S3150800129011F8013B00F8013B521E92B2002AF7D121
S315080012A07047130003D00A46194600F021B9704763
S315080012B010B500E0521E92B222B100F005F8F9D03E
S315080012C0181B10BD002010BD10F8013B11F8014B8A
S315080012D0A34270470A0242EA11214840C0F30311AB
S315080012E0484080EA003041010206C9B2D20E41EAFE
S315080012F00221484080B270470A0A4840C0B2082115
S315080013004308C00746BF034858401846491EF7D148
S31508001310504070472083B8ED00205F49415CFF29A3
S3150800132001D001207047401C1028F6DB00207047CA
S3150800133012B5044683B02068039900BA00903A2093
S3150800134001B17A2020740C22211D04F11100FFF747
S315080013508FFF03220DF1010104F11D00FFF788FF3D
S3150800136000F03CF80398D0B1B0F57F4F05D200BA2B
S31508001370039002220DF10E010EE00FF270100088A4
S31508001380ADF804000222039800BA039001A920468A
S3150800139000F006F8042203A9204600F001F81FBD54
S315080013A0F8B504460D461646002714E094F82500BD
S315080013B07A5D0019017C5140017494F82500401C9F
S315080013C084F82500C0B2102804D300F007F80020DE
S315080013D084F825007F1CB742E8D3F1BD2E4904F1F5
S315080013E0100000F0EFB81FB5044600A8102100F061
S315080013F0F3F894F82500C0F11000C11000EB117144
S315080014000911A0EB011200A92046FFF7C9FF1FBD6D
S315080014101FB50C46011D00AA002000F026F8002082
S3150800142000AA015D825C51400155401C1028F7DB7B
S315080014301FBD38B5102A04460D4612D1216A94F804
S315080014402420206802EB011188420AD12946204649
S31508001450FFF7DEFF102204F110012846FFF728FFE8
S3150800146008B1002032BD012032BD11B581B000BAE5
S3150800147001901446022020700C22601CFFF7F8FE2B
S3150800148003220DF1050104F10D00FFF7F1FE0249F3
S31508001490204600F097F813BDF80804082DE9FF4127
S315080014A004460D4690460020002704F1200619E060
S315080014B030B9206A00AA211D401CFFF7D6FF01207B
S315080014C03379795D00AA9A5C514079553179491C7E
S315080014D0C9B2102904DB206A401C206200210020C2
S315080014E031717F1C4745E3D3BDE8FF81FFFE00004D
S315080014F062F30F2262F31F42401810F0030308D06C
S31508001500C91A1FD3DB0748BF00F8012D28BF20F8EA
S31508001510022D130030B414461546103928BF20E9A9
S315080015203C00FAD8490728BF20E90C0048BF40F814
S31508001530042D890028BF20F8022D48BF00F8012D88
S3150800154030BC7047C91818BF00F8012DCB0728BF53
S3150800155000F8012D704700000268174912BACA60E0
S31508001560426812BA8A60826812BA4A60C06800BACB
S315080015700860704710B5114980220A600623104A90
S31508001580136007230B6013689B07FCD5002350F8EC
S3150800159023405B1C24BA042B8C62F8D313685B07C0
S315080015A0FCD500220B6B1BBA40F82230521C042AC9
S315080015B0F8D310BD0000000038300040003000406D
S315080015C010A0004010B504460846FFF7C5FF2046A0
S315080015D0BDE81040CEE70000002200F001B8000088
S315080015E000B500BF130096469446103928BFA0E8F8
S315080015F00C50FAD85FEA417C28BF0CC048BF40F8B7
S31508001600042BC90728BF20F8022B48BF00F8012B76
S3150800161000BD00002748018A40F6A772914202BF22
S31508001620408A4FF47F41084203D1022801DB01209A
S31508001630704700207047F8B504461D4E01200D4638
S315080016403070FFF7E7FF18B94FF40170FEF7BEFDDB
S3150800165029461848876A44F48070B84700213170D3
S315080016600FF2540618B9294644F40070B847805D4D
S31508001670F2BD2DE9F041044688465600FFF7CAFF39
S3150800168018B94FF40170FEF7A1FD0A48476A00230E
S31508001690324641462046B8470FF21C0520B9334664
S315080016A0002241462046B847405DBDE8F08100006B
S315080016B02C0C002000000408000202024B4B46478F
S311080016C000366E01EE0800000100FFFF76
S705080000757D
