S02B00007365637572652D6170702D626F6F746C6F616465722D6932632D6D6332346161313032352E73333764
S31508000000000400207500000881000008810000082F
S31508000010A70B0A0100000000020230570020000862
S31508000020041A0000850E0008051400089C0600083E
S315080000309D0800088D090008DD090008CD0800089C
S31508000040C7080008B30A0008CF08000828000000FF
S31508000050FFFFFFFF05480068202100EA010020B1E4
S315080000600348016842688D46104770472C000040D7
S3150800007000200008FFF7EEFF00F00DF800F042F848
S3150800008005E00000854670474548008870474FF4EC
S31508000090017000F09FB838B54FF20F04414D00F0DB
S315080000A0C3F828B140F2052028806C80012032BDB3
S315080000B03D480068C00615D56888A0421ED1288824
S315080000C040F2022188421CBF40F20621884215D020
S315080000D040F2011188421EBFB0F58A7F40F2111125
S315080000E088420BD0314C208A40F6A721884205D198
S315080000F02068FFF7C7FF6068804700BF002032BD51
S315080001000000000038B50400294872B6016849089D
S315080001104900016000F0CEF823480068000910F095
S3150800012001000CBF2349244902E0CD2201F8012B26
S31508000130224A9142F9D32249224A234B03E011F875
S31508000140015B02F8015B9A42F9D32049204A002351
S3150800015001E001F8013B9142FBD3124A53884FF262
S315080001600F05AB4240F205210AD113888B4205D010
S3150800017030B1180A012818BF022801D1194601E032
S3150800018004B90021064801804CF23C30508000F04A
S3150800019055FA4FF40170BDE8324000F01BB8000074
S315080001A0B40C0020000000202C00004000200008AD
S315080001B0FCED00E00000002098000020000400206C
S315080001C05819000800040020040400200404002034
S315080001D0BD0C00200D4A302111600D4A1160102116
S315080001E00C4A1160010A00290B4908BF0002088061
S315080001F04FF20F004880BFF35F8F08480021016067
S3150800020041600748074908607047000030200040F1
S3150800021030C8004010D00040000000201C400040BC
S315080002200400FA050CED00E00020704780B500F0E8
S315080002304EFA0121152000F057FA152000F084FA2D
S315080002400121072000F050FA072000F071FA17483C
S31508000250016821F01001016001BD0000052800D9E0
S31508000260704710B5DFE800F01721030F1C17104C74
S315080002702088411E2180C0B9072000F071FA42F299
S315080002801070208010BD072000F05EFABDE810400F
S31508000290152000F065BABDE81040152000F048BAF0
S315080002A0BDE81040152000F04FBA10BD00BC004054
S315080002B0B60C00206F4951200860704738B50546CE
S315080002C000F0F8F96C49B0FBF1F44FF4F070B0FBAC
S315080002D0F4F02D1A1E2DBCBF4FF40170FFF77AFFFC
S315080002E06648674A072101600021416081604FF036
S315080002F00071116005FB04F1C91C8908491E41609B
S3150800030031BD604A01215170D8E76048016841F063
S31508000310010101600121416051205649086070477A
S31508000320002070472DE9F047574D564E29688146FB
S3150800033040F2DC580129C2465048554F554C1DDA43
S315080003400221618039600068C00348BF00F079F86F
S31508000350B86900F00300032861D02868002803D58F
S31508000360B86940F00200B8614846FFF7D9FF5FEA6E
S31508000370000A1BD12868002851D54EE061884FF63F
S31508000380FF75A9421DD14448018802237F22A01C7B
S3150800039000F0FCF96088A84204BF02206080B869B2
S315080003A0800703D4B86940F00200B8610120B07034
S315080003B0608838600FFA8AF0FFF7A3FF5046BDE859
S315080003C0F087B9698907EDD50068C00348BF00F012
S315080003D038F8B07808B14046F1E7B868B968628875
S315080003E010F0010003D10F2A08D2521C06E0890733
S315080003F004D5217811B1032AA8BFAA1892B2022AF5
S315080004002070B8BF02226280386861888842CDD1E0
S31508000410B86900F00300032801D0FFF776FF002033
S31508000420CDE710B5044604E000F0E6F90620FFF72C
S3150800043077FF2046FFF776FF0028F5D110BD02208A
S31508000440EFE70E480E4A002141608160016821F0FD
S315080004500201016000210B4841704FF000711160E4
S31508000460817801B9704780B5002181700620FFF7B1
S3150800047057FF01BD0080004090D0030010E000E067
S3150800048004ED00E0B80C0020441900081C400040A8
S315080004900440004000040020541900080078704702
S315080004A0002101608180C18001817047F8B504464A
S315080004B00D461646002710E0206880302060002090
S315080004C0E08080202081A088401CA080E088411C14
S315080004D00019E180807A78557F1CBFB2B7420CD2EA
S315080004E0E08821898842F1D32068802204F10A0134
S315080004F000F04CFA0028DFD0F2BD0020F2BD17202C
S31508000500704710B5044600F0EBF82046BDE81040E9
S3150800051000F0F8BA2DE9F043A5B000F0D9FA00F0DA
S31508000520DFF800F02FFB012100A800F033FB414C57
S3150800053004F1800500206860A86000F0C4F900286E
S315080005400FBFE8608168E9604088A4F8800000A8C9
S3150800055000F0E7FB070047D1BDF80610BDF80420F8
S3150800056000A8081800F10A0694F8800080075FFAC8
S3150800057082F80FD5E96869B1686808EB00024B1E76
S3150800058022EA030710B1A868B84203D2384600F039
S3150800059090FAAF6068684246314600F01FFA0700D5
S315080005A010D168684246214600F0F0F9002001E0C3
S315080005B0401CC0B2404505DA015D825D9142F7D024
S315080005C0832706E068684044002F6860BFD01B2F69
S315080005D0BDD00420FFF742FE0121384600F02AFB71
S315080005E0384625B0BDE8F083172FF0D10020F8E78C
S315080005F070B5DAB0044636A8FFF752FF012000901E
S315080006004FF402630C4A36A901A800F03BFC0FF22E
S315080006108C050FF27C0600F063F8002C14BF3246F6
S31508000620002201A9284600F0EDFE5028F3D05AB062
S3150800063070BD0000240C00200404002010B5FFF74C
S3150800064023FD044600F010FFFFF7F0FD00F026F941
S3150800065018B14FF40170FFF7BDFD00F041F840F204
S31508000660011084421CBF40F21110844209D0B4F52F
S315080006708A7F1FBF40F20520844240F2032084424D
S3150800068001D1012000E0002000F0F0FE002010BD9E
S31508000690BB180008F71800089D040008AD040008F8
S315080006A0FF0400081A480068C00701D419487047B3
S315080006B01948704780B5FFF7F5FF1849096801B969
S315080006C0400802BD80B5FFF7EDFF400802BD14489B
S315080006D0012181604EF6BE2141600121016070470B
S315080006E01049012008607047C208430710B54CBF7F
S315080006F00D4B0E4B03EB822200F0030080001368BB
S315080007000F248440A34301FA00F01843106010BD7B
S315080007101C400040001BB70000366E012040004018
S31508000720006000400860004004B0004000B000408F
S31508000730C108032907DA012100F007029140C00821
S3150800074080020F4A11507047C108032907DA0121B0
S3150800075000F007029140C00880020A4A115070470B
S31508000760C10803290ADA084A02EB812101230A682B
S3150800077000F0070003FA00F05040086070470000D8
S3150800078014B0004010B000400CB0004030B504462C
S3150800079010467F2808BF00204BF23462914283B08E
S315080007A01AD108237F2240F6120100A8FFF7EEFFB0
S315080007B008220FF23C0100A800F0BCFE30B908235D
S315080007C07F2240F2A27100A8FFF7E0FF082200A9E5
S315080007D0204600F08FFE37BD044D294300FB031168
S315080007E01A46204600F086FE37BD000000000408C1
S315080007F0FFFFFFFFFFFFFFFF70B5234C2568064686
S31508000800FFF760FF2149B0FBF1F070432F3030212C
S31508000810B0FBF1F0032809D3616D41F00101616570
S315080008202168491B0903090B8142F9D370BD38B504
S315080008300C4620B101280FD0032820D021E0144D02
S3150800084044B1FFF73FFF1349B0FBF1F0401EB0F586
S31508000850005F0CD2286012E04CB1FFF733FF610845
S3150800086001EB4000B0FBF4F0B0F5003F01D32020C7
S3150800087032BD094900F001024A60400808600020BC
S3150800088032BD212032BD00003820004090D0030040
S31508000890100004E020A1070068C8004080B50D21BB
S315080008A00920FFF721FF0D210A20FFF71DFF7948D0
S315080008B00E2141610121816100210160416003210E
S315080008C08160002002BD0FF2F010704770470020CB
S315080008D07047F8B50C46010CC90041F0A001154651
S315080008E0C9B26D4E326942F004023261B26812072B
S315080008F0FCD5316000F039F8B268D207F2D40204A8
S31508000900120E326000F031F8C0B200F036F83069E5
S3150800091040F004003061B0680007FCD541F00100E2
S3150800092000F02BF800270AE07061306940F00100FA
S315080009303061B0684007FCD5306838557F1CAF4237
S315080009400ADAFFF7CDFE681E87427069B2BF40F02B
S31508000950010040084000E7E7306940F008003061D0
S31508000960B0680007FCD50020F2BD326942F00202E9
S315080009703261B2689207FCD570473060306940F042
S3150800098002003061B0688007FCD57047F8B50446A8
S3150800099042480D46164684423EBF374639198142BB
S315080009A001D38520F2BD20040DD0200C000400F5EB
S315080009B08030814207D36742BFB204E0F61B3C1978
S315080009C07D19B6B237463EB13A4629462046FFF764
S315080009D080FF0028F2D0F2BD0020F2BD2DE9F843D1
S315080009E004462E488846164684423ABF3119814243
S315080009F085200ED214F07F0F06D0E009C0018030A2
S31508000A00814203D3071B02E0812E04DA37461EB95A
S31508000A100020BDE8F2838027200CC00040F0A0002B
S31508000A20C0B21D4D296941F004012961A968090769
S31508000A30FCD52860296941F002012961A96889075E
S31508000A40FCD5A968C907EDD42004000E00F028F8E3
S31508000A50E0B200F025F84FF0000907E0FFF740FE86
S31508000A6019F8080000F01CF809F101091FFA89F9BC
S31508000A70BFB2B945F2D3286940F008002861A868D2
S31508000A800007FCD5F61B3C19B6B2812EB844C2DA6B
S31508000A90BCE700004CC800403CC80040010002000A
S31508000AA02860286940F002002861A8688007FCD5FC
S31508000AB0704788207047000002010000000000000F
S31508000AC0800000000000020048190008010000002C
S31508000AD080B54FF4E1310120FFF7A9FE264802212F
S31508000AE081600121016009200921FFF7FDFDBDE8AC
S31508000AF0044004210A20FFF7F7BD20480068400695
S31508000B00FBD570471E49CA685207FCD5086070476E
S31508000B1010B5044603E014F8010BFFF7F3FF20783D
S31508000B200028F8D110BD10B5044620090A28ACBF24
S31508000B3037303030C0B2FFF7E5FF04F00F000A285F
S31508000B40BDE81040ACBF37303030C0B2DAE70B48EA
S31508000B500068800701D5012070470020704710B54E
S31508000B600446FFF7F4FF20B105480068207000200E
S31508000B7010BD012010BD000054C8004048C8004000
S31508000B803CC8004080B500A8FFF7E9FF0028FAD066
S31508000B9001BD0000017001224270012982700CBF5C
S31508000BA08021402181800021C18001811F48016088
S31508000BB00E218162016821F0100101600021416364
S31508000BC041627047F8B50D4604461949174F4FF06C
S31508000BD0FF3008601646FE6200207862386840F0EA
S31508000BE001003860FFF77CFD012C11D135B9FFF7FC
S31508000BF0AEFF00F0010080F0010002E02846FFF792
S31508000C00AEFF38B938684008400038600020F2BDA9
S31508000C100120F2BD786AB042E4D3002EE2D03868EB
S31508000C204008400038601620F2BD000000E0004091
S31508000C3000A8004038B504460D4600F009F800F053
S31508000C4007F82A462146BDE838401820FFF759BC60
S31508000C502A4621461820FFF754BC38B5044600201A
S31508000C6020814AF6B432207800A9FFF7ABFF08B115
S31508000C701C2032BD9DF80000032818BF182801D192
S31508000C80182032BD042801D1172032BD012801D011
S31508000C90212032BD002500E06D1CA188EDB2091D9A
S31508000CA08D420BDA281900F10A01207840F2DD227C
S31508000CB0FFF788FF0028EFD0262032BD0025002048
S31508000CC006E00146EDB22819007B00F045FC6D1CD4
S31508000CD0A188EAB28A42F4D3A27AE37A9B18FF2B58
S31508000CE001D0222032BD0B191D7BB5EB102F01D088
S31508000CF0232032BD5B7BC0B2834201D0242032BDA3
S31508000D00A078824207D0401EC0B2824201D1272075
S31508000D1032BD252032BD881C20810220E0800020BB
S31508000D2032BD38B504466078012804D028D3032894
S31508000D3059D01DD324E02078012816D13B2500A8D8
S31508000D40FFF70DFF0028FAD04320FFF7DBFE2078D7
S31508000D5040F2DD220021FFF735FF30B12846451E57
S31508000D60C0B20028F0D11B2032BD022060700FE00F
S31508000D70FFF708FF00F039F8A078401CA07007E0DC
S31508000D80182032BDA0782278411EC9B200F02FF88B
S31508000D902046FFF762FF050018BFFFF7F3FE272D71
S31508000DA0F0D0A8060BD52278A1781520FFF7A9FB65
S31508000DB0002DEDD10320FFF751FA002032BD680659
S31508000DC003D4182D18BF1C2D07D121782846FFF704
S31508000DD031FF04206070284632BD172DE8D100F097
S31508000DE004F803206070172032BD2278A178062007
S31508000DF0FFF787BBF8B504460D4616461F4607E0BB
S31508000E003046A047294600F0B9FB05467F1E761CEA
S31508000E10BFB2002FF4D12846F2BD38B50C461546A8
S31508000E2005E0014614F8010B00F0A8FB6D1EADB2F3
S31508000E30002DF6D132BDF8B507460E461D461446B6
S31508000E4030683B682A4621469847070005D1F0686E
S31508000E502A462146FFF7E1FFF060D6F8A8002818D1
S31508000E60C6F8A80096F8A70050B1AC362A4621461F
S31508000E70304600F055FC2A462146304600F0D2FBA3
S31508000E803846F2BD70B58AB004460E98A0720D4673
S31508000E90238162600222286800A9FFF777FDBDF862
S31508000EA0000058B32868202201A9FFF76FFD00202B
S31508000EB00FF2A85101AA435C825C9A421ED1401CDB
S31508000EC0C0B20828F6DBBDF80C0040BAB0B90798DE
S31508000ED000BA202812D3079806BAFFF7F4FCC068B0
S31508000EE086420BD2202201A94FF0FF30FFF795FF6B
S31508000EF0C249884202D1079800BA286025604FF097
S31508000F00FF30E060282200202074A4F8A400002105
S31508000F10802084F8A600002084F8A700C4F8A8005A
S31508000F2004F1AC0000F0FFFA0AB070BD2DE9F84FE5
S31508000F308946044699F81BB0D068B049BBF1800FC2
S31508000F40A8BF4FF0800B88421E4651D1002E4DD0C7
S31508000F50B06800904FF0FF38002509EB450A9AF86B
S31508000F6048700DE0FFF7BCFBF80240F000620098FD
S31508000F704FF400634146FFF73DFF8046781CC7B231
S31508000F800AF148004078B84204DA681CC5B2062D52
S31508000F9002DAE2E7FF2FE5D1D9F844006FEA080143
S31508000FA0884225D1A068736800BA4FEA5B024946B1
S31508000FB09847C8B9E06805BAA06802BAB0685B463F
S31508000FC04FF0FF31FFF716FFC04385420CD140F6BC
S31508000FD0A720A9F810000122A068736800BA09F1D1
S31508000FE010011030984708B1422002E0172000E0AF
S31508000FF04320BDE8F28F2DE9F04F0D4683B08146B8
S31508001000D5F804B02889ADF80000904605F1140615
S3150800101006F1100404235A464846FFF70CFF002839
S3150800102010D1BBF8000040BA80B20190BBF80200AC
S3150800103047BABFB2F80706D501984FF20861884249
S3150800104018BF462079D1B7F5026FC8BF4E2074DCA9
S31508001050002F71D00198DFF8A8A160B14FF208619E
S31508001060401A6ED040F2FC51401A65D0FF387BD04A
S31508001070FE3879D0BFE0287C08B151205DE08D2F7D
S3150800108028BF4F2059D23B46321D00F0BEF8002833
S3150800109053D1E27E802AA8BF802202F10C00874243
S315080010A001BFB08840BA00F47F40B0F5007F46D152
S315080010B0F08840BA4EF25031884202BF208A40F684
S315080010C0A72188423BD1608A00F47F40B0F5807F33
S315080010D001BFB06800BADAF81C1088422FD1BAF8F6
S315080010E0180040F2032188420ED1608AB0F5847F49
S315080010F025DBE06D410522D14249081AB0F5E03FEB
S315080011001DD8B0F5005F1AD34FF6FF70208206F19E
S3150800111010014FF0FF30FFF780FEF16809BAC943A6
S31508001120884204BF207E042809D1607E1A2818BF89
S31508001130062804D1012028740020BDE8FE8F45202A
S31508001140FBE7287C90B1BDF800008742B4BFB846DB
S315080011508046434600F058F80028EED1A7EB08076A
S31508001160BFB2002FEFD1E7E7287C08B94120E4E7B2
S31508001170042300F049F80028DFD1DBF8000006BA9E
S31508001180DAF81C003F1F8642BFB238BF4820D4D3C6
S31508001190616DB819884228BF4920CED201984FF60A
S315080011A0035188420DD1B8F1000F0AD0D8F80020B3
S315080011B031460220904720B14A20BEE73F1BBFB206
S315080011C0A619002FB8D0BDF800008742B4BF3C4628
S315080011D00446234600F018F80028AED1B8F1000FEF
S315080011E0ECD0D8F8043062085946304698470028AB
S315080011F0E4D04B20A1E744209FE70000E320BBDEB4
S3150800120000000008000002085A462946484612E629
S315080012102DE9F04F0D4685B080466F6805F114003C
S31508001220009005F1A404103004909146A078832814
S315080012304FF6071A04D1A68882215046A1700CE001
S3150800124004233A464046FFF7F6FD00280DD13888B4
S31508001250798840BA49BA80B28EB2F10707D54FF6F7
S31508001260062188421CBF5045462040F0C4804FF2F4
S315080012700972A178801A05F1AC0A05F1040B00F091
S315080012808A804FF4FF72801A6BD0FF3830D0FF384F
S3150800129003D0FF3800F09980ACE0802929D1062ECA
S315080012A023D3062302AA29464046FFF7C4FDE8B918
S315080012B0BDF8080040BA00F47F40B0F5007F01BFD2
S315080012C0BDF80C0040BA4EF2503188420DD1BDF837
S315080012D00A0040BA012818BF522007D1BDF80A00F3
S315080012E040BAA5F8A400002000E0452081217FE04F
S315080012F081296CD1BBF80490102E38BF4E202ED30E
S315080013000423524600F07BF848BB0C230AF104027A
S3150800131000F075F818BBDAF8000000BAA6F110015B
S31508001320CAF800008EB23146504600F043F905E08F
S3150800133069683A46504600F075F9F61BB6B256B1DA
S3150800134037464E4588BF4F466A683B4600F057F811
S315080013500028EDD003E0504600F087F900208221EE
S3150800136046E0822933D1042E2AD30120E0704A466A
S315080013700020606029464046FFF73DFE00BB00217D
S31508001380E17061688E421BD3B14234D28322A270C7
S31508001390711A61602FE0822919D1504600F065F96B
S315080013A0BBF80400B042B8BF4F2024DB334600F038
S315080013B025F800BBF2B23946504600F07CF908B968
S315080013C0542018E00020842112E0842901D05120FD
S315080013D011E0042E18BF4C200DD1042300F00EF89E
S315080013E048B9049900984B462A46FFF79FFD852180
S315080013F0A17000E0442005B0BDE8F08F3A462946C2
S31508001400404618E570B50D460446288980281646D4
S3150800141001DA4F2070BD00F0C1F808B9532070BD3D
S31508001420324629462046FFF7F3FE002818BF17283C
S3150800143003D08F2185F8A61070BD95F8A6008528DB
S3150800144006D1286861688847172805D1002070BD2D
S31508001450A87A0028E4D0502070BD0000534C4142C1
S315080014604942522000000000FEF7E9BF10B50446C5
S315080014700020FEF7F3FE24BB0020FFF7B9F850B9A9
S315080014800120FFF7B5F830B90520FEF7E7FE40F270
S315080014900120FEF79FFE0420FEF7E0FE0120FEF77E
S315080014A0DDFEBDE8104040F20320FEF793BE0FF2C2
S315080014B03400FFF72DFBFFF720FB40F20220FEF772
S315080014C089FEFFF727F80400F1D00FF22000FFF796
S315080014D01FFB2046FFF727FB01A0FFF719FBF0E7E4
S315080014E00D0A00000D0A4F6B0D0A00000D0A455241
S315080014F052200000814212D210185118401E491E6F
S3150800150092B2002A1EBF11F8013900F80139521E9D
S31508001510F6D1704711F8013B00F8013B521E92B212
S31508001520002AF7D17047130003D00A46194600F07F
S3150800153021B9704710B500E0521E92B222B100F0F0
S3150800154005F8F9D0181B10BD002010BD10F8013B96
S3150800155011F8014BA34270470A0242EA112148409A
S31508001560C0F30311484080EA003041010206C9B2BF
S31508001570D20E41EA0221484080B270470A0A484022
S31508001580C0B208214308C00746BF0348584018465A
S31508001590491EF7D1504070472083B8ED00205F49B7
S315080015A0415CFF2901D001207047401C1028F6DB5A
S315080015B00020704712B5044683B02068039900BA24
S315080015C000903A2001B17A2020740C22211D04F1E2
S315080015D01100FFF78FFF03220DF1010104F11D0031
S315080015E0FFF788FF00F03CF80398D0B1B0F57F4FBD
S315080015F005D200BA039002220DF10E010EE00FF299
S3150800160070100088ADF804000222039800BA03900F
S3150800161001A9204600F006F8042203A9204600F096
S3150800162001F81FBDF8B504460D461646002714E016
S3150800163094F825007A5D0019017C5140017494F8EC
S315080016402500401C84F82500C0B2102804D300F0F9
S3150800165007F8002084F825007F1CB742E8D3F1BDBF
S315080016602E4904F1100000F0EFB81FB5044600A893
S31508001670102100F0F3F894F82500C0F11000C1100D
S3150800168000EB11710911A0EB011200A92046FFF722
S31508001690C9FF1FBD1FB50C46011D00AA002000F09A
S315080016A026F8002000AA015D825C51400155401CC5
S315080016B01028F7DB1FBD38B5102A04460D4612D18F
S315080016C0216A94F82420206802EB011188420AD185
S315080016D029462046FFF7DEFF102204F110012846AE
S315080016E0FFF728FF08B1002032BD012032BD11B531
S315080016F081B000BA01901446022020700C22601CAA
S31508001700FFF7F8FE03220DF1050104F10D00FFF7BE
S31508001710F1FE0249204600F097F813BDF8080408C0
S315080017202DE9FF4104460D4690460020002704F1A6
S31508001730200619E030B9206A00AA211D401CFFF7CF
S31508001740D6FF01203379795D00AA9A5C5140795514
S315080017503179491CC9B2102904DB206A401C206271
S315080017600021002031717F1C4745E3D3BDE8FF8186
S31508001770FFFE000062F30F2262F31F42401810F0CA
S31508001780030308D0C91A1FD3DB0748BF00F8012D89
S3150800179028BF20F8022D130030B414461546103918
S315080017A028BF20E93C00FAD8490728BF20E90C00E1
S315080017B048BF40F8042D890028BF20F8022D48BFED
S315080017C000F8012D30BC7047C91818BF00F8012D64
S315080017D0CB0728BF00F8012D70470000026817499B
S315080017E012BACA60426812BA8A60826812BA4A6035
S315080017F0C06800BA0860704710B5114980220A60AF
S315080018000623104A136007230B6013689B07FCD551
S31508001810002350F823405B1C24BA042B8C62F8D3AF
S3150800182013685B07FCD500220B6B1BBA40F8223005
S31508001830521C042AF8D310BD0000000038300040BE
S315080018400030004010A0004010B504460846FFF7D7
S31508001850C5FF2046BDE81040CEE70000002200F094
S3150800186001B8000000B500BF13009646944610392B
S3150800187028BFA0E80C50FAD85FEA417C28BF0CC004
S3150800188048BF40F8042BC90728BF20F8022B48BFD9
S3150800189000F8012B00BD00002748018A40F6A77210
S315080018A0914202BF408A4FF47F41084203D1022881
S315080018B001DB0120704700207047F8B504461D4E2D
S315080018C001200D463070FFF7E7FF18B94FF4017095
S315080018D0FEF780FC29461848876A44F48070B847A2
S315080018E0002131700FF2540618B9294644F40070E5
S315080018F0B847805DF2BD2DE9F0410446884656009A
S31508001900FFF7CAFF18B94FF40170FEF763FC0A48DF
S31508001910476A0023324641462046B8470FF21C055F
S3150800192020B93346002241462046B847405DBDE807
S31508001930F0810000BC0C002000000408000202022E
S315080019404B4B464700366E014D43323441413130E8
S3110800195032350000EE0800000100FFFF21
S705080000757D
