S0150000536553616D706C653132624968642E733337EB
S31508004000B8DC0020C9250308C5F70208C9F7020865
S31508004010A70A090100410008040803AC3057280024
S315080040200000000000000000000000000000000082
S315080040300000000000000000000000000000000072
S315080040400000000000000000FFFFFFFFFFFFFFFF6A
S31508004050FFFFFFFF00E00708010000000000000066
S31508004060FFFFFFFFFFFFFFFFFFFFFFFFFFFFFFFF52
S31508004070FFFFFFFFFFFFFFFFFFFFFFFFFFFFFFFF42
S31508004080F0FF002000000000F0FF0020F0FF0020F5
S31508004090B8DC002070B103086428030858D3002050
S311080040A0380F002000000808000001206E
S31508004100B8DC0020C9250308C5F70208C9F7020864
S31508004110D1F70208CDF70208D5F702084CF80208CD
S315080041204CF802084CF802084CF802084CF8020849
S31508004130D9F702084CF802084CF802085F4D000847
S31508004140CDF002084CF80208979700084CF80208C8
S3150800415079A000084D9500084CF802084CF80208AA
S3150800416003880008955D0008EB570008A54100087C
S315080041704CF80208A7960008EF96000841F70208CF
S31508004180CDE500084CF802084CF802088FF502083D
S31508004190012100F01F029140304A400942F82010E0
S315080041A07047000070B52E4C2E4D60782968490777
S315080041B026D5032824DAA18804EB4002918101213F
S315080041C0A27801FA00F01043A070274A207890B12F
S315080041D0002320FA03F6F60708D59940637048408D
S315080041E0207014EB4300808A106009E05B1CDBB288
S315080041F0032BEEDB04E0106000F0ACF803206070DF
S315080042004FF6FF702860BFF35F8F70BD80B5144806
S31508004210002101700022032141700021C17005218F
S31508004220018100218170001D0F490A604A604FF420
S3150800423000428A601022CA60486101208861032012
S31508004240C8600421074801644FF6FF7101600B201E
S31508004250FFF79EFFBDE8014000F0BAB800E100E0B4
S31508004260C0E6002010A8004004E000402D48006881
S31508004270C00701D42C4870472C48704780B5FFF713
S31508004280F5FF2B49096801B9400802BD80B5FFF75B
S31508004290EDFF400802BD00F00ABC264801218160F6
S315080042A04EF6BE2141600121016070472249012076
S315080042B008607047A52805D11E484DF6AD614160D6
S315080042C00221016070471B480068C00701D501201C
S315080042D070470020704780B51849194A10200860B1
S315080042E018491948007858B103280CBF0020012046
S315080042F0106040F651000860002000F0B8FE06E0A5
S31508004300022010604FF40060086000F089FB072166
S315080043100E4801600021016410200D490860002044
S3150800432002BD00001C400040001BB70000366E01AD
S3150800433020400040006000400860004080E100E046
S31508004340080000400C600040B6FF002014A00040A2
S3150800435000E100E070477047DFF8E83433F81000F2
S315080043601040C840704730B50FF29854DFF8D8347B
S3150800437034F810409C601140DFF8C84434F81050F7
S3150800438095432943D96002221A6000221A6024F84C
S31508004390101058680028FCD130BDDFF8B024DFF8CB
S315080043A0B0041278DFF8AC140AB149780EE08956E1
S315080043B011F1090FB8BF302108DBC16D39B1C26DE3
S315080043C040F24A31B1FBF2F189B2C91E0160704769
S315080043D0E0B5DFF8840401880A2300F064F8BDF824
S315080043E006104FF6FF720D20FFF7BDFF07BDF8B5A3
S315080043F00546B5F5004FDFF85C4419D1DFF85C04D3
S315080044000188022300F04FF8BDF80000000AFF28D3
S3150800441014BF002818206070BDF800000006C00E02
S3150800442010281CBF001D00F09CF9BDF80000C5430C
S31508004430DFF81864707808B1002005E0A089ADB2ED
S315080044406840C00701D501207070DFF81404A58103
S3150800445005F00104016841F400410160C5F3400715
S315080044600FF2C44000EB44004FF440524078010379
S3150800447089B20220FFF777FF204600F06FFE402240
S31508004480B90100F009FA2D06A80E00F0010038431C
S315080044903070FFF782FF707818B1FFF799FF002098
S315080044A070700020F2BD7F2200A800F0CDBE2DE975
S315080044B0F04FDFF8B443207887B0042304900C212A
S315080044C00B38C0B2039000A8039A00F07BFF9DF852
S315080044D000008DF80A009DF801008DF809009DF886
S315080044E002008DF808009DF803008DF80500DFF836
S315080044F07C030078012806BF607880F00105012555
S3150800450001F083FA82469DF902000399D54F0AF114
S315080045100A06AAF10A09B042B6BF81454FF001085A
S315080045204FF0000801208840ADF806009DF801000C
S31508004530000604D47888BDF80610084201D04FF06A
S31508004540010801F0F7FA9DF8030000060AD4B888B6
S31508004550BDF80610084205D19DF90000B042B8BF63
S31508004560814502DB4FF0010901E04FF0000948EAF6
S31508004570050059EA000000F0A480DFF8F4B2BD494E
S31508004580DBF80000400800F001008DF80400BA4886
S31508004590006800F4E06005904FF4E06008600020D1
S315080045A001F089FE00F058FCB44EADB1607858B100
S315080045B0DBF80000AD4940084000CBF800000120B8
S315080045C0087000F039FD07E0306840F400503060AC
S315080045D0306820F480503060A4480078012810D153
S315080045E061780D4208BF01F0B5FFDBF800009F496E
S315080045F040F00100CBF8000000200870642000F0AD
S315080046001BFD607880F00100054203D00498C0B213
S3150800461002F0D9F8607838B1306820F480503060FC
S31508004620306840F400503060BDF80600C543B8F164
S31508004630000F08D002F0B2F98DF801008DF802A03B
S31508004640788828407880B9F1000F08D002F057FA28
S315080046508DF803008DF800A0B8882840B8809DF929
S3150800466000009DF90A10884202BF9DF801009DF8D6
S31508004670091088420BD19DF902009DF9081088425D
S3150800468002BF9DF803009DF80510884206D00399DD
S31508004690042300AAC9B20C2000F0BBFE059876498F
S315080046A0086000F0EFFE9DF8040001F004FE02F039
S315080046B046FB607828B148F260703060642000F0EC
S315080046C0BBFC9DF8010002F0D5F89DF8030002F046
S315080046D011FA07B0BDE8F08F80B501F089F9BDE899
S315080046E00140E4E601F084B970B50646A6F10B046C
S315080046F001F049FD0546A6F10B00102801D38A20D2
S3150800470070BD5F488168090702D40068C00701D5F3
S315080047108C2070BD544806705A4801680C290FD081
S315080047200FF27811584A92F90020A4B231F82410F1
S315080047305118C161FFF7BBFE012D08BF01F0C4FC8B
S31508004740002070BD10B5044601F052F92046BDE8B8
S315080047501040C9E74448007870473E4890F9000081
S3150800476070472DE9F041044614F12B0F86B045DB5E
S31508004770464801881423FFF796FEBDF810004FF649
S31508004780FF71884203D0400448BF012606D43F2261
S3150800479000211020FFF7E0FD0546002604F12B0254
S315080047A02F2A2C483A491AD213220FF2301300E066
S315080047B0521ED2B213F91270BC42F9DB03EB420463
S315080047C0032764780C60002413F812100170002087
S315080047D08046AEB1BDF810104FF6BF7229E0092C1D
S315080047E00CDA225C0A60047014232A480188FFF751
S315080047F05AFE01240320A0462827EAE78B201DE05D
S31508004800C1024FF4605200F047F84FF4E06221020B
S3150800481000F042F880224FEAC81100F03DF885F012
S3150800482020003D18ADB2402DA8BF3F253F2285F098
S31508004830200100F031F8FFF7B0FD002006B0BDE812
S31508004840F081000090FB0020E8100040C0FF002027
S31508004850641000409CE00020C0AC0308CCAC030800
S315080048601C10004096FD002098E0002000E1002082
S315080048708020004080E100E000E100E0D010004028
S3150800488060200040AC100040BFFF0020BCAC03080D
S31508004890C0100040BEAC03080B2064E5AA2129001D
S315080048A05523290000252800AA2627005528270071
S315080048B0002A2600AA2B2600552D2500002F2400A5
S315080048C0AA3024005532230000342200AA352200DB
S315080048D05537210000392000AA3A2000D500E60104
S315080048E0EC02EF03F204F405F506F707F808F909F0
S315080048F0FA0AFB0BFC0DFD0FFE11FF13001601193A
S31508004900021C031F10001100200030004000410067
S3150800491050006000700080009000A000B000C00049
S31508004920D000E000F000000000000103DFF8B41535
S315080049305120086070472DE9F0410546FFF79EFCB7
S31508004940DFF8A415B0FBF1F64FF4F070B0FBF6F7FC
S315080049501E2D3FB201DBE81B04D5A8B2BDE8F04125
S3150800496000F06ABB02F026FA804602F029FADFF860
S315080049707C15DFF87C25012048700721DFF87405CF
S3150800498000F041F8E91B09B27143C91C8908491EA0
S31508004990DFF86455416000F0BDF8DFF848753C68FB
S315080049A0386820F04000386002F00CFA3C602E604F
S315080049B002F00CFA02F012FA4046BDE8F04102F0A5
S315080049C00FBA38B50546FFF759FCDFF81C15B0FBDA
S315080049D0F1F44FF4F070B0FBF4F02D1A1E2D04DA42
S315080049E092210FF2585002F001FADFF80805DFF8B5
S315080049F00025072100F007F805FB04F1C91C890802
S31508004A00491E416031BD01600021416081604FF05F
S31508004A10007111607047DFF8D42401215170D0E786
S31508004A20DFF8D804006800B970472DE9F041DFF8CF
S31508004A30D054DFF8D06400242C6034604FF4A040D2
S31508004A40706041F29A084046FFF775FF6F68FFF7F6
S31508004A501DFC000142F21071B0FBF1F000F5C870C0
S31508004A60C01B00B24FF4487190FBF1F000B2082861
S31508004A70A8BF072004DA10F1080FB8BF6FF00700C7
S31508004A8030604046FFF757FF08274046FFF753FFB9
S31508004A90686804197F1EF8D1FFF7F8FB211D40014D
S31508004AA0C908B0FBF1F080B27060BDE8F081DFF8AC
S31508004AB04C04006800B9704738B5DFF84C5401203B
S31508004AC06FF00F04A8602C608020FFF734FFE868B9
S31508004AD0FF2802D8641C102CF5DB31BD70B5DFF851
S31508004AE02C04016841F0010101600121416002F0D6
S31508004AF061F90446DFF8005400F00CF85120DFF89D
S31508004B00E41308602E6002F061F92046BDE87040A3
S31508004B1002F066B92E68286840084000286002F04E
S31508004B2055B90020704710B5DFF8D003DFF8BC434D
S31508004B3000680128BCBF032000F01DF80120207082
S31508004B4000202071DFF8C803816901F003010329F9
S31508004B5007D10020A070042000F083F801202071FE
S31508004B6010BD0F210160022181610120E0706420DF
S31508004B70BDE810404FE72DE9F041DFF88043DFF844
S31508004B806C53226840F2DC51012A8846DFF88063BC
S31508004B90DFF8807317DA0221B9803160B16901F054
S31508004BA0030103295BD02168002903D5B16941F0C7
S31508004BB00201B161FFF7B5FF5FEA00081BD1206863
S31508004BC000284CD549E0B8884FF6FF74A0421DD19D
S31508004BD0D148018802237F22381D00F035FBB888AA
S31508004BE0A04204BF0220B880B069800703D4B06928
S31508004BF040F00200B0610120A870B88830600FFA52
S31508004C0088F0FFF708FF4046BDE8F081B3699B07C7
S31508004C10EDD5AB780BB10846F6E7B168B36811F085
S31508004C20010103D10F2809D2401C06E09B0705D5D0
S31508004C303B781BB1032801DB2018B880B888397087
S31508004C400228BCBF0220B8803068B9888842D2D111
S31508004C50B06900F00300032801D0FFF73FFF0020EA
S31508004C60D2E72DE9F0478046AC480178002569B9B6
S31508004C70C078072818BF09280DD0032818BF11289F
S31508004C8009D013281CBF15280B2804D0A44801688E
S31508004C9041F48071016002F08DF8814602F090F8C7
S31508004CA04046FFF768FF08B9012515E0924F3C68B2
S31508004CB0386840084000386002F088F8894ED6F80F
S31508004CC000A0306820F04000306002F07BF8C6F89B
S31508004CD000A03C6002F07AF802F080F8484602F03C
S31508004CE07FF8002DD7D0BDE8F0870220B9E710B5C8
S31508004CF080487E4C002141608160016821F00201F4
S31508004D000160002060704FF0007079490860A07853
S31508004D1038B10020A0700620FFF703FF00F098F8CE
S31508004D201CDBE078012814D17E48012101607E4908
S31508004D300968C90748BF03200FD40221E170016C36
S31508004D4041F0010101640420784908607849086047
S31508004D5010BDE078042801D10520E07010BD80B5AB
S31508004D606248407800281CBFBDE80140FFF7BFBF76
S31508004D7000F0E7FF01BD2DE9F84300F069F803DA12
S31508004D80BDE8F24304206CE7584C207900B35DE097
S31508004D9002F010F8054602F013F8E078032812D05E
S31508004DA000F096F8DFF83C81D8F80090D8F80000B3
S31508004DB020F04000C8F8000002F004F8C8F8009097
S31508004DC0376002F003F802F009F8284602F008F8FE
S31508004DD0E0780328DCD14F4E4D4DB08828604FF659
S31508004DE0FF777088B8420CD15248018802237F2287
S31508004DF0B01C00F029FA7088B84202D1642070808D
S31508004E0001E07088C8B1FFF741FA7188364AB0FBED
S31508004E10F2F048432F303021B0FBF1F046494A6D95
S31508004E2042F001024A650A68AB68DB07FBD50B68E6
S31508004E309B1A1B031B0B8342F6D3FFF74FFE042076
S31508004E40E0704FF4C870BDE8F243E4E5BDE8F183CD
S31508004E502A480068012870472DE9F843234C217930
S31508004E60207881F0010108422ED0FFF7F1FF23DAFE
S31508004E7040F2EB310FF2C40001F0B8FF1CE001F07C
S31508004E8099FF804601F09CFFE07805280FD000F0D6
S31508004E901FF8144DD5F80090286820F040002860C7
S31508004EA001F090FFC5F80090376001F08FFF01F020
S31508004EB095FF404601F094FFE0780528DFD10020F1
S31508004EC0A0700520FFF7CDFE00202070BDE8F18315
S31508004ED0094E3768306840084000306001F076BFF8
S31508004EE0000000000080004090D00300CEFF0020A4
S31508004EF004ED00E010E000E094ED00E09C9A030861
S31508004F00104000400C000040084000401C40004093
S31508004F1004400040ECE00020D0AC030896070808DF
S31508004F203840004018A000400C40004080E200E0F5
S31508004F3000E100E0D4AC030838200040636C6F63DE
S31508004F406B732E630000000010B5754C002001F04D
S31508004F50FCFE40F68C2188422068B4BF40F0080069
S31508004F6020F00800206010BD10B504466D48018881
S31508004F7082B000F05CF89DF800109DF80100FF294A
S31508004F8002BFFF280420002104B1801C664A13686A
S31508004F90C0B20828A8BF072023F4607343EAC010EC
S31508004FA0106008291068A8BF0721C00841EAC00098
S31508004FB010605E48047013BD00B55D48018883B073
S31508004FC000F035F8BDF800004FF6FF7188420EBFB5
S31508004FD04FF4E1600A2190FBF1F0ADF80000534868
S31508004FE0007808B34F48018802237F2201A800F001
S31508004FF02BF99DF80500BDF80030FF2808BF0420EE
S31508005000811CC9B20829A8BF0721C1F12F0202EBEA
S31508005010D272C0F12F00521000FB0320C1F12F01FC
S31508005020B0FBF1F0ADF80000BDF800000EBD02239C
S315080050307F2200A800F008B970B53E4C25680646E0
S31508005040FFF724F93C49B0FBF1F070432F303021CB
S31508005050B0FBF1F0032809D3616D41F001016165E8
S315080050602168491B0903090B8142F9D370BD10B5A4
S31508005070040004D110BD4FF47A70FFF7DDFF204617
S31508005080441E80B20028F6D110BD2C48017869B9B3
S31508005090C078072818BF092814D0032818BF112874
S315080050A010D013281CBF15280B280BD024480168DC
S315080050B041F480720260C80504D438210FF29000CA
S315080050C001F094BE704738B50C4620B101280FD0C0
S315080050D0032820D021E01B4D44B1FFF7D7F81A4921
S315080050E0B0FBF1F0401EB0F5005F0CD2286012E06C
S315080050F04CB1FFF7CBF8610801EB4000B0FBF4F0C8
S31508005100B0F5003F01D3202032BD104900F001025E
S315080051104A6040080860002032BD212032BD0000E8
S3150800512000BC0040C2AC030818000040C2FF0020C3
S31508005130C4AC03083820004090D00300960708083E
S3150800514038400040100004E020A1070068C800406D
S315080051507573625F6572726F722E6300F0B50446EE
S3150800516089B00020FFF700FF264801880A237F221E
S3150800517000A800F069F8BDF802004FF6FF75A842CE
S3150800518004D1DC210FF2940001F030FE0FF2A407DF
S31508005190002601E02A4616B94FF47C4203E0022EA7
S315080051A008BF4EF23F0200A800F032F8761C052E22
S315080051B0F0D3012C03D114237F22134802E01423D1
S315080051C07F221248018803A800F03EF800260FF255
S315080051D06C072A4608E02A46012E08BF4FF6C07219
S315080051E002D0082E08BF002203A800F011F8761C8A
S315080051F00A2EF0D3012C04BF0120FFF7B5FE09B033
S31508005200F0BD0000C0AC0308BEAC0308BCAC030884
S3150800521030F81610F05DFFF7A6B80000616E616CF5
S315080052206F6775652D63656C6C2D626961732E6396
S315080052300000000000100C0D0E000000010203041F
S315080052400708090A0B0F000030B5044610467F28E8
S3150800525008BF00204BF23462914283B01AD108236A
S315080052607F2240F6120100A8FFF7EEFF08220FF290
S31508005270C40100A801F002FF30B908237F2240F2DA
S31508005280A27100A8FFF7E0FF082200A9204601F056
S31508005290ABFE37BD1F4D294300FB03111A462046B6
S315080052A001F0A2FE37BD2DE9F0440C4619490FF26C
S315080052B0780A41EA0006C007154602D5622100F0C1
S315080052C02FF8E80702D5632100F02AF8124886422B
S315080052D004D3A819401E1149884202D3642100F05C
S315080052E01FF8002706E0B85DFF2802D06B2100F002
S315080052F017F87F1CAF42F6D36A082146304601F0FC
S3150800530027FF28B15046BDE8F044712101F06EBD73
S31508005310BDE8F0840000080800080808001008081E
S31508005320504601F063BD00006D66672D746F6B65AE
S315080053306E2E6300FFFFFFFFFFFFFFFF30B50FF282
S315080053404011DFF828510A6883B001A800240260DA
S3150800535001202870002001F03FFF30B1002001F045
S315080053603BFF10B12C7049203EBDDFF804010188CF
S3150800537002237F220DF1020000F024F802237F2287
S31508005380002100A800F01EF8204601A9BDF8022059
S3150800539031F81010914208BF0124401C0228F4D3AA
S315080053A0BDF8000024B1B0F57F7F07D100203EBDCF
S315080053B0B0F57F7F0CBF0620042000E007200021FF
S315080053C029703EBD10B5FF2908DCDFF8A040247817
S315080053D044B1BDE81040C9B202F00CBABDE81040AD
S315080053E0FFF732BF10BD10B5FF2908DCDFF87C4097
S315080053F024786CB1BDE81040C9B202F036BA7F2AEB
S3150800540008BF0022DFF86C40214302FB031101604C
S3150800541010BD2DE9F0410546FF2D0E461746984664
S315080054200FF2540013DCDFF844402178A1B161780B
S3150800543011B1C02101F0DAFC012060704346324602
S315080054403946E8B202F04FFB0020607004E0BDE880
S31508005450F041CB2101F0CABCBDE8F08103490978C7
S31508005460002918BF02F045BC70470000BBFF0020AA
S31508005470C8AC030800000808746F6B656E2E6300DD
S31508005480FE01FD0210B5DFF850461020206301F03A
S3150800549091FCDFF848160A6842F001020A6001F03A
S315080054A09FFCDFF83C0600F108016160216092303C
S315080054B061688931616001212163E060A060DFF8DD
S315080054C02416E0688930E060022020634FF6FF70FA
S315080054D0086010BDDFF8100645F26401C1601E21A0
S315080054E0416250210162C821C1618165F021C1650F
S315080054F045F690014166882181660621C16644F217
S31508005500066101604FF6FF714160DFF8E00500783B
S3150800551038B1DFF8DC0548F2607101604FF4C1511B
S315080055204160DFF8D005016841F004010160002000
S31508005530DFF8C415487070472DE9F047044601F0B6
S3150800554039FCDFF8B8150A6C22F002020A64022256
S315080055500A6001F045FC8A21DFF8840501FB040195
S3150800556001F1080808F1010127184A78097801EBC2
S315080055700226DFF88C15097841700020B870B6B29B
S31508005580B00603D5DFF87C55686E000640F18A80C0
S31508005590002106F00700032862D106F4406006F4ED
S315080055A04042B0F5806F1CBFB2F5804F002A57D035
S315080055B00423B0F5006F08BF082303D0B0F5406F89
S315080055C008BF0E2370065CBF9B1CDBB2B2F5004F0A
S315080055D00CBF981C03F108005FFA80F909F1010075
S315080055E000EBD070C0054FEA106A002C14BF68683B
S315080055F02868504534D3B2F5404F03EB080003D171
S3150800560002F079FC014614E0407813F8081001EB23
S31508005610002080B202F0FCFE0021FF2808D0DFF847
S31508005620E824126832F810004FF4FE62104200D0E7
S315080056300121A9B1300713D4002C14BF6868286863
S315080056400AF10102904206D2E868002C14BF022231
S3150800565001221042F0D119F80800042818BF0021C9
S31508005660E86D000900F001008142B8701AD00029DF
S31508005670A96C4FF400604FF4806209D004B9104653
S3150800568001420FD0686C40F001006864012008E010
S3150800569004B91046014205D0686C400840006864A9
S315080056A00020B870BDE8F087DFF838040068C00746
S315080056B003D40021002001F002B870472DE9F84F05
S315080056C00446DFF81CA4DFF83C548A2000FB04A03B
S315080056D000F10806002C0CBF28686868C1B20529C5
S315080056E007DAFFF7E1FFDAF80400401CCAF80400FD
S315080056F079E040005FFA80F808EB0600A0F1080799
S315080057003878797801EB00201FFA80FB9AF80100B7
S31508005710387002F04CFF7870DFF8C873386C20F4E4
S3150800572080503864686E14B97868400504D4012C32
S3150800573022D1786800051FD5FFF7B6FFDFF8CC033E
S31508005740017889B1002101701BF4E45FDFF8C0031A
S31508005750016802D00022402004E07078000900F0B9
S3150800576001028F2002F0A5FF002C0CBF4FF48060C9
S315080057704FF40060786031E01BF4E45F2CD100F050
S3150800578097FD10B15FEA4B4026D53078802823DA9A
S31508005790386C7178890604EB0A090ED5696E090614
S315080057A010D4A96CC9060DD43968002C0CBF802208
S315080057B04FF480720840104204D1FFF775FF0020AD
S315080057C089F80200414699F80220304603F054F859
S315080057D0002089F8020001E0FFF766FF002C0CBFE5
S315080057E0012002202861BDE8F18F2DE9F84FBD4C54
S315080057F0DFF81CA32068216CC24EDFF818B3DFF867
S315080058000C83DFF8DC9201EA000534E040B1487801
S31508005810C00605D4DAF8001000228F2002F049FFEE
S31508005820280608D50FB9FFF73FFF02F0AAFF802028
S3150800583025F080052060E80509D50FB9FFF734FF84
S3150800584002F09FFF4FF4807025F48075206068048D
S3150800585007D50FB9FFF728FF4FF4804025F4804598
S315080058602060280407D50FB9FFF71EFF4FF4004044
S3150800587025F400452060002D00F0858000272807C4
S3150800588006D50020FFF758FE082025F008052060F9
S31508005890E80606D50120FFF74FFE102025F0100573
S315080058A0206005F06000602803D1B06CC0050AD4FA
S315080058B001E0A80605D52020206025F02005002057
S315080058C006E0680606D54020206025F04005012040
S315080058D0FFF7F4FEE80404D54FF4805025F480550C
S315080058E02060E8079CD5680845000120206000F084
S315080058F00EFF08B3FEF7CAFC074601F05BFA32232F
S31508005900854AB169B7FBF2F25A4312012F323023A6
S31508005910B2FBF3F251188AB27262090C31620221A3
S31508005920A160A16C41F00201A16401F059FA0021BD
S31508005930032000F0C4FE012799F80000002806D0CD
S3150800594000F02BFC012807D198F8000000283FF446
S3150800595067AF9BF8000004287FF462AFF068400840
S3150800596000F001008A2101FB00910831002814BFCC
S315080059707268326812B92268D204F7D5002814BFB3
S315080059807068306842E700202060BDE8F18F634800
S3150800599000687047F0B504460D4689B0002103201B
S315080059A001F076F904AE1BE0002701F08CF926F821
S315080059B0170001F088F900A921F817007F1C082FA5
S315080059C0F3DB04A803F0EAF800202080218836F8E3
S315080059D010205140401C08282180F7DB6D1EA41CAE
S315080059E0EDB2002DE0D101F0AAF9012009B0F0BD11
S315080059F00321022001F04CB94FF6FF71081A29213C
S31508005A0090FBF1F03A3040B2704738B501F05BF9D7
S31508005A10FFF7F2FF424D04462878B0B90321032068
S31508005A2001F036F93F48018802237F2200A8FFF7D4
S31508005A300BFC01F048F9BDF80010401880B2FFF7DA
S31508005A40DBFF153868700120287001F078F968784E
S31508005A50201A40B232BD80B50321022001F018F9A0
S31508005A60BDE80140D1E770B52F480078002490B909
S31508005A70FFF7F1FF204E0546707848B13078401B95
S31508005A8040B203F094F80B2805DB3570012402E0D8
S31508005A90012035707070204670BD24480078704724
S31508005AA022490A78904200D1704780B5087040B103
S31508005AB01F49002008600948016821F0800101603B
S31508005AC001BD00F02CFC00F002FC00F0B4FBBDE8C0
S31508005AD0024000F098BB00000020004084200040EF
S31508005AE044FC002000A000404C10004099E0002033
S31508005AF0D010004080200040D6FF002008A00040BB
S31508005B0098E00020202000406CDE00207CFD00206C
S31508005B1084FD0020FFE0002090D0030038200040DC
S31508005B20D4FF0020C6AC030800E10020D8FF0020FF
S31508005B305410004010B50D48018884B00A237F220E
S31508005B4000A8FFF781FBBDF800004FF6FF74A042DE
S31508005B5004D14E210FF2180001F048F9BDF80010E3
S31508005B6022460020FEF7FFFB1FBD0000C0AC03085D
S31508005B70616E616C6F6775652D66696C7465722EEA
S31508005B8063000000DFF8A007007848B1DFF89C073B
S31508005B900179012904BF4079042801D10120704701
S31508005BA0002070470FF624014008405C7047010644
S31508005BB003D54FF67F710840C0007047491C800125
S31508005BC089B2B0FBF1F080B2FF288CBF0020C0F18B
S31508005BD0FF00C0B2704738B5DFF85807C17809B179
S31508005BE0002032BDDFF85847617871B1E178007955
S31508005BF045182079ADB2854228BF054602F0F0FF68
S31508005C000121A940491E084000E0002061790818D2
S31508005C10C0B232BD2DE9F0470446C00705D54FF49A
S31508005C20BE710FF2987001F0E1F8DFF81857286D89
S31508005C30C00748BF8C2000F18280DFF8F806DFF83D
S31508005C40007700210170417829B9397819B1A96F0F
S31508005C5041F0010102E0A96F49084900A967DFF888
S31508005C60CC867A7898F80610DFF8DC96DFF8DC66DA
S31508005C7092B1002202710129286D40F004002865BE
S31508005C8006D14FF6FF7030604FF40070C9F8000077
S31508005C90FFF7A1FF82460CE0286D20F004000129D9
S31508005CA028654FF0000A04D100F03BFA6420FFF79C
S31508005CB0C3F9A86F20F00800A8671420E864C5F89F
S31508005CC048A0787838B198F80600002801BFA86C73
S31508005CD000280120A864B8790028286D14BF40F070
S31508005CE0080020F008002865FFF74CFF18B1306C53
S31508005CF040F008003064202028626C602C604FF465
S31508005D00E06468687F30686004202862DFF840062F
S31508005D10046006E002F074FF18B102F079FF01F0A2
S31508005D2049F8DFF83006006800F003000328F1D0D0
S31508005D30C9F80040286D40F0010028650020BDE83C
S31508005D40F087DFF81406002141608160016821F0C0
S31508005D50020101604FF00070DFF8001608600120AC
S31508005D60DFF8FC1508707047A0F13301DFF8F42559
S31508005D70914200D3704710B5DFF8E4450021217041
S31508005D80FEF71FFE02E0012002F050FF20780028EF
S31508005D90F9D010BD2DE9F84FDFF8B085DFF8945536
S31508005DA0D8F80000D8F84010DFF8987501EA000422
S31508005DB0A4B2C8F800406878002840F0D580E0070B
S31508005DC0DFF8A465DFF878954CD5D7F800A0386CCD
S31508005DD0796C41EA004199F80000A96000283DD095
S31508005DE09AF80100800639D501202870FFF7CAFE07
S31508005DF0C0B31920FFF720F94FF44040DFF86CB51F
S31508005E00CBF82800DBF800000090F06E40F4005054
S31508005E10F066F06E40F48050F0669AF80010A868B4
S31508005E204901B83101EB000AFFF7B1FDAAEB000002
S31508005E300003000BFFF798FFF06E80098001F066FB
S31508005E4000A9F06E09880843F0660020CBF8280000
S31508005E5048F26070F066E888306003E000220020AF
S31508005E6002F027FC20060ED5287830B100202870CD
S31508005E700022A968402002F01CFCD8F83C0020F457
S31508005E808050C8F83C00600608D5687830B9FFF736
S31508005E907EFD01460022892002F00BFCE00654D55F
S31508005EA0DFF888A4DFF8A0B49AF80400012804BF34
S31508005EB09AF8061001291FD100F04CFB386F40F004
S31508005EC00100386700208AF80600FFF7DBFA0A2087
S31508005ED0FFF7B2F84FF6FF70C8F8000000244FF439
S31508005EE0E060CBF800000920B8660120B864B86FF6
S31508005EF040F00800B86718E0297999F80220491C8B
S31508005F002971C9B2914215D2012808BF00F0DCF800
S31508005F10B86F20F00800B8671420B866FFF75BFE74
S31508005F20B8644FF40070CBF80000386D40F00100FB
S31508005F3038650AE0012808BF00F0C6F8FFF727FD14
S31508005F40014600228D2002F0B4FB20070CD5FFF78E
S31508005F5019FE48B13068E88001203060D8F8400062
S31508005F6020F00800C8F84000A0060AD520203862AC
S31508005F70687830B9FFF70BFD01460022882002F049
S31508005F8098FB687820B114F4407F04BF0120A870FC
S31508005F90BDE8F18FDFF898130028086814BF40F4AD
S31508005FA0404020F440400860704770B582B005460E
S31508005FB0FEF798FBDFF8C003DFF87C430021016099
S31508005FC01521E160092101651F2141600121016652
S31508005FD0DFF8A0030088FEF70AFAFFF77BFA03F05A
S31508005FE0E9F800F02BF9DFF84463308900F053F93B
S31508005FF0708900F058F900F0DDFE616841F0400153
S31508006000616000F0EDFE707800F0E9F8B07800F015
S31508006010FAF8DFF86803007800F027F9DFF860037C
S3150800602090F90000FEF79DFB307800F044F996F9E8
S31508006030030000F04CF9DFF84C0300F06AF9BDF8EC
S315080060400000DFF84413C0054CBF0020BDF800006F
S315080060500870DFF838030078FEF746FB28B10FF220
S315080060605C304FF4707100F0C1FE012D05D1206837
S31508006070C00711D500F028F80EE06DB92068C007F2
S315080060800AD400F067FA206840F001002060C820B2
S31508006090FEF7D2FF0020B071F120DFF8B052286475
S315080060A040F2F910E86300F032FBFFF773FFFFF7E1
S315080060B0E9F92068C00704D54FF6FF70286000F09C
S315080060C05DF8FEF7C9FE73BD70B5DFF8C452DFF898
S315080060D05C422E68A079012822D000F06BFEB6B289
S315080060E0DFF86C222E604FF4E0611160DFF8801251
S315080060F00A6A520852000A620A68520852000A607E
S315080061000A6842F002020A604A6A42F001024A62DA
S315080061100121A17100F064FEBDE8704000F00FBADD
S3150800612070BD70B5814CA07938B300F013FA00F051
S3150800613041FE0546DFF85C12804E01200860306D8E
S3150800614040F0010030650020A071FFF79BF9202080
S315080061503060306B40F002003063F06D40F00800AC
S31508006160F065284600F03CFE0A20FEF765FF7749F1
S315080061704FF6FF70086000F001F870BD4FF4E0605C
S31508006180714908607047694880797047674800799F
S31508006190012808BFFFF798BF704764480079704721
S315080061A080B5022801DB012002BD604908718979A2
S315080061B0884205D010B9FFF7B4FF01E0FFF784FF66
S315080061C0002002BD74480068800200149A3801B2A3
S315080061D011F1800FB8BF6FF07F0040B2704710B55D
S315080061E0044600F0E7FD6D490A68002C04D042F029
S315080061F012020A60012103E022F012020A6000215D
S315080062004A4A517040E038B5044600F0D3FD0546C9
S31508006210FFF743FC40B961480168002C14BF41F000
S31508006220800121F080010160404884702846BDE85D
S31508006230324000F0D5BD3D488078704758494A78C5
S315080062400B78584803EB022202608B78CA7803EB76
S31508006250022242600B794A7903EB02228260CA79EC
S31508006260897901EB0221C160704710B5044600F038
S31508006270A1FD4A490A68002C14BF42F0200222F008
S3150800628020020A603D490C70BDE8104000F0A8BD28
S3150800629026480089704725490881434908607047A0
S315080062A0224840897047214948814049086070471B
S315080062B03F480078704720490A68002814BF42F012
S315080062C0020222F002020A6018490870704738B5BF
S315080062D004467F2C0AD1374800F01BF8BDF80000A9
S315080062E0C00554BFBDF800406FF04A0400F062FDD7
S315080062F00546FFF7D2FB30B964B204F19A0080056F
S315080063002D49000C08600948C470284600F068FD4D
S3150800631031BD018802237F2200A8FEF795BF0348F6
S3150800632090F9030070470000DDFF0020FAE0002026
S3150800633040A000407CFD0020802000403020004026
S31508006340ACE000201020004000E100E004A000407E
S3150800635080E100E0A820004010E000E004ED00E045
S31508006360DEFF0020CDFF070064100040E410004067
S3150800637060200040A8E000205C100040DCFF002000
S315080063809CE00020D2AC0308BFFF002098E0002064
S315080063901C100040281000400C10004084200040CB
S315080063A0F8FB0020982000409420004090200040F0
S315080063B0F8E00020D8AC0308541000407068792D26
S315080063C0636F6D6D6F6E2E6300000000FEF7C801E7
S315080063D038B50120FEF7CFFB0020FEF7C5FDDFF834
S315080063E03843206840F008002060FDF756FFFEF7A6
S315080063F0ABFDDFF82813DFF828030A78C2604B786C
S31508006400DFF82023D3608D78DFF81C33DD608D88B4
S315080064100560CD884560088910604889506088897C
S315080064201860C889586000F08AF8206820F01000C3
S315080064302060FDF7EBFE03F088F803F0EFF8FEF7AF
S3150800644054FCFDF728FFBDE83140FDF744BF40F294
S31508006450016003F07FB98A68037802F00F0203F03F
S31508006460F0031A438A604378AE4AD3608478AE4B09
S31508006470DC60C4880C60018911604189516081899A
S315080064801960C0895860704710B5FEF74CFBFEF7D7
S315080064905BFDA749A148FFF7DEFF00F050F800F0C2
S315080064A006F8FEF768FCBDE8104003F03BB89A48CA
S315080064B0016821F010010160FDF7A8BEF0B50B6870
S315080064C09C4C0F256468960005FA06F6344215D0EA
S315080064D0002606EB820724FA07F7FF070BD5B70055
S315080064E005FA07FC23EA0C0330F812C005FA07F789
S315080064F007EA0C073B43761C042EEADB0B60F0BD6B
S31508006500F0B50B688B4CFF256468D600B5402C4265
S3150800651013D00025012605EBC20724FA07F7FF0763
S3150800652008D506FA05F7BB43175C06FA05FC0CEA1C
S3150800653007073B436D1C082DEDDB0B60F0BD10B55E
S315080065400021002000F0BBF87A48406808B1774C73
S315080065500BE010BD10B5774C20780020FFF7A0FAA5
S31508006560606808B16D4C00E010BD734900222046F2
S31508006570FFF7C6FF012271492046FFF7C1FF022235
S315080065806F492046FFF7BCFF0022654900F016F860
S315080065900122674900F012F80222624900F00EF85B
S315080065A00322684900F00AF804225F4900F006F859
S315080065B0201DBDE81040052263497FE7201D7DE7C1
S315080065C00320FEF74BBF80B503F0BBF90FF27C1131
S315080065D009E080B503F0B9F90FF29C110204120E16
S315080065E051F82210C0B201EB800002BD0000000085
S315080065F010B503F0A6F9044603F0A7F9C0B208B926
S31508006600012C07D1072C11D8DFE804F0041006087E
S31508006610080A0C0E002010BD092010BD022010BD6E
S31508006620032010BD0B2010BD062010BD44F08000CD
S3150800663010BD10B53F4C6078A17800F0010001F05C
S315080066400101084317D0E06848B1A078000706D5CD
S31508006650E16808208847A07800F0F700A070A068D5
S3150800666048B16078000706D5A16808208847607891
S3150800667000F0F70060702078BDE810400020FFF7B2
S315080066800FBA2DE9F04100F03DF82A4F80463878D8
S31508006690A0B15CB9787800281CBFB868002805D076
S315080066A07878400602D5B96840208847BD60787872
S315080066B0A0421CBF7C70FFF7BCFF00261CE02DE93A
S315080066C0F04100F01FF81B4F80463878A0B15CB93E
S315080066D0B87800281CBFF868002805D0B8784006A6
S315080066E002D5F96840208847FD60B878A0421CBFEB
S315080066F0BC70FFF79EFF0026404600F071FB30464F
S31508006700BDE8F08104460D46012600F053BB094852
S31508006710007870470000000000BC004084DF0020BD
S3150800672000B0004000B2004000B4004094DF0020F2
S3150800673004B00040A4EF00200CB000400CB20040AA
S315080067400CB4004004B2004004B40040554E4B005F
S315080067504649420042544C0045585400505752008E
S3150800676057444700205357004352530046534800A6
S3150800677042414400464C5400A09A0308A49A0308D0
S31508006780FC9A03081C9B0308249B0308309B0308F8
S315080067903C9B0308489B0308509B03085C9B030823
S315080067A06C9B03082A490A68920992010A600A68DA
S315080067B0104308604FF4004126480160002101603B
S315080067C06420FEF739BC2DE9F047234D204FD5F854
S315080067D00090224C8046286840F4004028603868BB
S315080067E020F480503860207868B162781C48A17817
S315080067F000EB820200EB880012F82A2C10F82A0C0B
S31508006800891A461802E0012020262070B0B2FFF748
S31508006810C9FF0FF2500A02E0B0B2FFF7C3FF386BA8
S31508006820042805D0386B400754BF761E761CF3E75C
S31508006830F86A38B184F80180A6701FFA89F02860D2
S31508006840BDE8F08740F22111504600F0CFFAE6E79E
S31508006850D0100040181000401C100040D9FF00203E
S315080068609C480008616E616C6F6775652D76636F6D
S315080068702E63000081014FF4FE5289B20C20FDF709
S3150800688072BD2DE9F84F8F4CA56820680127ADB277
S3150800689000264FF00A08B9461FFA80FA00F04FFAA8
S315080068A0B0202063DFF820B208E016F1190FB8BF50
S315080068B04FF00A08464436B27019A060DBF80000AB
S315080068C0000702D559EA070028D00120FEF7B4FBD5
S315080068D0B9F1000F11D0AAF10300874202DAF81CB9
S315080068E087B213E00AF500402060574606210920C2
S315080068F000F0CEF94FF000090BE0DBF800000007C6
S3150800690007D5042FA6BFF81E87B2002707F5004053
S3150800691020601A2EC9DB6FF00908CBE7A560C4F81A
S3150800692000A00820CBF800006848006880B2BDE8DF
S31508006930F28F80B5624B66491B784FF0FF326BB118
S31508006940002819BF4A606348486041F21110086080
S31508006950614841880088BDE8044092E7002819BFCD
S315080069604A600A604860086000F0E9F9BDE804403A
S315080069700621092000F0DDB938B50120FFF7D9FF57
S3150800698004460020FFF7D5FF05460120FFF7D1FF93
S315080069904042001B00EB450000B232BD2DE9FE4F18
S315080069A04E4CDFF83C81A06A454EADF802002568DA
S315080069B0D8F800B0307860B14FF6FF720021082091
S315080069C0FDF7CAFCADF80000C022C0210820FDF77B
S315080069D0CAFC4448DFF81091007818B148F2607094
S315080069E0C9F80000708840F4404040F04C00C9F8EF
S315080069F03C000220A0620120206040F24C40FEF7D5
S31508006A001BFB0120C8F80C00C8F800000020324F14
S31508006A10388040207880307800B12020FFF72AFFA0
S31508006A20FFF7AAFF8246402038807F207880FFF74C
S31508006A3021FFFFF7A1FF0290504602F0B8F8FE21A9
S31508006A4001FB00F70298AAEB00000190307860B1CC
S31508006A50029802F0ACF88246019802F0A8F880B2D3
S31508006A6007EB8A11B1FBF0F005E0019802F09FF8F8
S31508006A7080B2B7FBF0F080B2401CC7031FFA8BF058
S31508006A80C8F80000ADB20020C8F80C00022020604B
S31508006A902560BDF80200A0620020C9F83C003078E5
S31508006AA030B1BDF800104FF6FF720820FDF75BFC09
S31508006AB040F24C40FEF7C0FA380CBDE8FE8F0000E5
S31508006AC0F4E00020C010004018A00040007000400C
S31508006AD038100040EEEEFFFF18FF0020602000404F
S31508006AE02810004099E00020D010004041003F22C5
S31508006AF089B201E001463F220220FDF734BC2DE9A8
S31508006B00F04F564C564D95B0E06CADF810004FF668
S31508006B10FF782068ADF80E004246E86AADF80C002A
S31508006B2000210120FDF718FCADF80A0042460021B5
S31508006B300B20FDF711FCADF808004FF4004020606B
S31508006B4000202861686148F2020000F08BF84CF6D4
S31508006B508C30E0644FF4805248F2F000E862114647
S31508006B600120FDF700FC424600210B20FDF7FBFB48
S31508006B700621062000F0DDF8019000F085F8009067
S31508006B804CF69C30E0640020FFF7B0FF062108466B
S31508006B9000F07EF800260DF1140BB0B2FFF7A6FF41
S31508006BA00621062000F074F800F08DF82BF8160080
S31508006BB0761C202EF1DB00F086F81020FFF796FFF2
S31508006BC000F062F80099019A401ABBF82010891A59
S31508006BD0404301FB01094FF0100A112700F04EF857
S31508006BE000F052F800F043F806DB81461FFA87FAF0
S31508006BF0781C07B2202FF1DBBAF1100F0ED10F2740
S31508006C0000F03CF800F040F800F031F806DB814669
S31508006C101FFA87FA781E07B2002FF1D5BDF81000C3
S31508006C20E0644246BDF80E002060BDF80C00E8623C
S31508006C300120BDF80A10FDF796FBBDF8081042467C
S31508006C400B20FDF790FB01202861002000F00AF8D0
S31508006C504FEA4A00C0B215B0BDE8F08FC010004038
S31508006C6018100040286040F24C40FEF7E5B900993C
S31508006C70401A404306FB0600484570473BF8170094
S31508006C800199461AB8B231E70621072000F051B833
S31508006C9070B505460E4600F093F83F4C206C20F080
S31508006CA00800206400F09AF800F084F8310341EAFD
S31508006CB0C5113A4A41F00101116008212160BDE879
S31508006CC0704000F08DB82DE9F041354C354D324E07
S31508006CD025E000F075F8344904200860306C40F06F
S31508006CE0080030642F68286840084000286000F0D3
S31508006CF06DF8D4F80080206820F04000206000F08D
S31508006D0061F8C4F800802F6000F060F8306C2749FD
S31508006D1020F0080030640420086000F05FF830684E
S31508006D200007D6D5082030602148006880B2BDE843
S31508006D30F08180B5FFF7ACFFBDE80140C3E717480F
S31508006D4001684908490001607047F8B50746FEF72B
S31508006D5033F9044639460320FFF7EBFF0546394663
S31508006D600120FFF7E6FF0646FDF7F5FA394600204B
S31508006D70FFF7DFFF0746FDF7EDFA084801684908FF
S31508006D8049000160781B0004711BB0FBF1F06043F9
S31508006D904000000CF2BD000018A00040047000403E
S31508006DA00080004094ED00E000E100E080E200E0B1
S31508006DB000700040EFF31180602181F3118870475D
S31508006DC072B6704700BF30BF00BF7047BFF35F8F12
S31508006DD0BFF34F8FBFF36F8F7047000062B67047DF
S31508006DE080F311887047000042DE704738B50446C4
S31508006DF00D46FDF75BFAFFF7DDFF2946204602F050
S31508006E00DAFD2B4622460FF2CC11002003F01FF8BC
S31508006E1029462046BDE83440E6E72DE9F84F65489F
S31508006E20654D01682E1D4FF4206A7165016AB165CA
S31508006E3062490968F165416A3166816A7166C16AA3
S31508006E40B166016BF166806B306796F834004007CF
S31508006E504CBFF76BB76BBB4602F00BFD0022584CD4
S31508006E60DFF86081DFF86091F2648742014624BF4B
S31508006E70A4F12003BB4231651DD357F8180F3064BF
S31508006E8057F8040F7064706DC005C00D062815D13B
S31508006E90306C484512D3404510D200884DF6426200
S31508006EA090420BD105F18C006A68426040F2017A83
S31508006EB07268826002E032647264834643488142A3
S31508006EC002D2014600E0091DA14203D20B68B3F1C4
S31508006ED0CD3FF8D0601AB064182105F1780002F0A9
S31508006EE0F7FF002003E0C0B205EB80029167A345D7
S31508006EF023D254F8041D4945F9D34145F7D2CA07A8
S31508006F00F5D5002205EB82039B6F8B4203D0521CFA
S31508006F10D2B2062AF6DB062AE9D1002814BF401E9B
S31508006F200520E0E7716F002205EB8203521CDF6F34
S31508006F309F67052AF8DBC5F88C100146481EC9B2BA
S31508006F400029EFD1706DC005C00D02280AD00328AC
S31508006F5015D0042816D0052817D0062818D00C28CE
S31508006F601CD01EE01A480168890748BF40F6021A75
S31508006F701CD40068C00719D540F2025A16E040F63C
S31508006F80012A13E040F6022A10E040F6032A0DE033
S31508006F90BAF5206F0AD140F6042A07E040F6052A1A
S31508006FA004E018B1242838BF40F6072A5046BDE841
S31508006FB0F28F000004ED00E00000002000E300E08E
S31508006FC0B8DC0020642803089041000898000020D7
S31508006FD01CA000400D0A5B4153534552543A257094
S31508006FE03A25645D0D0A0000814233D21018511803
S31508006FF0401E491E10E011F8013900F80139121F28
S3150800700011F8013900F8013911F8013900F8013988
S3150800701011F8013900F8013992B2042AEBDA92B272
S31508007020002A1EBF11F8013900F80139521EF6D19F
S31508007030704711F8013B00F8013B121F11F8013B9C
S3150800704000F8013B11F8013B00F8013B11F8013B40
S3150800705000F8013B92B2042AEBDA92B2002A1EBF6C
S3150800706011F8013B00F8013B521EF6D17047130098
S3150800707003D00A46194602F02FBF704710B500E044
S31508007080521E92B222B100F012F8F9D0181B10BDA8
S31508007090002010BD10B500E0521E92B22AB100F0D1
S315080070A006F8F9D0181B40B210BD002010BD10F824
S315080070B0013B11F8014BA342704700004048018A82
S315080070C040F6A772914202BF408A4FF47F410842B8
S315080070D003D1022801DB01207047002070472DE903
S315080070E0F84F82468846FFF765FE364D2F680446F8
S315080070F02868400840002860FFF768FE0120DFF88E
S31508007100BCB08BF80000FFF7D9FF20B9FE210FF2BB
S31508007110B800FFF76BFE2A48D0F8289041464AF493
S315080071208070C84706462F60FFF750FE2046FFF7D7
S3150800713057FE00208BF800000FF294040EB1305D64
S3150800714004E041464AF40070C847005DBDE8F28F86
S315080071502DE9F84F804689464FEA420AFFF72AFE8C
S31508007160184E376805463068400840003060FFF71B
S315080071702DFEFFF7A3FF28B940F241110FF2480090
S31508007180FFF734FE0E48D0F824B00023524649468D
S315080071904046D84704463760FFF718FE2846FFF7EB
S315080071A01FFE0FF22C050CB1605D05E05346002268
S315080071B049464046D847405DBDE8F28FCDFF0020DE
S315080071C00000080894ED00E0666C6173682E6300A1
S315080071D0000202024B4B46472DE9F04F89B0804624
S315080071E021252122FF2100A8FFF741FFDFF8ACA0E7
S315080071F09422FF215046FFF73AFF0027284CDFF874
S31508007200A490294EB85D17F809B0395D401C00EB0B
S31508007210D070401001B11930401C00FB0BF2234816
S3150800722030F817100FF2880092B202F089FEBBF10F
S31508007230010F1CBF2AF817505D447F1C212FE1DB84
S315080072400FF28800212340F21C4240F2712102F01D
S3150800725077FE0FF2A8054FF4E04000F00DF918B1DB
S31508007260CA212846FFF7C2FD4FF4804000F004F912
S3150800727018B1CC212846FFF7B9FD4FF4805000F02D
S31508007280FBF818B1CE212846FFF7B0FD00A9404605
S3150800729000F01FF909B0BDE8F08F00005CF9002086
S315080072A0A89D0308F09D0308CC9D0308649D030868
S315080072B043726561746F723A2030782532582C20F3
S315080072C0576F7264733A2025640A000053696D4546
S315080072D04520646174613A20256420776F7264736F
S315080072E0206F66202564206D61782C20746F6B658D
S315080072F06E436F756E743A2025640A0073696D2DA6
S31508007300656570726F6D2E630000000010B5DFF8BA
S31508007310D84ADFF8D83A2488001B06E010B5DFF80B
S31508007320D04ADFF8C83A24681B1B03EB4000002349
S3150800733004E030F8134021F813405B1C9342F8DB55
S31508007340002010BD2DE9F04182B004460D461646D0
S315080073500027DFF8988A01E0B81CC7B2B74217DAE7
S315080073607819795D4078DFF8803A1B8801EB0020B0
S31508007370ADF80000012207EBD77004EB6000C01AD5
S3150800738000F0ACFB0028E7D002F0FEFD002000E08C
S315080073900120BDE8F681F8B504460E4615460027D5
S315080073A00DE000F019F8BDF8000004EB4701000AEB
S315080073B04870761CBDF8000004F817007F1CB7EB70
S315080073C0550FEEDBE80706D500F006F8BDF8000015
S315080073D0291901F8010CF1BD012200A9B0B295E7FF
S315080073E0DFF8042ADFF8041A1288801A01EB400134
S315080073F00220FFF774BEDFF8FC19DFF8FC29415CB0
S31508007400825CDFF8F839C05C10B102F5997292B265
S3150800741041EAC21080B2704710B5DFF8E439DFF8E8
S31508007420D44903EB4002005D012801D1104610BD86
S315080074301088081803EB400010BD38B50C46DFF875
S31508007440C4190D782A462146FFF760FF20880028D0
S315080074501CBF4FF6FF7188420AD0012000E0401C8D
S31508007460C0B2A84206D234F8101022889142F6D04B
S31508007470002032BD012032BDF0B5DFF8741987B09F
S3150800748008600C2200A90020FFF748FF00A9002584
S31508007490C88A8A890346040A01204FF6FF7631F81E
S315080074A01570BDF800C0BC4503D1B74218BF002F00
S315080074B000D100206D1C062DF1DBB21A944518BFC9
S315080074C00020DBB2C4F1FF018B4218BF002007B0D1
S315080074D0F0BD2DE9F24F0446DFF82C690020307024
S315080074E070809CB0DFF824090088ADF8020007A96F
S315080074F0FFF7A3FF83460120707009A9DFF810097A
S315080075000588DFF81009B0F80080DFF8DC08BDF858
S3150800751002A007883846FFF790FFB8B1BBF1000F05
S315080075203CD0BDF81C10BDF824004FF6FE729142FF
S3150800753002D1012804D10CE0012908BF90422DD0C0
S315080075400846BDF82410884228D202E0BBF1000F95
S3150800755023D000207070029750460695CDF810800B
S315080075600122DFF8A01891F800804044ADF8060023
S3150800757000A9BDF80600FFF7C9FEDFF89C080088D9
S3150800758005904FF6FF79BDF80000000B404518BF7F
S315080075900F2800D10CB3002516E0012470780028C6
S315080075A0D9D03846CDF808A0CDF818800495D7E785
S315080075B0059805FB00F4E01900F03CFCBDF8020054
S315080075C0201800F037FC6D1C4545F1DB01203070B2
S315080075D04D2002F0D9FC0025FEE0BDF80650012238
S315080075E001A92846FFF792FEBDF80400C043C0B2C1
S315080075F0ADF804006F1CDFF824080588BDF8040000
S31508007600A84218BF01244FF0000A20E0401CC1B26E
S31508007610A94218D2C0B2DFF80818BDF80E20834672
S3150800762031F81B109142F1D1FFF7E5FE4FF6807154
S315080076300840BDF80C104FF680721140884204BF0E
S315080076401C980BF800A00AF101001FFA80FABDF891
S315080076500400824507DA022203A9B8B2FFF756FEEC
S31508007660BF1C0020D3E7002001E0401C80B2A842DE
S3150800767017DA1C99415C8142F7D0012411E02AF8F7
S315080076801070BDF8060000EB4300401C00F0E6FA57
S31508007690BDF80200C0F3C710401C00EBD07007EB22
S315080076A060070498DFF858A7BFB2874211DA0122AB
S315080076B000A93846FFF72AFEBDF80000484508D05D
S315080076C0030A00F07F01BDF804007F1C834202DB39
S315080076D0012400252FE0002001E0401C80B2A842CA
S315080076E0CFDA1C9A825C9A42F7D1C0B2FF28C8D07A
S315080076F0DFF80027825C7F290CBF4FF0000C8C4610
S3150800770094450BDABDF800C0DFF8F0E610F80EE095
S315080077104FEA0C6C4FEADC7CF44501D00124B0E753
S31508007720012AACD07F293AF8100008BF00210818B2
S31508007730A5E76D1CADB2DFF8EC060088854204DAD1
S315080077403AF815004845F4D1012477800498BDB26B
S3150800775085420ADA012200A92846FFF7D7FDBDF8B7
S3150800776000006F1C4845F1D032E7002CFCD1029886
S3150800777001220BA980B2FFF7C9FDBDF82C004845C8
S315080077800DD105E0401C80B2202813DB2034A4B2BA
S315080077900699029A891A8C4205DB0120307000206E
S315080077A01DB0BDE8F08FA51820220BA9A8B2FFF7D7
S315080077B0ADFD00200BA931F810104945E2D0A8B25A
S315080077C0FFF70EFE203CA4B2E0E70298059905FBF8
S315080077D0010000F02FFB6D1C4545F6DB01203070DB
S315080077E0494600F053F818B100F03DF90028D6D103
S315080077F00120D5E72DE9F0420F46DFF82016DFF81D
S31508007800F85509888F420446164699460CD2DFF881
S31508007810E415795C30467F2808BF0020884203DAE1
S31508007820785D814500D11CB940F2D64100F012FAC4
S3150800783031463846FFF7F0FD0188DFF8C005385CA9
S3150800784060B1384600F03BFA795D012908BF20701F
S3150800785009D0022914BF2060208004E04A46204649
S31508007860BDE8F04297E5BDE8F08210B50446084643
S315080078701146FFF7D1FDDFF8702500881288DFF87A
S315080078806C15801A01EB4000206010BD2DE9F34FFE
S31508007890DFF85405DFF86C150488DFF86C050978FD
S315080078A0407883B000281ABFDFF8600500882046B4
S315080078B00D18DFF868050088ADF80800ADB2C043BA
S315080078C0C0B200EB013000F55060ADF802002B1B8A
S315080078D0DFF8180500F0C8F96E1C0028B6B238D1D2
S315080078E00025DFF83C7514E0E8B2FFF784FDADF833
S315080078F00400331B37F81500ADF806000222DFF83E
S31508007900EC0400F0ABF8002823D1B61C6D1CB6B207
S31508007910ADB2BDF808008542E6DB002501E06D1C26
S31508007920ADB2BDF80800854280F293804FF0000A98
S315080079301CE001220DF102011FFA89F0FFF7E6FCAF
S31508007940BB19DFF8A8041B1B09F1010900F08CF923
S31508007950002878D17F1CFFB2B7EB1B6FE9DBDFF895
S31508007960C804285C8619B6B20AF1010ADFF884044D
S3150800797015F800B05FFA8AFADA45D0D25146E8B26D
S31508007980FFF74AFD8046DFF87404B8F800902F5CCC
S31508007990F80140EA0520ADF80000BBF1010FBDF87B
S315080079A000000CBF40F07F004AEA0000ADF8000076
S315080079B0311BDFF8380400EB4100711C89B20191D4
S315080079C04FF6FF7189451EBFBDF80010BDF810209F
S315080079D0914218D19DF80C100029C5D0012200A9A2
S315080079E0FFF7B6FB019E70BBDFF80C04A8F8006031
S315080079F02A5CDFF8380450F82510B0B2FFF7A2FC6D
S31508007A000028ACD122E0DFF8F013695C491C01EBD1
S31508007A10D1714FEAC15B012200A9FFF799FB019ECC
S31508007A2088B9002FA8F8006095D04946E8B200F05A
S31508007A3046F90190331BDFF8B4034FEA1B6200F0E6
S31508007A400DF800288BD002F09FFA002005B0BDE89B
S31508007A50F08FDFF8B40346800120F7E701A900EBB1
S31508007A604300FFF775BB2DE9F041DFF8A003DFF807
S31508007A7098530688DFF8700304886878002882B06F
S31508007A8012BF204630462646012200A9FFF73EFCD3
S31508007A90BDF80000DFF8548301280CBF4FF6FE70CE
S31508007AA0401EADF80000DFF85C0307783846471E2D
S31508007AB058B1BFB2B819001B012200F00FF8002810
S31508007AC0F4D002F061FA002006E0687880F0010040
S31508007AD06870002028700120BDE8F68100A908EB2F
S31508007AE04000FFF735BB2DE9FE4F0D46CB49098807
S31508007AF08842044617461E464FF000094FF0010813
S31508007B000CD2BC49615C38467F2808BF00208842F1
S31508007B1004DAB948205C864200D11DB940F2FA5110
S31508007B2000F098F839462046FFF776FC0190B64FE4
S31508007B30787820B1B648B0F800A0AB4803E0B5485D
S31508007B40B0F800A0B1483978008849B97988081A88
S31508007B50B74909888842B4BF4320442002F014FA82
S31508007B6001980188A548205CF8B1204600F0A7F8DE
S31508007B70012E08BF297803D0022E0CBF2988296850
S31508007B80814265D001980088401E00F067F8A64833
S31508007B90265C7888AAF10101891B814201DB00284D
S31508007BA035D1387858BB452044E00291CB4620E0D1
S31508007BB002980BEBDB7300EB630000F03EF90BEB6E
S31508007BC005001BF80510407801EB0020711E8B4557
S31508007BD080B205D1BDF80010C9B2C0B2ADF8001028
S31508007BE0BDF8001088420BF1020018BFC8465FFABC
S31508007BF080FBB345DCDBB8F1000FC3D028E0BDF845
S31508007C0002100020FFF742FE10B34FF001097888F2
S31508007C107949401C788080B2625C2946FFF792FB5E
S31508007C20B0B1714C7B88248870485B1E1B1B00F022
S31508007C301BF810B102F0A8F90AE0B9F1000F02D05A
S31508007C40FFF711FF20B101997888088030187880ED
S31508007C50BDE8F78F0FF2EC10FFF7C8B801220DF157
S31508007C60020180B2FFF752BB01220DF1020100EBBF
S31508007C704300FFF76DBA70B582B004460025192691
S31508007C80012200A9A0B2FFF741FBBDF80000641C61
S31508007C9048B14FF47F41401A02D0FF3806D007E0BA
S31508007CA0681C40B276BDAD1C761EE9D168B276BDB9
S31508007CB0BDF80000C0B200B96D1CE843F1E738B55D
S31508007CC00C46002100914C49455C2A46214600A8ED
S31508007CD0FFF761FB681C00EBD07004EB600080B214
S31508007CE0FFF7C9FF002848BFC043009940B24018B3
S31508007CF032BDF0B5494909880446414883B025464E
S31508007D0030F815608C4202D23C48285C18B940F21B
S31508007D103B71FFF79FFF38482D5C681C00EBD0705D
S31508007D2006EB6007B8B2FFF7A6FF322814D2C107E0
S31508007D30BFB207EB60002C4F2C4B3F884CBF00218D
S31508007D404FF47F41ADF80410C01B012201A903EBD3
S31508007D504000FFF7FDF960B131462046FFF7AFFF57
S31508007D6000902B46401C00907F2200A92046FFF772
S31508007D70BAFEF7BDF8B5244C20780027002830D184
S31508007D8019480588607800281ABF204806882E46B4
S31508007D901C4807783846471E02281BDBFFB2B8196D
S31508007DA000F04BF8BDF800000028F3D01A48008808
S31508007DB007FB006000F03EF80020ADF80000BB1994
S31508007DC00A485B1B012200A9FFF749FE48B102F0E9
S31508007DD0DBF806E03046FFF703FBFFB20FB90120D8
S31508007DE020703846F2BD0000309D030800E0070801
S31508007DF00CFC0020F09D0308CC9D0308A89D0308F1
S31508007E005CF900202C9D030814FF0020349D03080C
S31508007E10329D0308369D03082E9D03083A9D0308E4
S31508007E20649D03083C9D0308409D030880A0030841
S31508007E30389D030880B2FFF7D3BA012200A980B2A1
S31508007E40FFF764BA73696D2D656570726F6D2D697C
S31508007E506E7465726E616C2E63000000DFF884151F
S31508007E6000200870FF21DFF8800501700171704756
S31508007E70F8B5044602F0E9F80546DFF87005DFF8BC
S31508007E8068750688204602F0DCF9B0F5006F16D151
S31508007E90204602F0FAF900F0BBFAFF280DD000F0F0
S31508007EA029FA2146381D02F068FDDFF83805017801
S31508007EB081B10089A9190E1A10E09320F2BDFF219D
S31508007EC0384602F085FD052802DA21463846EAE7F3
S31508007ED03920F2BD0581314602F0DBFDB2B203213D
S31508007EE0204602F02CF9032200F070F8204602F032
S31508007EF0A5FA0020F2BDF8B50446DFF8EC040078D0
S31508007F00FF2813D0DFF8E8542968465C3746384618
S31508007F1002F0ACF9014608222046FFF7AFF808B987
S31508007F200120F2BD28683F5CB742F0D10020F2BDBF
S31508007F30F8B5044602F02FF9000B00F001052046BB
S31508007F4002F0B8F90646204602F0A3F9B0F5404F0C
S31508007F5011D1002D36D03146002000F086F90446AE
S31508007F60FF2C2FD0002102F08FFE58B300F0A3F9A2
S31508007F7000F02AF826E0304603F0B1F800F048FA97
S31508007F800446FF2C01D10020F2BD01200021224623
S31508007F9003F0D2F8DFF85C24D2E9006706430F4302
S31508007FA0C2E9006775B1DFF850341B6833F814303E
S31508007FB04FF4FE64234205D0D2E902452043294303
S31508007FC0C2E902010120F2BD40F0800205212046E7
S31508007FD002F0C0B838B5044602F033F9B0F5006FC0
S31508007FE00CBF01250025204602F040F9044621462B
S31508007FF0284600F03AF9FF2810D18DB1204603F043
S315080080006EF800F005FAFF280AD0DFF8EC130968C5
S3150800801031F810004FF4FA61084201D0012032BD50
S31508008020002032BD2DE9F04107460C46DFF8B8536B
S3150800803002F007F9B0F5006F0CBF281D2846007836
S31508008040FF2846D0DFF8A8130968405C0646B74201
S315080080503CD1FEF7AFFE80460521304602F081F896
S3150800806000F07F00471EFAB20521304602F072F88A
S31508008070002C18BF312C01D0F8B200BBFEF79AFECF
S315080080800746F0B202F0DDF8B0F5006FF1B205D19F
S31508008090281D02F09DFC00F012F902E0284602F0C5
S315080080A097FC3846FEF79CFE4046FEF799FE2146A9
S315080080B0304603F075FF304602F0CEF904E000F0D2
S315080080C0FEF84046FEF78CFE012003E0765C864209
S315080080D0BDD10020BDE8F08138B501F0B6FFC14C2E
S315080080E021892081421A4FF6FF75ADF8005000A984
S315080080F090B200F008F9BDF80000A84202D10020AD
S31508008100207031BD0146204602F0C3FC31BD002176
S315080081104FF6FF70F7E02DE9F84FDFF8D892D9E966
S315080081200001002908BF002800F0988000264FF0BB
S315080081300108B24600270024FEF73CFED9E90023D1
S31508008140844608EA02001AEA030108BF002817D085
S315080081506FEA08006FEA0A0102400B40C9E90023EA
S31508008160D9E9025B012708EA05021AEA0B0308BFE8
S31508008170002A05D028400BEA0101C9E902010124B9
S315080081806046FEF72DFE002F57D09B48006830F852
S315080081901600810751D59949096831F816702CB12E
S315080081A000F49871102908BF012500D000259449CC
S315080081B00978C9070AD5934A1268002142F8261099
S315080081C091490968725C42F0F0027254F4B1800673
S315080081D01CD5380A8DF801008DF8007000A9012019
S315080081E000F043F80446FF2C07D100F039F84FF6A3
S315080081F0DF72114020F8161014E0002102F044FD49
S3150800820080B100F058F8FFF7DFFE0BE085F00100BB
S31508008210044207D000F024F841F4006120F8161053
S3150800822004F06CFA00953B461A226DA1032001F072
S315080082308CFE2946384601F098FE761CF6B24FEABF
S315080082404A0040EAD87A402E4FEA480806DAD9E9C1
S315080082500001002908BF00287FF46CAFBDE8F18F44
S315080082606548006830F8161070472DE9F0418846D1
S315080082705D4900281ABF091D022508250878FF2828
S3150800828016D05B4E3168475C3C4600F014F8000691
S315080082900AD4204601F0EAFF01462A464046FEF780
S315080082A0EDFE08B9204604E03068245CBC42ECD1F7
S315080082B0FF20BDE8F0810521204601F052BF70B5C8
S315080082C00021202004F0B7FC47480079FF2810D089
S315080082D0474C2168455C2E46304601F0D6FF00F033
S315080082E097F8FF2801D000F005F82068365CAE4202
S315080082F0F2D170BD4049096831F8102042F02002D9
S3150800830021F8102070472DE9F84F80460FF2FC003F
S31508008310354E0068364F00908A46344600E0341DD4
S31508008320FEF748FD814606E0204602F03BFB29465B
S3150800833000A802F022FB204602F07EFB40B938680E
S3150800834021780D5C0321284601F0F0FE8045EBD22A
S31508008350301D844208BFFFF7B2FF4846FEF740FDCE
S315080083602078FF281CD0396810F801904D46032163
S31508008370284601F0DBFEA0EB080B1FFA8BF203215F
S31508008380284601F0DCFEBAF800001FFA8BFB83458D
S3150800839088BF8346AAF800B038682D5C4D45E6D1FB
S315080083A0301D8442BBD100A802F046FBA8B900A83C
S315080083B002F0F8FA044601F0F8FE00F0FAF8FFF7C2
S315080083C07AFF000603D44221204603F0E9FD204641
S315080083D002F042F800F0EEF8E5E7BDE8F18F00009C
S315080083E04257420050FE00201CE10020DCDE00203F
S315080083F05CDE0020B0E600206CDE002064DE002093
S31508008400A8FE002070DE0020B8DE0020FF00000075
S31508008410F8B50D4C2768060014D0FEF7CBFC0B4DBB
S3150800842021682A7821F8126037F8021BB142FBD17D
S31508008430FEF7D6FCB81E2168401AC0052978000E3A
S31508008440884200D1FF20F2BD64DE002068DE0020ED
S3150800845010B57348734C006820606060482200219C
S31508008460FEF705FE7048216800780870002021682C
S315080084700873216848730B202168887303202168D4
S31508008480C8734FF6FE71206801824FF6FF7141826C
S3150800849000F0A6FB2168087600F0A2FB2168487662
S315080084A000F09EFB21688876604821680078C876C7
S315080084B05F492068096881625E49097880F82C104E
S315080084C05D4821680068086310BD10B5FCF742F9DD
S315080084D0544C6168897B884203D00846FCF732F918
S315080084E050B9FCF73AF90146606890F90F008142E5
S315080084F004D0FCF736F908B1012010BD6068008A7F
S31508008500FDF7C9FE6068408AFDF7CDFE6068007B0E
S31508008510012818BF0020FDF7A8FE002010BD10B5E1
S31508008520464C0020207004F0F2FA20B92046BDE837
S31508008530104002F0A3BA04F09DFF08B104F0CBFF87
S3150800854062E080B5002000F015F828B1002000F0A0
S3150800855005F808B1002002BDFF2002BD31480068B9
S31508008560407B02281CBF1128432801D101207047EF
S31508008570002070472B480068007B012818BF022896
S3150800858004D003281CBF0628072801D101207047FC
S3150800859000207047002070470020704770477047DA
S315080085A00020704701207047704700207047002060
S315080085B07047704770470020704780B50020FFF766
S315080085C0CDFF18B1BDE802400020D3E702BD80B553
S315080085D00020FFF7C3FF30B112480068007B03286C
S315080085E001DA002002BDFF2002BD10B5040004D048
S315080085F0E5210FF26C00FEF7F9FB094800684821EF
S3150800860001FB040007494860BDE810405DE70548DE
S315080086104068008A704703484068408A70470000EF
S3150800862090DE0020C4FB0020D8DE0020D9DE002022
S3150800863098DE00209CDE0020A0DE0020B4FB00208F
S315080086407047002070470020704702F052BB704701
S31508008650704705F07EB805F018BB01F08DBC000028
S31508008660656D6265722D6D756C74692D6E657477AE
S315080086706F726B2D737475622E63000038B50446ED
S315080086800D46012005F09CFC6D48002D12BF002107
S315080086900178491C017003200021FDF7F2FF6948A3
S315080086A044706948FDF7B6FABDE83240002005F087
S315080086B087BC38B50446402C02BF644800780028B9
S315080086C0154603D000210020FDF7DBFF002C43D020
S315080086D0402C23D0882C18BF892C44D08D2C31D01F
S315080086E08F2C4AD15A48007804280DD145B15949EA
S315080086F00220087040F60620BDE8324005F068BC46
S31508008700FDF744FD312034E0012001F01DFCFDF7A2
S315080087103DFD002D0CBF312000202AE005F086FC27
S31508008720FDF734FD46484C4900780978884204D25A
S31508008730BDE8344000210120A0E7002001F004FC38
S31508008740402016E0002001F0FFFBFDF71FFD002189
S315080087502020FFF782FF0BE0012001F0F5FBFDF773
S3150800876015FD002005E0002001F0EEFBFDF70EFDEB
S315080087708D20BDE8324002F06BBBBDE83440A6212F
S315080087803BE034480078022800D0704780B533486B
S315080087900078042807D00C280ED131480078022822
S315080087A018BF7C2808D105F02FFCFDF7EFFCBDE8C3
S315080087B00240002002F04CBB01BD38B50024FEF78C
S315080087C0F9FA05462348007810B9FDF74CF904462E
S315080087D02846FEF705FB002C1CBFBDE8314001F01A
S315080087E0D1BB31BD80B5FFF7E8FFBDE804404FF4C3
S315080087F0A0511C4802F04DB9E2210FF27000FEF7B5
S31508008800F5BA38B5184CA068A16C01EA0005ADB2F6
S31508008810A8070BD5A06C20F00200A064206810F011
S31508008820190F03D100210020FDF749FF680705D578
S31508008830A06C20F00400A06404F048F8A56031BDDF
S31508008840E3FF0020ACE0002020FF0020B7FF002057
S31508008850FFE000206CFE002010E10020E6FF00206B
S31508008860E7FF002028FE002000A000406D61632D70
S31508008870656D3235302E630070B504460D461646D2
S31508008880FDF7D9FC38B16078002E14BF40F02000FF
S3150800889000F0DF0060702946204601F060FEFF28E0
S315080088A021D0974C0146201D02F067F8954D28887F
S315080088B02188401C288080B281420AD26888401CE0
S315080088C06880201D02F06EF801F0C6FD2888401E5B
S315080088D02880208829888842F3D3BDE870408A48D2
S315080088E0007802F0B9B970BD2DE9F04FA5B08246FF
S315080088F00027FEF75FFA834C2188491E2180FEF780
S315080089006FFA504601F034FD90F80090817840786F
S31508008910009700EB01201FFA80F800F0D4F8A0F1C8
S3150800892008020823D2B2514602A801F034FE02AD6D
S315080089306878FFF73EFE7548007808B36068002837
S315080089401DD0E878FDF733F94946FDF737F90746AC
S3150800895095F9020000F166050020009009F101036F
S31508008960DBB20022514604A801F015FEFFF71CFEF3
S3150800897063686AB2394604A89847FFF71BFE98E071
S3150800898008F0070002282DD0FF208DF80400504675
S3150800899001F0EEFC00F1010B584601F037FC0446E5
S315080089A0A9EB0400801E46B2002E1BD45FEA88504D
S315080089B003D508F00700032810D101A9584605F089
S315080089C01FFC002876D108F0070001280BD19DF876
S315080089D0040004EB0B0103F00CFE20B99DF804001B
S315080089E001F03AFD66E04A499DF804000968475CCB
S315080089F04849096800F801A000F065F800F120016F
S31508008A009DF80400C9B201F0B9FC9DF8040001F014
S31508008A10C7FB00F00C0004281CBFA619002470B27E
S31508008A2080B20090631C9DF804009BB252463946FA
S31508008A3001F072FFF1199DF80400C9B201F057FE62
S31508008A40354968780978884204D3CD210FF2D000D9
S31508008A50FEF7CCF99DF8040001F09DFB69788004C7
S31508008A60800C40EA81319DF8040089B201F095FB3B
S31508008A70E878FDF79CF84946FDF7A0F802469DF808
S31508008A800400032101F066FBA87800F166029DF850
S31508008A900400D2B2042101F05DFB9DF808209DF880
S31508008AA00400052101F056FB9DF804A0504602F08B
S31508008AB02BFA0127504601F0CFFCFFF77BFD38461D
S31508008AC025B0BDE8F08F124800681AF80000704714
S31508008AD010B50C4C618829B1C9B21D20FFF7BDFD40
S31508008AE0002060800D4801F05DFFFF2803D0FFF7E6
S31508008AF0FBFE0028F6D010BD084801F09DBF000017
S31508008B0014E1002048FE0020C3FF00207DFD002060
S31508008B1050DE002058DE002094DE002018E10020F8
S31508008B206D61632D726563656976652E6300000065
S31508008B300268174912BACA60426812BA8A6082681D
S31508008B4012BA4A60C06800BA08607047704710B524
S31508008B50104980220A6006230F4A136007230B6018
S31508008B6013689B07FCD5002350F823405B1C24BAE6
S31508008B70042B8C62F8D313685B07FCD500220B6BB9
S31508008B801BBA40F82230521C042AF8D310BD000044
S31508008B90383000400030004010A0004010B50446B0
S31508008BA00846FFF7C5FF2046BDE81040CFE7002876
S31508008BB048BF40427047000081B209B94BF6EF61E1
S31508008BC00E4A1180000C08BF4FF6CE205080704721
S31508008BD00288130448BF4A40510001801046704776
S31508008BE038B5064C62212046FFF7F2FF054641F2EA
S31508008BF00B01A01CFFF7ECFF684032BD46E00020E1
S31508008C00EFF3118060288041C043C00F7047000011
S31508008C10002181F311887047012100F01F0291405D
S31508008C20DFF83825400942F8201070472DE9F04F43
S31508008C30DFF8304591B061681091072808BF032016
S31508008C4006D0082808BF022002D0052808BF04203D
S31508008C50DFF8145529686A6841EA0221AA6841EAD8
S31508008C60024100916968490703D5E16941F00201AB
S31508008C70E1612968490703D5E16941F00401E16129
S31508008C800099EA69D140C90703D5E16941F00801AD
S31508008C90E1610021DFF8C864DFF8D074316001288B
S31508008CA000F00482C0F02A8203281AD004D30428CC
S31508008CB040F02482616014E0386CC00703D5E0698F
S31508008CC040F04000E061386C400703D5E06940F0A9
S31508008CD02000E061386C800703D5E06940F0100099
S31508008CE0E061FEF767F8FBF7EEFA8DF83C004FF007
S31508008CF00009DFF87C14DFF87CA4C1F58031012077
S31508008D00090B00FA01F1491ECAF83810090A07D1F9
S31508008D10DFF86414097819B1616C41F020016164C7
S31508008D20396CDFF85884DFF858240E91796C0D9168
S31508008D30D8F84C100C91D8F850100B91D8F854105C
S31508008D400A91D8F858100991DAF800100891DAF85B
S31508008D5004100791DAF814100691DAF82410059130
S31508008D60DAF834100491DFF81C14096812680392C3
S31508008D7002222260DFF8102412688DF80420DFF83A
S31508008D800C2412688DF80520DFF8042412688DF883
S31508008D9006204FF0FF326262DFF8C0231368DB0457
S31508008DA00AD56B68DB0707D5E369DB0704D53368A3
S31508008DB043F480738146336013689B040AD56B6855
S31508008DC05B0607D5E369DB0704D5336843F48043BC
S31508008DD08146336013685B0412D5009BD5F818C02A
S31508008DE023FA0CF3DB070BD5E369DB0708D53368F1
S31508008DF0D5F818C000FA0CFC4CEA03038146336028
S31508008E0013681B0414D5009BD5F81CC023FA0CF371
S31508008E10DB070DD5E369DB0702D4E3691B0707D532
S31508008E203368D5F81CC0814600FA0CF01843306048
S31508008E301068C00308D5E069000605D5F07840F04B
S31508008E4008004FF00109F07000206A68D2076A68C6
S31508008E5048BF4FF480505206009AAB6948BF40F4A9
S31508008E600050DA40D207009AEB6948BF40F48040C8
S31508008E70DA40D207E26948BF40F40040D20605D47A
S31508008E80E269920602D4E269520601D540F0100062
S31508008E90E269120648BF40F4803008400290A520D7
S31508008EA0FBF708FA0120E063E069A16B11B1616A7A
S31508008EB00142FAD0616A014200F0C9800020E063ED
S31508008EC0F07840F04000F070FDF77AFF0498CAF891
S31508008ED03400072038600F20C8F8000005F04EFA65
S31508008EE01098A84960600E9838640D9878640C98B4
S31508008EF0C8F84C000B98C8F850000A98C8F85400EF
S31508008F000998C8F858000898CAF800000798CAF8D7
S31508008F1004000698CAF814000598CAF824000298AE
S31508008F2008609749039808604FF0FF309949086030
S31508008F3095480068307095480068707094480068D5
S31508008F40B070626AE0691040EA69336801994B407B
S31508008F5000990B400106490E01F0010143EA8123FD
S31508008F600106890E01F0010143EA81030106C90ED3
S31508008F7001F0010101FA02F21A4300F47C7042EA98
S31508008F8000503060FDF716FFFDF728FF002020602F
S31508008F909DF83C0008B1FBF780F9F0787949096833
S31508008FA0C90304D5C0F3C00109B120212162396C77
S31508008FB0890703D5C10744BF0221F960396C4907FF
S31508008FC004D5C0F3400109B10421F960396CC90719
S31508008FD004D5C0F3800008B10120F860D8F84C0029
S31508008FE010F0E00F05D03068C00544BF0C20FFF72D
S31508008FF013FED8F8500010F0E00F05D03068400492
S3150800900044BF0D20FFF708FED8F8540010F0E00F13
S3150800901007D03068A969C840C00744BF0E20FFF7CB
S31508009020FBFDD8F8580010F0E00F07D03068E96962
S31508009030C840C00744BF0F20FFF7EEFDF07840F0A8
S315080090408000F07011B0BDE8F04FFFF7E1BDB9F14F
S31508009050000F7FF435AFDAF818004949DFF838B160
S3150800906040084000CAF818004548806840F00400E7
S31508009070886040F20721BBF80000884202BFBBF8AF
S3150800908002004FF20F01884205D14CF23C30ABF892
S3150800909002004FF00109012005F0AAF9B9F1000F05
S315080090A003D04FF20F00ABF802000FE7FBF70BF9FE
S315080090B00446A520FBF7FEF8FDF782FEFFF7A8FD9C
S315080090C0364D2E682868400840002860FDF77EFE69
S315080090D0334FD7F80080386820F040003860FDF735
S315080090E071FEC7F800802E60FDF770FE0CB1FBF725
S315080090F0D4F811B0BDE8F04FFDF770BE11B0BDE869
S31508009100F04F40F254410FF2A400FDF76FBE11F183
S31508009110010F154A07D0CBB21360C1F3072353607A
S31508009120C1F30741916000231E490B601368002BA9
S3150800913004BF5368002B01D192681AB10A6842F03D
S3150800914001020A600A6842F400720A600A6842F07C
S3150800915080020A606AE51449D9E7000000E200E0E7
S31508009160FCF900200400004008BC004014A00040A0
S3150800917000000000044000409807080814A80040B2
S3150800918008ED00E000E100E008B0004008B2004049
S3150800919008B4004080E200E00000002094ED00E002
S315080091A0008000402000004000404000736C656568
S315080091B0702E630003480188034808237F22FCF7C2
S315080091C043B800BFDEAC0308F8FB0020DFF8EC0369
S315080091D0016C41F4C04141F0090101644FF6FF7189
S315080091E001602020DFF8D813086070477CB5154663
S315080091F01E4610B905F022F976BD012836D1132985
S315080092003CBF0FF20440095C08096422504301F090
S315080092100F010B2903DA884006E00A2250430A4662
S31508009220511ED2B20B2AF8DA01460120FBF74BFF92
S3150800923000285FD1300907280CBF00200220012D25
S3150800924008BF40F0180003D0022D08BF40F0080000
S3150800925006F00F010229DFF86C13A8BF40F00400DE
S31508009260886001200860FFF7B1FF40E0032840D17D
S31508009270FBF71CF8DFF85003018808237F2200A8B3
S31508009280FBF7E2FF00220020DFF8401300AC531C76
S31508009290045D25090A2DD2B2B4BF3026372601EB64
S315080092A04202751955805A1C04F00F050A2DB4BFE1
S315080092B03025372504F00F04DBB22C1901EB4303E4
S315080092C0401C08285C80E1DBDFF8040305F0A6FAF9
S315080092D000F0BBFE044605F086FA042807D000F025
S315080092E0B4FE001B80B2B0F57A7FF4DD01E0002001
S315080092F076BD212076BD38B5040013D1DFF8D40237
S315080093000468608828B140F291210FF2F420FDF735
S315080093106DFDA188C9B2A01D00F05AFB0020A080EF
S31508009320208031BD012813D1A6480068012815D12F
S31508009330FDF740FD0546A848016841F006010160B1
S31508009340012000F0CFF82846BDE83240FDF748BDB9
S31508009350032804BFBDE8314005F04ABC31BD0128E9
S3150800936004D19D48016821F006010160704780B567
S315080093700B46114620B9184600F02AFB002002BD0C
S31508009380012814D195488269012A07D0212002BDF7
S31508009390C2685207FCD513F8012B02600A46511E13
S315080093A0D2B2002AF4D1C1684906FCD5E6E70328FB
S315080093B0ECD1184605F02EFCE0E710B50446FAF79E
S315080093C075FF012C03D1884800684006FBD510BDFF
S315080093D070B5834A834B12680CE0158810F8014B68
S315080093E0AD18AC7114881D8800F096F8148094881E
S315080093F0641C94800C46611EE4B254B194887B4D7B
S315080094002D886D1EAC42E8DBBDE8704023210020A4
S31508009410B5E070BD2DE9F84304467148DFF8C491FC
S31508009420DFF8C8816D4F254650F8256014E0B188ED
S3150800943038F81520521E91421CDA3188891988712C
S31508009440308839F81510401C90FBF1F201FB120028
S315080094503080B088401CB080F868800716D5F86858
S3150800946010F038013868E2D0080705D4C80605D5D3
S31508009470242107E0232105E0272103E088064CBFC5
S3150800948025210121204600F07AF8E5E7BDE8F183B9
S3150800949070B504465248C6680D46FAF707FF5148A4
S315080094A00CE0328814F8011B921991713188C28830
S315080094B000F011F83180B188491CB18029464D1E4B
S315080094C0C9B239B1B1887F29EBDBBDE870402321E9
S315080094D0032054E070BD491C91FBF2F302FB131103
S315080094E07047704770B53B49414A51F820103B4BCD
S315080094F00CE04C886418A4791C604C8832F810502B
S3150800950000F00AF84C808C88641E8C808C8814B114
S31508009510DC686407EDD470BD641C94FBF5F605FBA6
S315080095201644704780B5334926480A6842614A6836
S31508009530826189688160012101600120FFF746FE8A
S31508009540BDE80240224805F069B9704738B51B4C9A
