S02400006170702D626F6F746C6F616465722D6932632D6D6332346161313032352E7333371F
S31508000000000400207500000881000008810000082F
S31508000010A70B0A0100000000020230570040000842
S3150800002004120000C30E00085D120008F00600085E
S3150800003005090008F3090008430A000833090008FF
S315080000402D090008170B00083509000828000000CC
S31508000050FFFFFFFF05480068202100EA010020B1E4
S315080000600348016842688D46104770472C000040D7
S3150800007000400008FFF7EEFF00F00DF800F042F828
S3150800008005E00000854670474548008870474FF4EC
S31508000090017000F09FB838B54FF20F04414D00F0DB
S315080000A0C7F828B140F2052028806C80012032BDAF
S315080000B03D480068C00615D56888A0421ED1288824
S315080000C040F2022188421CBF40F20621884215D020
S315080000D040F2011188421EBFB0F58A7F40F2111125
S315080000E088420BD0314C208A40F6A721884205D198
S315080000F02068FFF7C7FF6068804700BF002032BD51
S315080001000000000038B50400294872B6016849089D
S315080001104900016000F0D2F823480068000910F091
S3150800012001000CBF2349244902E0CD2201F8012B26
S31508000130224A9142F9D32249224A234B03E011F875
S31508000140015B02F8015B9A42F9D32049204A002351
S3150800015001E001F8013B9142FBD3124A53884FF262
S315080001600F05AB4240F205210AD113888B4205D010
S3150800017030B1180A012818BF022801D1194601E032
S3150800018004B90021064801804CF23C30508000F04A
S3150800019073FA4FF40170BDE8324000F01BB8000056
S315080001A0B40C0020000000202C000040004000088D
S315080001B0FCED00E00000002098000020000400206C
S315080001C08C14000800040020040400200404002005
S315080001D0BD0C00200E4A302111600E4A11600E4AED
S315080001E0116010210D4A1160010A00290C4908BF47
S315080001F0000208804FF20F004880BFF35F8F09485E
S3150800020000210160416008480849086070470000FD
S315080002103020004030C8004030C0004010E00040A8
S31508000220000000201C4000400400FA050CED00E028
S315080002300020704780B500F074FA0121062000F00E
S315080002407DFA062000F0AAFA0121072000F076FAC6
S31508000250072000F097FA1748016821F0100101609D
S3150800026001BD0000052800D9704710B5DFE800F089
S315080002701721030F1C17104C2088411E2180C0B976
S31508000280072000F097FA42F21070208010BD072070
S3150800029000F084FABDE81040062000F08BBABDE8ED
S315080002A01040062000F06EBABDE81040062000F0A7
S315080002B075BA10BD00BC0040B60C00207A49512022
S315080002C00860704738B5054600F01EFA7749B0FB56
S315080002D0F1F44FF4F070B0FBF4F02D1A1E2DBCBFEC
S315080002E04FF40170FFF776FF7148724A07210160E3
S315080002F00021416081604FF00071116005FB04F137
S31508000300C91C8908491E416031BD6B4A01215170DB
S31508000310D8E76B48016841F001010160012141609D
S315080003205120614908607047002070472DE9F04761
S31508000330624D614E2968814640F2DC580129C24661
S315080003405B48604F604C1DDA0221618039600068A5
S31508000350C00348BF00F08FF8B86900F0030003280F
S3150800036061D02868002803D5B86940F00200B86152
S315080003704846FFF7D9FF5FEA000A1BD1286800281C
S3150800038051D54EE061884FF6FF75A9421DD14F48F9
S31508000390018802237F22A01C00F022FA6088A84266
S315080003A004BF02206080B869800703D4B86940F0AA
S315080003B00200B8610120B070608838600FFA8AF0D0
S315080003C0FFF7A3FF5046BDE8F087B9698907EDD561
S315080003D00068C00348BF00F04EF8B07808B1404640
S315080003E0F1E7B868B968628810F0010003D10F2AEE
S315080003F008D2521C06E0890704D5217811B1032AD0
S31508000400A8BFAA1892B2022A2070B8BF0222628038
S31508000410386861888842CDD1B86900F0030003289E
S3150800042001D0FFF776FF0020CDE710B5044628482F
S31508000430017869B9C078072818BF092813D0032896
S3150800044018BF11280FD013281CBF15280B280AD04F
S315080004502048016841F48071016004E000F0F6F973
S315080004600620FFF761FF2046FFF760FF0028F5D159
S3150800047010BD0220D9E70E480E4A0021416081606E
S31508000480016821F00201016000210B4841704FF01C
S3150800049000711160817801B9704780B500218170BB
S315080004A00620FFF741FF01BD0080004090D0030001
S315080004B010E000E004ED00E0B80C00207814000815
S315080004C01C40004004400040000400208814000836
S315080004D096070808384000400078704700210160F8
S315080004E08180C18001817047F8B504460D461646DD
S315080004F0002710E02068803020600020E0808020FF
S315080005002081A088401CA080E088411C0019E18059
S31508000510807A78557F1CBFB2B7420CD2E088218911
S315080005208842F1D32068802204F10A0100F061FABA
S315080005300028DFD0F2BD0020F2BD1720704710B5A5
S31508000540044600F0F7F82046BDE8104000F00CBB62
S315080005502DE9F043A5B000F0EDFA00F0EBF800F055
S3150800056043FB012100A800F047FB414C04F180053C
S3150800057000206860A86000F0D9F900280FBFE8607D
S315080005808168E9604088A4F8800000A800F0FBFBB9
S31508000590070047D1BDF80610BDF8042000A80818C2
S315080005A000F10A0694F8800080075FFA82F80FD5F2
S315080005B0E96869B1686808EB00024B1E22EA03077E
S315080005C010B1A868B84203D2384600F0A4FAAF6062
S315080005D068684246314600F034FA070010D1686868
S315080005E04246214600F005FA002001E0401CC0B250
S315080005F0404505DA015D825D9142F7D0832706E022
S3150800060068684044002F6860BFD01B2FBDD0042007
S31508000610FFF728FE0121384600F03EFB384625B094
S31508000620BDE8F083172FF0D10020F8E770B5DAB0EF
S31508000630044636A8FFF752FF012000904FF40263E4
S315080006400C4A36A901A800F03CFC0FF2A4050FF2EB
S31508000650940600F06FF8002C14BF3246002201A958
S31508000660284600F0FBFD5028F3D05AB070BD0000B4
S31508000670240C00200404002038B5FFF705FD0446C5
S3150800068000F010FEB4F58A7F40F2111508D100F08B
S3150800069051FA00F08EFA0028FBD02846FFF79AFD9B
S315080006A0FFF7C8FD00F02EF918B14FF40170FFF7F7
S315080006B091FD00F03FF840F20110844218BFAC42A9
S315080006C009D0B4F58A7F1FBF40F20520844240F264
S315080006D00320844201D1012000E0002000F0E4FD5F
S315080006E0002032BDEF1300082B140008D9040008B7
S315080006F0E90400083B0500081A480068C00701D449
S31508000700194870471948704780B5FFF7F5FF18492B
S31508000710096801B9400802BD80B5FFF7EDFF40083A
S3150800072002BD1448012181604EF6BE2141600121B7
S31508000730016070471049012008607047C2084307E6
S3150800074010B54CBF0D4B0E4B03EB422200F00300D5
S31508000750800013680F248440A34301FA00F018436D
S31508000760106010BD1C400040001BB70000366E012B
S3150800077020400040006000400860004004B000408F
S3150800078000B00040C108032907DA012100F007027A
S315080007909140C00840020F4A11507047C10803290A
S315080007A007DA012100F007029140C00840020A4A10
S315080007B011507047C10803290ADA084A02EB412199
S315080007C001230A6800F0070003FA00F050400860A9
S315080007D07047000014B0004010B000400CB0004054
S315080007E030B5044610467F2808BF00204BF2346215
S315080007F0914283B01AD108237F2240F6120100A83D
S31508000800FFF7EEFF08220FF23C0100A800F0A9FD51
S3150800081030B908237F2240F2A27100A8FFF7E0FF53
S31508000820082200A9204600F083FD37BD044D294360
S3150800083000FB03111A46204600F07AFD37BD00007A
S3150800084000000808FFFFFFFFFFFFFFFF70B5274CFA
S3150800085025680646FFF760FF2549B0FBF1F07043AF
S315080008602F303021B0FBF1F0032809D3616D41F038
S31508000870010161652168491B0903090B8142F9D306
S3150800088070BD38B504000D4605D0022C10D00FD324
S31508000890032C26D027E0174C45B1FFF73DFF164934
S315080008A0B0FBF1F0401EB0F5005F0CD2206018E0F6
S315080008B04DB1FFF731FF690801EB4000B0FBF5F0D9
S315080008C0B0F5003F01D3202032BD4108022C00F0CC
S315080008D0010008BF094A02D0012C02D1084A50601B
S315080008E01160002032BD212032BD000038200040B2
S315080008F090D00300100004E020A1070068D800404B
S3150800090068C8004080B50D212120FFF717FF0D218B
S315080009102220FFF713FF78480121416100218161F8
S315080009200160416003218160002002BD0FF2EC10D6
S315080009307047704700207047F8B50C46010CC9008F
S3150800094041F0A0011546C9B26C4E326942F0040264
S315080009503261B2681207FCD5316000F039F8B26826
S31508000960D207F2D40204120E326000F031F8C0B297
S3150800097000F036F8306940F004003061B0680007CE
S31508000980FCD541F0010000F02BF800270AE0706161
S31508000990306940F001003061B0684007FCD5306826
S315080009A038557F1CAF420ADAFFF7C4FE681E874235
S315080009B07069B2BF40F0010040084000E7E73069BF
S315080009C040F008003061B0680007FCD50020F2BD91
S315080009D0326942F002023261B2689207FCD570476A
S315080009E03060306940F002003061B0688007FCD59D
S315080009F07047F8B5044642480D46164684423EBF3F
S31508000A0037463919814201D38520F2BD20040DD01D
S31508000A10200C000400F58030814207D36742BFB23C
S31508000A2004E0F61B3C197D19B6B237463EB13A4684
S31508000A3029462046FFF780FF0028F2D0F2BD0020A5
S31508000A40F2BD2DE9F84304462D48884616468442E9
S31508000A503ABF3119814285200ED214F07F0F06D095
S31508000A60E009C0018030814203D3071B02E0812ED2
S31508000A7004DA37461EB90020BDE8F2838027200C29
S31508000A80C00040F0A000C0B21C4D296941F0040125
S31508000A902961A9680907FCD52860296941F002017E
S31508000AA02961A9688907FCD5A968C907EDD4200476
S31508000AB0000E00F027F8E0B200F024F84FF0000925
S31508000AC007E0FFF737FE19F8080000F01BF809F1F0
S31508000AD001091FFA89F9BFB2B945F2D3286940F06E
S31508000AE008002861A8680007FCD5F61B3C19B6B2B1
S31508000AF0812EB844C2DABCE74CD000403CD0004056
S31508000B00010002002860286940F002002861A868F0
S31508000B108007FCD570478820704700000201000056
S31508000B200000000080000000000002007C1400089D
S31508000B300100000080B54FF4E1310120FFF7A1FE66
S31508000B402648022181600121016009200921FFF759
S31508000B50F5FDBDE8044004210A20FFF7EFBD204853
S31508000B6000684006FBD570471E49CA685207FCD57F
S31508000B700860704710B5044603E014F8010BFFF748
S31508000B80F3FF20780028F8D110BD10B504462009D7
S31508000B900A28ACBF37303030C0B2FFF7E5FF04F0A3
S31508000BA00F000A28BDE81040ACBF37303030C0B25D
S31508000BB0DAE70B480068800701D501207047002056
S31508000BC0704710B50446FFF7F4FF20B105480068E2
S31508000BD02070002010BD012010BD000054C8004040
S31508000BE048C800403CC8004080B500A8FFF7E9FFA8
S31508000BF00028FAD001BD00000170012242700129C7
S31508000C0082700CBF8021402181800021C180018132
S31508000C101F4801600E218162016821F01001016000
S31508000C200021416341627047F8B50D4604461949EB
S31508000C30174F4FF0FF3008601646FE6200207862B4
S31508000C40386840F001003860FFF774FD012C11D1B7
S31508000C5035B9FFF7AEFF00F0010080F0010002E0B1
S31508000C602846FFF7AEFF38B93868400840003860B4
S31508000C700020F2BD0120F2BD786AB042E4D3002E0E
S31508000C80E2D038684008400038601620F2BD0000FF
S31508000C9000F0004000A8004038B504460D4600F0B4
S31508000CA009F800F007F82A462146BDE8384018201A
S31508000CB0FFF745BC2A4621461820FFF740BC38B541
S31508000CC00446002020814AF6B432207800A9FFF7AE
S31508000CD0ABFF08B11C2032BD9DF80000032818BFE1
S31508000CE0182801D1182032BD042801D1172032BD99
S31508000CF0012801D0212032BD002500E06D1CA18805
S31508000D00EDB2091D8D420BDA281900F10A01207887
S31508000D1040F2DD22FFF788FF0028EFD0262032BDFB
S31508000D200025002006E00146EDB22819007B00F0F8
S31508000D302BFB6D1CA188EAB28A42F4D3A27AE37A25
S31508000D409B18FF2B01D0222032BD0B191D7BB5EB5A
S31508000D50102F01D0232032BD5B7BC0B2834201D065
S31508000D60242032BDA078824207D0401EC0B28242FB
S31508000D7001D1272032BD252032BD881C20810220C2
S31508000D80E080002032BD38B504466078012804D0DA
S31508000D9028D3032859D01DD324E02078012816D15A
S31508000DA03B2500A8FFF70DFF0028FAD04320FFF7E0
S31508000DB0DBFE207840F2DD220021FFF735FF30B157
S31508000DC02846451EC0B20028F0D11B2032BD02209D
S31508000DD060700FE0FFF708FF00F039F8A078401CB4
S31508000DE0A07007E0182032BDA0782278411EC9B24B
S31508000DF000F02FF82046FFF762FF050018BFFFF73F
S31508000E00F3FE272DF0D0A8060BD52278A178152059
S31508000E10FFF795FB002DEDD10320FFF723FA0020FD
S31508000E2032BD680603D4182D18BF1C2D07D12178AA
S31508000E302846FFF731FF04206070284632BD172D7B
S31508000E40E8D100F004F803206070172032BD22783C
S31508000E50A1780620FFF773BBF8B504460D4616467B
S31508000E601F4607E03046A047294600F09FFA054688
S31508000E707F1E761CBFB2002FF4D12846F2BD38B5C6
S31508000E800C46154605E0014614F8010B00F08EFAEB
S31508000E906D1EADB2002DF6D132BDF8B504460D462D
S31508000EA01F461646286823683A463146984704007E
S31508000EB005D1E8683A463146FFF7E1FFE860204683
S31508000EC0F2BD70B58AB004460E98A0720D4623810D
S31508000ED062600222286800A9FFF78BFDBDF80000B2
S31508000EE058B32868202201A9FFF783FD00200FF2D6
S31508000EF0A83101AA435C825C9A421ED1401CC0B24A
S31508000F000828F6DBBDF80C0040BAB0B9079800BA55
S31508000F10202812D3079806BAFFF708FDC06886424C
S31508000F200BD2202201A94FF0FF30FFF7A8FFC649D0
S31508000F30884202D1079800BA286025604FF0FF3032
S31508000F40E060002020740AB070BD2DE9F84F89468C
S31508000F50044699F81BB0D068BB49BBF1800FA8BFFF
S31508000F604FF0800B88421E4651D1002E4DD0B068F6
S31508000F7000904FF0FF38002509EB450A9AF84870AB
S31508000F800DE0FFF7D7FBF80240F0006200984FF437
S31508000F9000634146FFF760FF8046781CC7B20AF136
S31508000FA048004078B84204DA681CC5B2062D02DA51
S31508000FB0E2E7FF2FE5D1D9F844006FEA0801884235
S31508000FC025D1A068736800BA4FEA5B02494698477C
S31508000FD0C8B9E06805BAA06802BAB0685B464FF0BF
S31508000FE0FF31FFF739FFC04385420CD140F6A720F1
S31508000FF0A9F810000122A068736800BA09F1100167
S315080010001030984708B1422002E0172000E043203C
S31508001010BDE8F28F2DE9F04F0D4683B08146D5F82D
S3150800102004A02889ADF80000904605F1140404F1DF
S315080010301006042352464846FFF72FFF002810D112
S31508001040BAF8000040BA80B20190BAF8020047BA6E
S31508001050BFB2F80706D501984FF20861884218BF53
S3150800106046207AD1B7F5026FC8BF4E2075DC002F2F
S3150800107072D00198DFF8D4B168B14FF20861401A0E
S315080010806FD040F2FC51401A00F0C580FF387CD082
S31508001090FE387AD0D5E0287C08B151205DE08D2F46
S315080010A028BF4F2059D23B46221D00F0D4F800280D
S315080010B053D1F27E802AA8BF802202F10C00874213
S315080010C001BFA08840BA00F47F40B0F5007F46D142
S315080010D0E08840BA4EF25031884202BF308A40F664
S315080010E0A72188423BD1708A00F47F40B0F5807F03
S315080010F001BFA06800BADBF81C1088422FD1BBF8E4
S31508001100180040F2032188420ED1708AB0F5847F18
S3150800111025DBF06D410522D14D49081AB0F5F42FAB
S315080011201DD8B0F5005F1AD34FF6FF70308204F170
S3150800113010014FF0FF30FFF7A2FEE16809BAC94374
S31508001140884204BF307E042809D1707E122818BF51
S31508001150062804D1012028740020BDE8FE8F45200A
S31508001160FBE7287C002858D0BDF800008742B4BFAA
S31508001170B8468046434600F06DF80028EDD1A7EB47
S315080011800807BFB2002FEFD1E6E7287C002844D035
S31508001190042300F05FF80028DFD1DAF8000004BA6B
S315080011A0DBF81C003F1F8442BFB238BF4820D4D3A7
S315080011B0716D3819884228BF4920CED201984FF65A
S315080011C0035188420DD1B8F1000F0AD0D8F8002093
S315080011D021460220904720B14A20BEE7BF1BBFB276
S315080011E03419002FB8D0BDF800008742B4BF3E4678
S315080011F00646334600F02EF80028AED1B8F1000FA7
S31508001200ECD0D8F804307208514620469847002892
S31508001210E4D04B20A1E7287C08B941209DE7042F9C
S3150800122018BF4C2099D16A68042300F014F80028E6
S3150800123093D143462A463146204603B0BDE8F04FCF
S3150800124083E6442089E70000E320BBDE00000008AF
S31508001250000008085246294648461EE670B50D465F
S31508001260044628898028164603DA4F2070BDA87AD6
S3150800127078B9324629462046FFF7CCFE0028F6D034
S31508001280172807D1286861688847172802D10020DF
S3150800129070BD502070BD0000534C41424942522057
S315080012A000000000FFF7E5B810B504460020FEF779
S315080012B0D9FF24BB0020FFF7B9F950B90120FFF781
S315080012C0B5F930B90520FEF7CDFF40F20120FEF74B
S315080012D081FF0420FEF7C6FF0120FEF7C3FFBDE825
S315080012E0104040F20320FEF775BF0FF23400FFF7F7
S315080012F041FCFFF734FC40F20220FEF76BFFFFF7D4
S3150800130027F90400F1D00FF22000FFF733FC20463E
S31508001310FFF73BFC01A0FFF72DFCF0E70D0A0000E4
S315080013200D0A4F6B0D0A00000D0A455252200000A7
S31508001330814212D210185118401E491E92B2002A34
S315080013401EBF11F8013900F80139521EF6D170474F
S3150800135011F8013B00F8013B521E92B2002AF7D160
S31508001360704710B500E0521E92B222B100F005F89F
S31508001370F9D0181B10BD002010BD10F8013B11F85C
S31508001380014BA342704700000A0242EA1121484075
S31508001390C0F30311484080EA003041010206C9B291
S315080013A0D20E41EA0221484080B270470A0A4840F4
S315080013B0C0B208214308C00746BF0348584018462C
S315080013C0491EF7D1504070472083B8ED2748018A57
S315080013D040F6A772914202BF408A4FF47F41084205
S315080013E003D1022801DB0120704700207047F8B5B9
S315080013F004461D4E01200D463070FFF7E7FF18B969
S315080014004FF40170FEF7E6FE29461848876A44F449
S315080014108070B847002131700FF2540618B9294672
S3150800142044F40070B847805DF2BD2DE9F0410446EA
S3150800143088465600FFF7CAFF18B94FF40170FEF741
S31508001440C9FE0A48476A0023324641462046B8473D
S315080014500FF21C0520B93346002241462046B847FC
S31508001460405DBDE8F0810000BC0C002000000808C3
S31508001470000202024B4B464700366E014D4332349A
S315080014804141313032350000EE0800000100FFFF0F
S705080000757D
