S01500006E63702D72663463652D756172742E733337B4
S31508002000A0260020791601089519010899190108D2
S31508002010A70A090100210008041A03AC3057280052
S3150800202000000000000000000000000000000000A2
S315080020300000000000000000000000000000000092
S315080020400000000000000000FFFFFFFFFFFFFFFF8A
S31508002050FFFFFFFF00E0010800000000000000008D
S31508002060FFFFFFFFFFFFFFFFFFFFFFFFFFFFFFFF72
S31508002070FFFFFFFFFFFFFFFFFFFFFFFFFFFFFFFF62
S31508002080F02F002000000000EC2F0020EC2F00208D
S31508002090A02600202C2001081C1A0108401D00203B
S311080020A0C01500200000020800300020D7
S31508002100A0260020791601089519010899190108D1
S31508002110A11901089D190108A51901081C1A010829
S315080021201C1A01081C1A01081C1A01081C1A0108A5
S31508002130A91901081C1A01081C1A0108F52C00081F
S315080021401C1A01081C1A0108AF7500081C1A010898
S31508002150F3C30008977400081C1A01081C1A010822
S3150800216043630008EB3B0008F9350008A521000881
S315080021701C1A01081C1A01081C1A0108CF45000878
S3150800218031BD00081C1A01081C1A01081C1A01088E
S31508002190012100F01F029140304A400942F8201000
S315080021A07047000070B52E4C2E4D60782968490797
S315080021B026D5032824DAA18804EB4002918101215F
S315080021C0A27801FA00F01043A070274A207890B14F
S315080021D0002320FA03F6F60708D5994063704840AD
S315080021E0207014EB4300808A106009E05B1CDBB2A8
S315080021F0032BEEDB04E0106000F0C2F803206070E9
S315080022004FF6FF702860BFF35F8F70BD80B5144826
S31508002210002101700022032141700021C1700521AF
S31508002220018100218170001D0F490A604A604FF440
S3150800223000428A601022CA60486101208861032032
S31508002240C8600421074801644FF6FF7101600B203E
S31508002250FFF79EFFBDE8014000F0D0B800E100E0BE
S315080022607828002010A8004004D0004036480068AE
S31508002270C00701D4354870473548704780B5FFF721
S31508002280F5FF3449096801B9400802BD80B5FFF772
S31508002290EDFF400802BD00F020BC2F4801218160F7
S315080022A04EF6BE2141600121016070472B4901208D
S315080022B008607047A52805D127484DF6AD614160ED
S315080022C002210160704724480068C00701D5012033
S315080022D070470020704700F00701C0088002204AB6
S315080022E004E000F00701C00880021E4A10580122C7
S315080022F08A401040C840704780B51B491B4A1020C9
S3150800230008601B491B48007858B103280CBF0020F9
S315080023100120106040F651000860002000F0FDFD25
S3150800232006E0022010604FF40060086000F08EFBA3
S315080023300721114801600021016410200F49086037
S31508002340002002BD000000001C400040001BB70032
S3150800235000366E01204000400060004008600040E2
S3150800236008B000400CB0004080E100E008000040E2
S315080023700C600040DC2F002014A0004000E100E0C3
S3150800238070477047DFF8E83433F810001040C8404B
S31508002390704730B50FF29854DFF8D83434F8104047
S315080023A09C601140DFF8C84434F81050954329431F
S315080023B0D96002221A6000221A6024F810105868A0
S315080023C00028FCD130BDDFF8B024DFF8B00412785D
S315080023D0DFF8AC140AB149780EE0895611F1090FF5
S315080023E0B8BF302108DBC16D39B1C26D40F24A3140
S315080023F0B1FBF2F189B2C91E01607047E0B5DFF89A
S31508002400840401880A2300F064F8BDF806104FF624
S31508002410FF720D20FFF7BDFF07BDF8B50546B5F5F8
S31508002420004FDFF85C4419D1DFF85C040188022309
S3150800243000F04FF8BDF80000000AFF2814BF002876
S3150800244018206070BDF800000006C00E10281CBFDA
S31508002450001D00F09CF9BDF80000C543DFF81864BC
S31508002460707808B1002005E0A089ADB26840C007C1
S3150800247001D501207070DFF81404A58105F0010468
S31508002480016841F400410160C5F340070FF2C440FA
S3150800249000EB44004FF440524078010389B2022011
S315080024A0FFF777FF204600F087FD4022B90100F0CC
S315080024B009FA2D06A80E00F0010038433070FFF720
S315080024C082FF707818B1FFF799FF0020707000201E
S315080024D0F2BD7F2200A800F0E5BD2DE9F04FDFF838
S315080024E0B443207887B0042304900C210B38C0B27B
S315080024F0039000A8039A00F093FE9DF800008DF85B
S315080025000A009DF801008DF809009DF802008DF873
S3150800251008009DF803008DF80500DFF87C030078B5
S31508002520012806BF607880F00105012501F081F9D0
S3150800253082469DF902000399D54F0AF10A06AAF1C7
S315080025400A09B042B6BF81454FF001084FF00008AE
S3150800255001208840ADF806009DF80100000604D465
S315080025607888BDF80610084201D04FF0010801F03E
S31508002570F5F99DF8030000060AD4B888BDF80610D8
S31508002580084205D19DF90000B042B8BF814502DB7B
S315080025904FF0010901E04FF0000948EA050059EA41
S315080025A0000000F0A480DFF8F4B2BD49DBF80000B3
S315080025B0400800F001008DF80400BA48006800F4ED
S315080025C0E06005904FF4E0600860002001F0B5FD7A
S315080025D000F0A8FBB44EADB1607858B1DBF8000046
S315080025E0AD4940084000CBF800000120087000F013
S315080025F079FC07E0306840F400503060306820F419
S3150800260080503060A4480078012810D161780D42C6
S3150800261008BF01F0EDFEDBF800009F4940F001001D
S31508002620CBF8000000200870642000F05BFC60789E
S3150800263080F00100054203D00498C0B202F091F878
S31508002640607838B1306820F480503060306840F4E3
S3150800265000503060BDF80600C543B8F1000F08D039
S3150800266002F06AF98DF801008DF802A078882840F2
S315080026707880B9F1000F08D002F00FFA8DF8030040
S315080026808DF800A0B8882840B8809DF900009DF90B
S315080026900A10884202BF9DF801009DF80910884279
S315080026A00BD19DF902009DF90810884202BF9DF8DA
S315080026B003009DF80510884206D00399042300AA52
S315080026C0C9B20C2000F0BDFD05987649086000F0F7
S315080026D0EFFD9DF8040001F030FD02F0FEFA607887
S315080026E028B148F260703060642000F0FBFB9DF86A
S315080026F0010002F08DF89DF8030002F0C9F907B051
S31508002700BDE8F08F80B501F087F8BDE80140E4E642
S3150800271001F082B870B50646A6F10B0401F075FC07
S315080027200546A6F10B00102801D38A2070BD5F4824
S315080027308168090702D40068C00701D58C2070BDDE
S31508002740544806705A4801680C290FD00FF27811C0
S31508002750584A92F90020A4B231F824105118C161E0
S31508002760FFF7BBFE012D08BF01F0E0FB002070BD9E
S3150800277010B5044601F050F82046BDE81040C9E7F8
S315080027804448007870473E4890F9000070472DE9A4
S31508002790F041044614F12B0F86B045DB4648018804
S315080027A01423FFF796FEBDF810004FF6FF71884216
S315080027B003D0400448BF012606D43F22002110203A
S315080027C0FFF7E0FD0546002604F12B022F2A2C48C8
S315080027D03A491AD213220FF2301300E0521ED2B22F
S315080027E013F91270BC42F9DB03EB42040327647841
S315080027F00C60002413F81210017000208046AEB158
S31508002800BDF810104FF6BF7229E0092C0CDA225CCD
S315080028100A60047014232A480188FFF75AFE012427
S315080028200320A0462827EAE78B201DE0C1024FF4C3
S31508002830605200F047F84FF4E062210200F042F8D7
S3150800284080224FEAC81100F03DF885F020003D18B7
S31508002850ADB2402DA8BF3F253F2285F0200100F0EC
S3150800286031F8FFF7B0FD002006B0BDE8F0810000A2
S315080028709C280020E8100040BF2F0020641000406C
S31508002880A82600202C1E0108401E01081C10004026
S3150800289096280020A426002010280020802000402A
S315080028A080E100E000E100E0D01000406020004038
S315080028B0AC100040BE2F0020281E0108C0100040A2
S315080028C02A1E01080B2064E5AA21290055232900A0
S315080028D000252800AA26270055282700002A2600B2
S315080028E0AA2B2600552D2500002F2400AA302400E7
S315080028F05532230000342200AA352200553721001C
S3150800290000392000AA3A2000D500E601EC02EF03C0
S31508002910F204F405F506F707F808F909FA0AFB0BB5
S31508002920FC0DFD0FFE11FF1300160119021C031FF3
S3150800293010001100200030004000410050006000E7
S31508002940700080009000A000B000C000D000E00039
S31508002950F000000000000103DFF838145120086079
S3150800296070472DE9F0410546FFF788FCDFF8281483
S31508002970B0FBF1F64FF4F070B0FBF6F71E2D3FB240
S3150800298001DBE81B04D5A8B2BDE8F04100F0AABAFD
S3150800299002F0DEF9804602F0E1F9DFF80014DFF80C
S315080029A00024012048700721DFF8F80300F041F8F9
S315080029B0E91B09B27143C91C8908491EDFF8E853A7
S315080029C0416000F0BDF8DFF8CC733C68386820F049
S315080029D04000386002F0C4F93C602E6002F0C4F989
S315080029E002F0CAF94046BDE8F04102F0C7B938B569
S315080029F00546FFF743FCDFF8A013B0FBF1F44FF4EC
S31508002A00F070B0FBF4F02D1A1E2D04DA92210FF2A5
S31508002A10D83002F0B9F9DFF88C03DFF884230721F0
S31508002A2000F007F805FB04F1C91C8908491E416036
S31508002A3031BD01600021416081604FF00071116075
S31508002A407047DFF8582301215170D0E7DFF85C039F
S31508002A50006800B970472DE9F041DFF85453DFF8F4
S31508002A60546300242C6034604FF4A040706041F237
S31508002A709A084046FFF775FF6F68FFF707FC0001E5
S31508002A8042F21071B0FBF1F000F5C870C01B00B23D
S31508002A904FF4487190FBF1F000B20828A8BF072050
S31508002AA004DA10F1080FB8BF6FF00700306040462F
S31508002AB0FFF757FF08274046FFF753FF68680419D2
S31508002AC07F1EF8D1FFF7E2FB211D4001C908B0FBC4
S31508002AD0F1F080B27060BDE8F081DFF8D0020068DE
S31508002AE000B9704738B5DFF8D05201206FF00F04EF
S31508002AF0A8602C608020FFF734FFE868FF2802D81A
S31508002B00641C102CF5DB31BD70B5DFF8B002016826
S31508002B1041F0010101600121416002F019F9044602
S31508002B20DFF8845200F00CF85120DFF868120860CC
S31508002B302E6002F019F92046BDE8704002F01EB971
S31508002B402E68286840084000286002F00DB9002069
S31508002B5070472DE9F041954C904D226840F2DC51C2
S31508002B60012A8846964E974F17DA0221B9803160B6
S31508002B70B16901F0030103295BD02168002903D557
S31508002B80B16941F00201B161FFF7E1FF5FEA0008B0
S31508002B901BD1206800284CD549E0B8884FF6FF7449
S31508002BA0A0421DD18848018802237F22381D00F0E3
S31508002BB079FAB888A04204BF0220B880B0698007B5
S31508002BC003D4B06940F00200B0610120A870B8884B
S31508002BD030600FFA88F0FFF734FF4046BDE8F08111
S31508002BE0B3699B07EDD5AB780BB10846F6E7B16834
S31508002BF0B36811F0010103D10F2809D2401C06E081
S31508002C009B0705D53B781BB1032801DB2018B88044
S31508002C10B88839700228BCBF0220B8803068B988E5
S31508002C208842D2D1B06900F00300032801D0FFF72B
S31508002C306BFF0020D2E72DE9F04780460024554D6A
S31508002C40594E02F085F8814602F088F84046FFF7AB
S31508002C5080FF08B901240AE000F05DF8D5F800A065
S31508002C6000F0BCF8C5F800A0376002F07DF802F065
S31508002C7083F8484602F082F8002CE2D0BDE8F087D7
S31508002C800220D8E710B54748444C002141608160CE
S31508002C90016821F002010160002060704FF00070A9
S31508002CA03F490860A07838B10020A0700620FFF7D9
S31508002CB04EFF00F02BF81CDBE078012814D14348BE
S31508002CC00121016042490968C90748BF03200FD49A
S31508002CD00221E170016C41F00101016404203D49C3
S31508002CE008603D49086010BDE078042801D1052038
S31508002CF0E07010BD80B52948407800281CBFBDE8A3
S31508002D000140FFF7BFBF00F047FF01BD2748006835
S31508002D1001287047244E3768306840084000306004
S31508002D2002F022B82DE9F8431C4C2179207881F06D
S31508002D30010108422AD0FFF7E9FF1FDA40F2EB311A
S31508002D400FF2A40002F020F818E002F001F880461D
S31508002D5002F004F8E07805280BD0FFF7DBFF0D4DED
S31508002D60D5F8009000F03AF8C5F80090376001F001
S31508002D70FBFF02F001F8404602F000F8E07805286B
S31508002D80E3D10020A0700520FFF755FF0020207032
S31508002D90BDE8F1830080004090D00300C22F0020D8
S31508002DA004ED00E010E000E094ED00E0281A0108C8
S31508002DB0104000400C000040084000401C40004005
S31508002DC004400040C42600204C1E010818A00040FC
S31508002DD00C40004080E200E000E100E0286820F0B6
S31508002DE04000286001F0BCBF636C6F636B732E6391
S31508002DF00000000010B5664C002001F074FF40F694
S31508002E008C2188422068B4BF40F0080020F00800F2
S31508002E10206010BD10B504465E48018882B000F0F7
S31508002E205CF89DF800109DF80100FF2902BFFF28F5
S31508002E300420002104B1801C574A1368C0B2082830
S31508002E40A8BF072023F4607343EAC010106008295E
S31508002E501068A8BF0721C00841EAC00010604F48A3
S31508002E60047013BD00B54E48018883B000F035F8EC
S31508002E70BDF800004FF6FF7188420EBF4FF4E160BF
S31508002E800A2190FBF1F0ADF800004448007808B339
S31508002E904048018802237F2201A800F003F99DF823
S31508002EA00500BDF80030FF2808BF0420811CC9B200
S31508002EB00829A8BF0721C1F12F0202EBD272C0F17F
S31508002EC02F00521000FB0320C1F12F01B0FBF1F0D7
S31508002ED0ADF80000BDF800000EBD02237F2200A851
S31508002EE000F0E0B870B52F4C25680646FFF7CEF916
S31508002EF02D49B0FBF1F070432F303021B0FBF1F0D3
S31508002F00032809D3616D41F0010161652168491BF8
S31508002F100903090B8142F9D370BD10B5040004D129
S31508002F2010BD4FF47A70FFF7DDFF2046441E80B2CD
S31508002F300028F6D110BD704738B50C4620B10128D7
S31508002F400FD0032820D021E0184D44B1FFF79EF991
S31508002F501749B0FBF1F0401EB0F5005F0CD22860AF
S31508002F6012E04CB1FFF792F9610801EB4000B0FBA3
S31508002F70F4F0B0F5003F01D3202032BD0D4900F032
S31508002F8001024A6040080860002032BD212032BD97
S31508002F9000BC00402E1E010818000040DB2F002050
S31508002FA0301E01083820004090D00300100004E0CD
S31508002FB020A1070068C80040F0B5044689B0002083
S31508002FC0FFF728FF264801880A237F2200A800F079
S31508002FD069F8BDF802004FF6FF75A84204D1DC2156
S31508002FE00FF2940001F0D0FE0FF2A407002601E0CC
S31508002FF02A4616B94FF47C4203E0022E08BF4EF269
S315080030003F0200A800F032F8761C052EF0D3012CFA
S3150800301003D114237F22134802E014237F22124887
S31508003020018803A800F03EF800260FF26C072A462E
S3150800303008E02A46012E08BF4FF6C07202D0082EB5
S3150800304008BF002203A800F011F8761C0A2EF0D358
S31508003050012C04BF0120FFF7DDFE09B0F0BD00001A
S315080030602C1E01082A1E0108281E010830F8161011
S31508003070F05DFFF78EB90000616E616C6F6775656C
S315080030802D63656C6C2D626961732E630000000008
S3150800309000100C0D0E000000010203040708090ABF
S315080030A00B0F000030B5044610467F2808BF0020E5
S315080030B04BF23462914283B01AD108237F2240F63C
S315080030C0120100A8FFF7EEFF08220FF2C40100A8BC
S315080030D001F0A2FF30B908237F2240F2A27100A8AE
S315080030E0FFF7E0FF082200A9204601F04BFF37BD95
S315080030F01F4D294300FB03111A46204601F042FFE3
S3150800310037BD2DE9F0440C4619490FF2780A41EA11
S315080031100006C007154602D5622100F02FF8E80719
S3150800312002D5632100F02AF81248864204D3A8196A
S31508003130401E1149884202D3642100F01FF8002777
S3150800314006E0B85DFF2802D06B2100F017F87F1C57
S31508003150AF42F6D36A082146304601F0B9FF28B1D6
S315080031605046BDE8F044712101F00EBEBDE8F0847A
S31508003170000004080008040800100408504601F07E
S3150800318003BE00006D66672D746F6B656E2E630057
S31508003190FFFFFFFFFFFFFFFF30B50FF21011DFF84B
S315080031A0FC500A6883B001A8002402600120287038
S315080031B0002001F0D3FF30B1002001F0CFFF10B19D
S315080031C02C7049203EBDDFF8D800018802237F22F3
S315080031D00DF1020000F024F802237F22002100A846
S315080031E000F01EF8204601A9BDF8022031F810109B
S315080031F0914208BF0124401C0228F4D3BDF8000000
S3150800320024B1B0F57F7F07D100203EBDB0F57F7FA2
S315080032100CBF0620042000E00720002129703EBDCF
S3150800322010B5FF2908DCDFF87440247844B1BDE8FE
S315080032301040C9B202F0A0BABDE81040FFF732BF8D
S3150800324010BD2DE9F0410546FF2D0E461746984656
S315080032500FF2500013DCDFF844402178A1B1617801
S3150800326011B1C02101F090FD01206070434632463D
S315080032703946E8B202F0E8FB0020607004E0BDE8D9
S31508003280F041CB2101F080BDBDE8F0810349097802
S31508003290002918BF02F0DEBC70470000EA2F0020A4
S315080032A0341E0108746F6B656E2E6300FE01FD0205
S315080032B010B5DFF84C461020206301F049FDDFF811
S315080032C044160A6842F001020A6001F057FDDFF869
S315080032D0380600F108016160216092306168893121
S315080032E0616001212163E060A060DFF82016E068D4
S315080032F08930E060022020634FF6FF70086010BD39
S31508003300DFF80C0645F26401C1601E2141625021B6
S315080033100162C821C1618165F021C16545F6900148
S315080033204166882181660621C16644F2066101600C
S315080033304FF6FF714160DFF8DC05007838B1DFF839
S31508003340D80548F2607101604FF4C1514160DFF859
S31508003350CC05016841F0040101600020DFF8C015C2
S31508003360487070472DE9F047044601F0F1FCDFF894
S31508003370B4150A6C22F002020A6402220A6001F0FD
S31508003380FDFC8A21DFF8800501FB040101F108082C
S3150800339008F1010127184A78097801EB0226DFF8B7
S315080033A08815097841700020B870B6B2B00603D502
S315080033B0DFF87855686E00067BD5002006F0070111
S315080033C0032954D106F4406306F44041B3F5806FEF
S315080033D01CBFB1F5804F002949D00422B3F5006F10
S315080033E008BF082203D0B3F5406F08BF0E22730644
S315080033F05CBF921CD2B2B1F5004F0CBF931C02F110
S3150800340008035FFA83F909F1010303EBD373DB05BC
S315080034104FEA136A002C14BF6B682B68534526D3F2
S31508003420B1F5404F02EB080002D102F0C1FD07E0FA
S31508003430407812F8081001EB002080B202F0B6FDC1
S31508003440A8B1310713D4002C14BF696829680AF19A
S315080034500102914206D2E968002C14BF0222012219
S315080034601142F0D119F80810042918BF0020E96D97
S31508003470090901F001018842B9701AD00028A86C20
S315080034804FF400614FF4806209D004B9114608422E
S315080034900FD0686C40F001006864012008E004B9A8
S315080034A01146084205D0686C400840006864002050
S315080034B0B870BDE8F087DFF854040068C00703D485
S315080034C00021002001F044B870472DE9F84F044662
S315080034D0DFF834A4DFF854548A2000FB04A000F176
S315080034E00806002C0CBF28686868C1B2052907DAE7
S315080034F0FFF7E1FFDAF80400401CCAF8040079E097
S3150800350040005FFA80F808EB0600A0F10807387853
S31508003510797801EB00201FFA80FB9AF801003870D1
S3150800352002F0F9FD7870DFF8E473386C20F4805007
S315080035303864686E14B97868400504D4012C22D121
S31508003540786800051FD5FFF7B6FFDFF8E4030178B2
S3150800355089B1002101701BF4E45FDFF8D803016824
S3150800356002D00022402004E07078000900F0010231
S315080035708F2002F03EFE002C0CBF4FF480604FF403
S315080035800060786031E01BF4E45F2CD100F0D2FDD6
S3150800359010B15FEA4B4026D53078802823DA386C9C
S315080035A07178890604EB0A090ED5696E090610D4E6
S315080035B0A96CC9060DD43968002C0CBF80224FF4BB
S315080035C080720840104204D1FFF775FF002089F881
S315080035D00200414699F80220304602F0EDFE00202E
S315080035E089F8020001E0FFF766FF002C0CBF0120F6
S315080035F002202861BDE8F18F2DE9F84FC34CCB4E68
S315080036002068216CDFF828A3DFF8FC82DFF828930E
S3150800361001EA000534E040B14878C00605D4C5483B
S31508003620016800228F2002F0E4FD280608D50FB9AC
S31508003630FFF741FF02F045FE802025F08005206057
S31508003640E80509D50FB9FFF736FF02F03AFE4FF441
S31508003650807025F480752060680407D50FB9FFF7D8
S315080036602AFF4FF4804025F480452060280407D5BA
S315080036700FB9FFF720FF4FF4004025F400452060FE
S31508003680002D00F094800027280706D50020FFF7B4
S3150800369069FE082025F008052060E80606D5012001
S315080036A0FFF760FE102025F01005206005F0600089
S315080036B0602803D1B06CC0050AD401E0A80605D578
S315080036C02020206025F02005002006E0680606D5A3
S315080036D04020206025F040050120FFF7F6FEE804AB
S315080036E013D54FF48050206025F48055D9F800B0E2
S315080036F00820C9F80000D9F80400000548BF00F002
S3150800370065F91FFA8BF0C9F80000E8078DD56D0832
S3150800371001206D00206000F057FF08B3FEF7B6FDE4
S31508003720074601F015FB3223844AB169B7FBF2F26A
S315080037305A4312012F323023B2FBF3F251188AB2E0
S315080037407262090C31620221A160A16C41F002018A
S31508003750A16401F013FB0021032000F0F9FE012704
S3150800376098F80000002806D000F059FC012807D177
S315080037709AF8000000283FF458AF714800780428EA
S315080037807FF453AFF068400800F001008A2101FB7E
S3150800379000810831002814BF7268326812B922689D
S315080037A0D204F7D5002814BF7068306833E70020C4
S315080037B02060BDE8F18F634800687047F0B504469D
S315080037C00D4689B00021032001F030FA04AE1BE053
S315080037D0002701F046FA26F8170001F042FA00A978
S315080037E021F817007F1C082FF3DB04A802F076FFE8
S315080037F000202080218836F810205140401C0828D7
S315080038002180F7DB6D1EA41CEDB2002DE0D101F07E
S3150800381064FA012009B0F0BD0321022001F006BABE
S315080038204FF6FF71081A292190FBF1F03A3040B2A1
S31508003830704738B501F015FAFFF7F2FF424D044616
S315080038402878B0B90321032001F0F0F93F48018830
S3150800385002237F2200A8FFF725FC01F002FABDF833
S315080038600010401880B2FFF7DBFF1538687001209A
S31508003870287001F032FA6878201A40B232BD80B555
S315080038800321022001F0D2F9BDE80140D1E770B565
S315080038902F480078002490B9FFF7F1FF204E05461F
S315080038A0707848B13078401B40B202F020FF0B28F0
S315080038B005DB3570012402E0012035707070204662
S315080038C070BD24480078704722490A78904200D192
S315080038D0704780B5087040B11F4900200860094844
S315080038E0016821F08001016001BD00F05AFC00F07A
S315080038F030FC00F0E2FBBDE8024000F0C6BB000069
S315080039000020004084200040E82B002000A0004052
S315080039104C100040A5260020D01000408020004012
S31508003920E42F002008A00040A42600202020004004
S31508003930DC2B0020E42B0020B820004090D00300A8
S315080039400F28002038200040E22F0020321E0108F0
S3150800395010280020E62F00205410004010B50D480E
S31508003960018884B00A237F2200A8FFF79BFBBDF8D5
S3150800397000004FF6FF74A04204D14E210FF2180042
S3150800398001F002FABDF8001022460020FEF701FDFC
S315080039901FBD00002C1E0108616E616C6F6775659E
S315080039A02D66696C7465722E63000000DFF8FC07EB
S315080039B0007848B1DFF8F8070179012904BF407992
S315080039C0042801D10120704700207047DFF8E4077A
S315080039D0016821F480510160DFF8DC07017881B1C4
S315080039E000210170DFF8D4170A68520852000A60ED
S315080039F00A6842F001020A6000228168402002F04B
S31508003A00F8BB7047010603D54FF67F710840C00022
S31508003A107047491C800189B2B0FBF1F080B2FF28DB
S31508003A208CBF0020C0F1FF00C0B2704738B5DFF880
S31508003A308807C17809B1002032BDDFF88847617868
S31508003A4071B1E178007945182079ADB2854228BF71
S31508003A50054602F065FE0121A940491E084000E01E
S31508003A60002061790818C0B232BD2DE9F047044636
S31508003A70C00705D54FF4BE710FF2C87001F084F97E
S31508003A80DFF84457286DC00748BF8C2000F18280B4
S31508003A90DFF82407DFF82C7700210170417829B96F
S31508003AA0397819B1A96F41F0010102E0A96F4908F7
S31508003AB04900A967DFF8F8867A7898F80610DFF8DB
S31508003AC00C97DFF80C6792B1002202710129286D64
S31508003AD040F00400286506D14FF6FF7030604FF4B9
S31508003AE00070C9F80000FFF7A1FF82460CE0286DB8
S31508003AF020F00400012928654FF0000A04D100F0DF
S31508003B0052FA6420FFF7EEF9A86F20F00800A867BC
S31508003B101420E864C5F848A0787838B198F8060003
S31508003B20002801BFA86C00280120A864B8790028DD
S31508003B30286D14BF40F0080020F008002865FFF73C
S31508003B4035FF18B1306C40F0080030642020286238
S31508003B506C602C604FF4E06468687F30686004200D
S31508003B602862DFF87006046006E002F0E9FD18B185
S31508003B7002F0EEFD01F0ECF8DFF85C06006800F0F4
S31508003B8003000328F1D0C9F80040286D40F0010071
S31508003B9028650020BDE8F087DFF84006002141606F
S31508003BA08160016821F0020101604FF00070DFF8C2
S31508003BB0301608600120DFF82C1608707047A0F14F
S31508003BC03301DFF82426914200D3704710B5DFF899
S31508003BD0144600212170FEF70AFF02E0012002F0D8
S31508003BE0C5FD20780028F9D010BD2DE9F84FDFF87B
S31508003BF0FC65DFF8C4557068716CDFF8CC75084051
S31508003C001FFA80F8C6F804806878002840F0DD803E
S31508003C105FEAC870DFF8D845DFF8A89553D5D7F816
S31508003C2000A0386C796C41EA004199F80000A96057
S31508003C30002844D09AF80100800640D50120287053
S31508003C404FF480503060306C40F480503064FFF799
S31508003C50ADFEC0B31920FFF745F94FF44040DFF831
S31508003C6094B5CBF82800DBF800000090E06E40F42D
S31508003C700050E066E06E40F48050E0669AF8001066
S31508003C80A8684901B83101EB000AFFF794FDAAEBD1
S31508003C9000000003000BFFF792FFE06E8009800129
S31508003CA0E06600A9E06E09880843E0660020CBF8C4
S31508003CB0280048F26070E066E888206003E0002289
S31508003CC0002002F096FA5FEA08600CD5287830B131
S31508003CD0002028700022A968402002F08AFA306C79
S31508003CE020F4805030645FEA486008D5687830B9B7
S31508003CF0FFF761FD01460022892002F07AFA5FEAA1
S31508003D00C86054D5DFF8A8A4DFF8C0B49AF8040050
S31508003D10012804BF9AF8061001291FD100F068FB94
S31508003D20386F40F00100386700208AF80600FFF770
S31508003D30BFFA0A20FFF7D6F84FF6FF7070604FF00B
S31508003D4000084FF4E060CBF800000920B8660120AF
S31508003D50B864B86F40F00800B86718E0297999F890
S31508003D600220491C2971C9B2914215D2012808BFFF
S31508003D7000F0DCF8B86F20F00800B8671420B866C1
S31508003D80FFF754FEB8644FF40070CBF80000386DA6
S31508003D9040F0010038650AE0012808BF00F0C6F8BF
S31508003DA0FFF709FD014600228D2002F022FA5FEA9C
S31508003DB008700AD5FFF7FAFD38B12068E8800120B7
S31508003DC02060706C20F0080070645FEA88600AD58D
S31508003DD020203862687830B9FFF7EDFC01460022EA
S31508003DE0882002F006FA687820B118F4407F04BFEC
S31508003DF00120A870BDE8F18FDFF8B813002808681D
S31508003E0014BF40F4404020F440400860704770B545
S31508003E1082B00546FEF77CFCDFF8E403DFF89C4336
S31508003E20002101601521E160092101651F2141601A
S31508003E3001210166DFF8C4030088FEF7EEFAFFF7F2
S31508003E405FFA02F0BDFF00F03BF9DFF864633089E2
S31508003E5000F063F9708900F068F900F079FF61688D
S31508003E6041F04001616000F089FF707800F0F9F8D0
S31508003E70B07800F00AF9DFF88C03007800F037F91B
S31508003E80DFF8840390F90000FEF781FC307800F033
S31508003E9054F996F9030000F05CF9DFF8700300F0B6
S31508003EA07AF9BDF80000DFF86813C0054CBF00209A
S31508003EB0BDF800000870DFF85C030078FEF72AFCFE
S31508003EC028B10FF280304FF4707100F05DFF012DBC
S31508003ED005D12068C00711D500F028F80EE06DB9A5
S31508003EE02068C0070AD400F083FA206840F0010071
S31508003EF02060C820FEF7F6FF0020B071F120DFF839
S31508003F00D052286440F2F910E86300F05DFBFFF731
S31508003F1073FFFFF7CDF92068C00704D54FF6FF7089
S31508003F20286000F06DF8FEF7FDFE73BD70B5DFF88A
S31508003F30E852DFF87C422E68A079012832D000F0DA
S31508003F4007FF48F2D00129606A68520509D548F288
S31508003F5022022A606A68D205F5D529606A6852077E
S31508003F60F1D4B6B2DFF86C222E604FF4E06111602E
S31508003F70DFF884120A6A520852000A620A6852086E
S31508003F8052000A600A6842F002020A604A6A42F06F
S31508003F9001024A620121A17100F0F0FEBDE87040FD
S31508003FA000F0DEB970BD70B5814CA07938B300F069
S31508003FB01FFA00F0CDFE0546DFF86012804E01209C
S31508003FC00860306D40F0010030650020A071FFF7F1
S31508003FD06FF920203060306B40F002003063F06DDE
S31508003FE040F00800F065284600F0C8FE0A20FEF7F3
S31508003FF079FF77494FF6FF70086000F001F870BD49
S315080040004FF4E060714908607047694880797047E5
S3150800401067480079012808BFFFF788BF70476448DA
S315080040200079704780B5022801DB012002BD60498E
S3150800403008718979884205D010B9FFF7B4FF01E005
S31508004040FFF774FF002002BD75480068800200145F
S315080040509A3801B211F1800FB8BF6FF07F0040B2F5
S31508004060704710B5044600F073FE6E490A68002CC6
S3150800407004D042F012020A60012103E022F0120283
S315080040800A6000214A4A517040E038B5044600F0FB
S315080040905FFE0546FFF715FC40B962480168002C2B
S315080040A014BF41F0800121F080010160404884700E
S315080040B02846BDE8324000F061BE3D48807870472A
S315080040C059494A780B78594803EB022202608B78E3
S315080040D0CA7803EB022242600B794A7903EB022283
S315080040E08260CA79897901EB0221C160704710B5EF
S315080040F0044600F02DFE4B490A68002C14BF42F016
S31508004100200222F020020A603E490C70BDE81040E9
S3150800411000F034BE2648008970472549088144497D
S3150800412008607047224840897047214948814149BB
S315080041300860704740480078704720490A68002898
S3150800414014BF42F0020222F002020A6018490870FF
S31508004150704738B504467F2C0AD1384800F01BF85A
S31508004160BDF80000C00554BFBDF800406FF04A0412
S3150800417000F0EEFD0546FFF7A4FB30B964B204F182
S315080041809A0080052E49000C08600948C470284624
S3150800419000F0F4FD31BD018802237F2200A8FEF756
S315080041A081BF034890F9030070470000E02F002004
S315080041B00A28002040A00040DC2B00208020004078
S315080041C0302000404C2800201020004000E100E08C
S315080041D004A0004080E100E0A820004010E000E0D4
S315080041E004ED00E0E12F0020CDFF070000A000400D
S315080041F064100040E410004060200040B42600200F
S315080042005C100040DF2F0020A82600204E1E010863
S31508004210BE2F0020A42600201C10004028100040B5
S315080042200C10004084200040002B002098200040FD
S31508004230942000409020004009280020501E0108C4
S31508004240541000407068792D636F6D6D6F6E2E6324
S315080042500000000038B50120FEF77BFC0020FEF7C1
S31508004260D9FDDFF89C44206840F008002060FEF77E
S3150800427014F8FEF7BFFDDFF88C14DFF88C040A7813
S31508004280C2604B78DFF88424D3608D78DFF88034F9
S31508004290DD608D890560CD894560088A1060488A89
S315080042A05060888A1860C88A586000F059F82068F3
S315080042B020F010002060FDF7A9FF03F0EBF803F0EB
S315080042C055F9FEF7DDFCFDF7E6FFBDE83140FEF7E0
S315080042D013B840F2016003F04BB9F0B50B68DFF88C
S315080042E038440F256468960005FA06F6344215D058
S315080042F0002606EB820724FA07F7FF070BD5B70057
S3150800430005FA07FC23EA0C0330F812C005FA07F78A
S3150800431007EA0C073B43761C042EEADB0B60F0BD6C
S31508004320F0B50B68DFF8F043FF256468D600B540A2
S315080043302C4213D00025012605EBC20724FA07F7FD
S31508004340FF0708D506FA05F7BB43175C06FA05FC0E
S315080043500CEA07073B436D1C082DEDDB0B60F0BD2F
S3150800436010B50021002000F0F3F8DFF8AC03C1789F
S3150800437001F0FD01C170C90704D5DFF8A0234FF489
S3150800438000411160406800282ED000F073F8201D07
S31508004390FFF7C6FF0122DFF88813201DFFF7C0FFCD
S315080043A00222DFF88013201DFFF7BAFF0022DFF88C
S315080043B0581300F01AF80122DFF8581300F015F820
S315080043C00222DFF8481300F010F80322DFF858132A
S315080043D000F00BF80422DFF8381300F006F804F1B1
S315080043E01800BDE8104049E010BD04F1180074E754
S315080043F038B5DFF82443E07840F00200E070C007E3
S3150800440009D5DFF818034FF40045056000F0DFF81A
S31508004410DFF8180305606068002827D000F02AF83E
S315080044202046FFF77DFF0122BD492046FFF778FFAA
S315080044300222BC492046FFF773FF0022B24900F06A
S3150800444016F80122B34900F012F80222AF4900F02B
S315080044500EF80322B44900F00AF80422AC4900F029
S3150800446006F804F10C00BDE8384007E031BD04F158
S315080044700C0032E7A34CAE49002270470522AD492D
S315080044802BE70320FEF702BF10B503F07EF90446BA
S3150800449003F07FF9C0B208B9012C07D1072C11D84F
S315080044A0DFE804F004100608080A0C0E002010BD08
S315080044B0092010BD022010BD032010BD0B2010BD21
S315080044C0062010BD44F0800010BD10B5924C6078EF
S315080044D0A17800F0010001F00101084317D0E06857
S315080044E048B1A078000706D5E16808208847A07873
S315080044F000F0F700A070A06848B16078000706D5FC
S31508004500A16808208847607800F0F7006070BDE869
S315080045101040DDE02DE9F04100F03DF87E4F804681
S315080045203878A0B15CB9787800281CBFB86800282C
S3150800453005D07878400602D5B96840208847BD601E
S315080045407878A0421CBF7C70FFF7BFFF00261CE0EE
S315080045502DE9F04100F01FF86F4F80463878A0B17A
S315080045605CB9B87800281CBFF868002805D0B87868
S31508004570400602D5F96840208847FD60B878A04211
S315080045801CBFBC70FFF7A1FF0026404600F0F6FBF3
S315080045903046BDE8F08104460D46012600F0D8BB3A
S315080045A010B5040007D100210020FFF7D1FF002134
S315080045B00846FFF7AFFF584804702046FFF71CFC73
S315080045C000F086F8002010BD53480078704752491D
S315080045D05948C978C90705D54FF40041C160082173
S315080045E0016075E00821016070472DE9F0414A4CE9
S315080045F0514F0646E07800F0010131434FF4004878
S3150800460008D00021B9654549C1F8008008213960FC
S31508004610C7F80C8000F0FE003043E07000F098FB0D
S31508004620002E3C49374D0A6822F4704214D042F4F1
S3150800463000420A608A6822F080028A60082100F037
S3150800464041F801F07F012970082100F035F801F0E2
S315080046507F012971602113E042F480520A608A685A
S3150800466042F080028A60012100F02CF841F08001B6
S315080046702970012100F020F841F0800129710021FC
S31508004680B96507212D4A116000F078FB7EB1072035
S31508004690FDF727FE401E8041C00F2872E07880078C
S315080046A007D500F015F82148C0F8008001E000F0B1
S315080046B00FF80020BDE8F0816A8B61F30F326A8338
S315080046C029797047EA8961F30F32EA8129787047B8
S315080046D080B511480178C078C0070BD50720FDF7CB
S315080046E0FAFD00B101200749097AC0B2884208BF1D
S315080046F0012000D00020BDE80240FFF7E5B8000021
S3150800470000BC0040A427002000B0004000B40040D0
S3150800471000B8004004B00040C02B002080E100E053
S315080047200CB400400CB8004004B4004000E100E0BE
S315080047300CB0004004B8004014A8004018BC004063
S315080047402A490A68920992010A600A6810430860B1
S315080047504FF4004126480160002101606420FEF7FD
S31508004760C1BB2DE9F047234D204FD5F80090224CC8
S315080047708046286840F400402860386820F4805055
S315080047803860207868B162781C48A17800EB82020C
S3150800479000EB880012F82A2C10F82A0C891A4618F9
S315080047A002E0012020262070B0B2FFF7C9FF0FF201
S315080047B0500A02E0B0B2FFF7C3FF386B042805D0F1
S315080047C0386B400754BF761E761CF3E7F86A38B193
S315080047D084F80180A6701FFA89F02860BDE8F08782
S315080047E040F22111504600F0CFFAE6E7D01000401B
S315080047F0181000401C100040D1290020C8280008C5
S31508004800616E616C6F6775652D76636F2E63000048
S3150800481081014FF4FE5289B20C20FDF7BABD2DE98D
S31508004820F84F8F4CA56820680127ADB200264FF0D7
S315080048300A08B9461FFA80FA00F04FFAB02020633A
S31508004840DFF820B208E016F1190FB8BF4FF00A08D2
S31508004850464436B27019A060DBF80000000702D59E
S3150800486059EA070028D00120FEF73CFBB9F1000FF2
S3150800487011D0AAF10300874202DAF81C87B213E0C6
S315080048800AF50040206057460621092000F0CEF9B7
S315080048904FF000090BE0DBF80000000707D5042FEE
S315080048A0A6BFF81E87B2002707F5004020601A2E1B
S315080048B0C9DB6FF00908CBE7A560C4F800A008209B
S315080048C0CBF800006848006880B2BDE8F28F80B572
S315080048D0624B66491B784FF0FF326BB1002819BF4F
S315080048E04A606348486041F211100860614841888F
S315080048F00088BDE8044092E7002819BF4A600A60AC
S315080049004860086000F0E9F9BDE80440062109207E
S3150800491000F0DDB938B50120FFF7D9FF04460020BD
S31508004920FFF7D5FF05460120FFF7D1FF4042001BE0
S3150800493000EB450000B232BD2DE9FE4F4E4CDFF8C4
S315080049403C81A06A454EADF802002568D8F800B04B
S31508004950307860B14FF6FF7200210820FDF712FD8E
S31508004960ADF80000C022C0210820FDF712FD44481A
S31508004970DFF81091007818B148F26070C9F80000A5
S31508004980708840F4404040F04C00C9F83C000220D2
S31508004990A0620120206040F24C40FEF7A3FA0120F5
S315080049A0C8F80C00C8F800000020324F38804020B4
S315080049B07880307800B12020FFF72AFFFFF7AAFF9A
S315080049C08246402038807F207880FFF721FFFFF756
S315080049D0A1FF0290504601F08AFEFE2101FB00F776
S315080049E00298AAEB00000190307860B1029801F0B5
S315080049F07EFE8246019801F07AFE80B207EB8A11A4
S31508004A00B1FBF0F005E0019801F071FE80B2B7FB4A
S31508004A10F0F080B2401CC7031FFA8BF0C8F80000FC
S31508004A20ADB20020C8F80C00022020602560BDF851
S31508004A300200A0620020C9F83C00307830B1BDF809
S31508004A4000104FF6FF720820FDF7A3FC40F24C4019
S31508004A50FEF748FA380CBDE8FE8F0000A0260020B5
S31508004A60C010004018A000400070004038100040F8
S31508004A70EEEEFFFFA42F0020602000402810004023
S31508004A80A5260020D010004041003F2289B201E04F
S31508004A9001463F220220FDF77CBC2DE9F04F564C1B
S31508004AA0564D95B0E06CADF810004FF6FF782068CB
S31508004AB0ADF80E004246E86AADF80C000021012068
S31508004AC0FDF760FCADF80A00424600210B20FDF711
S31508004AD059FCADF808004FF400402060002028611A
S31508004AE0686148F2020000F08BF84CF68C30E064FE
S31508004AF04FF4805248F2F000E86211460120FDF7B3
S31508004B0048FC424600210B20FDF743FC06210620FF
S31508004B1000F0DDF8019000F085F800904CF69C3026
S31508004B20E0640020FFF7B0FF0621084600F07EF893
S31508004B3000260DF1140BB0B2FFF7A6FF06210620DA
S31508004B4000F074F800F08DF82BF81600761C202E6D
S31508004B50F1DB00F086F81020FFF796FF00F062F808
S31508004B600099019A401ABBF82010891A404301FBA4
S31508004B7001094FF0100A112700F04EF800F052F81C
S31508004B8000F043F806DB81461FFA87FA781C07B25D
S31508004B90202FF1DBBAF1100F0ED10F2700F03CF8E9
S31508004BA000F040F800F031F806DB81461FFA87FA74
S31508004BB0781E07B2002FF1D5BDF81000E064424612
S31508004BC0BDF80E002060BDF80C00E8620120BDF8B3
S31508004BD00A10FDF7DEFBBDF8081042460B20FDF76C
S31508004BE0D8FB01202861002000F00AF84FEA4A00A5
S31508004BF0C0B215B0BDE8F08FC010004018100040D4
S31508004C00286040F24C40FEF76DB90099401A4043BF
S31508004C1006FB0600484570473BF817000199461AF7
S31508004C20B8B231E70621072000F051B870B505463D
S31508004C300E4600F093F83F4C206C20F008002064E4
S31508004C4000F09AF800F084F8310341EAC5113A4AAF
S31508004C5041F00101116008212160BDE8704000F0B3
S31508004C608DB82DE9F041354C354D324E25E000F032
S31508004C7075F8344904200860306C40F00800306448
S31508004C802F68286840084000286000F06DF8D4F8BE
S31508004C900080206820F04000206000F061F8C4F829
S31508004CA000802F6000F060F8306C274920F008007B
S31508004CB030640420086000F05FF830680007D6D535
S31508004CC0082030602148006880B2BDE8F08180B5D0
S31508004CD0FFF7ACFFBDE80140C3E71748016849087C
S31508004CE0490001607047F8B50746FEF7BBF8044669
S31508004CF039460320FFF7EBFF054639460120FFF743
S31508004D00E6FF0646FDF73DFB39460020FFF7DFFFC5
S31508004D100746FDF735FB0848016849084900016060
S31508004D20781B0004711BB0FBF1F060434000000CD7
S31508004D30F2BD000018A0004004700040008000404A
S31508004D4094ED00E000E100E080E200E00070004041
S31508004D50EFF31180602181F31188704772B67047AE
S31508004D6000BF30BF00BF7047BFF35F8FBFF34F8FE1
S31508004D70BFF36F8F7047000062B6704780F31188E3
S31508004D807047000042DE704738B504460D46FDF709
S31508004D908DFAFFF7DDFF2946204602F030FD2B4647
S31508004DA022460FF2CC11012003F068F82946204666
S31508004DB0BDE83440E6E72DE9F84F6548654D0168DA
S31508004DC02E1D4FF4206A7165016AB165624909684A
S31508004DD0F165416A3166816A7166C16AB166016BBD
S31508004DE0F166806B306796F8340040074CBFF76B66
S31508004DF0B76BBB4602F059FC0022584CDFF86081BD
S31508004E00DFF86091F2648742014624BFA4F12003CB
S31508004E10BB4231651DD357F8180F306457F8040F95
S31508004E207064706DC005C00D062815D1306C4845F4
S31508004E3012D3404510D200884DF6426290420BD1FB
S31508004E4005F18C006A68426040F2017A72688260F5
S31508004E5002E03264726483464348814202D20146C4
S31508004E6000E0091DA14203D20B68B3F1CD3FF8D08B
S31508004E70601AB064182105F1780003F093F8002051
S31508004E8003E0C0B205EB80029167A34523D254F82C
S31508004E90041D4945F9D34145F7D2CA07F5D500227D
S31508004EA005EB82039B6F8B4203D0521CD2B2062AB3
S31508004EB0F6DB062AE9D1002814BF401E0520E0E7E4
S31508004EC0716F002205EB8203521CDF6F9F67052A6C
S31508004ED0F8DBC5F88C100146481EC9B20029EFD187
S31508004EE0706DC005C00D02280AD0032815D0042805
S31508004EF016D0052817D0062818D00C281CD01EE076
S31508004F001A480168890748BF40F6021A1CD4006887
S31508004F10C00719D540F2025A16E040F6012A13E0F6
S31508004F2040F6022A10E040F6032A0DE0BAF5206F93
S31508004F300AD140F6042A07E040F6052A04E018B12B
S31508004F40242838BF40F6072A5046BDE8F28F0000ED
S31508004F5004ED00E00000002000E300E0A0260020A9
S31508004F601C1A010890210008980000201CA0004087
S31508004F700D0A5B4153534552543A25703A25645DF0
S31508004F800D0A0000814233D210185118401E491EDE
S31508004F9010E011F8013900F80139121F11F801392A
S31508004FA000F8013911F8013900F8013911F8013909
S31508004FB000F8013992B2042AEBDA92B2002A1EBF2F
S31508004FC011F8013900F80139521EF6D1704711F867
S31508004FD0013B00F8013B121F11F8013B00F8013BA9
S31508004FE011F8013B00F8013B11F8013B00F8013BC1
S31508004FF092B2042AEBDA92B2002A1EBF11F8013BDC
S3150800500000F8013B521EF6D17047130003D00A463A
S31508005010194602F0CBBF704710B500E0521E92B297
S3150800502022B100F005F8F9D0181B10BD002010BDFC
S3150800503010F8013B11F8014BA34270474148018A19
S3150800504040F6A772914202BF408A4FF47F41084258
S3150800505003D1022801DB01207047002070472DE9A3
S31508005060F84F82468846FFF773FE374D2F68044689
S315080050702868400840002860FFF776FE0120DFF820
S31508005080C0B08BF80000FFF7D9FF20B9FE210FF258
S31508005090BC00FFF779FE2B48D0F8289041464AF421
S315080050A08070C84706462F60FFF75EFE2046FFF76A
S315080050B065FE00208BF800000FF298040EB1305DF3
S315080050C004E041464AF40070C847005DBDE8F28F27
S315080050D02DE9F84F804689464FEA420AFFF738FE1F
S315080050E0194E376805463068400840003060FFF7BB
S315080050F03BFEFFF7A3FF28B940F241110FF24C001F
S31508005100FFF742FE0F48D0F824B00023524649461E
S315080051104046D84704463760FFF726FE2846FFF77D
S315080051202DFE0FF230050CB1605D05E053460022F6
S3150800513049464046D847405DBDE8F28F000000006A
S31508005140D62F00200000040894ED00E0666C617319
S31508005150682E6300000202024B4B46472DE9F04FCA
S3150800516089B0804621252122FF2100A8FFF74DFF9F
S31508005170DFF8ACA09422FF215046FFF746FF002730
S31508005180284CDFF8A490294EB85D17F809B0395DA8
S31508005190401C00EBD070401001B11930401C00FBD8
S315080051A00BF2234830F817100FF2880092B202F07B
S315080051B031FFBBF1010F1CBF2AF817505D447F1C55
S315080051C0212FE1DB0FF28800212340F21C4240F236
S315080051D0BD2102F01FFF0FF2A8054FF4E04000F0D2
S315080051E00DF918B1CA212846FFF7CEFD4FF48040C5
S315080051F000F004F918B1CC212846FFF7C5FD4FF495
S31508005200805000F0FBF818B1CE212846FFF7BCFD08
S3150800521000A9404600F01FF909B0BDE8F08F00006C
S31508005220EC2E0020CC1A0108141B0108F01A0108FC
S31508005230881A010843726561746F723A20307825BE
S3150800524032582C20576F7264733A2025640A00007E
S3150800525053696D454520646174613A202564207759
S315080052606F726473206F66202564206D61782C2028
S31508005270746F6B656E436F756E743A2025640A0009
S3150800528073696D2D656570726F6D2E630000000081
S3150800529010B5DFF8B44ADFF8B43A2488001B06E0F4
S315080052A010B5DFF8AC4ADFF8A43A24681B1B03EBF9
S315080052B04000002304E030F8134021F813405B1C3B
S315080052C09342F8DB002010BD2DE9F04182B0044678
S315080052D00D4616460027DFF8748A01E0B81CC7B2E7
S315080052E0B74217DA7819795D4078DFF85C3A1B8897
S315080052F001EB0020ADF80000012207EBD77004EBA4
S315080053006000C01A00F09BFB0028E7D002F096FE6A
S31508005310002000E00120BDE8F681F8B504460E46F7
S31508005320154600270DE000F019F8BDF8000004EB5B
S315080053304701000A4870761CBDF8000004F81700FB
S315080053407F1CB7EB550FEEDBE80706D500F006F82D
S31508005350BDF80000291901F8010CF1BD012200A9C8
S31508005360B0B295E7DFF8E029DFF8E0191288801A6D
S3150800537001EB40010220FFF772BEDFF8D819DFF80B
S31508005380D829415C825CDFF8D439C05C10B102F5DB
S31508005390997292B241EAC21080B2704710B5DFF82E
S315080053A0C039DFF8B04903EB4002005D012801D19E
S315080053B0104610BD1088081803EB400010BD38B51C
S315080053C00C46DFF8A0190D782A462146FFF760FF3C
S315080053D0208800281CBF4FF6FF7188420AD001209A
S315080053E000E0401CC0B2A84206D234F81010228849
S315080053F09142F6D0002032BD012032BDF0B5DFF86B
S31508005400501987B008600C2200A90020FFF748FF52
S3150800541000A90025C88A8A890346040A01204FF68E
S31508005420FF7631F81570BDF800C0BC4503D1B74208
S3150800543018BF002F00D100206D1C062DF1DBB21A13
S31508005440944518BF0020DBB2C4F1FF018B4218BF98
S31508005450002007B0F0BD2DE9F24F0446DFF80869D1
S315080054600020307070809CB0DFF800090088ADF825
S31508005470020007A9FFF7A3FF83460120707009A958
S31508005480DFF8EC080588DFF8EC08B0F80080DFF8EC
S31508005490B808BDF802A007883846FFF790FFB8B1EC
S315080054A0BBF1000F3CD0BDF81C10BDF824004FF628
S315080054B0FE72914202D1012804D10CE0012908BFED
S315080054C090422DD00846BDF82410884228D202E022
S315080054D0BBF1000F23D00020707002975046069546
S315080054E0CDF810800122DFF87C1891F8008040443E
S315080054F0ADF8060000A9BDF80600FFF7C9FEDFF8FB
S315080055007808008805904FF6FF79BDF80000000B73
S31508005510404518BF0F2800D10CB3002516E001241A
S3150800552070780028D9D03846CDF808A0CDF818806C
S315080055300495D7E7059805FB00F4E01900F02AFC66
S31508005540BDF80200201800F025FC6D1C4545F1DB6E
S31508005550012030704D2002F071FD0025FEE0BDF8F7
S315080055600650012201A92846FFF792FEBDF804005D
S31508005570C043C0B2ADF804006F1CDFF80008058808
S31508005580BDF80400A84218BF01244FF0000A20E025
S31508005590401CC1B2A94218D2C0B2DFF8E417BDF860
S315080055A00E20834631F81B109142F1D1FFF7E5FE34
S315080055B04FF680710840BDF80C104FF68072114006
S315080055C0884204BF1C980BF800A00AF101001FFAD4
S315080055D080FABDF80400824507DA022203A9B8B2A8
S315080055E0FFF756FEBF1C0020D3E7002001E0401C51
S315080055F080B2A84217DA1C99415C8142F7D001248F
S3150800560011E02AF81070BDF8060000EB4300401CB4
S3150800561000F0D5FABDF80200C0F3C710401C00EB35
S31508005620D07007EB60070498DFF834A7BFB287424B
S3150800563011DA012200A93846FFF72AFEBDF8000054
S31508005640484508D0030A00F07F01BDF804007F1C16
S31508005650834202DB012400252FE0002001E0401CE4
S3150800566080B2A842CFDA1C9A825C9A42F7D1C0B2BD
S31508005670FF28C8D0DFF8DC26825C7F290CBF4FF0F4
S31508005680000C8C4694450BDABDF800C0DFF8CCE672
S3150800569010F80EE04FEA0C6C4FEADC7CF44501D0BA
S315080056A00124B0E7012AACD07F293AF8100008BFD8
S315080056B000210818A5E76D1CADB2DFF8C8060088FA
S315080056C0854204DA3AF815004845F4D10124778072
S315080056D00498BDB285420ADA012200A92846FFF7D6
S315080056E0D7FDBDF800006F1C4845F1D032E7002C05
S315080056F0FCD1029801220BA980B2FFF7C9FDBDF8BB
S315080057002C0048450DD105E0401C80B2202813DB4B
S315080057102034A4B20699029A891A8C4205DB012024
S31508005720307000201DB0BDE8F08FA51820220BA907
S31508005730A8B2FFF7ADFD00200BA931F810104945B6
S31508005740E2D0A8B2FFF70EFE203CA4B2E0E702982A
S31508005750059905FB010000F01DFB6D1C4545F6DBB0
S3150800576001203070494600F042F818B100F02CF9D3
S315080057700028D6D10120D5E72DE9F0420F46DFF8FB
S31508005780FC15DFF8D45509888F4204461646994613
S315080057900CD2DFF8C015795C30467F2808BF002098
S315080057A0884203DA785D814500D11CB940F2D641BA
S315080057B000F001FA31463846FFF7F0FD0188DFF8B8
S315080057C09C05385C60B1384600F02AFA795D0129F3
S315080057D008BF207009D0022914BF2060208004E089
S315080057E04A462046BDE8F04297E5BDE8F0822DE935
S315080057F0F34FDFF85405DFF86C150488DFF8680501
S315080058000978407883B000281ABFDFF86005008859
S3150800581020460D18DFF864050088ADF80800ADB21B
S31508005820C043C0B200EB013000F55060ADF802008D
S315080058302B1BDFF8180500F0C8F96E1C0028B6B255
S3150800584038D10025DFF8387514E0E8B2FFF795FD82
S31508005850ADF80400331B37F81500ADF80600022230
S31508005860DFF8E80400F0ABF8002823D1B61C6D1C5D
S31508005870B6B2ADB2BDF808008542E6DB002501E008
S315080058806D1CADB2BDF80800854280F293804FF0DA
S31508005890000A1CE001220DF102011FFA89F0FFF748
S315080058A0F7FCBB19DFF8A4041B1B09F1010900F07A
S315080058B08CF9002878D17F1CFFB2B7EB1B6FE9DBA8
S315080058C0DFF8C404285C8619B6B20AF1010ADFF8C3
S315080058D0840415F800B05FFA8AFADA45D0D2514640
S315080058E0E8B2FFF75BFD8046DFF87004B8F8009071
S315080058F02F5CF80140EA0520ADF80000BBF1010F66
S31508005900BDF800000CBF40F07F004AEA0000ADF881
S315080059100000311BDFF8340400EB4100711C89B22A
S3150800592001914FF6FF7189451EBFBDF80010BDF8FD
S315080059301020914218D19DF80C100029C5D00122DB
S3150800594000A9FFF7C5FB019E70BBDFF80C04A8F899
S3150800595000602A5CDFF8340450F82510B0B2FFF76F
S31508005960B3FC0028ACD122E0DFF8EC13695C491CD3
S3150800597001EBD1714FEAC15B012200A9FFF7A8FB31
S31508005980019E88B9002FA8F8006095D04946E8B26C
S3150800599000F046F90190331BDFF8B0034FEA1B62AB
S315080059A000F00DF800288BD002F048FB002005B067
S315080059B0BDE8F08FDFF8B00346800120F7E701A9BC
S315080059C000EB4300FFF784BB2DE9F041DFF89C03A9
S315080059D0DFF894530688DFF870030488687800288F
S315080059E082B012BF204630462646012200A9FFF79C
S315080059F04FFCBDF80000DFF8548301280CBF4FF6B2
S31508005A00FE70401EADF80000DFF8580307783846E8
S31508005A10471E58B1BFB2B819001B012200F00FF893
S31508005A200028F4D002F00AFB002006E0687880F02F
S31508005A3001006870002028700120BDE8F68100A9E1
S31508005A4008EB4000FFF744BB2DE9FE4F0D46CB4956
S31508005A5009888842044617461E464FF000094FF04B
S31508005A6001080CD2BB49615C38467F2808BF002074
S31508005A70884204DAB848205C864200D11DB940F253
S31508005A80FA5100F098F839462046FFF787FC01904E
S31508005A90B54F787820B1B648B0F800A0AA4803E018
S31508005AA0B448B0F800A0B1483978008849B979886F
S31508005AB0081AB74909888842B4BF4320442002F02F
S31508005AC0BDFA01980188A548205CF8B1204600F087
S31508005AD0A7F8012E08BF297803D0022E0CBF298803
S31508005AE02968814265D001980088401E00F067F851
S31508005AF0A548265C7888AAF10101891B814201DB49
S31508005B00002835D1387858BB452044E00291CB4669
S31508005B1020E002980BEBDB7300EB630000F03DF925
S31508005B200BEB05001BF80510407801EB0020711EF1
S31508005B308B4580B205D1BDF80010C9B2C0B2ADF828
S31508005B400010BDF8001088420BF1020018BFC846C5
S31508005B505FFA80FBB345DCDBB8F1000FC3D028E061
S31508005B60BDF802100020FFF742FE10B34FF00109FE
S31508005B7078887949401C788080B2625C2946FFF7AC
S31508005B80A3FBB0B1704C7B88248870485B1E1B1B36
S31508005B9000F01BF810B102F051FA0AE0B9F1000F53
S31508005BA002D0FFF711FF20B10199788808803018D4
S31508005BB07880BDE8F78F0FF2EC10FFF7E5B8012201
S31508005BC00DF1020180B2FFF763BB01220DF102015C
S31508005BD000EB4300FFF77CBA70B582B00446002597
S31508005BE01926012200A9A0B2FFF752FBBDF8000052
S31508005BF0641C48B14FF47F41401A02D0FF3806D0E2
S31508005C0007E0681C40B276BDAD1C761EE9D168B2C5
S31508005C1076BDBDF80000C0B200B96D1CE843F1E7D7
S31508005C2038B50C46002100914B49455C2A46214669
S31508005C3000A8FFF772FB681C00EBD07004EB60004D
S31508005C4080B2FFF7C9FF002848BFC043009940B299
S31508005C50401832BDF0B5494909880446404883B022
S31508005C60254630F815608C4202D23C48285C18B9A3
S31508005C7040F23B71FFF79FFF37482D5C681C00EB2D
S31508005C80D07006EB6007B8B2FFF7A6FF322814D229
S31508005C90C107BFB207EB60002B4F2C4B3F884CBFA8
S31508005CA000214FF47F41ADF80410C01B012201A961
S31508005CB003EB4000FFF70CFA60B131462046FFF7C8
S31508005CC0AFFF00902B46401C00907F2200A920467B
S31508005CD0FFF7BAFEF7BDF8B5234C20780027002851
S31508005CE030D119480588607800281ABF1F480688E9
S31508005CF02E461C4807783846471E02281BDBFFB28B
S31508005D00B81900F04AF8BDF800000028F3D01A4880
S31508005D10008807FB006000F03DF80020ADF80000A1
S31508005D20BB190A485B1B012200A9FFF749FE48B1C7
S31508005D3002F084F906E03046FFF714FBFFB20FB90C
S31508005D40012020703846F2BD541A010800E0010807
S31508005D50E82E0020141B0108F01A0108CC1A0108C5
S31508005D60EC2E0020501A0108B42F0020581A0108FA
S31508005D70561A01085A1A0108521A01085E1A010829
S31508005D80881A0108601A0108641A0108A41D010886
S31508005D905C1A010880B2FFF7E5BA012200A980B2B1
S31508005DA0FFF776BA73696D2D656570726F6D2D692B
S31508005DB06E7465726E616C2E6300000080B502F029
S31508005DC02DFA02F054FBBDE8014002F003BD80B590
S31508005DD06B490020087100F097F900F09EF96948B0
S31508005DE00068407B022808BF03F05AF9BDE8014065
S31508005DF000F094B970B5644803F022FC0446FF2C01
S31508005E004DD003F08DFC00F00C065D4D03212046B5
S31508005E1003F067FC28700421204603F062FC6870D2
S31508005E200521204603F05DFCA870012003F016FD4D
S31508005E30204603F075FC00F00C00082803D1204624
S31508005E4002F07CFB23E00C2E1DD1204603F059FC02
S31508005E50064603F082FC805D072801BF49480068B2
S31508005E60407B022813D1287988B900F059FC0646E8
S31508005E70002000F048F906F07F00411C89B2281D71
S31508005E8003F00BFD03E016B9204604F012FB20468A
S31508005E9003F0C4F9BDE87040002003F0DFBC70BD14
S31508005EA02DE9F04180460D4600260DB9012602E08F
S31508005EB0312D08BF0025354F03F032FC0C2108426E
S31508005EC002D13978012013E00324404603F060FC30
S31508005ED0B0F5006F08D1404603F07EFC4FF6FF711F
S31508005EE0884208BF012401D005B105243978204627
S31508005EF000F052F92946404602F0B2F928B932466E
S31508005F0029464046BDE8F04101E0BDE8F08170B59C
S31508005F1004460D46164603F003FC00F00C0008285C
S31508005F2006D1324629462046BDE8704002F0CDBA71
S31508005F3070BD10B50446A079012804D1144801782B
S31508005F4041F001010170207803F0EAFB00F00C0033
S31508005F50082809D1207802F01AFB28B9607800F0E1
S31508005F60F0006070002010BD012010BD04F091B94A
S31508005F70044909680873411E8941C80FFEF752B8DB
S31508005F80D02B0020F82A002090270020D72F0020A9
S31508005F90192B002080B504F017F808B1002002BDBF
S31508005FA0702002BD0020704701207047002070470E
S31508005FB00020704710B56F486F4C0068206060601D
S31508005FC048220021FFF721F86C48216800780870FC
S31508005FD0002021680873216848730B20216888739C
S31508005FE003202168C8734FF6FE71206801824FF6B8
S31508005FF0FF71418200F094FB2168087600F090FB5F
S315080060002168487600F08CFB216888765C48216810
S315080060100078C8765B492068096881625A49097818
S3150800602080F82C10594821680068086310BD10B51F
S31508006030FCF7A6FB504C6168897B884203D008466A
S31508006040FCF796FB50B9FCF79EFB0146606890F991
S315080060500F00814204D0FCF79AFB08B1012010BD5D
S315080060606068008AFEF759F86068408AFEF75DF8AE
S315080060706068007B012818BF0020FEF738F800206A
S3150800608010BD10B5424C0020207002F081FE20B9E8
S315080060902046BDE8104003F0F5BB05F07FFA08B1CD
S315080060A002F0BAF954E080B5002000F015F828B1DE
S315080060B0002000F005F808B1002002BDFF2002BD4F
S315080060C02D480068407B02281CBF1128432801D1AF
S315080060D0012070470020704727480068007B012888
S315080060E018BF022804D003281CBF0628072801D198
S315080060F001207047002070470020704770207047C5
S31508006100002070477047704700207047012070478D
S31508006110704700207047002070477047704780B569
S315080061200020FFF7CDFF18B1BDE802400020D3E7F5
S3150800613002BD10B5040004D0E5210FF26400FEF795
S3150800614023FE0C480068482101FB04000A49486000
S31508006150BDE810406BE7084909684A690260C97ECC
S31508006160017170470449096802684A610079C8766E
S315080061707047000034270020F82A0020D32F00207B
S315080061808C2700203C270020402700204427002099
S31508006190F02A002005F075BB05F0BEBB0000000024
S315080061A0656D6265722D6D756C74692D6E65747793
S315080061B06F726B2D737475622E63000038B50446D2
S315080061C00D46012003F04AFB6D48002D12BF002141
S315080061D00178491C017003200021FEF79BF96948E4
S315080061E044706948FDF741FCBDE83240002003F0E1
S315080061F035BB38B50446402C02BF644800780028F1
S31508006200154603D000210020FEF784F9002C43D060
S31508006210402C23D0882C18BF892C44D08D2C31D003
S315080062208F2C4AD15A48007804280DD145B15949CE
S315080062300220087040F60620BDE8324005F01ABC78
S31508006240FDF7E6FE312034E0012001F0E7FEFDF718
S31508006250DFFE002D0CBF312000202AE005F03DFCB2
S31508006260FDF7D6FE46484C4900780978884204D29C
S31508006270BDE8344000210120A0E7002001F0CEFE51
S31508006280402016E0002001F0C9FEFDF7C1FE0021FE
S315080062902020FFF781FF0BE0012001F0BFFEFDF78C
S315080062A0B7FE002005E0002001F0B8FEFDF7B0FEBD
S315080062B08D20BDE8324002F0D4BDBDE83440A621A9
S315080062C03BE034480078022800D0704780B5334850
S315080062D00078042807D00C280ED131480078022807
S315080062E018BF7C2808D105F0E1FBFDF791FEBDE853
S315080062F00240002002F0B5BD01BD38B50024FEF706
S3150800630027FD05462348007810B9FDF7C0FA04466C
S315080063102846FEF733FD002C1CBFBDE8314001F0CE
S31508006320D1BE31BD80B5FFF7E8FFBDE804404FF4A4
S31508006330A0511C4803F0B1BAE2210FF27000FEF733
S3150800634023BD38B5184CA068A16C01EA0005ADB2AA
S31508006350A8070BD5A06C20F00200A064206810F0F6
S31508006360190F03D100210020FEF7F2F8680705D5BA
S31508006370A06C20F00400A06402F042FCA56031BDC8
S31508006380D72F00204C280020282B0020DD2F0020A6
S315080063900F280020182B00208D270020D82F00203A
S315080063A0D92F0020102B002000A000406D61632D1E
S315080063B0656D3235302E630070B504460D461646B7
S315080063C0FDF77BFE38B16078002E14BF40F0200040
S315080063D000F0DF0060702946204602F0A2FFFF2881
S315080063E021D0974C0146201D03F015F9954D2888B4
S315080063F02188401C288080B281420AD26888401CC5
S315080064006880201D03F01CF902F008FF2888401E4A
S315080064102880208829888842F3D3BDE870408A48B6
S31508006420007803F01DBB70BD2DE9F04FA5B082467C
S315080064300027FEF78DFC834C2188491E2180FEF734
S315080064409DFC504602F076FE90F8009081784078E0
S31508006450009700EB01201FFA80F800F0D4F8A0F1AD
S3150800646008020823D2B2514602A802F076FF02AD0E
S315080064706878FFF752FE7548007808B36068002808
S315080064801DD0E878FDF7BEFA4946FDF7C2FA074679
S3150800649095F9020000F166050020009009F1010354
S315080064A0DBB20022514604A802F057FFFFF730FE80
S315080064B063686AB2394604A89847FFF72FFE98E042
S315080064C008F0070002282DD0FF208DF8040050465A
S315080064D002F030FE00F1010B584603F03EF904467F
S315080064E0A9EB0400801E46B2002E1BD45FEA885032
S315080064F003D508F00700032810D101A9584602F071
S3150800650005FD002876D108F0070001280BD19DF873
S31508006510040004EB0B01FFF747FD20B99DF80400C2
S3150800652002F07CFE66E04A499DF804000968475C6B
S315080065304849096800F801A000F065F800F1200153
S315080065409DF80400C9B202F0FBFD9DF8040003F0B3
S31508006550E7F800F00C0004281CBFA619002470B246
S3150800656080B20090631C9DF804009BB252463946DF
S3150800657003F020F8F1199DF80400C9B202F099FF5A
S31508006580354968780978884204D3CD210FF2D000BE
S31508006590FEF7FAFB9DF8040003F0BDF8697880045D
S315080065A0800C40EA81319DF8040089B203F0B5F801
S315080065B0E878FDF727FA4946FDF72BFA02469DF8D3
S315080065C00400032103F086F8A87800F166029DF816
S315080065D00400D2B2042103F07DF89DF808209DF846
S315080065E00400052103F076F89DF804A0504602F051
S315080065F057FC0127504602F011FEFFF78FFD38467B
S3150800660025B0BDE8F08F124800681AF800007047F8
S3150800661010B50C4C618829B1C9B21D20FFF7BCFD25
S31508006620002060800D4803F00BF8FF2803D0FFF721
S31508006630FBFE0028F6D010BD084803F027B8000076
S3150800664094270020AC2B0020E82F0020DD2B00200B
S31508006650F0260020F826002038270020982700205A
S315080066606D61632D726563656976652E630000004A
S315080066700268174912BACA60426812BA8A60826802
S3150800668012BA4A60C06800BA0860704710B5114966
S3150800669080220A600623104A136007230B601368DA
S315080066A09B07FCD5002350F823405B1C24BA042B17
S315080066B08C62F8D313685B07FCD500220B6B1BBAF8
S315080066C040F82230521C042AF8D310BD00000000FE
S315080066D0383000400030004010A0004010B5044695
S315080066E00846FFF7C5FF2046BDE81040CEE700285C
S315080066F048BF40427047000081B209B94BF6EF61C6
S315080067000E4A1180000C08BF4FF6CE205080704705
S315080067100288130448BF4A4051000180104670475A
S3150800672038B5064C62212046FFF7F2FF054641F2CE
S315080067300B01A01CFFF7ECFF684032BD16280020AD
S31508006740EFF3118060288041C043C00F70470000F6
S31508006750002181F311887047012100F01F02914042
S31508006760DFF8FC25400942F8201070472DE9F04F64
S31508006770DFF8F4459BB0804660681990B8F1070FBA
S3150800678008BF4FF003080AD0B8F1080F08BF4FF04A
S31508006790020804D0B8F1050F08BF4FF00408DFF867
S315080067A0CC552868696840EA0120A96840EA014092
S315080067B000906868400703D5E06940F00200E06190
S315080067C02868400703D5E06940F00400E0610098B6
S315080067D02969C840C00703D5E06940F00800E061B0
S315080067E00020DFF88065DFF888953060B8F1010F82
S315080067F000F05B82C0F08482B8F1030F1ED005D387
S31508006800B8F1040F40F07C82606017E0D9F84000C8
S31508006810C00703D5E06940F04000E061D9F84000C0
S31508006820400703D5E06940F02000E061D9F8400050
S31508006830800703D5E06940F01000E061FEF788FAAA
S31508006840FBF741FD8DF860004FF0000BD9F84000CA
S31508006850DFF820A5DFF82075DFF820151790D9F89E
S3150800686044001690DFF81805C06C1590DFF810057F
S31508006870006D1490DFF80805406D1390DFF80005E9
S31508006880806D1290DAF800001190DAF80400109082
S31508006890DAF814000F90DAF824000E90DAF83400CB
S315080068A00D9038680C9078680B90B8680A90F8686C
S315080068B009903869089078690790B8690690F86968
S315080068C00590B86B0490DFF8BC040068096803916A
S315080068D002212160DFF8B01409688DF80410DFF88A
S315080068E0AC1409688DF80510DFF8A41409688DF84A
S315080068F006104FF0FF316162DFF864140968C904B5
S315080069000BD56968C90708D5E169C90705D531688E
S3150800691041F480714FF0010B31600121DFF840240A
S31508006920126852040ED5009AEB68DA40D20709D5E8
S31508006930E269D20706D53268EB6801FA03F31A430F
S315080069408B463260DFF818241268120410D5009AB4
S315080069502B69DA40D2070BD5E269D20702D4E2697D
S31508006960120705D532682B698B4699401143316069
S31508006970DFF8EC130968C90308D5E169090605D5E6
S31508006980F17841F008014FF0010BF17000216A68B7
S31508006990D2076A6848BF4FF480515206009AEB68DE
S315080069A048BF41F40051DA40D207009A2B6948BF24
S315080069B041F48041DA40D207E26948BF41F4004118
S315080069C0D20605D4E269920602D4E269520601D5D6
S315080069D041F01001E269120648BF41F480310840CF
S315080069E00290A520FBF766FC0120E063E069A16B35
S315080069F011B1616A0142FAD0616A014200F0F2807F
S31508006A000020E0634FF0010BF07840F04000F07092
S31508006A10FEF7A4F90D98DA49CAF834000720C9F830
S31508006A2000000F20086005F05BF81998D4496060EB
S31508006A301798C9F840001698C9F844001598C8640C
S31508006A40149808651398486512988865CD49119871
S31508006A50CAF800001098CAF804000F98CAF814007B
S31508006A600E98CAF824000C9838600B9878600A9833
S31508006A70B8600998F86008983861079878610698A8
S31508006A80B8610598F8610498B86302980860BB492C
S31508006A90039808604FF0FF30BE490860BA4800689E
S31508006AA03070BA4800687070B9480068B070626A99
S31508006AB0E06910402A69336801994B4000990B40F8
S31508006AC00106490E01F0010143EA81230106890EF8
S31508006AD001F0010143EA81030106C90E01F0010133
S31508006AE001FA02F21A4300F47C7042EA0050306060
S31508006AF0FEF72EF9FEF740F9002020609DF86000A9
S31508006B0008B1FBF7CAFBF0789E490968C90304D5A2
S31508006B10C0F3C00109B120212162D9F840108907C4
S31508006B2004D5C10744BF0221C9F80C10D9F8401092
S31508006B30490705D5C0F3400111B10421C9F80C1065
S31508006B40D9F84010C90705D5C0F3800010B1012057
S31508006B50C9F80C008A48C06C10F0E00F05D0306800
S31508006B60C00544BF0C20FFF7F7FD8548006D10F0FF
S31508006B70E00F05D03068400444BF0D20FFF7ECFD58
S31508006B807F48406D10F0E00F07D03068E968C840CC
S31508006B90C00744BF0E20FFF7DFFD7948806D10F06F
S31508006BA0E00F07D030682969C840C00744BF0F20E6
S31508006BB0FFF7D2FDBBF1000F6ED1774800680005DC
S31508006BC06AD56068800767D5B8F1040F64D06D4848
S31508006BD00068C0063DD562480068C00639D5012060
S31508006BE0307159E0BBF1000F7FF40EAFDAF81800E8
S31508006BF0624940084000CAF818006048806840F0BA
S31508006C000400886040F2072164480088884201BF72
S31508006C10624840884FF20F01884205D15F494CF21D
S31508006C203C3048804FF0010B012004F093FFBBF184
S31508006C30000F05D059494FF20F0048804FF0000B5E
S31508006C405548554940680004B06089680843B060F3
S31508006C50E0E6FBF71BFB5249B0FBF1F04FF47A7103
S31508006C6048432F303021B0FBF1F0002131714D49F6
S31508006C704A6D42F001024A650A68474B464C5B6812
S31508006C80A46844EA0343B468A34205D10B689B1A77
S31508006C901B031B0B8342F0D3F07840F08000F070A2
S31508006CA01BB0BDE8F04FFFF753BDFBF70CFB0446DE
S31508006CB0A520FBF7FFFAFEF751F8FFF749FD3A4F13
S31508006CC03E683868400840003860FEF74DF8DFF83F
S31508006CD0DCB0DBF80050DBF8000020F04000CBF811
S31508006CE00000FEF73DF8CBF800503E60FEF73CF892
S31508006CF00CB1FBF7D2FA1BB0BDE8F04FFEF73CB873
S31508006D001BB0BDE8F04F40F254410FF2AC00FEF75D
S31508006D103BB811F1010F154A08D001F0B003136012
S31508006D20C1F304235360C1F307419160002320494E
S31508006D300B601368002B04BF5368002B01D19268BF
S31508006D401AB10A6842F001020A600A6842F400723F
S31508006D500A600A6842F080020A6007E5000000003F
S31508006D6000E200E0802F00200400004008BC00403C
S31508006D7014A00040044000400050004008ED00E028
S31508006D8014A8004000E100E008B0004008B4004044
S31508006D9008B8004080E200E00C60004000000020D7
S31508006DA090D003003820004094ED00E000800040B9
S31508006DB0200000400021ACE7736C6565702E630007
S31508006DC003480188034808237F22FCF76BB900BFF4
S31508006DD0521E0108002B0020012800D0704780B5FC
S31508006DE000F0E9F8DFF81C07DFF81C27016C41F40E
S31508006DF0C04141F0080101644FF6FF71016020218E
S31508006E001160016C41F4C0610164DFF80007016894
S31508006E1041F02101016001BD70B515461E460028E6
S31508006E2004BFBDE8614004F0BBBE012836D1132972
S31508006E303CBF0FF22470095C08096422504301F034
S31508006E400F010B2903DA884006E00A2250430A4656
S31508006E50511ED2B20B2AF8DA01460120FCF76CF86B
S31508006E60E8B9300907280CBF00200220012D08BF09
S31508006E7040F0180003D0022D08BF40F0080006F0C5
S31508006E800F010229DFF88816A8BF40F004008860C1
S31508006E9001200860FFF7A0FF002062BD212062BD27
S31508006EA038B5040013D1DFF86C060468608828B189
S31508006EB040F291210FF29860FDF766FFA188C9B2EA
S31508006EC0A01D00F0A9FC0020A080208031BD01286B
S31508006ED002BFDFF83C06006801280FD1FDF738FF2E
S31508006EE00546DFF83406016841F4C05141F0040153
S31508006EF00160012000F065FA28464FE231BD0128FD
S31508006F000FD1DFF81806016811F00C0FF9D1816965
S31508006F104906FCD5DFF80006DFF8042601681140AB
S31508006F200160704780B50B46114620B9184600F037
S31508006F3073FC002002BD012802BFDFF8E80582695C
S31508006F40012A07D0212002BDC2685207FCD513F8D2
S31508006F50012B02600A46511ED2B2002AF4D1C1683A
S31508006F604906FCD5E5E770B5DFF8BC25DFF8BC3582
S31508006F7012680FE0158810F8014BAD18AC7114882B
S31508006F801D88641C94FBF5F605FB1644148094884A
S31508006F90641C94800C46611EE4B25CB19488DFF8E8
S31508006FA094552D886D1EAC42E4DBBDE87040232164
S31508006FB0002088E270BD2DE9F041DFF86C15DFF896
S31508006FC0784551F82000DFF8745500226260228166
S31508006FD0A2721026811D2E6329600023278801EBE3
S31508006FE05706A6F1010CC5F804C0AE6007EB010C04
S31508006FF0ACF1010CC5F80CC0B0F804C0BC453BD0D8
S315080070000788B4F8028007EB010E474539BFC5F873
S3150800701000E00122C5F808E00123B0F802C007889D
S315080070209CFBF8FEBEF1000F18BF4FF0010E97FB50
S31508007030F8F707B101275FFA8EFEFFB2BE450ED0FC
S31508007040C44527BF0120607201202072D2B20AB15E
S3150800705001202863DBB293B1022028630FE0808801
S31508007060804507D3002B0FBF521C01202072A07247
S315080070705B1CEBE72960AE60012020726072BDE8F8
S31508007080F0812DE9F84F0346012B79D1DFF8A424C6
S31508007090DFF8AC4432F81360DFF88C2452F823206A
S315080070A04FF4C065294214D05588B5EB560F02D265
S315080070B0676AFF0709D4B5EB560F02D3656AAD07B1
S315080070C003D4656D6D086D0065654FF6FF1529409B
S315080070D056D0656AE76ADFF86C84DFF86CA41FFA95
S315080070E087F9276B4FEA460E961D00961FFA87FB0F
S315080070F010260027A6620907ADB24FF6FF7CDFF817
S3150800710038643ED5616B616B616B616B15F4707F9A
S3150800711037D1272003F80A00717A307A084221D13C
S315080071201088718888420ED294880919081A9080A6
S315080071307088108051887088814213D291884018CF
S31508007140908017800EE0918834886118081A90801C
S31508007150178070885188814204D39188401890809E
S31508007160708810809088318888421ABF108828F85D
S31508007170130028F813C07760B77201203072707256
S3150800718051E0E90509D517884946B9423CBF378811
S315080071907918714598BF8E462427A9050CD521680C
S315080071A0009F5944C91B1788B9423CBF37887918CC
S315080071B0714598BF8E462427690609D5178849461A
S315080071C0B9423CBF37887918714598BF8E4625273E
S315080071D029060CD52168009C5944091B1488A1422C
S315080071E03CBF34886118714598BF8E46252731887B
S315080071F0BEFBF1F401FB14E11180148851888C421E
S315080072003CBF35882C19611A918003F80A70918859
S315080072103488A1421ABF118828F8131028F813C019
S31508007220BDE8F24FC7E6BDE8F18F2DE9F8430546FC
S31508007230012D40F08E80BC49C04A51F82510136BC9
S31508007240D2F820C0566ABC4CBA4FB4F804E01FFA0C
S315080072508CFCE645DBB219D0ACEB0E0EB1F8048017
S315080072601FFA8EFEF044A1F80480B1F80080C644E7
S3150800727037F815809EFBF8F908FB19EEA1F800E02F
S31508007280A4F804C04FF0010C84F808C0B6B2B4F8EC
S3150800729006C0B44517D0A6EB0C0EB1F804C01FFA09
S315080072A08EFEF444A1F804C0B1F800C037F81550B2
S315080072B0F4449CFBF5F705FB17C50D80E680012510
S315080072C065720025A57265888E88B54241D38E8879
S315080072D016B90126012511E04E8896FBF5F606B18A
S315080072E001260F887F1EBFB297FBF5F505B101256C
S315080072F0F6B2EDB2AE4229D186F00105A77A06F0BC
S31508007300010687F001073E4003F0010787F00107F1
S315080073103E420BD08E1D1660268801EB6606761D4A
S3150800732056600026A68026720126166375B19B074D
S315080073300CD4238801EB6305AD1D59189560491DCA
S31508007340D1600021E180617202211163BDE8F24338
S3150800735001E0BDE8F18338B5704C0546E06A00F0F7
S315080073606100202819D1FDF7F3FC6F49714A51F8DD
S31508007370251032F815204988B1EB520F02D223683E
S31508007380DB0705D4B1EB520F06D32168890703D56D
S31508007390E16A41F00101E16200E031BDBDE8324039
S315080073A0FDF7ECBC01280AD16148C168012904D15E
S315080073B00068800900F0010070470020704701202E
S315080073C07047012800D07047F8B5524951F8206037
S315080073D0B078F0B9B068E0B140F239610FF27010D8
S315080073E0FDF7D2FC15E0B1683960F16879604FF4B1
S315080073F00061016004203862E07AFF2818BF01F0B6
S315080074000DFF3079E07201F0FBFE0121304600F0F5
S3150800741079FBB078484C4D4F10B3B06810B9304678
S3150800742000F04EFB396A3748490702D4F96949071B
S31508007430D9D5396A090713D4F969090710D4B16887
S31508007440B960F168F9604FF480510160082038622C
S31508007450207BFF2818BF01F0E1FE30792073D2E7C0
S31508007460E07AFF25FF2808D0396A490705D4F96963
S31508007470490702D401F0D2FEE572207BFF2808D026
S31508007480396A090705D4F969090702D401F0C6FE65
S315080074902573F1BD704710B51A480168026C02EAF7
S315080074A00104046046F22970044203D0A1B2012007
S315080074B0FFF7E7FD41F6D600044203D0BDE81040C9
S315080074C001207EE710BD30B5174A1F4C52F8202020
S315080074D0055D1C4B25B9128823F81020015530BDCF
S315080074E033F8103013800155138851888B4205D222
S315080074F0104C34F81000401A181800E0581A9080FA
S3150800750030BD000008A8004000E100E05CC800406B
S3150800751054C800402828002048A8004030C8004029
S31508007520FBE7FFFF3CC80040382800209C7F000886
S3150800753048C80040481A01086828002000C80040CA
S3150800754008C80040E02E0020DC2E002010C80040AD
